:020000040800F2
:1000000048F5012081020008EF4D0008ED210008AD
:10001000ED4D0008A10600080D5D0008000000007D
:10002000000000000000000000000000C101000806
:1000300061070008000000001D020008295A00089E
:100040009B0200089B0200089B0200089B0200081C
:100050009B0200089B0200089B0200089B0200080C
:100060009B0200089B0200089B0200089B020008FC
:100070009B0200089B0200089B0200089B020008EC
:100080009B0200089B0200089B0200089B020008DC
:100090009B0200089B0200089B0200089B020008CC
:1000A0009B0200089B0200089B0200089B020008BC
:1000B0009B0200089B020008115B00089B020008DD
:1000C0009B0200089B0200089B0200089B0200089C
:1000D0009B0200089B0200089B0200089B0200088C
:1000E0009B0200089B0200089B0200089B0200087C
:1000F0009B0200089B0200089B0200089B0200086C
:100100009B020008254E00089B0200089B02000885
:100110009B0200089B0200089B0200089B0200084B
:100120009B0200089B0200089B020008A50600082D
:100130009B0200089B0200089B0200089B0200082B
:100140009B0200089B0200089B0200089B0200081B
:100150009B020008B10600089B0200089B020008F1
:100160009B0200089B0200089B0200089B020008FB
:100170009B0200089B0200089B0200080000000090
:100180009B0200089B0200089B0200089B020008DB
:100190009B0200089B0200089B0200089B020008CB
:1001A0009B0200089B0200089B020008DFF80CD0AD
:1001B00000F004FA00480047F56C000848F50120FB
:1001C0002C4B19680868B0E8F04F80F30988BFF33A
:1001D0006F8F4FF0000080F311887047000000001F
:1001E00008480068006880F308884FF0000080F33A
:1001F000148862B661B6BFF34F8FBFF36F8F00DF15
:1002000000BF00BF08ED00E0DFF80C00016841F41A
:1002100070010160704700BF88ED00E0EFF30980D6
:10022000BFF36F8F134B1A681EF0100F08BF20ED3D
:10023000108A20E9F04F106009B44FF0500080F3AD
:100240001188BFF34F8FBFF36F8F07F0C1FE4FF0E0
:10025000000080F3118809BC19680868B0E8F04F05
:100260001EF0100F08BFB0EC108A80F30988BFF3AE
:100270006F8F70471C000020EFF30580704700006F
:100280000648804706480047FEE7FEE7FEE7FEE730
:10029000FEE7FEE7FEE7FEE7FEE7FEE7F55A0008A9
:1002A000AD0100082DE9F05F0546002092469B460F
:1002B00088460646814640241BE02846414647467C
:1002C000224600F00DF953465A46C01A914110D308
:1002D00011461846224600F0F4F82D1A67EB010883
:1002E0004F4622460120002100F0EBF817EB0009F1
:1002F0004E41201EA4F10104DFDC484631462A4667
:100300004346BDE8F09F40EA01039B0703D009E0A4
:1003100008C9121F08C0042AFAD203E011F8013BF1
:1003200000F8013B521EF9D27047D2B201E000F84A
:10033000012B491EFBD270470022F6E710B5134689
:100340000A4604461946FFF7F0FF204610BD10B5D7
:10035000044604E00B7800F8013B03B1491C521E2F
:10036000F8D2204610BD421C10F8011B0029FBD119
:10037000801A704730B505460020034600E05B1C3C
:10038000934205D2EC5CC85C201A01D1002CF6D156
:1003900030BD2DE9FE4F81EA030404F0004421F052
:1003A000004100944FF0000B23F0004350EA010499
:1003B0005ED052EA03045BD0C3F30A54C1F30A557A
:1003C0002C44A4F2F3340194A0FB0254C1F31301B2
:1003D00041F48011C3F3130343F4801301FB02447F
:1003E00000FB034E840A970A44EA815447EA835784
:1003F000A4FB076802958D0A05FB07854FEA932C3D
:1004000004FB0C542705029D4FEA065847EA1637AD
:10041000B5EB08056EEB070C870E920E47EA8117C5
:1004200042EA8312A7FB0201B6EB0B0164EB000466
:100430002B0D43EA0C335E1844EB1C50DA46514650
:10044000E7FB0201C5F313044FEA0B3343EA1453ED
:100450004FEA0432019C43EA0603A4F10C0402941F
:10046000009CCDE900B400F05AF803B0BDE8F08F6D
:1004700000200146F9E70EB540F233410291002118
:10048000CDE900110A460B4600F049F803B000BD63
:10049000C1F30A5210B5C1F3130140F2FF3341F426
:1004A00080119A4201DA002010BD40F233439A4293
:1004B000A2F2334203DC524200F012F810BD904029
:1004C00010BD202A04DB203A00FA02F10020704718
:1004D0009140C2F1200320FA03F319439040704782
:1004E000202A04DB203A21FA02F00021704721FA89
:1004F00002F3D040C2F120029140084319467047F0
:1005000010B5141E73F1000408DA401C41F100011B
:1005100092185B411A4301D120F0010010BD2DE972
:10052000F04D92469B4611B1B1FA81F202E0B0FA69
:1005300080F220329046FFF7C4FF04460F4640EA9F
:100540000A0041EA0B0153465A46084313D01146AC
:1005500053EA010019D0C8F140025046FFF7C0FF2E
:1005600005460E46504659464246FFF7AAFF084345
:1005700005D0012004E020463946BDE8F08D00207A
:10058000054346EAE0762C4337430A986305E40ABC
:10059000A0EB08000022FD0A44EA47540A3002D5C5
:1005A00000200146E9E7010510196941DDE9084528
:1005B00000196941BDE8F04DA2E70000064C074D67
:1005C00006E0E06840F0010394E807009847103423
:1005D000AC42F6D3FFF7EEFD78D6000898D60008B7
:1005E000704700000146014801F05EB974EF012038
:1005F00010B5044801F06AF9042801D0012010BDAB
:10060000002010BD74EF012010B500F015F801288E
:1006100001D0012010BD074801F072FA040006D194
:100620004FF40061034800F0F7FF00B101242046B9
:1006300010BD000074EF012008B501208DF8000006
:100640009DF8000008BD0000134610B50A4601469B
:100650000024034801F03CFB00B10124204610BDFA
:1006600074EF0120024800220121406806F0C6BD57
:1006700080000020134610B50A46014600240348B6
:1006800001F0C6FB00B10124204610BD74EF01202B
:10069000024800220221406806F0B0BD8000002020
:1006A000FEE70000014800F019B90000F8EF012052
:1006B000014800F013B9000058F001200168182328
:1006C000CAB2103AB2FBF3F2054B6FF30901032AE9
:1006D0009B5CC36500D9091D816508467047000011
:1006E000DC8D000810B5014600208B698A6A4FF046
:1006F000C07453B1B3F5005F15D072B1012A0CD0AC
:10070000022A0AD0032A09D104E01AB1012A06D02C
:10071000022A03D1C96AC90100D5012010BDC96AE6
:10072000A142FAD010BD002AF7D0012AF2D0022A45
:10073000F3D0032AF3D010BD30B50468256825F442
:1007400080252560046863608368402B036803D0BC
:1007500099600068C26030BD9A600068C16030BDB9
:10076000704772B6FEE70022AFF3008030B50E4B43
:10077000054601205C7A002C14D1587A1C54587A12
:1007800003EB800045605D7A03F108002A54587A33
:10079000421C5A72303008703A2048702F208870FE
:1007A000CC70002030BD0000EC0B002070B5B3F51C
:1007B000804F05D06FF0704140F82210002070BDCE
:1007C00050F82240084B8E891C40D1E9003543EA9D
:1007D00005138D6889692D0245EA06452B430B43B5
:1007E000234340F82230E9E70000F0CFF0B50C6871
:1007F00050F82430174A1340D1E90125D1E90367A5
:100800002A433E4332434E6932438E693243CE69B6
:1008100032430E6A32434E6A32438E6A3243CE6AA4
:100820003243CE6B32430E6B32434E6B32431A432C
:10083000082D01D142F0400240F824204A6BB2F565
:10084000801F05D1096819B1016841F48011016068
:100850000020F0BD8000E0FFF0B500EB820462688C
:1008600002F04045D1E9002342EA03128B688E89E9
:100870001B0243EA06431A430E8A0D4B03EB06564E
:1008800032430E7D5F0107EB066632438E693243C9
:100890002A4362600268D20207D54268098A22F4BC
:1008A000700203EB0151114341600020F0BD0000D4
:1008B0000000F0FF90F83510022903D08021416537
:1008C00001207047052180F835100068016821F08B
:1008D0000101016000207047406D70472DE9F84329
:1008E00004464FF00009CDF8009063484FF41651CC
:1008F000A56D0068B0FBF1F72E6894F85C10082035
:1009000000FA01F131420FD021680A6852070BD575
:100910000A6822F004020A6094F85C108840A8601B
:10092000606D40F00100606594F85C104FF00108C4
:1009300008FA01F0304208D021684969090604D557
:10094000A860606D40F00200606594F85C100420BF
:100950008840304208D021680968890704D5A8601A
:10096000606D40F00400606594F85C1010208840D1
:10097000304218D021680968090714D5A86020689A
:100980000168490304D50068000308D5A16C07E09D
:100990000168C90503D4016821F008010160216CD8
:1009A00009B12046884794F85C10202088403042E6
:1009B00031D021680968C9062DD5A86094F83500A2
:1009C00005282068016806D0490347D50068000360
:1009D0001DD4616C1CE021F01601016020684169A2
:1009E00021F080014161206C08B9A06C20B1206821
:1009F000016821F00801016094F85C103F208840F4
:100A0000A86084F8349084F83580216D1FE0E16B94
:100A100009B120468847606D00282BD0606DC00763
:100A200014D0052084F835002068016821F0010108
:100A300001600098401C0090B84203D8206800680C
:100A4000C007F6D184F8349084F83580E16C002931
:100A500010D001B02046BDE8F04308470168C90541
:100A6000D5D4016821F01001016084F8349084F835
:100A70003580CCE7BDE8F883100000202DE9F04177
:100A8000044600F0DFF906465CB1002584F83450D6
:100A9000022084F835002068016821F0010101601E
:100AA0000DE00120BDE8F08100F0CCF9801B0528A5
:100AB00005D920206065032084F83500F2E720681E
:100AC0000068C007F0D12268116820480140D4E9CD
:100AD00001031843D4E903363343184363691843C9
:100AE000A3691843E3691843236A18430843616AFA
:100AF000042903D1D4E90B1319430843106020687B
:100B00004069666A20F0070130460E430127042839
:100B10000CD1A06A0643E06A40B12046FFF7E2FD2F
:100B200020B14020606584F83570BAE720684661DE
:100B30002046FFF7C3FD94F85C203F21914081607F
:100B4000656584F835700020ACE700003F8010F048
:100B50002DE9F0410446866D90F834000025012807
:100B60000DD0012084F8340094F835700020012F56
:100B700007D084F8340002252846BDE8F081022021
:100B8000FBE7022784F8357060652046FFF7D4FD47
:100B900094F85C103F208840B0602068016841F004
:100BA00016010160206C20B12068016841F0080145
:100BB00001602068016841F001010160DCE700008C
:100BC00070B5044600F03EF90546601C02D00448AA
:100BD0000078044400F036F9401BA042FAD370BDFF
:100BE00004000020F0B587B014216846FFF7A4FB8D
:100BF0001A48016800292ED10121016018480024FB
:100C0000016841F0010101600068022500F0010067
:100C100005904FF68070CDE9000502AA03260C2747
:100C200082E8D00069460F4800F022F84EF2B37017
:100C3000CDE9000502AA694682E8D0000A4800F022
:100C400017F8E802CDE9000502AA694682E8D0005B
:100C5000064800F00DF807B0F0BD00009800002035
:100C60003838024000100240000C024000180240D8
:100C70002DE9F84F00224FF0010803254FF00F0E29
:100C80000B6808FA02F42340A3426ED14E68012E8D
:100C900005D0022E03D0112E01D0122E12D186685B
:100CA0004FEA420C05FA0CF7BE43CF6807FA0CF77F
:100CB000374387604668A6430C79C4F30014944018
:100CC00034434460C668570005FA07FC8C6826EA7E
:100CD0000C06BC403443C4604C68022C01D0122C7A
:100CE00013D1D40800EB8404A346D4F82090540711
:100CF0004FEAD46A0EFA0AF629EA06090E6906FADC
:100D00000AF646EA0906CBF8206004680E7924EA60
:100D10000C0406F00306BE40264306604C68E4005F
:100D20006FD53B4C266846F480462660246822F046
:100D3000030604F480440094364C3444A446D4F8AA
:100D400008489607360F0EFA06F7BC43324FB842F2
:100D500001D100272EE0314FB84201D1012729E00F
:100D60002F4FB84202D1022724E04AE02D4FB8426B
:100D700001D103271EE02C4FB84201D1042719E00E
:100D80002A4FB84201D1052714E0294FB84201D1BA
:100D900006270FE0274FB84201D107270AE0264F68
:100DA000B84201D1082705E0244FB84201D10927F4
:100DB00000E00A27B7402743CCF80878204E346873
:100DC0004F689C43FF0300D51C4334601C4E361D06
:100DD00034684F689C43BF0300D51C433460184EF1
:100DE000083634684F689C43FF0200D51C433460CA
:100DF000134E0C3634684F689C43BF0200D51C4329
:100E00003460521C102AFFF43BAFBDE8F88F00009D
:100E1000443802400030014000000240000402401B
:100E200000080240000C0240001002400014024082
:100E300000180240001C0240002002400024024032
:100E4000003C014001488068704700000400002019
:100E500070B5040004D094F83900002510B106E004
:100E6000012070BD84F83850204601F089F9242013
:100E700084F839002068C16821F40051C16020461F
:100E800004F0B0FE2068016921F4904101612068FE
:100E9000416921F0220141612068416941F0080166
:100EA00041612068C16841F40051C160E5632020C0
:100EB00084F8390084F83A00002070BD0248816847
:100EC0000278114481607047040000200B4810B57F
:100ED000016841F400710160016841F480610160C2
:100EE000016841F480710160032000F08DF800205A
:100EF00000F006F800F03EF8002010BD003C024073
:100F000010B5014688B000221E2000F05DF81E20BA
:100F100000F04CF813480024016841F0040101601E
:100F2000006805A900F004000690684600F050F93A
:100F300000F06EF90C494000B0FBF1F10C480B4A8F
:100F4000491E026040F2E732C0E90324C0E90114FF
:100F500001F027F810B1012008B010BD044801F0DD
:100F60003CF8F9E74038024040420F0000080040DA
:100F7000240500200C4882B0016841F480410160E2
:100F8000006800F4804000900748001F016841F0AD
:100F9000805101600068002200F0805000900F2115
:100FA000901E02B000F010B844380240002809DB5F
:100FB00000F01F02012191404009800000F1E02073
:100FC000C0F8001170470000F0B40E4B1B680C46CF
:100FD000C3F30223C3F10705042D00D90425191D0D
:100FE000072901D2002300E0DB1E012606FA05F1E5
:100FF000491E214099409E40761E16403143F0BC68
:1010000004F096BE0CED00E0064900F00702086807
:101010004FF6FF03184040EA0220034A10430860DD
:10102000704700000CED00E00000FA052DE9F843E0
:101030001748016841F0805101600068154F00F0C9
:101040008050012600903E64FFF7FCFE05464FF4F9
:101050007A78114C05E000BFFFF7F4FE401B4045D5
:101060000DD86068C003F7D57E64FFF7EBFE054638
:10107000464607E0FFF7E6FE401BB04202D90320D8
:10108000BDE8F88360688003F4D50020F8E700002D
:101090004038024000000E42007000402DE9F04749
:1010A0000E46050065D0DFF81481D8F80000F7B2CD
:1010B00000F00F00B04207D288F80070D8F80000A6
:1010C00000F00F00B04254D128683D4C810712D582
:1010D000400703D5206840F4E050206028780007DE
:1010E00003D5206840F4604020602068A96820F0A3
:1010F000F000084320602878C0072DD03049686888
:101100000839012812D0022813D0032811D0096809
:10111000890700292DDA216821F0030101432160AC
:10112000FFF790FE814641F2883A0EE00968890394
:10113000EFE709688901ECE7FFF784FEA0EB0901FE
:10114000514502D90320BDE8F0872068696800F0A6
:101150000C00B0EB810FEFD1D8F80010404601F041
:101160000F01B14207D90770006800F00F00B042CC
:1011700001D00120E7E72878400705D52068E96815
:1011800020F4E050084320602878000706D5206846
:10119000296920F4604040EAC100206000F058F85E
:1011A0002168084AC1F30311515CC8400649086030
:1011B00006480068FFF7A4FE0020C4E7003C024098
:1011C00008380240E48D00081000002008000020CC
:1011D0000F2202600C4A136803F003034360136894
:1011E00003F0F0038360136803F4E053C3601268F4
:1011F0004FF4E05303EAD20202610448006800F0B1
:101200000F0008607047000008380240003C0240B0
:101210000448054900680968044AC1F38221515C09
:10122000C84070471000002008380240F48D0008C4
:101230000448054900680968044AC1F34231515C19
:10124000C84070471000002008380240F48D0008A4
:10125000154810B5006810F00C02144813D014495A
:10126000042A0FD0082A0ED10F4C241F22682368AD
:1012700002F03F025B0207D52068C0F38810A0FB94
:10128000010106E0084610BD2168C1F38811A1FBE9
:1012900000010023FFF706F82168C1F30141491C52
:1012A0004900B0FBF1F010BD083802400024F40002
:1012B00040787D012DE9F84F04006ED02078DFF8EA
:1012C0003C93C007A9F104054AD009F10400016864
:1012D000C1F38101012908D00068C0F38100022810
:1012E0000AD1D9F80000400206D52868800337D516
:1012F00060680028E1D033E06068B0F5803F10D02E
:10130000B0F5A02F286810D020F48030286028681D
:1013100020F4802028606068A8B1FFF793FD06469E
:101320000DE0286840F48030F4E740F48020286025
:10133000F7E700BFFFF786FD801B642873D8286895
:101340008003F7D50CE0FFF77DFD064605E000BF02
:10135000FFF778FD801B6428F0D828688003F7D455
:101360002078DFF89C8280074FF0000A3ED5A34822
:10137000001D016811F00C0F08D00068C0F3810057
:1013800002280BD1D9F80000400207D42868800752
:1013900016D5E068012800D112E02BE1E068B8B171
:1013A0000120C8F80000FFF74DFD064605E000BF2C
:1013B000FFF748FD801B0228C0D828688007F7D5B2
:1013C0002868216920F0F80040EAC10028600DE09B
:1013D000C8F800A0FFF736FD064604E0FFF732FD2F
:1013E000801B02281FD828688007F7D420780007C0
:1013F00022D5824E83486169703671B10121016046
:10140000FFF720FD074604E0FFF71CFDC01B022884
:1014100009D830688007F7D50EE0C0F800A0FFF7C4
:1014200011FD074605E082E0FFF70CFDC01B022816
:101430007DD830688007F7D42078400768D5DFF87A
:10144000BCB100270BF13C0BDBF80000C0000BD453
:10145000DBF8001041F08051CBF80010DBF8000001
:10146000012700F080500090674E3068C00510D40E
:10147000306840F480703060FFF7E4FC009005E0D5
:10148000FFF7E0FC0099401A022850D83068C005E8
:10149000F6D55A4EA0686C3601280FD00528306862
:1014A00010D020F001003060306820F0040030607F
:1014B000A068B8B1FFF7C6FC00900FE0306840F0BC
:1014C0000100F4E740F004003060F7E7FFF7BAFCF2
:1014D0000099411A41F28830814266D8306880070D
:1014E000F4D50EE0FFF7AEFC009007E0FFF7AAFC92
:1014F0000099411A41F28830814256D830688007FD
:10150000F4D42FB1DBF8001021F08051CBF800109B
:10151000A069C8B33949091D0968C1F381010229CD
:101520004AD00228504607D0C8F8600000E03CE0EE
:10153000FFF788FC04463BE04746C8F86000FFF729
:1015400081FC064605E000BFFFF77CFC801B0228FB
:101550002BD828688001F7D4D4E907010843A16A91
:101560002A4A490802EB0141626A41EA82110843B2
:1015700094F82C1040EA0161C9F800100120386687
:10158000FFF760FC044606E036E000BFFFF75AFCB8
:10159000001B022809D828688001F7D52CE000BF7D
:1015A000FFF750FC001B022802D90320BDE8F88F8A
:1015B00028688001F4D41FE00128F7D0D9F8000092
:1015C000E26900F48001914214D1226A00F03F01E7
:1015D00091420FD147F6C071626A0140914209D130
:1015E000A26A00F44031914204D1E16A00F07060D7
:1015F000884201D00120D9E70020D7E70438024013
:1016000000004742800E4742007000400000FFFF8C
:1016100010B5FEF7E5FF10BD2DE9FE43044603209B
:101620000F4684F83400606C03285AD0B7F5805F09
:1016300057D04FF4006600254FF08068B7421CD1A8
:10164000009501950021206803F0E8FB800121D47A
:101650006946204603F0D0FF98BB0198400332D57D
:10166000B4F850000104206803F014FC48BB0221C8
:10167000206822E0A06B284327E01FB1A06B40F058
:10168000006022E0009501950021206803F0C6FB70
:10169000800101D53546EDE76946204603F0ACFFF1
:1016A00078B90198C0030ED5B4F850000104206841
:1016B00003F0F0FB28B90021206803F038FC002873
:1016C000D8D00546D6E74546D4E7A063A06B0125F0
:1016D00058B121680C48886384F834500120BDE873
:1016E000FE83A06B40F08050EFE7211DD4E9050692
:1016F0000EC90097CDE90106206803F099FB84F834
:1017000034500020EBE70000FF0540007047000068
:10171000F0B5426E920F0A70426EC2F383624A7055
:10172000426EC2F301628A70426E120CCA70B0F847
:101730006420120A0A7190F864204A71826E120DB8
:10174000CA80826EC2F303420A72B0F86820C2F304
:10175000C0324A72B0F86820C2F380328A72B0F8A0
:101760006820C2F34032CA72B0F86820C2F3003277
:101770000A7300264E73426C4FF40075012462B167
:10178000012A3AD0026847499163816B41F0805148
:10179000816380F834400120F0BDB0F86820C36E4A
:1017A0009205120D42EA93720A61C26EC2F3C262DE
:1017B0000A75C26EC2F302624A75C26EC2F3425229
:1017C0008A75C26EC2F38242CA75C26EC2F3C23259
:1017D0000A760A69521C42650B7E03F007039B1CC4
:1017E0009A4042650B7A03F00F0704FA07F383650A
:1017F0005B0A5A43C0E917250EE090F86820C36ED3
:101800009206920A42EA13420A610A69521C920243
:101810004265C0E91652056630F86C2FC2F380327B
:1018200001F8192F0288C2F3C6124A70027802F03A
:101830007F028A704268D20FCA704268C2F3417256
:101840000A714268C2F382624A714268C2F38352EB
:101850008A714268C2F34052CA710E724268C2F382
:1018600000424A728288C2F3C0328A728288C2F30E
:101870008032CA728288C2F340320A738288C2F30D
:1018800000324A738288C2F381228A738288C2F34B
:101890000122CA730079C0F3460008744C7400201A
:1018A000F0BD0000FF054000426C0A60826C4A6097
:1018B000C26C8A60026DCA60426D0A61826D4A61C3
:1018C000C26D8A61006EC8610020704770B5044621
:1018D000B0F8500000250104206803F032FC18B174
:1018E000A16B0143A16304E00021206803F096FA94
:1018F0000546C5F3432070BDF8B5056B0446006886
:10190000416B09041BD5290719D5D4E90A56002EC5
:1019100014D00027206803F0A5FA05F8010B010A8E
:1019200005F8011B010C05F8021B000E361F7F1C79
:1019300005F8010C082FEDD3C4E90A56F8BD416B38
:101940004FF00006C9054FF0010744D53902816305
:101950002068C16B4CF23A329143C1632068C16A7E
:1019600021F00101C16228071DD515F0220F09D011
:10197000206803F017FC28B1A16B0143A163204646
:10198000FFF7C4FE216840F23A50886384F834704F
:101990002663A80703D0204600F032FAF8BD20469F
:1019A00000F032FAF8BD2806FCD5A80609D5206853
:1019B00003F0F8FB28B1A16B0143A1632046FFF7B8
:1019C000A5FEA807EED12068C16A21F00801C16216
:1019D00084F83470E3E7416B490424D5290722D504
:1019E000D4E90856002EDDD05FF0000715F8010B92
:1019F000009015F8011B361F40EA0120009015F8F1
:101A0000021B40EA0140009015F8011C40EA016009
:101A100000906946206803F038FA7F1C082FE5D350
:101A2000C4E90856F8BD416B40F23A221142F9D0A0
:101A3000416B890703D5A16B41F00201A163416BA2
:101A4000090703D5A16B41F00801A163416B890629
:101A500003D5A16B41F02001A163416BC90603D5F9
:101A6000A16B41F01001A163416B890503D5A16B06
:101A700041F00801A16340F23A7181632068C16BB3
:101A800040F23A329143C163206803F08BFBA16BB3
:101A90000843A063280706D584F8347026632046DF
:101AA000FFF734FEF8BD2806FCD515F0300F0CD03A
:101AB000E16B11480865E06BFEF7FCFE0028F1D0F1
:101AC000E06BBDE8F84003F075BDA8070CD0216CB1
:101AD0000A480865206CFEF7EDFE0028E2D0206C75
:101AE000BDE8F84003F03DBDA66384F8347026637A
:101AF0002046FFF78DFDF8BDB55500086355000879
:101B000070B504000ED094F83400002518B925777C
:101B1000204600F03BF8032084F83400204600F013
:101B20000BF808B1012070BDA5632563012084F87E
:101B30003400002070BD0000FEB50025044676206C
:101B40000095CDE9015029460B460A46206803F06E
:101B50006FF908B10120FEBD0B4E46F8A05F20686A
:101B600003F078F901253560204603F027FE20B9FF
:101B7000204603F0ABFD0028EDD084F83450A16B73
:101B80000143A163E6E70000008025422DE9F04F04
:101B900087B0054614216846FEF7CEFB4649286803
:101BA00088427DD145480068444940F4006008609F
:101BB000086800F4006005904048143800683F4908
:101BC00040F0040014390860086800F00400059033
:101BD000086840F0080008600868022400F0080067
:101BE00005904FF4F850CDE9000402AA0020032626
:101BF0004FF00C0882E8410169463148FFF738F898
:101C000002AA002082E841010427CDE90074694658
:101C10002C48FFF72DF82D4C2B484FF00068C4E9F5
:101C2000000800204FF48069A060C4E90309B802ED
:101C30004FF4804BC4E9050BC4E909764FF0200A44
:101C40000020C4E907A07E05B7102046C4E90B6751
:101C5000FEF714FF08B1FEF784FD2C64A5631B4C4E
:101C6000194860344830C4E900084020A0600020D2
:101C7000C4E90309C4E907A00420606204F1280252
:101C8000032082E8C1004FF48051C4E9051B2046BF
:101C9000FEF7F4FE08B1FEF764FDEC63002200E0FD
:101CA00007E005213120A563FFF78EF93120FFF70A
:101CB0007DF907B0BDE8F08F002C014044380240A8
:101CC00000080240000C024058640240F8EF012076
:101CD0002DE9F04786B01F460446154639B194F801
:101CE0003400012807D0022006B0BDE8F087A06BC1
:101CF00040F0006008E00020A063E36DEA199A421A
:101D000004D9A06B40F00070A0636FE0032284F858
:101D1000342022688246D0622268D36B40F22A3691
:101D20003343D363236C324A4FEA4729DA63236C87
:101D3000304ADA64226C4FEA9903106520680A463B
:101D4000266C00F180013046FEF702FFDFF8A88024
:101D5000012660B12068C16B21F49571C1632168CF
:101D6000C1F83880A06B40F08040A06311E02348A8
:101D70000660606C012800D06D024FF4007120688D
:101D800003F0BCF840B12268C2F83880A16B01436F
:101D9000A16384F8346029E04FF0FF30CDE90009F9
:101DA0009020029002200596CDE9030AD1466946AB
:101DB000206803F01DF8012F06D9822020632946F0
:101DC000206803F02FF905E0812020632946206870
:101DD00003F041F9002887D02268C2F83880A16B4F
:101DE0000143A16384F83460C4F8309001207BE79C
:101DF00021550008BD540008FF0540008C85254290
:101E000010B5FEF72FFC10BD10B5FEF741FC10BD5C
:101E10002DE9FF4F87B0044608981F46164638B193
:101E200094F83400012807D002200BB0BDE8F08FF1
:101E3000A06B40F0006008E00025A563E16DF0199B
:101E4000884204D9A06B40F00070A06361E00320D9
:101E500084F834002068C5622068C16B40F21A2AF9
:101E600041EA0A01C163E16B3248C863E16B324861
:101E7000C864E06B0565606C012800D076024FF401
:101E80000071206803F03AF8DFF8B0904FF00108D5
:101E900040B12268C2F83890A16B0143A16384F875
:101EA000348036E04FF0900B012F06D9A02020633C
:101EB0003146206803F090F905E0C4F830B03146AF
:101EC000206803F0A2F940B12268C2F83890A16BF3
:101ED0000143A16384F834801AE019484646C0F8EB
:101EE000008022687F02BB08E06B80320899FEF711
:101EF0002FFE80B12068C16B21EA0A01C16321680D
:101F0000C1F83890A06B40F08040A06384F8346042
:101F10002563012089E74FF0FF30CDE90007CDE9C7
:101F200002B5CDE904566946206802F061FF002041
:101F30007BE70000A7550008BD540008FF054000DE
:101F40008C85254270B515460E46040003D094F8E2
:101F5000490010B107E0012070BD002084F848005E
:101F6000204600F01AF804F108012068FEF73EFC54
:101F70003146A2682068FEF76FFCD4E901022946C9
:101F8000236BFEF713FCA168206850F8212042F073
:101F9000010240F82120002070BDFEF723BE7047EB
:101FA000704710B5040003D094F83D0010B107E06D
:101FB000012010BD002084F83C00204600F00CF801
:101FC000022084F83D00211D206803F0A7FD0120B8
:101FD00084F83D00002010BD70470168CA6842F0D7
:101FE0000102CA600068816801F00701062903D078
:101FF000016841F00101016000207047704770B531
:102000000446006801694FF00005C943890715D4EB
:10201000C168C943890711D4E91E016101202077F5
:10202000206880698007204602D0FFF7E7FF04E0C0
:1020300000F098F8204600F096F8257720680169AE
:10204000C943490717D4C168C943490713D46FF07E
:1020500004010161022020772068806910F4407F2C
:10206000204602D0FFF7CAFF04E000F07BF82046CC
:1020700000F079F8257720680169C943090716D46B
:10208000C168C943090712D46FF008010161042037
:1020900020772068C0698007204602D0FFF7AEFF96
:1020A00004E000F05FF8204600F05DF82577206836
:1020B0000169C943C90617D4C168C943C90613D405
:1020C0006FF010010161082020772068C06910F4CA
:1020D000407F204602D0FFF791FF04E000F042F875
:1020E000204600F040F8257720680169C943C907F8
:1020F00008D1C168C943C90704D1891E01612046BE
:1021000000F032F820680169C943090609D4C168A2
:10211000C943090605D46FF0800101612046FFF72D
:102120003EFF20680169C943490609D4C168C94313
:10213000490605D46FF040010161204600F01EF809
:1021400020680169C94389060BD4C168C94389065F
:1021500007D46FF0200101612046BDE87040FFF711
:102160001FBF70BD7047704700680349884201D1A6
:10217000FEF7A4BE70470000000800407047000052
:1021800010B586B0044614216846FEF7D5F8144908
:102190002068884221D113480021026842F01002D1
:1021A0000260006800F0100005900E4814380268C4
:1021B00042F001020260006800F0010005904FF457
:1021C000007000901220CDE9010103200390072048
:1021D000049069460448FEF74BFD06B010BD0000B0
:1021E000001001404438024000000240FEE70000B9
:1021F00070B50A490646002408884D8821464543A3
:10220000204602F077FB02F0ADFCB0B2044901E0D9
:102210000880641CAC42FBD370BD000064EF012059
:10222000000008602DE9F04F33492C240A468871DC
:102230002A2592882B2645F2105B4FF4305E4FF42E
:1022400048774FF0F00949F2413A4FF4A07845F24F
:10225000103C4FF4F07358B1A1F80080A1F802903F
:10226000524501D0624529D10C814D818E8139E0E2
:10227000A1F80090A1F80280524501D0624508D132
:102280000C814D818E81624531D1A1F800804B8057
:102290002DE05A4508D1A1F808E04FF428504881B4
:1022A0004FF42C50888106E0A2F5C85063381ED147
:1022B0000C814E818D810B804F8018E05A4508D1EA
:1022C000A1F808E04FF4285048814FF42C50888141
:1022D00006E0A2F5C850633804D10C814D818E818F
:1022E0000F804B80624502D10B80A1F80280BDE8CF
:1022F000F04F002002F022BA64EF01202DE9F041F6
:10230000354C90460D460246060AA18820462F0A03
:102310004089A1F51343413B0CD0A1F5A643103BE6
:1023200008D0A1F5AA43103B10D0A1F5C853633BD8
:1023300025D048E002F00AFC304602F0FBFBD0B2A8
:1023400002F0F8FBA08902F001FC36E002F0FEFB8F
:10235000304602F0EFFB6089401C80B202F0F6FBD1
:10236000D0B202F0E7FBA08902F0F0FB384602F0A1
:10237000E1FBA089401C80B202F0E8FB20E0A179DB
:1023800019B92188891A491E8AB202F0DFFB160AA0
:10239000304602F0CFFBD0B202F0CCFB304602F068
:1023A000C9FBD0B202F0C6FBA08902F0CFFB3846D1
:1023B00002F0C0FBE8B202F0BDFB384602F0BAFB07
:1023C000E8B202F0B7FB054920890880891CA1F812
:1023D0000080BDE8F081000064EF0120FEFF07608F
:1023E0002DE9F05FD32002F0B1FB02F075F9FE4C4D
:1023F000A08002F071F9A08002F06EF94FF6FF792B
:1024000009EA0020A08002F067F9A18849F241366C
:102410000843A08045F2103745F2105541F6631885
:10242000B04247D0D42002F091FB02F055F9A080D1
:1024300002F052F9A08002F04FF909EA00204A4662
:10244000A08002F049F9A1880843A080B84231D0A9
:102450004FF45A4002F07AFB02F03EF9A0804FF4AC
:102460005B4002F073FB02F037F902EA0020A08023
:102470004FF45C4002F06AFB02F02EF9A188084399
:10248000A080B0F5004F7DD0A84213D0A12002F06B
:102490005DFB02F021F9A08002F01EF902EA0020A3
:1024A000A08002F019F9A1880843A0F5AE41A080F0
:1024B000613968D080B2B04266D1CF2002F046FBCD
:1024C000002002F037FBC12002F034FB302002F084
:1024D00031FBED2002F03AFB642002F02BFB0320DD
:1024E00002F028FB122002F025FB812002F022FBE3
:1024F000E82002F02BFB852002F01CFB102002F0EC
:1025000019FB7A2002F016FBCB2002F01FFB3920CA
:1025100002F010FB2C2002F00DFB002002F00AFB61
:10252000342002F007FB022002F004FBF72002F047
:102530000DFB202002F0FEFAEA2002F007FB00204B
:1025400002F0F8FA002002F0F5FAC02002F0FEFADC
:102550001B2002F0EFFAC12002F0F8FA012002F08D
:10256000E9FAC52002F0F2FA302002F0E3FA302056
:1025700002F0E0FAC72002F0E9FAB72002F0DAFA36
:10258000362002E0B5E0B0E0B5E002F0DFFA482026
:1025900002F0D0FA3A2002F0D9FA552002F0CAFA35
:1025A000B12002F0D3FA002002F0C4FA1A2002F09F
:1025B000C1FAB62002F0CAFA0A2002F0BBFAA22041
:1025C00002F0B8FAF22002F0C1FA002002F0B2FAEA
:1025D000262002F0BBFA012002F0ACFAE02002F063
:1025E000B5FA0F2002F0A6FA2A2002F0A3FA28205A
:1025F00002F0A0FA082002F09DFA0E2002F09AFAEA
:10260000082002F097FA542002F094FAA92002F070
:1026100091FA432002F08EFA0A2002F08BFA0F2082
:1026200002F088FA002002F085FA002002F082FA17
:10263000002002F07FFA002002F07CFAE12002F094
:1026400085FA002002F076FA152002F073FA1720BE
:1026500002F070FA072002F06DFA112002F06AFA17
:10266000062002F067FA2B2002F064FA562002F0EE
:1026700061FA3C2002F05EFA052002F05BFA1020BD
:1026800002F058FA0F2002F055FA3F2002F052FAF9
:102690003F2002F04FFA0F2002F04CFA2B2002F0FC
:1026A00055FA002002F046FA002002F043FA012019
:1026B00002F040FA3F2002F03DFA2A2002F046FAEA
:1026C000002002F037FA002002F034FA002002F075
:1026D00031FAEF2002F02EFA112002F037FA7820BA
:1026E00003F02CFE292001F008BFA4F8048001F0BB
:1026F00009BFA580FDE3B84278D1ED2002F026FAAB
:10270000012002F017FAFE2002F014FAEE2002F087
:102710001DFADE2002F00EFA212002F00BFAF12061
:1027200002F014FA012002F005FADF2002F00EFA9E
:10273000102002F0FFF9C42002F008FA8F2002F006
:10274000F9F9C62002F002FA002002F0F3F9E220C3
:1027500002F0F0F9E22002F0EDF9E22002F0EAF9ED
:10276000BF2002F0F3F9AA2002F0E4F9B02002F051
:10277000EDF90D2002F0DEF9002002F0DBF90D206A
:1027800002F0D8F9002002F0D5F9112002F0D2F9B8
:10279000002002F0CFF9192002F0CCF9002002F05D
:1027A000C9F9212002F0C6F9002002F0C3F92D205A
:1027B00002F0C0F9002002F0BDF93D2002F0BAF9A4
:1027C000002002F0B7F95D2002F0B4F9002002F019
:1027D000B1F95D2002F0AEF9002002F0ABF9B120B2
:1027E00002F0B4F9802002E064EF0120FEE302F081
:1027F000A1F9002002F09EF98B2002F09BF9002045
:1028000002F098F9962002F095F9002002F092F972
:10281000B22002F09BF9002002F08CF9002002F0B7
:1028200089F9022002F086F9002002F083F90320E2
:1028300002F080F9002002F07DF9B32002F086F961
:10284000002002F077F9002002F074F9002002F075
:1028500071F9002002F06EF9002002F06BF90020FF
:1028600002F068F9002002F065F9002002F062F938
:10287000002002F05FF9002002F05CF9002002F075
:1028800059F9002002F056F9002002F053F9002017
:1028900002F050F9002002F04DF9002002F04AF950
:1028A000002002F047F9002002F044F9002002F075
:1028B00041F9002002F03EF9002002F03BF900202F
:1028C00002F038F9002002F035F9002002F032F968
:1028D000B42002F03BF98B2002F02CF9002002F02A
:1028E00029F9962002F026F9002002F023F9A12010
:1028F00002F020F9002002F01DF9B52002F026F9BF
:10290000022002F017F9002002F014F9032002F06F
:1029100011F9002002F00EF9042002F00BF900205A
:1029200002F008F9B62002F011F9002002F002F9D5
:10293000002002F0FFF8B72002F008F9002002F0B2
:10294000F9F8002002F0F6F83F2002F0F3F800203A
:1029500002F0F0F85E2002F0EDF8002002F0EAF854
:10296000642002F0E7F8002002F0E4F88C2002F086
:10297000E1F8002002F0DEF8AC2002F0DBF80020E5
:1029800002F0D8F8DC2002F0D5F8002002F0D2F8EE
:10299000702002F0CFF8002002F0CCF8902002F076
:1029A000C9F8002002F0C6F8EB2002F0C3F80020BE
:1029B00002F0C0F8DC2002F0BDF8002002F0BAF806
:1029C000B82002F0C3F8002002F0B4F8002002F0B2
:1029D000B1F8002002F0AEF8002002F0ABF80020C1
:1029E00002F0A8F8002002F0A5F8002002F0A2F8FA
:1029F000002002F09FF8BA2002F0A8F8242002F08C
:102A000099F8002002F096F8002002F093F80020D8
:102A100002F090F8C12002F099F8202002F08AF824
:102A2000002002F087F8542002F084F8002002F021
:102A300081F8FF2002F07EF8002002F07BF8C2202F
:102A400002F084F80A2002F075F8002002F072F813
:102A5000042002F06FF8002002F06CF8C32002F0AE
:102A600075F83C2002F066F8002002F063F83A2086
:102A700002F060F8002002F05DF8392002F05AF808
:102A8000002002F057F8372002F054F8002002F03E
:102A900051F83C2002F04EF8002002F04BF83620AE
:102AA00002F048F8002002F045F8322002F042F827
:102AB000002002F03FF82F2002F03CF8002002F046
:102AC00039F82C2002F036F8002002F033F82920E3
:102AD00002F030F8002002F02DF8262002F02AF84B
:102AE000002002F027F8242002F024F8002002F051
:102AF00021F8242002F01EF8002002F01BF8232009
:102B000002F018F8002002F015F83C2002F012F84C
:102B1000002002F00FF8362002F00CF8002002F03E
:102B200009F8322002F006F8002002F003F82F2006
:102B300002F000F8002001F0FDFF2C2001F0FAFF68
:102B4000002001F0F7FF292001F0F4FF002001F040
:102B5000F1FF262001F0EEFF002001F0EBFF242022
:102B600001F0E8FF002001F0E5FF242001F0E2FF82
:102B7000002001F0DFFF232001F0DCFF002001F046
:102B8000D9FFC42001F0E2FF622001F0D3FF002052
:102B900001F0D0FF052001F0CDFF002001F0CAFFB9
:102BA000842001F0C7FF002001F0C4FFF02001F0F5
:102BB000C1FF002001F0BEFF182001F0BBFF002084
:102BC00001F0B8FFA42001F0B5FF002001F0B2FF32
:102BD000182001F0AFFF002001F0ACFF502001F001
:102BE000A9FF002001F0A6FF0C2001F0A3FF0020A8
:102BF00001F0A0FF172001F09DFF002001F09AFFD7
:102C0000952001F097FF002001F094FFF32001F0E0
:102C100091FF002001F08EFFE62001F08BFF0020E5
:102C200001F088FFC52001F091FF322001F082FF02
:102C3000002001F07FFF442001F07CFF002001F024
:102C400079FF652001F076FF002001F073FF762008
:102C500001F070FF002001F06DFF882001F06AFF95
:102C6000002001F067FFC62001F070FF202001F076
:102C700061FF002001F05EFF172001F05BFF0020E4
:102C800001F058FF012001F055FF002001F052FF34
:102C9000C72001F05BFF002001F04CFF002001F095
:102CA00049FF002001F046FF002001F043FFC8204B
:102CB00001F04CFF002001F03DFF002001F03AFF41
:102CC000002001F037FF002001F034FFC92001F09F
:102CD0003DFF002001F02EFF002001F02BFF00201F
:102CE00001F028FF002001F025FF002001F022FF65
:102CF000002001F01FFF002001F01CFF002001F068
:102D000019FF002001F016FF002001F013FF002042
:102D100001F010FF002001F00DFF002001F00AFF7C
:102D2000002001F007FF002001F004FF002001F067
:102D300001FFE02001F00AFF162001F0FBFE002059
:102D400001F0F8FE1C2001F0F5FE002001F0F2FE7B
:102D5000212001F0EFFE002001F0ECFE362001F012
:102D6000E9FE002001F0E6FE462001F0E3FE00202F
:102D700001F0E0FE522001F0DDFE002001F0DAFE5D
:102D8000642001F0D7FE002001F0D4FE7A2001F08B
:102D9000D1FE002001F0CEFE8B2001F0CBFE002002
:102DA00001F0C8FE992001F0C5FE002001F0C2FE2E
:102DB000A82001F0BFFE002001F0BCFEB92001F008
:102DC000B9FE002001F0B6FEC42001F0B3FE0020E1
:102DD00001F0B0FECA2001F0ADFE002001F0AAFE15
:102DE000D22001F0A7FE002001F0A4FED92001F0BE
:102DF000A1FE002001F09EFEE02001F09BFE0020DD
:102E000001F098FEF32001F095FE002001F092FE03
:102E1000E12001F09BFE162001F08CFE002001F065
:102E200089FE1C2001F086FE002001F083FE222096
:102E300001F080FE002001F07DFE362001F07AFED8
:102E4000002001F077FE452001F074FE002001F023
:102E500071FE522001F06EFE002001F06BFE642036
:102E600001F068FE002001F065FE7A2001F062FEAC
:102E7000002001F05FFE8B2001F05CFE002001F0DD
:102E800059FE992001F056FE002001F053FEA820C3
:102E900001F050FE002001F04DFEB92001F04AFE85
:102EA000002001F047FEC42001F044FE002001F0A4
:102EB00041FECA2001F03EFE002001F03BFED22080
:102EC00001F038FE002001F035FED82001F032FE7E
:102ED000002001F02FFEE02001F02CFE002001F088
:102EE00029FEF32001F026FE002001F023FEE2205F
:102EF00000E082E301F02AFE052001F01BFE002025
:102F000001F018FE0B2001F015FE002001F012FE6A
:102F10001B2001F00FFE002001F00CFE342001F018
:102F200009FE002001F006FE442001F003FE00200F
:102F300001F000FE4F2001F0FDFD002001F0FAFD40
:102F4000612001F0F7FD002001F0F4FD792001F08F
:102F5000F1FD002001F0EEFD882001F0EBFD0020E6
:102F600001F0E8FD972001F0E5FD002001F0E2FD11
:102F7000A62001F0DFFD002001F0DCFDB72001F00C
:102F8000D9FD002001F0D6FDC22001F0D3FD0020C4
:102F900001F0D0FDC72001F0CDFD002001F0CAFDF9
:102FA000D12001F0C7FD002001F0C4FDD62001F0C2
:102FB000C1FD002001F0BEFDDD2001F0BBFD0020C1
:102FC00001F0B8FDF32001F0B5FD002001F0B2FDE5
:102FD000E32001F0BBFD052001F0ACFD002001F075
:102FE000A9FD0A2001F0A6FD002000E003E301F0A6
:102FF000A1FD1C2001F09EFD002001F09BFD33206F
:1030000001F098FD002001F095FD442001F092FDB3
:10301000002001F08FFD502001F08CFD002001F018
:1030200089FD622001F086FD002001F083FD7820FB
:1030300001F080FD002001F07DFD882001F07AFD87
:10304000002001F077FD972001F074FD002001F0D1
:1030500071FDA62001F06EFD002001F06BFDB72090
:1030600001F068FD002001F065FDC22001F062FD65
:10307000002001F05FFDC72001F05CFD002001F0A1
:1030800059FDD12001F056FD002001F053FDD5205F
:1030900001F050FD002001F04DFDDD2001F04AFD62
:1030A000002001F047FDF32001F044FD002001F075
:1030B00041FDE42001F04AFD012001F03BFD00202C
:1030C00001F038FD012001F035FD002001F032FD56
:1030D000022001F02FFD002001F02CFD2A2001F03C
:1030E00029FD002001F026FD3C2001F023FD0020F9
:1030F00001F020FD4B2001F01DFD002001F01AFD24
:103100005D2001F017FD002001F014FD742001F096
:1031100011FD002001F00EFD842001F00BFD0020C8
:1031200001F008FD932001F005FD002001F002FDF3
:10313000A22001F0FFFC002001F0FCFCB32001F014
:10314000F9FC002001F0F6FCBE2001F0F3FC0020A9
:1031500001F0F0FCC42001F0EDFC002001F0EAFCDD
:10316000CD2001F0E7FC002001F0E4FCD32001F0C9
:10317000E1FC002001F0DEFCDD2001F0DBFC0020A2
:1031800001F0D8FCF32001F0D5FC002001F0D2FCC6
:10319000E52001F0DBFC002001F0CCFC002001F078
:1031A000C9FC002001F0C6FC002001F0C3FC022095
:1031B00001F0C0FC002001F0BDFC292001F0BAFCA8
:1031C000002001F0B7FC3C2001F0B4FC002001F02D
:1031D000B1FC4B2001F0AEFC002001F0ABFC5D2007
:1031E00001F0A8FC002001F0A5FC742001F0A2FC75
:1031F000002001F09FFC842001F09CFC002001F0E5
:1032000099FC932001F096FC002001F093FCA22091
:1032100001F090FC002001F08DFCB32001F08AFC4D
:10322000002001F087FCBE2001F084FC002001F0AA
:1032300081FCC42001F07EFC002001F07BFCCD204D
:1032400001F078FC002001F075FCD32001F072FC45
:10325000002001F06FFCDC2001F06CFC002001F08C
:1032600069FCF32001F066FC002001F063FCE6201D
:1032700001F06CFC112001F05DFC002001F05AFC13
:10328000342001F057FC002001F054FC562001F0DE
:1032900051FC002001F04EFC762001F04BFC002098
:1032A00001F048FC772001F045FC002001F042FCD1
:1032B000662001F03FFC002001F03CFC882001F07A
:1032C00039FC002001F036FC992001F033FC00208D
:1032D00001F030FCBB2001F02DFC002001F02AFCA5
:1032E000992001F027FC002001F024FC662001F069
:1032F00021FC002001F01EFC552001F01BFC0020E9
:1033000001F018FC552001F015FC002001F012FC22
:10331000452001F00FFC002001F00CFC432001F0DF
:1033200009FC002001F006FC442001F003FC002011
:1033300001F000FCE72001F009FC322001F0FAFB6B
:10334000002001F0F7FB552001F0F4FB002001F014
:10335000F1FB762001F0EEFB002001F0EBFB662094
:1033600001F0E8FB002001F0E5FB672001F0E2FB43
:10337000002001F0DFFB672001F0DCFB002001F002
:10338000D9FB872001F0D6FB002001F0D3FB992068
:1033900001F0D0FB002001F0CDFBBB2001F0CAFB07
:1033A000002001F0C7FB992001F0C4FB002001F0D0
:1033B000C1FB772001F0BEFB002001F0BBFB4420E5
:1033C00001F0B8FB002001F0B5FB562001F0B2FB84
:1033D000002001F0AFFB232001F0ACFB002001F046
:1033E000A9FB332001F0A6FB002001F0A3FB452040
:1033F00001F0A0FB002001F09DFBE82001F0A6FBFE
:10340000002001F097FB002001F094FB992001F0CF
:1034100091FB002001F08EFB872001F08BFB002048
:1034200001F088FB882001F085FB002001F082FB81
:10343000772001F07FFB002001F07CFB662001F08B
:1034400079FB002001F076FB882001F073FB00205F
:1034500001F070FBAA2001F06DFB002001F06AFB77
:10346000BB2001F067FB002001F064FB992001F014
:1034700061FB002001F05EFB662001F05BFB002099
:1034800001F058FB552001F055FB002001F052FBE4
:10349000552001F04FFB002001F04CFB442001F0CF
:1034A00049FB002001F046FB442001F043FB0020D3
:1034B00001F040FB552001F03DFB002001F03AFBFC
:1034C000E92001F043FBAA2001F034FB002001F0C9
:1034D00031FB002001F02EFB002001F02BFB00202F
:1034E00001F034FBAA2001F025FBCF2001F02EFBD8
:1034F000002001F01FFB002001F01CFB002001F068
:1035000019FB002001F016FB002001F013FB002046
:1035100001F010FB002001F00DFB002001F00AFB80
:10352000002001F007FB002001F004FB002001F067
:1035300001FB002001F0FEFA002001F0FBFA002060
:1035400001F0F8FA002001F0F5FA002001F0F2FA9B
:10355000002001F0EFFAF02001F0F8FA002001F06D
:10356000E9FA502001F0E6FA002001F0E3FA002029
:1035700001F0E0FA002001F0DDFAF32001F0E6FAB4
:10358000002001F0D7FAF92001F0E0FA062001F05E
:10359000D1FA102001F0CEFA292001F0CBFA002058
:1035A00001F0C8FA3A2001F0D1FA552001F0C2FA30
:1035B000112001F0CBFA642002F0C0FE292001F0B6
:1035C000C5FA352001F0C2FA002001F0B3FA51200B
:1035D00001F0BCFAFF2001F0ADFA532001F0B6FA79
:1035E0002C2001F0A7FA552001F0B0FA822001F05A
:1035F000A1FA2C20FEE3A8427ED14FF4704355215E
:10360000184601F0B9FA4FF2010AAA21504601F01A
:10361000B3FA4FF2020B5221584601F0ADFA0821DD
:103620004FF2030001F0A8FA01214FF2040001F06B
:10363000A3FA0D214FF4304001F09EFA0D214BF218
:10364000010001F099FA0D214BF2020001F094FA09
:1036500034214FF4364001F08FFA34214BF20160EF
:1036600001F08AFA34214BF2026001F085FA0D2153
:103670004FF4314001F080FA0D214BF2011001F0BE
:103680007BFA0D214BF2021001F076FA34214FF44F
:10369000374001F071FA34214BF2017001F06CFAFD
:1036A00034214BF2027001F067FA00214FF43240EE
:1036B00001F062FA00214BF2012001F05DFA0021D5
:1036C0004BF2022001F058FA24214FF4384001F067
:1036D00053FA24214BF6010001F04EFA24214BF657
:1036E000020001F049FA01214FF43F4001F044FA91
:1036F0000F214FF4334000E0FEE301F03DFA0F21CB
:103700004BF2013001F038FA0F214BF2023001F098
:1037100033FA34214FF4394001F02EFA34214BF6BC
:10372000011001F029FA34214BF6021001F024FABD
:1037300008214FF4354001F01FFA08214BF20150E7
:1037400001F01AFA08214BF2025001F015FA032198
:103750004FF4424001F010FA24214FF43A4001F0B6
:103760000BFA24214BF6012001F006FA24214BF636
:10377000022001F001FA00214FF43C4001F0FCF975
:1037800078214BF6014001F0F7F900214BF6024099
:1037900001F0F2F900214FF43D4001F0EDF97821FC
:1037A0004BF6015001F0E8F900214BF6025001F010
:1037B000E3F900214FF43E4001F0DEF964214BF6BD
:1037C000016001F0D9F900214FF4514001F0D4F922
:1037D00033214DF2011001F0CFF900214DF202101A
:1037E00001F0CAF934214DF2031001F0C5F90021AE
:1037F0004DF2041001F0C0F93A214DF2051001F02C
:10380000BBF900214DF2061001F0B6F94A214DF244
:10381000071001F0B1F900214DF2081001F0ACF9E8
:103820005C214DF2091001F0A7F900214DF20A10B8
:1038300001F0A2F981214DF20B1001F09DF9002158
:103840004DF20C1001F098F9A6214DF20D1001F087
:1038500093F900214DF20E1001F08EF9E5214DF2A1
:103860000F1001F089F901214DF2101001F084F9D7
:1038700013214DF2111001F07FF901214DF21210C8
:1038800001F07AF954214DF2131001F075F901217C
:103890004DF2141001F070F982214DF2151001F073
:1038A0006BF901214DF2161001F066F9CA214DF2B3
:1038B000171001F061F902214DF2181001F05CF9C6
:1038C00000214DF2191001F057F902214DF21A10A2
:1038D00001F052F901214DF21B1001F04DF90221C6
:1038E0004DF21C1001F048F934214DF21D1001F089
:1038F00043F902214DF21E1001F03EF967214DF20D
:103900001F1001F039F902214DF2201001F034F9B5
:1039100084214DF2211001F02FF902214DF22210E5
:1039200001F02AF9A4214DF2231001F025F902211A
:103930004DF2241001F020F9B7214DF2251001F0CD
:103940001BF902214DF2261001F016F9CF214DF29C
:10395000271001F011F902214DF2281001F00CF9A5
:10396000DE214DF2291001F007F902214DF22A1053
:1039700001F002F9F2214DF22B1001F0FDF80221C5
:103980004DF22C1001F0F8F8FE214DF22D1001F04F
:10399000F3F803214DF22E1001F0EEF810214DF254
:1039A0002F1001F0E9F803214DF2301001F0E4F896
:1039B00033214DF2311001F0DFF803214DF23210C6
:1039C00001F0DAF86D214DF2331001F0D5F8002145
:1039D0004FF4524001F0D0F833214DF2012001F0B4
:1039E000CBF800214DF2022001F0C6F834214DF24F
:1039F000032001F0C1F800214DF2042001F0BCF8D1
:103A00003A214DF2052001F0B7F800214DF20620D1
:103A100001F0B2F84A214DF2072001F0ADF8002183
:103A20004DF2082001F0A8F85C214DF2092001F0C8
:103A3000A3F800214DF20A2001F09EF881214DF2F9
:103A40000B2001F099F800214DF20C2001F094F8C0
:103A5000A6214DF20D2001F08FF800214DF20E202D
:103A600001F08AF8E5214DF20F2001F085F80121DF
:103A70004DF2102001F080F813214DF2112001F0D9
:103A80007BF801214DF2122001F076F854214DF21D
:103A9000132001F071F801214DF2142001F06CF8AF
:103AA00082214DF2152001F067F801214DF2162018
:103AB00001F062F8CA214DF2172001F05DF80221F1
:103AC0004DF2182001F058F800214DF2192001F0B4
:103AD00053F802214DF21A2001F04EF801214DF267
:103AE0001B2001F049F802214DF21C2001F044F89E
:103AF00034214DF21D2001F03FF802214DF21E202D
:103B000001F03AF867214DF21F2001F035F802214B
:103B10004DF2202001F030F884214DF2212001F0F7
:103B20002BF802214DF2222001F026F8A4214DF2BB
:103B3000232001F021F802214DF2242001F01CF88D
:103B4000B7214DF2252001F017F802214DF2262071
:103B500001F012F8CF214DF2272001F00DF80221DB
:103B60004DF2282001F008F8DE214DF2292001F065
:103B700003F802214DF22A2000F0FEFFF2214DF25F
:103B80002B2000F0F9FF02214DF22C2000F0F4FF71
:103B9000FE214DF22D2000F0EFFF03214DF22E20EB
:103BA00000F0EAFF10214DF22F2000F0E5FF032185
:103BB0004DF2302000F0E0FF33214DF2312000F0D3
:103BC000DBFF03214DF2322000F0D6FF6D214DF2D4
:103BD000332000F0D1FF00214FF4534000F0CCFF20
:103BE00033214DF2013000F0C7FF00214DF20230C9
:103BF00000F0C2FF34214DF2033000F0BDFF002180
:103C00004DF2043000F0B8FF3A214DF2053000F0DB
:103C1000B3FF00214DF2063000F0AEFF4A214DF215
:103C2000073000F0A9FF00214DF2083000F0A4FF9A
:103C30005C214DF2093000F09FFF00214DF20A3067
:103C400000F09AFF81214DF20B3000F095FF00212A
:103C50004DF20C3000F090FFA6214DF20D3000F037
:103C60008BFF00214DF20E3000F086FFE5214DF272
:103C70000F3000F081FF01214DF2103000F07CFF89
:103C800013214DF2113000F077FF01214DF2123077
:103C900000F072FF54214DF2133000F06DFF01214E
:103CA0004DF2143000F068FF82214DF2153000F023
:103CB00063FF01214DF2163000F05EFFCA214DF284
:103CC000173000F059FF02214DF2183000F054FF78
:103CD00000214DF2193000F04FFF02214DF21A3051
:103CE00000F04AFF01214DF21B3000F045FF022198
:103CF0004DF21C3000F040FF34214DF21D3000F039
:103D00003BFF02214DF21E3000F036FF67214DF2DD
:103D10001F3000F031FF02214DF2203000F02CFF67
:103D200084214DF2213000F027FF02214DF2223094
:103D300000F022FFA4214DF2233000F01DFF0221EC
:103D40004DF2243000F018FFB7214DF2253000F07D
:103D500013FF02214DF2263000F00EFFCF214DF26D
:103D6000273000F009FF02214DF2283000F004FF57
:103D7000DE214DF2293000F0FFFE02214DF22A3003
:103D800000F0FAFEF2214DF22B3000F0F5FE022198
:103D90004DF22C3000F0F0FEFE214DF22D3000F0FF
:103DA000EBFE03214DF22E3000F0E6FE10214DF225
:103DB0002F3000F0E1FE03214DF2303000F0DCFE48
:103DC00033214DF2313000F0D7FE03214DF2323075
:103DD00000F0D2FE6D214DF2333000F0CDFE002117
:103DE0004FF4544000F0C8FE33214DF2014000F082
:103DF000C3FE00E081E300214DF2024000F0BCFE72
:103E000034214DF2034000F0B7FE00214DF2044092
:103E100000F0B2FE3A214DF2054000F0ADFE002167
:103E20004DF2064000F0A8FE4A214DF2074000F096
:103E3000A3FE00214DF2084000F09EFE5C214DF2F1
:103E4000094000F099FE00214DF20A4000F094FE76
:103E500081214DF20B4000F08FFE00214DF20C400D
:103E600000F08AFEA6214DF20D4000F085FE0021F3
:103E70004DF20E4000F080FEE5214DF20F4000F0C3
:103E80007BFE01214DF2104000F076FE13214DF231
:103E9000114000F071FE01214DF2124000F06CFE65
:103EA00054214DF2134000F067FE01214DF2144001
:103EB00000F062FE82214DF2154000F05DFE01210E
:103EC0004DF2164000F058FECA214DF2174000F0A6
:103ED00053FE02214DF2184000F04EFE00214DF23B
:103EE000194000F049FE02214DF21A4000F044FE54
:103EF00001214DF21B4000E002E300F03DFE0221F3
:103F00004DF21C4000F038FE34214DF21D4000F00F
:103F100033FE02214DF21E4000F02EFE67214DF2CD
:103F20001F4000F029FE02214DF2204000F024FE47
:103F300084214DF2214000F01FFE02214DF222406B
:103F400000F01AFEA4214DF2234000F015FE0221DC
:103F50004DF2244000F010FEB7214DF2254000F054
:103F60000BFE02214DF2264000F006FECF214DF25D
:103F7000274000F001FE02214DF2284000F0FCFD38
:103F8000DE214DF2294000F0F7FD02214DF22A40DA
:103F900000F0F2FDF2214DF22B4000F0EDFD022188
:103FA0004DF22C4000F0E8FDFE214DF22D4000F0D6
:103FB000E3FD03214DF22E4000F0DEFD10214DF215
:103FC0002F4000F0D9FD03214DF2304000F0D4FD28
:103FD00033214DF2314000F0CFFD03214DF232404C
:103FE00000F0CAFD6D214DF2334000F0C5FD002107
:103FF0004FF4554000F0C0FD33214DF2015000F068
:10400000BBFD00214DF2025000F0B6FD34214DF20F
:10401000035000F0B1FD00214DF2045000F0ACFD62
:104020003A214DF2055000F0A7FD00214DF2065057
:1040300000F0A2FD4A214DF2075000F09DFD002145
:104040004DF2085000F098FD5C214DF2095000F04F
:1040500093FD00214DF20A5000F08EFD81214DF2BA
:104060000B5000F089FD00214DF20C5000F084FD52
:10407000A6214DF20D5000F07FFD00214DF20E50B3
:1040800000F07AFDE5214DF20F5000F075FD0121A1
:104090004DF2105000F070FD13214DF2115000F060
:1040A0006BFD01214DF2125000F066FD54214DF2DE
:1040B000135000F061FD01214DF2145000F05CFD41
:1040C00082214DF2155000F057FD01214DF216509E
:1040D00000F052FDCA214DF2175000F04DFD0221B3
:1040E0004DF2185000F048FD00214DF2195000F03B
:1040F00043FD02214DF21A5000F03EFD01214DF228
:104100001B5000F039FD02214DF21C5000F034FD2F
:1041100034214DF21D5000F02FFD02214DF21E50B2
:1041200000F02AFD67214DF21F5000F025FD02210D
:104130004DF2205000F020FD84214DF2215000F07E
:104140001BFD02214DF2225000F016FDA4214DF27C
:10415000235000F011FD02214DF2245000F00CFD1F
:10416000B7214DF2255000F007FD02214DF22650F7
:1041700000F002FDCF214DF2275000F0FDFC02219E
:104180004DF2285000F0F8FCDE214DF2295000F0ED
:10419000F3FC02214DF22A5000F0EEFCF2214DF228
:1041A0002B5000F0E9FC02214DF22C5000F0E4FC11
:1041B000FE214DF22D5000F0DFFC03214DF22E5078
:1041C00000F0DAFC10214DF22F5000F0D5FC032155
:1041D0004DF2305000F0D0FC33214DF2315000F060
:1041E000CBFC03214DF2325000F0C6FC6D214DF2A4
:1041F000335000F0C1FC00214FF4564000F0BCFCED
:1042000033214DF2016000F0B7FC00214DF2026055
:1042100000F0B2FC34214DF2036000F0ADFC00214F
:104220004DF2046000F0A8FC3A214DF2056000F068
:10423000A3FC00214DF2066000F09EFC4A214DF2E5
:10424000076000F099FC00214DF2086000F094FC3A
:104250005C214DF2096000F08FFC00214DF20A60F4
:1042600000F08AFC81214DF20B6000F085FC0021FA
:104270004DF20C6000F080FCA6214DF20D6000F0C4
:104280007BFC00214DF20E6000F076FCE5214DF242
:104290000F6000F071FC01214DF2106000F06CFC29
:1042A00013214DF2116000F067FC01214DF2126004
:1042B00000F062FC54214DF2136000F05DFC01211E
:1042C0004DF2146000F058FC82214DF2156000F0B0
:1042D00053FC01214DF2166000F04EFCCA214DF254
:1042E000176000F049FC02214DF2186000F044FC18
:1042F00000214DF2196000F03FFC02214DF21A60DE
:1043000000F03AFC01214DF21B6000F035FC022167
:104310004DF21C6000F030FC34214DF21D6000F0C5
:104320002BFC02214DF21E6000F026FC67214DF2AD
:104330001F6000F021FC02214DF2206000F01CFC07
:1043400084214DF2216000F017FC02214DF2226021
:1043500000F012FCA4214DF2236000F00DFC0221BC
:104360004DF2246000F008FCB7214DF2256000F00A
:1043700003FC02214DF2266000F0FEFBCF214DF23E
:10438000276000F0F9FB02214DF2286000F0F4FBF9
:10439000DE214DF2296000F0EFFB02214DF22A6090
:1043A00000F0EAFBF2214DF22B6000F0E5FB022168
:1043B0004DF22C6000F0E0FBFE214DF22D6000F08C
:1043C000DBFB03214DF22E6000F0D6FB10214DF2F5
:1043D0002F6000F0D1FB03214DF2306000F0CCFBE8
:1043E00033214DF2316000F0C7FB03214DF2326002
:1043F00000F0C2FB6D214DF2336000F0BDFB552192
:10440000184600F0B9FBAA21504600F0B5FB522136
:10441000584600F0B1FB08214FF2030000F0ACFB5E
:1044200000214FF2040000F0A7FBCC214FF43140F3
:1044300000F0A2FB00214BF2011000F09DFB0521D2
:104440004FF4364000F098FB70214FF4374000F0F5
:1044500093FB70214BF2017000F08EFB01214FF4B1
:10446000384000F089FB03214BF6010000F084FB8B
:1044700003214BF6020000F07FFB03214BF6030003
:1044800000F07AFB02214FF43C4000F075FB002164
:104490004BF6014000F070FB00214BF6024000F0AB
:1044A0006BFBD0214FF4494000F066FB02214CF633
:1044B000011000F061FB50214CF6021000F05CFB93
:1044C00050214CF6031000F057FB50214CF604101D
:1044D00000F052FB00214FF4545000F04DFB5521E9
:1044E0004FF4685000F048FB4FF4885000F02EFB6A
:1044F000782001F02EFF4FF4245000F027FBB9E0A4
:104500004045FCD1E22000F021FB1D2000F012FB11
:10451000022000F00FFB042000F00CFB642001F0EF
:1045200018FFE02000F012FB012000F003FB0A203E
:1045300001F004FFE02000F009FB032000F0FAFA8C
:104540000C2001F0FBFE012000F000FB0A2001F02E
:10455000F5FEE62000F0FAFA2F2000F0EBFAFF203B
:1045600000F0E8FAFF2000F0E5FAB02000F0EEFAE3
:10457000202000F0DFFA002000F0DCFA032000F039
:10458000D9FA40F21F3000F0D5FA012000F0D2FA3B
:1045900040F2DF1000F0CEFA002000F0CBFAB42099
:1045A00000F0D4FA042000F0C5FA40F21F4000F0F9
:1045B000C1FA002000F0BEFA2E2000F0BBFA002065
:1045C00000F0B8FA002000F0B5FA002000F0B2FACE
:1045D000002000F0AFFAB62000F0B8FA022000F098
:1045E000A9FA4FF4037000F0A5FA002000F0A2FA37
:1045F000172000F09FFA152000F09CFA002000F030
:1046000099FA002000F096FAF02000F09FFA0320BB
:1046100000F090FA292000F099FAD02000F096FAE4
:10462000002000F087FABE2000F090FA052000F08C
:1046300081FAFE2000F07EFA012000F07BFA0020D3
:1046400000F078FA002000F075FA002000F072FA0D
:10465000B82000F07BFA032000F06CFA012000F093
:1046600069FABA2000F072FA012000F063FA6420BF
:1046700000F03CF8A088B04205D0B84203D0A84270
:1046800001D0404519D14FF02040D0F8041121F05D
:104690000F01C0F80411D0F8041121F47061C0F8C2
:1046A0000411D0F8041141F00401C0F80411D0F84D
:1046B000041141F48061C0F804110020FDF7B2FD3F
:1046C00004490120C1F894024846BDE8F05FFDF7B7
:1046D0008FBD000000804042034808B50088ADF857
:1046E0000000BDF8000008BD0000086010B50246DB
:1046F000BE2000F02BFA052000F01CFA1046FBF754
:10470000BAFE9FED0C1B53EC112BFBF742FEFBF79F
:10471000BFFE80B200F00EFA012000F00BFAFF207D
:1047200000F008FA002000F005FABDE81040002073
:1047300000F000BA6666666666660440F0B56C4CCA
:1047400000232146A279898841F66316012A01D007
:104750001AB11BE0B14202D118E0B14216D10828CB
:1047600014D2DFE800F00406080A0C0E101206202E
:104770000CE007200AE0042008E0052006E0012004
:1047800004E0002002E0032000E00220A1F513472E
:1047900045F2103245F21055413F05D0914203D009
:1047A000A94201D0B14277D1082812D2DFE800F047
:1047B000110406080A0C0E1080230AE0402308E0CA
:1047C000C02306E0202304E0602302E0A02300E0F1
:1047D000E023A94202D14FF4585000E03620914224
:1047E00005D0A94203D0B14201D043F008031946D5
:1047F00000F0C2F9A188B1420AD0980620886288E8
:1048000002D5904202D303E0904201D92280608019
:104810006089A94241D100F099F9002000F08AF99D
:104820006089401C80B200F091F9002000F082F90C
:104830006089801C80B200F089F92088401EC0F396
:104840000F2000F077F96089C01C80B200F07EF97B
:104850002078401EC0B200F06DF9A08900F076F912
:10486000002000F067F9A089401C80B200F06EF9CA
:10487000002000F05FF9A089801C80B200F066F98A
:104880006088401EC0F30F2000F054F9A089C01CBE
:1048900080B200F05BF922E028E000F057F9002038
:1048A00000F048F9002000F045F92088401EC0F3D0
:1048B0000F2000F03FF92078401EC0B200F03AF916
:1048C000A08900F043F9002000F034F9002000F046
:1048D00031F96088401EC0F30F2000F02BF9A0785A
:1048E000BDE8F040401EC0B200F024B9F0BD0000A9
:1048F00064EF0120F0B53F4A0D460446060A918850
:1049000010462F0A4089A1F51343413B28D0A1F559
:10491000A643103B24D0A1F5C853633B2FD0A1F58B
:10492000AA43103B64D100F011F9304600F002F9BF
:104930005089401C80B200F009F9E0B200F0FAF8AA
:10494000908900F003F9384600F0F4F89089401C93
:1049500080B200F0FBF8E8B2BDE8F04000F0EAB841
:1049600000F0F4F8304600F0E5F8E0B200F0E2F8CC
:10497000908900F0EBF8384600F0DCF8EBE791792D
:1049800029B300F0E3F8304600F0D4F8E0B200F0CC
:10499000D1F81088401EC0F30F2000F0CBF810783B
:1049A000401EC0B200F0C6F8908900F0CFF838463B
:1049B00000F0C0F8E8B200F0BDF85088401EC0F327
:1049C0000F2000F0B7F89078401EC0B2C4E71188FD
:1049D000091B491E8CB200F0B9F8002000F0AAF8BB
:1049E000002000F0A7F8200A00F0A4F8E0B2D9E710
:1049F000F0BD000064EF01202DE9FF4F1D460C467D
:104A00008A46580700D0012000EBD500690810FB4A
:104A100001F0203A00F0FF09D0B20026DFF8A4B080
:104A200002904BE00C2D11D0102D14D0182D17D062
:104A3000202D45D12449029801EBC0104FF0000809
:104A4000875D380613D52148026814E00298204992
:104A500000EB400008E01F49029801EB0010EDE771
:104A600002981D4900EBC00001EB8000E6E70D98BD
:104A700028B91648426821460098FDF73FFC7806A1
:104A8000070E641CBBF80200A4B2A04218D9A4EB24
:104A90000A00A84209D100985446401C80B20090F8
:104AA000BBF8001081420BD906E008F1010000F0CC
:104AB000FF08B8F1080FC4D3761CF6B24E45B1D347
:104AC000BDE8FF8F64EF0120C4A600088C00002021
:104AD000048F000878930008689900082DE9F84FC2
:104AE000044600F0FF0910190D46DDE90AB61FFA69
:104AF00080F8581987B2002E1AD04FF0000A327889
:104B0000A2F120005E2813D8444503D305EB0B0027
:104B10004C4685B2BD420BD25B4629462046CDF8B5
:104B200000A0FFF769FF04EB5B0084B2761CE6E7A8
:104B3000BDE8F88F01B5BDF80000ADF80000BDF884
:104B400000000149088008BD0000086001B5BDF8FB
:104B50000000ADF80000BDF800000149088008BD64
:104B6000FEFF076002480349008908807047000083
:104B700064EF0120FEFF0760024A1080901C018054
:104B800070470000FEFF0760034800231A460068D4
:104B9000194603F0B1BB00007C0000200448006807
:104BA000002803D04FF0FF3103F00ABE7047000029
:104BB0007C00002010B5012003F0F8FA0849002815
:104BC00008600BD1FFF7EAFF112306A20A490BA0E8
:104BD00001F09EF8BDE81040FFF7D6BF10BD000001
:104BE0007C0000202E2E5C5372635C746F6F6C73BC
:104BF0005C6C6F672E630000A88E00081B5B313B66
:104C000033316D5B202573205D2020257320286CB7
:104C1000696E6520256429202D3E206D75746578A8
:104C2000206D616C6C6F63206661696C0D0A1B5BA3
:104C3000306D00000D4808B5016841F48001016045
:104C40000068002200F48000009005213B20FCF762
:104C5000BBF93B20FCF7AAF9002205214520FCF70F
:104C6000B3F9BDE808404520FCF7A0B93038024050
:104C700010B5034C0348611CFBF775FD207010BD97
:104C800028ED0120C48E000800B517488FB04FF002
:104C900020410160154941600621816000211022F8
:104CA000C160C0E904128161C16112020162C0E900
:104CB0000912C162016341638163C16341640F20D2
:104CC00046228DE80700CDE90810CDE906100D91C8
:104CD00007AA69460448FDF735F9002801D0FBF71B
:104CE00040FD0FB000BD0000F8F00120040100A05D
:104CF00000F088BE00B587B014216846FBF71CFBA6
:104D00002248016841F080010160016801F08001E2
:104D10000591016841F010010160016801F0100186
:104D20000591016841F008010160016801F0080186
:104D30000591016841F004010160016801F004017E
:104D40000591016841F001010160016801F0010174
:104D50000591016841F040010160016801F04001E6
:104D60000591016841F0020101600068694600F0A8
:104D70000200059020200090012001900290032065
:104D800003900348FBF774FF07B000BD30380240C2
:104D9000000402400648054901600021416081602D
:104DA000C16001614161022181617047002C0140B5
:104DB00074EF01200C4810B50A4901604FF4E1314D
:104DC0004160002181600C22C160C0E90412816150
:104DD000C161FCF73DF8002803D0BDE81040FBF7A7
:104DE000C0BC10BD00100140B8F00120FEE7FEE796
:104DF0000A6842624A688262D1E902231A43D1E911
:104E000004310B43C16A1A4321F0F7011143C16217
:104E100000207047006800F00300704708444069B4
:104E2000704700000148FCF767BD000074EF0120E7
:104E300070B50DF1100C11439CE870002343194329
:104E400029434268314347F6FF639A430A4342606D
:104E5000002070BD10B5032101600220FBF7B0FEF9
:104E6000002010BDD0F8800070470A688260D1E948
:104E700001231A43D1E903310B43C1681A436FF38D
:104E80000B011143C160002070470968C0F8801011
:104E90000020704710B586B004463720CDE90010D9
:104EA00040200290002003904FF4806004906946F7
:104EB0002046FFF7DAFF41F288323721204600F022
:104EC000BDF906B010BD000010B504460A4886B012
:104ED00001432920CDE900104020029000200390DA
:104EE0004FF48060049069462046FFF7BEFF2046DD
:104EF00000F05CFA06B010BD0000108010B586B05E
:104F000004461020CDE900104020029000200390BC
:104F10004FF48060049069462046FFF7A6FF41F2F7
:104F200088321021204600F089F906B010BD10B576
:104F300086B004460620CDE90010402002900020F3
:104F400003904FF48060049069462046FFF78DFF80
:104F500041F288320621204600F070F906B010BDFB
:104F600030B585B000240546009401944FF480606C
:104F70000294CDE9034069462846FFF776FF0B48C7
:104F80004FF4FA510068B0FBF1F041F28831484328
:104F9000401E03D24FF0004005B030BD696B0906DA
:104FA000F6D5C520A8632046F6E7000010000020D3
:104FB00070B585B004464FF4D570009001A9082063
:104FC0004025002681E86100C00104906946204622
:104FD000FFF74BFF12484FF4FA510068B0FBF1F0B5
:104FE00041F288314843401E03D24FF0004005B0E3
:104FF00070BD616B11F0450FF5D00905F3D4606BFE
:10500000400701D5042003E0606BC00702D00120F7
:10501000A063ECE7606B400600D5A5633046E6E789
:105020001000002010B586B004461220CDE9001013
:1050300040200290002003904FF480600490694665
:105040002046FFF712FF41F288321221204600F07D
:10505000F5F806B010BD10B586B004461120CDE9B4
:10506000001040200290002003904FF480600490D4
:1050700069462046FFF7F9FE41F2883211212046A9
:1050800000F0DCF806B010BD10B586B0044607206D
:10509000CDE9002040200290002003904FF4806072
:1050A000049069462046FFF7E0FE41F2883207216E
:1050B000204600F0C3F806B010BD10B586B0044617
:1050C00000210220CDE90010C020CDE902014FF4FB
:1050D0008060049069462046FFF7C7FE204600F036
:1050E0003DF906B010BD10B586B004460920CDE9E3
:1050F0000010C0200290002003904FF480600490C4
:1051000069462046FFF7B1FE204600F027F906B0B9
:1051100010BD10B586B0044600213320CDE9001043
:105120004020CDE902010001049069462046FFF7C6
:105130009CFE41F288323321204600F07FF806B011
:1051400010BD10B586B004460D20CDE900104020FA
:105150000290002003904FF480600490694620463E
:10516000FFF783FE41F288320D21204600F066F8F9
:1051700006B010BD30B585B00C46054600210320B1
:10518000CDE900104020CDE90201000104906946FC
:105190002846FFF76AFE22460321284600F028F938
:1051A00005B030BD10B586B0044600210C20CDE915
:1051B00000104020CDE9020100010490694620461C
:1051C000FFF753FE034A0C21204600F037F806B0E3
:1051D00010BD000000E1F50510B586B004461920A9
:1051E000CDE9001040200290002003904FF4806031
:1051F000049069462046FFF738FE41F288321921B3
:10520000204600F01BF806B010BD10B586B004466D
:105210001820CDE9001040200290002003904FF4A8
:105220008060049069462046FFF71FFE41F28832F5
:105230001821204600F002F806B010BD454B10B50D
:105240001B684FF4FA54B3FBF4F353435B1E02D2D2
:105250004FF0004010BD426B12F0450FF6D0120522
:10526000F4D4426B520703D504218163084610BD74
:10527000426BD20702D00121816305E0C52282631F
:105280000269D2B28A4201D0012010BD0021FFF78D
:10529000C5FD3149084201D1002010BD002802DAC5
:1052A0004FF0007010BD410001D5402010BD8100BD
:1052B00001D5802010BDC10002D54FF4807010BD13
:1052C000010102D54FF4007010BD410102D54FF429
:1052D000806010BDC10102D54FF4006010BD010215
:1052E00002D54FF4805010BD410202D54FF400505A
:1052F00010BD810202D54FF4804010BDC10202D51D
:105300004FF4004010BD410302D54FF4003010BDF2
:10531000810302D54FF4802010BDC10302D54FF4A4
:10532000002010BD010402D54FF4801010BD4104CF
:1053300002D54FF4001010BD810402D54FF4800057
:1053400010BD000702D54FF4000010BD4FF48030AF
:1053500010BD00001000002008E0FFFD12494FF4CE
:10536000FA520968B1FBF2F141F288325143491E09
:1053700002D24FF000407047426B12F0450FF6D05A
:105380001205F4D4416B490703D504218163084613
:105390007047416BC90703D00121816308467047FC
:1053A000C521816300207047100000200F494FF491
:1053B000FA520968B1FBF2F141F288325143491EB9
:1053C00002D24FF000407047426B12F0450FF6D00A
:1053D0001205F4D4416B490703D5042181630846C3
:1053E0007047C52181630020704700001000002035
:1053F00030B5204B4FF4FA541B68B3FBF4F341F281
:10540000883463435B1E02D24FF0004030BD446BD2
:1054100014F0450FF6D02405F4D4436B5B0703D595
:1054200004218163084630BD436BDB0702D00121B4
:10543000816303E00369DBB28B4201D0012030BD00
:10544000C52181630021FFF7E9FC10F4604F04D00F
:10545000410406D54FF4005030BD000C10800020F0
:1054600030BD000402D54FF4805030BD4FF4803081
:1054700030BD00001000002010B5064C0120207047
:10548000FBF7B6F818B9207820F0010020702078DA
:1054900010BD00008000002070B5054601F045FEFB
:1054A000044603E0FBF7A4F8002806D001F03DFE17
:1054B000001BA842F6D34FF0FF3070BD10B5846BCF
:1054C000FBF70AFA022828D0206C416DE06B406D92
:1054D000012901D001281DD1216810488863206866
:1054E000C16B21F49D71C163A06B40F08040A0634B
:1054F0002046FCF7EBF9062801D0052805D12068E5
:10550000FFF750FEA16B0843A063012084F834002C
:10551000002020632046FCF7F9F810BDFF0540008D
:1055200010B5846B206B822809D12068FFF73AFE02
:1055300028B1A16B0143A1632046FCF7E7F820687E
:10554000C16A21F00801C162216840F23A508863C3
:10555000012084F83400002020632046FCF750FC32
:1055600010BD10B5846B40F23A5021688863204624
:10557000FCF7ACF9012184F83410002121630628DE
:1055800001D0052805D12068FFF70CFEA16B084368
:10559000A063A06B0028204602D0FCF7B7F810BD2E
:1055A000FCF736F810BD806B0068C16B41F4807168
:1055B000C163704710B5846B40F23A50216888632C
:1055C0002046FCF783F9012184F83410002121637F
:1055D000062801D0052805D12068FFF7E3FDA16B5F
:1055E0000843A063A06B0028204602D0FCF78EF889
:1055F00010BDFCF70DF810BD2DE9F04F89B00D4638
:105600000446FBF71FFC00268346009601963746AA
:1056100008212068FFF772FC002834D1B4F850004C
:1056200001042068FFF736FC00282CD1401E4FF003
:105630000808CDE9020830204FF00209CDE904093D
:105640000120CDE9067002A92068FFF7D1FB206890
:10565000FFF75FFD002816D1EA4640F22A4720688E
:10566000416B394212D1416B890204D5FFF7FAFB35
:105670004AF82600761CFBF7E5FBA0EB0B00401C6C
:10568000EDD14FF0004009B0BDE8F08F416B090744
:1056900003D5C0F838800820F5E7416B890703D5AA
:1056A000C0F838900220EEE7416B890603D520212F
:1056B00081630846E7E740F23A518163019800BAF6
:1056C0002860009800BA68600020DCE710B590B050
:1056D00004460120ADF838002068FFF79BFB002846
:1056E00054D0606C032842D02068FFF7E6FC002805
:1056F0004AD100212068FFF791FB606704212068F0
:10570000FFF78CFBA06708212068FFF787FBE067A5
:105710000C212068FFF782FBC4F88000606C03282E
:1057200025D00EA92068FFF725FD00282CD1606C3C
:1057300003281CD0BDF83800206501042068FFF75D
:10574000D2FC002820D100212068FFF767FB6066AB
:1057500004212068FFF762FBA06608212068FFF79C
:105760005DFBE0660C212068FFF758FB20670421F1
:105770002068FFF753FB000DE06403A92046FBF708
:10578000C7FF30B14FF0805010B010BD4FF08060B7
:10579000FAE7B4F85000002302042068FFF774FC15
:1057A0000028F1D104F1100007C88DE8070094E843
:1057B0000F00FFF73DFB0020E6E700002DE9F84F62
:1057C0000026044600963546B0460068FFF7C8FB41
:1057D000002827D12068FFF7EBFB4FF0805B4FF0EC
:1057E00001094FF6FF7748B1A6642068FFF7B8FBC0
:1057F000002817D1A06C012802D020E0C4F84890FE
:1058000000212068FFF746FB58B918E00021206806
:10581000FFF740FB002805D151462068FFF754FBF5
:1058200010B15846BDE8F88F00212068FFF7F6FA5E
:1058300005464FEAD0780098401C009002E0DFF85F
:105840002CA00098B84202D2B8F1000FDED0009828
:10585000B84202D34FF08070E4E7680002D5C4F884
:10586000449000E066640020DCE70000000010C106
:105870007FB5124C05460120207001F048FCC8B1EC
:10588000FAF7C2FE18B92846FFF7F6FD2070207817
:1058900001280FD0606868B9094B0FCB8DE80F0065
:1058A0000021684601F04DFC606018B9207840F096
:1058B00001002070207804B070BD0000800000203E
:1058C000D88E000810B5124888B014460078C0077A
:1058D00002D0032008B010BDC1B1012905D00229B2
:1058E00008D003290CD00420F4E76846FAF77AFEC2
:1058F00006980AE06846FAF775FE0798208005E0EA
:105900006846FAF76FFE0798400A20600020E1E73A
:10591000800000202DE9FE4347F230541E46174612
:10592000884601252046FFF7B7FD00281EDB3246DA
:1059300039464046FAF788FEC0B90F48224641680A
:10594000684601F011FCDDE9001010290ED1012894
:105950000CD101F0EAFB064603E000BFFAF748FE6F
:1059600038B101F0E2FB801BA042F7D32846BDE826
:10597000FE830025FAE7000080000020FFF77CBDD1
:105980002DE9FE4347F230541D461746884601264E
:105990002046FFF781FD00281EDB2A463946404697
:1059A000FAF768FEC0B90F4822464168684601F020
:1059B000DBFBDDE9001010290ED102280CD101F02B
:1059C000B4FB054603E000BFFAF712FE38B101F060
:1059D000ACFB401BA042F7D33046BDE8FE83002657
:1059E000FAE7000080000020014603480069002813
:1059F00001D002F01BBB704770050020012001F0B0
:105A00007FFBFBE710B504A000F082F900F072FC08
:105A1000BDE8104000F046BC0D0A72756E2073742C
:105A20006172742D210D0A0010B5502080F3118889
:105A3000BFF34F8FBFF36F8F03F02CF818B10449F9
:105A40004FF080500860002080F3118810BD0000E6
:105A500004ED00E030B593B030216846FAF76CFCF5
:105A600014210CA8FAF768FC20480025016841F0D1
:105A700080510160006800F0805011901C4801685E
:105A800041F4404101600068022400F4404011905C
:105A900001200090000401908001CDE9064019200A
:105AA00008904FF4B470CDE9090408200B906846C3
:105AB000FBF700FC08B172B6FEE7FBF7B7FA08B1D6
:105AC00072B6FEE70CA90F2081E831004FF4A05018
:105AD0000F904FF48050109005210CA8FBF7DEFAD0
