:020000040800F2
:10000000288B001081020008316400084D3500087B
:100010002D640008BD070008297F000800000000CB
:10002000000000000000000000000000C101000806
:1000300057090008000000001D020008C1780008F0
:100040009B0200089B0200089B020008C56500088F
:100050009B0200089B020008590900089B02000847
:100060009B0200089B0200089B0200089B020008FC
:100070009B0200089B0200089B0200089B020008EC
:100080009B0200089B0200089B0200089B020008DC
:100090009B0200089B0200089B0200089B020008CC
:1000A0009B0200089B0200089B0200089B020008BC
:1000B0009B020008D1790008E17900089B02000842
:1000C0009B0200089B0200089B0200089B0200089C
:1000D0009B0200089B0200089B0200089B0200088C
:1000E0009B020008956400089B0200089B02000820
:1000F0009B0200089B0200089B0200089B0200086C
:100100009B020008996600089B0200089B020008F9
:100110009B0200089B0200089B0200089B0200084B
:100120009B0200089B0200089B0200082D080008A3
:100130009B0200089B0200089B0200089B0200082B
:100140009B0200089B0200089B0200089B0200081B
:100150009B0200083D0800089B0200089B02000863
:100160009B0200089B0200089B0200089B020008FB
:100170009B0200089B0200089B0200080000000090
:100180009B0200089B0200089B0200089B020008DB
:100190009B0200089B0200089B0200089B020008CB
:1001A0009B0200089B0200089B020008DFF80CD0AD
:1001B00000F028FA00480047654C0308288B00101F
:1001C0002C4B19680868B0E8F04F80F30988BFF33A
:1001D0006F8F4FF0000080F311887047000000001F
:1001E00008480068006880F308884FF0000080F33A
:1001F000148862B661B6BFF34F8FBFF36F8F00DF15
:1002000000BF00BF08ED00E0DFF80C00016841F41A
:1002100070010160704700BF88ED00E0EFF30980D6
:10022000BFF36F8F134B1A681EF0100F08BF20ED3D
:10023000108A20E9F04F106009B44FF0500080F3AD
:100240001188BFF34F8FBFF36F8F3BF0FDFB4FF073
:10025000000080F3118809BC19680868B0E8F04F05
:100260001EF0100F08BFB0EC108A80F30988BFF3AE
:100270006F8F704738000020EFF305807047000053
:100280000648804706480047FEE7FEE7FEE7FEE730
:10029000FEE7FEE7FEE7FEE7FEE7FEE7B5790008CA
:1002A000AD0100082DE9F05F0546002092469B460F
:1002B00088460646814640241BE02846414647467C
:1002C000224600F031F953465A46C01A914110D3E4
:1002D00011461846224600F018F92D1A67EB01085E
:1002E0004F4622460120002100F00FF917EB0009CC
:1002F0004E41201EA4F10104DFDC484631462A4667
:100300004346BDE8F09F40EA01039B0703D009E0A4
:1003100008C9121F08C0042AFAD203E011F8013BF1
:1003200000F8013B521EF9D27047D2B201E000F84A
:10033000012B491EFBD270470022F6E710B5134689
:100340000A4604461946FFF7F0FF204610BD10B5D7
:10035000044604E00B7800F8013B03B1491C521E2F
:10036000F8D2204610BD421C10F8011B0029FBD119
:10037000801A704710B5002200E0521C835C8C5C30
:10038000A34201D1002BF8D1D8B2E1B2401A10BD7E
:1003900030B504460020034600E05B1C934203D2C4
:1003A000E05CCD5C401BF8D030BD034611F8012B5A
:1003B00000F8012B002AF9D11846704730B50546E0
:1003C0000020034600E05B1C934205D2EC5CC85C55
:1003D000201A01D1002CF6D130BD2DE9FE4F81EA63
:1003E000030404F0004421F0004100944FF0000B9E
:1003F00023F0004350EA01045ED052EA03045BD0CC
:10040000C3F30A54C1F30A552C44A4F2F334019403
:10041000A0FB0254C1F3130141F48011C3F3130391
:1004200043F4801301FB024400FB034E840A970A45
:1004300044EA815447EA8357A4FB076802958D0A72
:1004400005FB07854FEA932C04FB0C542705029DFE
:100450004FEA065847EA1637B5EB08056EEB070C6E
:10046000870E920E47EA811742EA8312A7FB020128
:10047000B6EB0B0164EB00042B0D43EA0C335E1862
:1004800044EB1C50DA465146E7FB0201C5F3130466
:100490004FEA0B3343EA14534FEA0432019C43EA18
:1004A0000603A4F10C040294009CCDE900B400F012
:1004B0005AF803B0BDE8F08F00200146F9E70EB509
:1004C00040F2334102910021CDE900110A460B466A
:1004D00000F049F803B000BDC1F30A5210B5C1F3F2
:1004E000130140F2FF3341F480119A4201DA0020F7
:1004F00010BD40F233439A42A2F2334203DC52422F
:1005000000F012F810BD904010BD202A04DB203A04
:1005100000FA02F1002070479140C2F1200320FA56
:1005200003F3194390407047202A04DB203A21FA54
:1005300002F00021704721FA02F3D040C2F12002FC
:10054000914008431946704710B5141E73F100041A
:1005500008DA401C41F1000192185B411A4301D1B5
:1005600020F0010010BD2DE9F04D92469B4611B1DF
:10057000B1FA81F202E0B0FA80F220329046FFF741
:10058000C4FF04460F4640EA0A0041EA0B01534605
:100590005A46084313D0114653EA010019D0C8F156
:1005A00040025046FFF7C0FF05460E4650465946EA
:1005B0004246FFF7AAFF084305D0012004E0204689
:1005C0003946BDE8F08D0020054346EAE0762C432D
:1005D00037430A986305E40AA0EB08000022FD0AED
:1005E00044EA47540A3002D500200146E9E70105F4
:1005F00010196941DDE9084500196941BDE8F04D70
:10060000A2E70000064C074D06E0E06840F0010359
:1006100094E8070098471034AC42F6D3FFF7CAFDC0
:10062000501604088016040870B58C1810F8015B89
:1006300015F0070301D110F8013B2A1106D110F87B
:10064000012B03E010F8016B01F8016B5B1EF9D17F
:100650002B0705D40023521E0DD401F8013BFAE705
:1006600010F8013BCB1A921C03E013F8015B01F870
:10067000015B521EF9D5A142D8D3002070BD000005
:1006800010B5044612480078072800DB10BD104959
:10069000097801EBC10202EB01120E4901EB4200A5
:1006A0003221FFF749FE0A49097801EBC10202EB4A
:1006B0000112084901EB420031222146FFF747FEB3
:1006C00003480078401C0249087000BFDEE70000C4
:1006D00024000020640800207047000010B5044684
:1006E0002146024802F0E8F810BD0000BCF60120E7
:1006F00010B5044802F0F3F8042801D0012010BD21
:100700000020FCE7BCF6012010B5002400F014F82E
:10071000012801D0012010BD064802F001FA04466C
:1007200034B94FF40061034801F08CFF00B101249B
:100730002046F0E7BCF6012008B5012000909DF8A6
:10074000000008BD2DE9F04104460D46164600277D
:1007500033462A462146044802F008FB00B101272F
:100760003846BDE8F0810000BCF6012010B500223B
:1007700001210248006835F033FA10BDA8000020BE
:100780002DE9F04104460D461646002733462A4619
:100790002146044802F09EFB00B101273846BDE81F
:1007A000F0810000BCF6012010B5002202210248B1
:1007B000006835F015FA10BDA800002000BFFEE764
:1007C00010B53BF049FF1249086008460068B0F5D3
:1007D000805F0BD240F6B83035F07BF90C484069A9
:1007E00020F00400001D0A49486110E00848006834
:1007F000B0F5A05F0BD806480068B0F5805F06D35F
:100800000348406920F00300401C0149486110BDC5
:100810004008002010B50021034A116051605921A1
:10082000312005F06FFD10BDC800002010B5024852
:1008300000F0F8F910BD000040F7012010B50248A3
:1008400000F0F0F910BD0000A0F701200146087883
:1008500010381823B0FBF3F20848805CC865032AFF
:1008600005D908686FF30900001D886503E0086872
:100870006FF309008865886D7047000038D703085A
:10088000014600208A6A8B69CBB932B1012A0DD0AA
:10089000022A03D0032A10D10EE000BFCB6A03F076
:1008A0008073B3F1807F00D1012007E0CB6AB3F100
:1008B000C07F00D1012001E000E000BF34E08B697F
:1008C000B3F5005F1AD132B1012A07D0022A03D052
:1008D000032A11D10AE000BF01200EE0CB6A03F029
:1008E0008073B3F1807F00D1012006E0CB6AB3F1C1
:1008F000C07F00D1012000E000BF15E032B1012A25
:1009000005D0022A04D0032A0CD103E000BF00BFA7
:10091000012008E0CB6A03F08073B3F1807F00D13F
:10092000012000E000BF00BF704730B504682468B4
:1009300024F4802405682C60046863608468402C7B
:1009400004D10468A2600468E16003E00468A16067
:100950000468E26030BD704710B5012000F0C0FBB4
:1009600010BD72B600BFFEE708B51248006900B9B5
:1009700008BD4FF47A7034F059FE00B9F8E70D481D
:10098000406810B902F0F6FDF2E70120094A009034
:100990005168012310691A463BF092FD05498860B1
:1009A000084640688968884201D102F0E3FD00BF33
:1009B000DEE700004008002030B504460D46002266
:1009C0002946204600F002F830BD0000F0B503468D
:1009D000012500241148407A01281CDA00200F4E1E
:1009E000767A0E4FB8553846467A001D40F82630C4
:1009F000001F467A083082553E46707A461C7E7249
:100A0000044604F1300008703A2048702F208870A6
:100A10000020C87000252846F0BD00008412002088
:100A200070B504461D460023B5F5804F13D154F828
:100A300022300C480340D1E9000640EA06108E68D7
:100A400040EA06208E8940EA06408E69304303431F
:100A500044F8223003E06FF0704044F82200002098
:100A600070BD00000000F0CF10B5024600230868FA
:100A700052F8203018480340D1E901042043CC68E3
:100A800020430C6920434C6920438C692043CC6986
:100A900020430C6A20434C6A20438C6A2043CC6A72
:100AA0002043CC6B20430C6B20434C6B204303430F
:100AB0008868082801D143F04003086842F82030D4
:100AC000486BB0F5801F05D1086818B110684C6BF1
:100AD00020431060002010BD8000E0FF30B50346C9
:100AE00014460022601C53F8202002F04042D1E955
:100AF000000540EA05108D6840EA05208D8940EA2E
:100B00000545088A401E45EA0055087D801E45EAD5
:100B100000608D6928430243601C43F82020186858
:100B200000F48010B0F5801F07D1586820F47002DF
:100B3000088A401E42EA00525A60002030BD000080
:100B400038B500250020009000243AF0D1FB05467E
:100B500027488069A84238D00020254948600846C7
:100B60008561C06928B1C8693AF0D0FC00202049ED
:100B7000C8611F48806900EBC0008400204635F042
:100B8000DDFD1B49C8610846C06918B1C869214626
:100B9000FFF7D2FB1648006A30B11549086A3AF0EF
:100BA000B5FC00201249086211488069C0EBC00002
:100BB000C400204635F0C2FD0D4908620846006AAF
:100BC00018B1086A2146FFF7B7FB0948C06900B9A8
:100BD00038BD074A9169D0696A463AF0A3FB0546D9
:100BE00000F0A2FB0249C1F8840100BFF0E7000059
:100BF00040080020014691F83500022803D08020EB
:100C0000486501207047052081F8350008680068B4
:100C100020F001000A6810600020F3E70146486DEB
:100C200070470000F8B50446002000908C4800682A
:100C30004FF41651B0FBF1F7A56D2E6894F85C10D7
:100C400008208840304098B12068006800F0040017
:100C500070B12068006820F004002168086094F8F2
:100C60005C1008208840A860606D40F0010060655D
:100C700094F85C1001208840304068B120684069D9
:100C800000F0800040B194F85C1001208840A8601A
:100C9000606D40F00200606594F85C1004208840AC
:100CA000304068B12068006800F0020040B194F85C
:100CB0005C1004208840A860606D40F0040060650E
:100CC00094F85C1010208840304078B320680068A9
:100CD00000F0080050B394F85C1010208840A86021
:100CE0002068006800F4802080B12068006800F46B
:100CF000002028B9206CC8B12046216C884715E037
:100D0000A06C98B12046A16C88470FE0206800686D
:100D100000F4807028B92068006820F0080021687D
:100D20000860206C10B12046216C884794F85C1054
:100D3000202088403040002865D02068006800F0FE
:100D4000100000285FD094F85C1020208840A86034
:100D500094F83500052828D12068006820F0160096
:100D6000216808602068406920F08000216848619F
:100D7000206C08B9A06C28B12068006820F0080039
:100D80002168086094F85C103F208840A86000BF8C
:100D9000002084F8340000BF012084F83500206D65
:100DA00010B12046216D8847F8BD2068006800F426
:100DB000802080B12068006800F4002028B9606CB1
:100DC00010B12046616C88471DE0E06BD8B1204629
:100DD000E16B884717E02068006800F4807068B90C
:100DE0002068006820F010002168086000BF002023
:100DF00084F8340000BF012084F83500E06B10B1A6
:100E00002046E16B8847606D38B3606D00F00100EB
:100E1000F0B1052084F835002068006820F001005A
:100E20002168086000BF0098401C0090B84200D9BB
:100E300005E02068006800F001000028F3D100BF41
:100E400000BF002084F8340000BF012084F8350082
:100E5000E06C10B12046E16C884700BFA4E70000B9
:100E6000340000202DE9F0410446002500F05CFA32
:100E7000074614B90120BDE8F081606A00B100BFE7
:100E800000BF002084F8340000BF022084F8350041
:100E90002068006820F00100216808600AE000F086
:100EA00043FAC01B052805D920206065032084F87B
:100EB0003500E0E72068006800F001000028EED16E
:100EC0002068056821480540D4E901010843E1682C
:100ED00008432169084361690843A1690843E1693E
:100EE0000843216A08430543606A042803D1D4E912
:100EF0000B0108430543206805602068456925F01B
:100F00000705606A0543606A04280DD1A06A05439D
:100F1000E06A48B12046FFF7B3FC28B14020606585
:100F2000012084F83500A6E7206845612046FFF7D8
:100F30008DFC064694F85C103F208840B06000208D
:100F40006065012084F83500002094E73F8010F0B0
:100F50002DE9F04704460D4616461F464FF000089F
:100F6000D4F8589000BF94F83400012802D1022030
:100F7000BDE8F087012084F8340000BF94F8350004
:100F8000012825D1022084F83500002060653B4609
:100F9000324629462046FFF7C8FC94F85C103F20F3
:100FA0008840C9F808002068006840F016002168F1
:100FB0000860206C28B12068006840F008002168B3
:100FC00008602068006840F001002168086006E0C1
:100FD00000BF002084F8340000BF4FF002084046F4
:100FE000C6E7000070B5044600F09EF906462546A7
:100FF000681C10B104480078054400BF00F094F963
:10100000801BA842FAD370BD3000002000B587B025
:10101000142102A8FFF790F92348006808B107B02F
:1010200000BD01202049086000BF002001901F483A
:10103000006840F001001D4908600846006800F0A3
:101040000100019000BF00BF4FF6807002900220A7
:10105000039000200490032005900C20069002A924
:10106000134800F04BF84EF2B37002900220039048
:1010700000200490032005900C20069002A90D4842
:1010800000F03CF84FF480500290022003900020C2
:101090000490032005900C20069002A9064800F059
:1010A0002DF800BFBBE70000D00000203838024018
:1010B00000100240000C02400018024010B5044627
:1010C000012C0BD116F04EFF10B1012804D102E023
:1010D00038F06AF801E000E000BF00BF10BD00007A
:1010E00010B5044604480068204020B1024804605E
:1010F0002046FFF7E3FF10BD143C0140F8B502465F
:101100000B460025002400200021E6E0012606FA17
:1011100001F51E6806EA0504AC4273D15E68012E33
:1011200008D05E68022E05D05E68112E02D05E687F
:10113000122E13D190684F000326BE40B0434F00DB
:10114000DE68BE4030439060506801268E40B04358
:101150001E79C6F300168E4030435060D0684F00B1
:101160000326BE40B0434F009E68BE403043D0606F
:101170005E68022E02D05E68122E13D1CF0802F1F3
:10118000200656F827004E07F70E0F26BE40B04344
:101190004F07FF0E1E69BE403043CF0802F1200604
:1011A00046F8270010684F000326BE40B0431E7962
:1011B00006F003064F00BE40304310605E6806F044
:1011C0008056B6F1805FA8D100BF00260096454E3C
:1011D000366846F48046434F3E603E46366806F425
:1011E0008046009600BF00BF3F4E8F0856F827008C
:1011F0008E07370F0F26BE40B0433C4EB24202D19D
:1012000000262EE068E03A4EB24201D1012628E0E5
:10121000384EB24201D1022623E0374EB24201D10C
:1012200003261EE0354EB24201D1042619E0344EA9
:10123000B24201D1052614E0324EB24201D1062657
:101240000FE0314EB24201D107260AE02F4EB242E2
:1012500001D1082605E02E4EB24201D1092600E058
:101260000A268F073F0FBE4030431F4E8F0846F8B7
:101270002700284E3068A0435E6806F48036B6F535
:10128000803F00D12043234E3060361D3068A0439C
:101290005E6806F40036B6F5003F00D120431D4ECF
:1012A000361D3060361D3068A0435E6806F4801637
:1012B000B6F5801F00D12043164E08363060361D2B
:1012C0003068A0435E6806F40016B6F5001F00D132
:1012D0002043104E0C363060491C1029FFF416AF25
:1012E000F8BD0000443802400838014000000240C8
:1012F0000004024000080240000C024000100240BE
:101300000014024000180240001C0240002002406D
:1013100000240240003C0140024613690B400BB11F
:10132000012000E00020704701480068704700007D
:101330002800002010B504460CB9012010BD94F817
:10134000390028B9002084F83800204602F0BAF8A5
:10135000242084F839002068C06820F400502168F7
:10136000C860204606F0ECFB2068006920F490403D
:10137000216808612068406920F0220021684861E6
:101380002068406940F00800216848612068C06812
:1013900040F400502168C8600020E063202084F8F9
:1013A000390084F83A000020C8E770B504460CB94B
:1013B000012070BD4CF6CC402168086045F25550C4
:1013C00021680860D4E9001048602168A06888603E
:1013D000FFF7AAFF054606E0FFF7A6FF401B3028EF
:1013E00001D90320E5E72068C0680028F4D14AF657
:1013F000AA20216808600020DBE701464AF6AA20FF
:101400000A681060002070470348006803490978A3
:10141000084401490860704728000020300000207F
:1014200010B50D48006840F400700B49086008468C
:10143000006840F4806008600846006840F48070EE
:101440000860032000F0C8F8002000F007F800F062
:101450004BF8002010BD0000003C024070B588B081
:10146000044600250026002221461E2000F076F8C2
:101470001E2000F063F800BF0020019016480068AD
:1014800040F00400144908600846006800F00400B9
:10149000019000BF00BF02A903A800F07FFB00F08D
:1014A000A5FB45000D48B5FBF0F0461E0C480D4964
:1014B000086040F2E7310B48C160466000210161DD
:1014C000816001F041FE20B9064801F07BFE08B0C2
:1014D00070BD0120FBE700004038024040420F0091
:1014E00000080040F407002008B500BF002000906D
:1014F0001148006840F480400F49086008460068C1
:1015000000F48040009000BF00BF00BF00200090AA
:10151000081F006840F08050091F086008460068F6
:1015200000F08050009000BF00BF00220F21901EED
:1015300000F014F808BD0000443802400146084697
:10154000002809DB00F01F0301229A4043099B0099
:1015500003F1E023C3F8002100BF70472DE9F05FDD
:1015600080460D461646002706F0F0FC0746394631
:101570002A46334601F00700C0F1070ABAF1040F0A
:1015800002D94FF0040A01E0C0F1070AD14600F188
:10159000040ABAF1070F02D24FF0000A01E0A0F1ED
:1015A000030AD4464FF0010A0AFA09FAAAF1010A1D
:1015B0000AEA020A0AFA0CFA4FF0010B0BFA0CFBCA
:1015C000ABF1010B0BEA030B4AEA0B042146404640
:1015D00006F0C4FCBDE8F09F00BF00F00702064B18
:1015E00019684FF6FF031940044B0B4343EA0221ED
:1015F000014B196000BF70470CED00E00000FA05D8
:1016000000BF00BF00BF00BF00BFBFF34F8F00BFD0
:1016100000BF00BF0948006800F4E06008490843C3
:10162000001D0649086000BF00BF00BFBFF34F8F19
:1016300000BF00BF00BF00BF00BFFDE70CED00E032
:101640000000FA0538B5002400BF002000901D48B6
:10165000006840F080501B4908600846006800F0B0
:101660008050009000BF00BF012017490864FFF7B9
:101670005BFE044607E0FFF757FE001BB0F57A7FDC
:1016800001D9032038BD1148406800F48030B0F51E
:10169000803FF0D101200C494864FFF745FE044625
:1016A00007E0FFF741FE001BB0F57A7F01D9032068
:1016B000E8E70648406800F40030B0F5003FF0D19C
:1016C0000020DFE74038024000000E42007000407A
:1016D000012001490862704700000E420249496832
:1016E0000143014A5160704700700040074800689C
:1016F00040F00200054908600548006840F0040019
:101700000349086000BF00BF30BF70470070004051
:1017100010ED00E0F8B5044600250026207800F022
:10172000010048B9207800F00200022804D0207897
:1017300000F04000402862D10020B1498866FFF7E0
:10174000F3FD054606E0FFF7EFFD401B022801D937
:101750000320F8BDAB480068C0F3C0600028F2D198
:10176000207800F0010038B160688101207A41EAF8
:101770000070A44984310860207800F0020002283B
:1017800019D1A04884300068C0F3027660688101F6
:10179000207B41EA006040EA06709A498431086083
:1017A00098488C30006820F01F00E169491E08430A
:1017B00094498C310860207800F0400040280AD11C
:1017C00060688101207B41EA0061207A41EA007073
:1017D0008C4984310860012089498866FFF7A4FD9F
:1017E000054606E0FFF7A0FD401B022801D90320B3
:1017F000AFE784480068C0F3C0600028F2D02078CA
:1018000000F00400042804D0207800F00800082824
:1018100063D100207A490867FFF786FD054606E098
:10182000FFF782FD401B022801D9032091E775488C
:101830000068C0F340700028F2D1207800F0040066
:10184000042819D16F4888300068C0F302762069F7
:101850008101207D41EA006040EA067069498831D3
:101860000860081D006820F4F851206A401E41EA13
:10187000002064498C310860207800F008000828B6
:1018800017D1604888300068C0F303662069800182
:1018900040EA0661207E41EA00705A4988310860BA
:1018A000081D006820F44030616A084355498C31B6
:1018B0000860012052490867FFF736FD054606E03B
:1018C000FFF732FD401B022801D9032041E74D48B4
:1018D0000068C0F340700028F2D0207800F02000AB
:1018E00020287DD100BF002000904648403000688D
:1018F00040F080504349403108600846006800F0DD
:101900008050009000BF00BF3F48006840F48070E6
:101910003D490860FFF708FD054606E0FFF704FDB6
:10192000401B022801D9032013E73748006800F460
:1019300080700028F2D033487030006800F44076A0
:101940004EB3208D00F44070B04224D02D4870304A
:10195000006820F4407601202C49086000200860CF
:10196000284870300660006800F0010098B1FFF769
:10197000DBFC054608E0FFF7D7FC401B41F288314D
:10198000884201D90320E4E61E4870300068C0F3A5
:1019900040000028EFD000BF208D00F44070B0F56B
:1019A000407F0CD117480830006820F4F810184A1E
:1019B000A16A1140084313490831086007E0114843
:1019C0000830006820F4F8100E49083108600D480E
:1019D00070300068218DC1F30B010843094900E014
:1019E00002E07031086000BF207800F0100010287D
:1019F00003D194F82C00074908600020A9E60000F4
:101A0000000047420038024000700040400E47424C
:101A1000FFFCFF0FE011474270B504460D460CB9BC
:101A2000012070BD5848006800F00F00A84209D29C
:101A300055490D700846006800F00F00A84201D01B
:101A40000120EEE7207800F0020002281DD1207866
:101A500000F00400042805D14C48006840F4E05030
:101A60004A490860207800F00800082805D1474856
:101A7000006840F46040454908604448006820F030
:101A8000F000A168084341490860207800F0010097
:101A9000A8B36068012807D13C4808380068C0F343
:101AA0004040B8B90120BCE76068022802D06068F5
:101AB000032807D1354808380068C0F3406048B9AA
:101AC0000120AEE7314808380068C0F3400008B98B
:101AD0000120A6E72D48006820F003006168084354
:101AE0002A490860FFF720FC064609E0FFF71CFCC6
:101AF000801B41F28831884202D9032091E707E038
:101B00002248006800F00C006168B0EB810FEDD155
:101B10001D48006800F00F00A84209D91A490D704D
:101B20000846006800F00F00A84201D0012078E7C5
:101B3000207800F00400042807D11448006820F43D
:101B4000E050E168084311490860207800F008007F
:101B5000082808D10D48006820F46040216940EA57
:101B6000C1000A49086000F061F808490968C1F33A
:101B70000311074A515CC8400649086006480068DE
:101B8000FFF76CFC00204CE7003C024008380240A4
:101B900040D70308340000202C0000200F220260F0
:101BA0000D4A126802F0030242600B4A126802F00A
:101BB000F0028260084A126802F4E052C260064AEB
:101BC000126802F46042D2080261044A126802F00C
:101BD0000F020A607047000008380240003C0240D3
:101BE00001480068704700003400002000B5FFF78E
:101BF000F7FF04490968C1F38221034A515CC840D8
:101C000000BD00000838024050D7030800B5FFF7B8
:101C1000E7FF04490968C1F34231034A515CC840F7
:101C200000BD00000838024050D703082DE9F047F6
:101C3000002400250026A1462548006800F00C007D
:101C400020B1042805D008283AD105E0DFF88490B7
:101C500039E0DFF8849036E01D48001F006800F08E
:101C60003F041B48001F006800F4800078B11A4848
:101C70001749091F0968C1F38811A0FB01700146CB
:101C8000224600233846FEF70DFB05460EE01148BC
:101C90000F49091F0968C1F38811A0FB01700146B3
:101CA000224600233846FEF7FDFA05460848001F85
:101CB0000068C0F30140401C4600B5FBF6F902E0A5
:101CC000DFF8109000BF00BF4846BDE8F087000075
:101CD000083802400024F40040787D01F8B504463D
:101CE0000CB90120F8BD207800F00100002874D064
:101CF000F948006800F00C0004280DD0F648006890
:101D000000F00C00082813D1F348001F006800F40D
:101D10008000B0F5800F0BD1EF4808380068C0F3A1
:101D20004040002859D06068002856D10120D9E7EA
:101D300000BF6068B0F5803F08D1E7480838006808
:101D400040F48030E449083908601EE06068B0F56E
:101D5000A02F0DD1E0480838006840F48020DE490B
:101D6000083908600846006840F4803008600CE0DC
:101D7000D9480838006820F48030D749083908600D
:101D80000846006820F48020086000BF606890B1B9
:101D9000FFF7CAFA054606E0FFF7C6FA401B6428BB
:101DA00001D903209EE7CC4808380068C0F34040C2
:101DB0000028F1D011E0FFF7B7FA054606E0FFF77B
:101DC000B3FA401B642801D903208BE7C2480838C6
:101DD0000068C0F340400028F1D1207800F00200F4
:101DE00002285FD1BC48006800F00C0058B1BA4826
:101DF000006800F00C0008281CD1B748001F0068DC
:101E000000F48000B0B9B44808380068C0F340005E
:101E100020B1E068012801D0012063E7AE4808380E
:101E2000006820F0F800216940EAC100AA49083999
:101E3000086037E0E06800B30120A8490860FFF7B8
:101E400073FA054606E0FFF76FFA401B022801D936
:101E5000032047E7A04808380068C0F34000002886
:101E6000F1D09D480838006820F0F800216940EA68
:101E7000C10099490839086014E0002097490860BA
:101E8000FFF752FA054606E0FFF74EFA401B02281C
:101E900001D9032026E7904808380068C0F34000C5
:101EA0000028F1D1207800F0080008282CD16069C2
:101EB000A8B101208A490860FFF736FA054606E016
:101EC000FFF732FA401B022801D903200AE78248B3
:101ED0006C300068C0F340000028F1D014E000200E
:101EE0007F490860FFF720FA054606E0FFF71CFA75
:101EF000401B022801D90320F4E677486C300068C3
:101F0000C0F340000028F1D1207800F0040004283C
:101F100070D1002770483830006800F0805090B9C8
:101F200000BF002000906C483830006840F08050BE
:101F30006949383108600846006800F08050009018
:101F400000BF00BF01276748006800F48070B0B987
:101F50006448006840F4807062490860FFF7E4F963
:101F6000054606E0FFF7E0F9401B022801D90320EF
:101F7000B8E65C48006800F480700028F2D000BF2A
:101F8000A068012808D154486830006840F001007A
:101F90005149683108601DE0A06805280DD14E4800
:101FA0006830006840F004004B496831086008461A
:101FB000006840F0010008600CE0474868300068A5
:101FC00020F001004449683108600846006820F0AC
:101FD0000400086000BFA068A8B1FFF7A5F9054696
:101FE00009E0FFF7A1F9401B41F28831884202D98C
:101FF000032077E626E0384868300068C0F34000E8
:102000000028EED013E0FFF78FF9054608E0FFF750
:102010008BF9401B41F28831884201D9032061E6E7
:102020002D4868300068C0F340000028EFD1012F30
:1020300007D129483830006820F0805026493831CF
:10204000086000BFA069002845D02348006800F060
:102050000C0008285DD0A069022845D100201F4946
:102060000866FFF761F9054606E0FFF75DF9401BDA
:10207000022801D9032035E6174808380068C0F364
:1020800040600028F1D1D4E907010843616A40EAC1
:1020900081110122A06AC2EB500041EA00412C20CC
:1020A000005D41EA00600C49091F086001200B49EE
:1020B0000866FFF739F9054606E0FFF735F9401BDA
:1020C000022801D903200DE6034808380068C0F350
:1020D00040600028F1D03FE008380240000047424D
:1020E000800E47420070004000201C490866FFF740
:1020F0001BF9054606E0FFF717F9401B022801D936
:102100000320EFE516480068C0F340600028F2D1D4
:1021100022E0A069012800D1E4E51148001D06680D
:1021200006F48001E069814214D106F03F01206A83
:1021300081420FD147F6C0703040616A884209D1B0
:1021400006F44031A06A814204D106F07061E06A71
:10215000814201D00120C5E50020C3E500004742CF
:1021600000380240704702460023106800F1500317
:1021700003EB81031868704710B50023046804F16D
:10218000500303EB81031A6010BD704710B504467D
:102190002068C068C0F3802050B12046FFF7F5FFEB
:1021A0002068C06800F0800060F490602168C8601A
:1021B0004FF48000024908600120607710BD0000E4
:1021C000143C014010B5044600BF03F047FF8E23C6
:1021D00004A20A490AA005F0A9FE03F033FF00BFDC
:1021E00010BD00002E2E5C5372635C6472765C72CC
:1021F00074635C7274632E6300000000B1D703083F
:102200001B5B313B33316D5B202573205D20202526
:102210007320286C696E6520256429202D3E20419D
:102220004C41524D2041210D0A0D0A1B5B306D00BF
:1022300010B5044620688068C0F3003078B120688B
:10224000C068C0F3002050B12046FFF7BBFF2068F4
:10225000C06800F0800060F4C0702168C860206829
:102260008068C0F3403078B12068C068C0F3402077
:1022700050B12046FFF776FF2068C06800F080006C
:1022800060F420702168C8604FF400300249086093
:102290000120607710BD0000143C014010B50446D9
:1022A0000CB9012010BD607F20B9002020772046A6
:1022B00000F060F80220607700BFCA202168486201
:1022C00053202168486200BF204604F0F8F840B16E
:1022D00000BFFF202168486200BF04206077012012
:1022E000E0E7206880682249084021688860216909
:1022F0006068084361690843216889680843216868
:1023000088602168E068086120680169208941EAE5
:102310000040216808612068C06820F080002168C2
:10232000C8602068806800F0200060B9204600F096
:1023300067F940B100BFFF202168486200BF042058
:1023400060770120AEE72068006C20F480202168CF
:1023500008642068006CA16908432168086400BF14
:10236000FF202168486200BF01206077002099E7C4
:10237000BFFF8FFF10B59AB0044600BF0020019048
:102380001148006840F080500F4908600846006816
:1023900000F08050019000BF00BFFFF799F90420C2
:1023A0000E9000201490012010900EA8FFF796FCCC
:1023B00020200290C0000C9002A8FFF7ABF901208A
:1023C000024908601AB010BD403802403C0E474236
:1023D0002DE9F04104460D461646002700BF207F38
:1023E000012802D10220BDE8F0810120207700BF42
:1023F000022060774EB9687800F01000102804D1F0
:10240000687800F0EF000A30687086B9E87804F068
:1024100049F80304687804F045F843EA0023A878F3
:1024200004F040F80343287843EA403709E0E878AD
:102430000004697840EA0120A9780843297840EA35
:10244000413700BFCA202168486253202168486292
:1024500000BF204604F033F860B100BFFF202168C0
:10246000486200BF0420607700BF0020207700BFD3
:102470000120B8E716483840216848602068C068E5
:1024800020F080002168C8602068806800F020008B
:1024900080B9204600F0B4F860B100BFFF20216889
:1024A000486200BF0420607700BF0020207700BF93
:1024B000012098E700BFFF202168486200BF01208B
:1024C000607700BF0020207700BF00BF8BE70000CF
:1024D0003FFFFF002DE9F04104460D461646002758
:1024E00000BF207F012802D10220BDE8F081012039
:1024F000207700BF02206077CEB92068806800F0A6
:10250000400000B102E00020E87000BF287803F02E
:10251000C9FF0304687803F0C5FF43EA0023A878E5
:1025200003F0C0FF0343E87843EA004712E0206865
:10253000806800F0400000B102E00020E87000BFB9
:1025400028780004697840EA0120A9780843E978EE
:1025500040EA014700BFCA20216848625320216831
:10256000486200BF204603F0AAFF60B100BFFF2011
:102570002168486200BF0420607700BF00202077F8
:1025800000BF0120B1E71D4838402168086020687D
:10259000806820F4802021688860D5E90301084321
:1025A000216889680843216888602068C06820F035
:1025B00080002168C8602068806800F0200080B931
:1025C000204600F01DF860B100BFFF20216848627E
:1025D00000BF0420607700BF0020207700BF0120EB
:1025E00083E700BFFF202168486200BF01206077B9
:1025F00000BF0020207700BF00BF76E77F7F7F000D
:1026000070B5044600252068C06820F0A00021684D
:10261000C860FEF789FE054607E0FEF785FE401B11
:10262000B0F57A7F01D9032070BD2068C06800F042
:1026300020000028F1D00020F6E710B50446FEF790
:102640004BF810BD70B58AB004460D46032084F8DF
:102650003400606C032820D0B5F5805F04D1A06BF6
:1026600040F08050A0631CE0B5F5006F07D1204614
:1026700004F0DFFE0646A06B3043A06311E03DB9D5
:10268000204604F0A2FE0646A06B3043A06308E09B
:10269000A06B40F00060A06303E0A06B40F08050AE
:1026A000A063A06B38B1104821688863012084F8CA
:1026B00034000AB070BD60680490A0680590E068BE
:1026C0000690079560690890A069099007A807C857
:1026D0008DE80700206804A90EC903F0E5FF01207A
:1026E00084F834000020E4E7FF0540007047000054
:1026F00010B50246506E800F0870506EC0F38360B4
:102700004870506EC0F301608870506E000CC87045
:10271000B2F86400000A087192F864004871906E83
:10272000000DC880906EC0F3034008726820805A84
:10273000C0F3C03048726820805AC0F3803088727D
:102740006820805AC0F34030C8726820805AC0F3B5
:102750000030087300204873506C002836D1682080
:10276000805A8005030DD06E43EA90700861D06EE8
:10277000C0F3C2600875D06EC0F302604875D06EB9
:10278000C0F342508875D06EC0F38240C875D06ED9
:10279000C0F3C23008760869401C50650B7E506D4E
:1027A00003F007039B1C01249C4060435065087A9A
:1027B00000F00F03012098409065D2E915035B0AF1
:1027C0005843D0654FF40073136621E0506C012824
:1027D00013D16820805C8006830AD06E43EA1040E3
:1027E00008610869401C83025365536DD3654FF43B
:1027F00000739365936D13660AE02E48136898631F
:10280000906B40F080509063012082F8340010BD3E
:102810006C20805AC0F3803001F8190F6C20805A68
:10282000C0F3C61048706C20805C00F07F00887098
:10283000106FC00FC870106FC0F341700871106F37
:10284000C0F382604871106FC0F383508871106FBD
:10285000C0F34050C87100200872106FC0F30040F0
:1028600048727020805AC0F3C03088727020805A3D
:10287000C0F38030C8727020805AC0F340300873B3
:102880007020805AC0F3003048737020805AC0F323
:10289000812088737020805AC0F30120C873702093
:1028A000805CC0F346000874012048741939002088
:1028B000ADE70000FF0540000246506C0860906CD8
:1028C0004860D06C8860106DC860506D0861906D74
:1028D0004861D06D8861106EC86100207047F8B5FE
:1028E0000446002000906946204604F056FD054647
:1028F00015B1A06B2843A0630098C0F3432630466F
:10290000F8BD000070B50446256B2068406BC0F32D
:10291000C03030B105F0080018B1204604F018FDB1
:10292000F8E02068406BC0F30020002862D04FF42C
:102930008070216888632068C06B4CF23A3188430C
:102940002168C8632068C06A20F001002168C8625D
:1029500005F0080038B305F0020010B905F02000BA
:1029600050B1206804F060F806462EB1A06B3043E9
:10297000A0632046FFF7BAFE40F23A502168886310
:10298000012084F834000020206305F0010010B914
:1029900005F0020018B1204600F092FABAE0204695
:1029A00000F093FAB6E005F080000028B8D005F0FA
:1029B000200050B1206804F037F806462EB1A06B15
:1029C0003043A0632046FFF791FE05F00100002888
:1029D000A6D105F002000028A2D12068C06A20F02C
:1029E00008002168C862012084F83400204600F005
:1029F0006CFA8FE02068406BC0F3803030B105F096
:102A0000080018B1204604F048FD83E02068406BC0
:102A100040F23A21084008B1012000E000200028DF
:102A200078D02068406BC0F3400018B1A06B40F034
:102A30000200A0632068406BC0F3C00018B1A06B17
:102A400040F00800A0632068406BC0F3401018B14C
:102A5000A06B40F02000A0632068406BC0F3001022
:102A600018B1A06B40F01000A0632068406BC0F369
:102A7000402018B1A06B40F00800A06340F23A700B
:102A8000216888632068C06B40F23A31884321682E
:102A9000C863206803F0C8FFA16B0843A06305F07A
:102AA000080040B1012084F8340000202063204653
:102AB000FFF71CFE2EE005F0800000B305F01000CB
:102AC00010B905F0200050B11348E16B0865E06BC8
:102AD000FEF790F898B1E06B04F095FA1AE005F073
:102AE000010010B905F0020050B10C48216C0865D6
:102AF000206CFEF77FF810B1206C04F057FA09E063
:102B00000020A063012084F83400002020632046C8
:102B1000FFF793FD70BD000007700008AD6F00085F
:102B200010B504460CB9012010BD94F8340020B94A
:102B300000202077204600F053F8032084F834006A
:102B4000204600F00BF808B10120EDE70020A0635B
:102B50002063012084F834000020E5E770B58AB0D6
:102B60000446002004900590069007900890762077
:102B7000099007A807C88DE80700206804A90EC9B6
:102B800003F092FD064616B101200AB070BD002088
:102B900012490860206803F0A1FD01200F49A03907
:102BA000C1F8A000204604F06DFB05463DB10120B0
:102BB00084F83400A06B2843A0630120E5E7204699
:102BC00004F0DFFA05463DB1012084F83400A06B23
:102BD0002843A0630120D8E70020D6E7A080254243
:102BE00010B586B00446142101A8FDF7A5FB58498D
:102BF000206888427ED100BF0020009055480068C0
:102C000040F40060534908600846006800F4006022
:102C1000009000BF00BF00BF002000904D48143856
:102C2000006840F004004B49143908600846006809
:102C300000F00400009000BF00BF00BF0020009023
:102C40000846006840F0080008600846006800F088
:102C50000800009000BF00BF4FF4F8500190022020
:102C6000029000200390032004900C20059001A9FD
:102C70003948FEF743FA0420019002200290002018
:102C80000390032004900C20059001A93348FEF71F
:102C900035FA3348334908604FF00060486000213E
:102CA00030488160C1604FF48061016189004161F9
:102CB000890081612021C1610021016204214162FA
:102CC000032181624FF40001C16289100163FEF7A4
:102CD000C9F808B1FDF745FE00BF224820648463AF
:102CE00000BF1F484830204908604FF0006048602E
:102CF000402100E029E01C4881600021C1604FF4C0
:102D00008061016189004161890081612021C16187
:102D10000021016204214162032181624FF400011C
:102D2000C16289100163FEF79DF808B1FDF719FE35
:102D300000BF0D48E063846300BF002205213120FD
:102D4000FEF70CFC3120FEF7F9FB06B010BD0000C9
:102D5000002C01404438024000080240000C0240B0
:102D60005864024040F70120A0F701202DE9F0430C
:102D700087B004460F4691461E46C8463FB9A06B31
:102D800040F00060A063012007B0BDE8F08394F834
:102D90003400012871D10020A06308EB0601E06D2A
:102DA000814205D9A06B40F00070A0630120EBE7E1
:102DB000032084F8340000202168C8622068C06BBA
:102DC00040F22A3108432168C8633948216CC8633E
:102DD0003848216CC8640020216C08657202930891
:102DE000226802F180013A46206CFEF7B1F880B10A
:102DF0002068C06B20F495702168C8632E48216854
:102E00008863A06B40F08040A063012084F8340008
:102E1000BAE7012029490860606C012801D04FEA17
:102E200048284FF40071206803F0BAFC05464DB104
:102E3000214821688863A06B2843A063012084F89F
:102E40003400A1E74FF0FF30019070020290902013
:102E5000039002200490002005900120069001A913
:102E6000206803F0F4FB012E08D98220206341463C
:102E7000206803F0FDFC054607E016E08120206392
:102E80004146206803F010FD054665B10A482168F7
:102E90008863A06B2843A063012084F834000020DD
:102EA0002063012070E700206EE702206CE700003D
:102EB000656F0008F16E0008FF0540008C85254213
:102EC00010B50446FDF752FC10BD10B50446FDF7E1
:102ED0006BFC10BD2DE9F04387B00446884691464F
:102EE0001E464F46B8F1000F07D1A06B40F00060BE
:102EF000A063012007B0BDE8F08394F834000128F6
:102F000077D10020A063B919E06D814205D9A06B8B
:102F100040F00070A0630120ECE7032084F8340047
:102F200000202168C8622068C06B40F21A21084363
:102F30002168C8633948E16BC8633948E16BC864EC
:102F40000020E16B0865606C012800D07F024FF41F
:102F50000071206803F024FC05464DB1314821681A
:102F60008863A06B2843A063012084F83400C1E784
:102F7000012E07D9A02020633946206803F072FD96
:102F8000054606E0902020633946206803F086FD60
:102F9000054665B1234821688863A06B2843A06378
:102FA000012084F83400002020630120A2E70120E2
:102FB0001D49086071028B08216801F180024146B9
:102FC000E06BFDF7C5FFA8B12068C06B40F21A2185
:102FD00088432168C863134821688863A06B40F068
:102FE0008040A063012084F8340000202063012089
:102FF00080E711E04FF0FF300190700202909020C6
:1030000003900020049005900120069001A92068FB
:1030100003F01DFB00206DE702206BE7F56F000851
:10302000F16E0008FF0540008C85254270B504460E
:103030000E4615460CB9012070BD94F8490028B918
:10304000002084F84800204600F01CF804F1080134
:103050002068FDF709FD3146A2682068FDF73EFDB6
:103060002946236BD4E90102FDF7DAFCA168206848
:1030700050F8210040F00100A268216841F82200C8
:103080000020D9E710B50446FDF7C0FF10BD70471A
:103090007047000030B502460B4600BF92F83C0076
:1030A000012801D1022030BD012082F83C0000BF80
:1030B000022082F83D00106844681068816824F09E
:1030C00070041868044310684460184D1068A842E2
:1030D0001BD01068B0F1804F17D0154D1068A84272
:1030E00013D0144D1068A8420FD0134D1068A84299
:1030F0000BD0124D1068A84207D0114D1068A8429D
:1031000003D0104D1068A84205D121F08001586805
:10311000014310688160012082F83D0000BF00205B
:1031200082F83C0000BF00BFBDE700000000014086
:103130000004004000080040000C00400004014072
:10314000004001400018004010B504460CB90120B1
:1031500010BD94F83D0028B9002084F83C002046BA
:1031600000F00CF8022084F83D00211D206804F0D6
:103170003FFC012084F83D000020E9E738B5044613
:103180000E492068884217D100BF002000900C48EB
:10319000006840F002000A4908600846006800F034
:1031A0000200009000BF00BF002201211D20FEF799
:1031B000D5F91D20FEF7C2F938BD0000000400401B
:1031C0004038024001460868C06840F001000B68C2
:1031D000D8600868806800F00702062A05D00868F1
:1031E000006840F001000B681860002070472DE96E
:1031F000F04104460D4600BF94F83C00012802D17E
:103200000220BDE8F081012084F83C0000BF0220CC
:1032100084F83D002068866826F0770626F47F460D
:10322000206886602868502833D00CDC202850D0D5
:1032300004DC00284BD0102851D149E0302849D077
:1032400040284CD139E060282DD0702807D0B0F547
:10325000805F03D0B0F5005F41D10DE040E0D5E9DB
:1032600002136A68206804F02FFC2068866846F024
:1032700077062068866033E0D5E902136A68206823
:1032800004F022FC2068806840F480402168886057
:1032900026E0EA686968206804F02AFC502120686A
:1032A00004F01DFC1CE0EA686968206804F033FC47
:1032B0006021206804F013FC12E0EA686968206865
:1032C00004F016FC4021206804F009FC08E000BF6F
:1032D00000BF00BF2968206804F001FC00E000BFC7
:1032E00000BF012084F83D0000BF002084F83C00AE
:1032F00000BF00BF85E7704710B50446206800692D
:10330000C0F34000D8B12068C068C0F34000B0B13D
:103310006FF0020021680861012020772068806931
:1033200000F0030018B12046FFF7E5FF05E0204656
:1033300000F0ADF8204600F0ABF8002020772068C0
:103340000069C0F38000D8B12068C068C0F3800075
:10335000B0B16FF004002168086102202077206876
:10336000806900F4407018B12046FFF7C4FF05E003
:10337000204600F08CF8204600F08AF800202077E4
:1033800020680069C0F3C000D8B12068C068C0F3ED
:10339000C000B0B16FF008002168086104202077F8
:1033A0002068C06900F0030018B12046FFF7A3FFB2
:1033B00005E0204600F06BF8204600F069F8002098
:1033C000207720680069C0F30010D8B12068C06879
:1033D000C0F30010B0B16FF0100021680861082040
:1033E00020772068C06900F4407018B12046FFF7CC
:1033F00082FF05E0204600F04AF8204600F048F839
:10340000002020772068006900F0010058B1206892
:10341000C06800F0010030B16FF001002168086160
:10342000204600F037F820680069C0F3C01058B19A
:103430002068C068C0F3C01030B16FF08000216810
:1034400008612046FFF723FE20680069C0F3801062
:1034500058B12068C068C0F3801030B16FF04000F0
:1034600021680861204600F02BF820680069C0F34D
:10347000401058B12068C068C0F3401030B16FF000
:103480002000216808612046FFF702FE10BD70474A
:103490007047000010B5044607492068884202D1F1
:1034A000FDF7B2FF06E005492068884202D10120FD
:1034B00031F072F910BD0000000800400004004027
:1034C0007047000010B586B00446142101A8FCF72F
:1034D00033FF1B49206888422FD100BF0020009095
:1034E0001848006840F01000164908600846006857
:1034F00000F01000009000BF00BF00BF002000904F
:1035000010481438006840F001000E491439086072
:103510000846006800F00100009000BF00BF481599
:1035200001901220029000200390032004900720B5
:10353000059001A90448FDF7E1FD06B010BD0000AB
:1035400000100140443802400000024000BFFEE786
:1035500010B50648064908600620486040F6FF712D
:1035600003488160FDF721FF10BD000000300040DE
:103570003408002010B50248FDF73FFF10BD0000E1
:103580003408002070B50725002406E0044951F8EE
:103590002400FDF775F8601CC4B2AC42F6DB70BDC8
:1035A0000400002070B504460026094805884088BC
:1035B00045430021084602F079FC02F02BFD00BFD4
:1035C00002E004490C80761CAE42FAD370BD0000C4
:1035D000BCF501200000086010B504465548847110
:1035E000002C51D1F020534908804FF4A07048803E
:1035F0000846808849F24131884205D04D4880888C
:1036000045F21031884214D12C204A4908812A20E1
:1036100048812B2088810846808845F210318842F5
:1036200006D14FF4A070434908804FF4F0704880F1
:103630007BE04048808845F21051884210D14FF419
:1036400030503C4908814FF4285048814FF42C50A9
:1036500088814FF4F07008804FF44870488064E02F
:103660003448808841F6631188425ED12C2031496C
:1036700008812B2048812A2088814FF4F07008802F
:103680004FF44870488050E04FF4A07029490880FA
:10369000F02048800846808849F24131884205D0B0
:1036A0002448808845F21031884207D12C202149D6
:1036B00008812A2048812B20888129E01D488088A4
:1036C00045F21051884210D14FF430501949088109
:1036D0004FF4285048814FF42C5088814FF44870A3
:1036E00008804FF4F070488012E01248808841F65C
:1036F000631188420CD12C200E4908812A20488170
:103700002B2088814FF4487008804FF4F070488077
:103710000848808845F21031884206D14FF4F07095
:10372000044908804FF4A0704880002002F084FA19
:1037300010BD0000BCF5012030B504460D463E48E2
:10374000808849F24131884205D03B48808845F263
:103750001031884214D13849488902F04FFC2012B8
:1037600002F040FCE0B202F03DFC3349888902F0EF
:1037700045FC281202F036FCE8B202F033FC54E0BB
:103780002D48808845F21051884220D12A49488925
:1037900002F034FC201202F025FC27494989491C1B
:1037A00088B202F02BFCE0B202F01CFC22498889AE
:1037B00002F024FC281202F015FC1F498989491CDB
:1037C00088B202F01BFCE8B202F00CFC2DE01A48B3
:1037D000808841F66311884227D11748807920B943
:1037E00015480088401E001B84B21349488902F026
:1037F00005FC201202F0F6FBE0B202F0F3FB20120F
:1038000002F0F0FBE0B202F0EDFB0B49888902F018
:10381000F5FB281202F0E6FBE8B202F0E3FB281207
:1038200002F0E0FBE8B202F0DDFB03480089034947
:103830000880891C0A8030BDBCF50120FEFF0760AE
:1038400010B5D32002F0DAFB02F0BCF9FE49888003
:1038500002F0B8F9FC49888002F0B4F9FA4988808E
:10386000084680884FF6FF7101EA0020F6498880FB
:1038700002F0A8F9F44989880843F349888008468A
:10388000808849F24131884278D0D42002F0B6FBDA
:1038900002F098F9EC49888002F094F9EA498880AE
:1038A00002F090F9E8498880084680884FF6FF7159
:1038B00001EA0020E449888002F084F9E24989881D
:1038C0000843E14988800846808845F210318842E3
:1038D00054D04FF45A4002F091FB02F073F9DA49E8
:1038E00088804FF45B4002F089FB02F06BF9D64907
:1038F0008880084680884FF6FF7101EA0020D2498F
:1039000088804FF45C4002F079FB02F05BF9CE490D
:1039100089880843CC49888008468088B0F5004FE4
:1039200002D145F210508880C748808845F2105176
:10393000884223D0A12002F061FB02F043F9C24982
:10394000888002F03FF9C0498880084680884FF699
:10395000FF7101EA0020BC49888002F033F9BA49BE
:1039600089880843B84988800846808845F2617193
:10397000884203D141F66310B3498880B2488088F9
:1039800049F2413188427CD1CF2002F037FB002040
:1039900002F028FBC12002F025FB302002F022FBC0
:1039A000ED2002F02BFB642002F01CFB032002F050
:1039B00019FB122002F016FB812002F013FBE82015
:1039C00002F01CFB852002F00DFB102002F00AFB28
:1039D0007A2002F007FBCB2002F010FB392002F026
:1039E00001FB2C2002F0FEFA002002F0FBFA34204A
:1039F00002F0F8FA022002F0F5FAF72002F0FEFADF
:103A0000202002F0EFFAEA2002F0F8FA002002F09B
:103A1000E9FA002002F0E6FAC02002F0EFFA1B20DB
:103A200002F0E0FAC12002F0E9FA012002F0DAFA2D
:103A3000C52002F0E3FA302002F0D4FA302002F080
:103A4000D1FAC72002F0DAFAB72002F0CBFA36201A
:103A500002F0D4FA482002F0C5FA3A2002F0CEFA79
:103A6000552002F0BFFAB12002F0C8FA002002F09F
:103A7000B9FA1A2002F0B6FAB62002F0BFFA0A200C
:103A800000E096E002F0AEFAA22002F0ABFAF220DB
:103A900002F0B4FA002002F0A5FA262002F0AEFAF5
:103AA000012002F09FFAE02002F0A8FA0F2002F0B5
:103AB00099FA2A2002F096FA282002F093FA0820B8
:103AC00002F090FA0E2002F08DFA082002F08AFA35
:103AD000542002F087FAA92002F084FA432002F071
:103AE00081FA0A2002F07EFA0F2002F07BFA002011
:103AF00002F078FA002002F075FA002002F072FA63
:103B0000002002F06FFAE12002F078FA002002F0C3
:103B100069FA152002F066FA172002F063FA07200E
:103B200002F060FA112002F05DFA062002F05AFA63
:103B30002B2002F057FA562002F054FA3C2002F0F3
:103B400051FA052002F04EFA102002F04BFA0F2035
:103B500002F048FA3F2002F045FA3F2002F042FA14
:103B60000F2002F03FFA2B2002F048FA002002F06A
:103B700039FA002002F036FA012002F033FA3F2031
:103B800002F030FA2A2002F039FA002002F02AFA74
:103B9000002002F027FA002002F024FAEF2002F0C1
:103BA00021FA112002F02AFA292002F027FA01F066
:103BB000C2BF2548808845F21031884240F07C879A
:103BC000ED2002F01BFA012002F00CFAFE2002F0B8
:103BD00009FAEE2002F012FADE2002F003FA2120A8
:103BE00002F000FAF12002F009FA012002F0FAF9DD
:103BF000DF2002F003FA102002F0F4F9C42002F0F2
:103C0000FDF98F2002F0EEF9C62002F0F7F900204E
:103C100002F0E8F9E22002F0E5F9E22002F0E2F930
:103C2000E22002F0DFF9BF2002F0E8F9AA2002F05A
:103C3000D9F9B02002F0E2F90D2002F0D3F900200A
:103C400002F0D0F90D2001E0BCF5012002F0CAF924
:103C5000002002F0C7F9112002F0C4F9002002F0A0
:103C6000C1F9192002F0BEF9002002F0BBF92120B1
:103C700002F0B8F9002002F0B5F92D2002F0B2F9F7
:103C8000002002F0AFF93D2002F0ACF9002002F074
:103C9000A9F95D2002F0A6F9002002F0A3F95D2049
:103CA00002F0A0F9002002F09DF9B12002F0A6F97F
:103CB000802002F097F9002002F094F98B2002F0A6
:103CC00091F9002002F08EF9962002F08BF9002085
:103CD00002F088F9B22002F091F9002002F082F996
:103CE000002002F07FF9022002F07CF9002002F0AF
:103CF00079F9032002F076F9002002F073F9B3207D
:103D000002F07CF9002002F06DF9002002F06AF95F
:103D1000002002F067F9002002F064F9002002F0B0
:103D200061F9002002F05EF9002002F05BF900204A
:103D300002F058F9002002F055F9002002F052F983
:103D4000002002F04FF9002002F04CF9002002F0B0
:103D500049F9002002F046F9002002F043F9002062
:103D600002F040F9002002F03DF9002002F03AF99B
:103D7000002002F037F9002002F034F9002002F0B0
:103D800031F9002002F02EF9002002F02BF900207A
:103D900002F028F9B42002F031F98B2002F022F968
:103DA000002002F01FF9962002F01CF9002002F01A
:103DB00019F9A12002F016F9002002F013F9B5203C
:103DC00002F01CF9022002F00DF9002002F00AF9BD
:103DD000032002F007F9002002F004F9042002F0A9
:103DE00001F9002002F0FEF8B62002F007F90020E9
:103DF00002F0F8F8002002F0F5F8B72002F0FEF823
:103E0000002002F0EFF8002002F0ECF83F2002F072
:103E1000E9F8002002F0E6F85E2002F0E3F8002066
:103E200002F0E0F8642002F0DDF8002002F0DAF899
:103E30008C2002F0D7F8002002F0D4F8AC2002F079
:103E4000D1F8002002F0CEF8DC2002F0CBF8002000
:103E500002F0C8F8702002F0C5F8002002F0C2F8A5
:103E6000902002F0BFF8002002F0BCF8EB2002F036
:103E7000B9F8002002F0B6F8DC2002F0B3F8002018
:103E800002F0B0F8B82002F0B9F8002002F0AAF869
:103E9000002002F0A7F8002002F0A4F8002002F0B1
:103EA000A1F8002002F09EF8002002F09BF800200C
:103EB00002F098F8002002F095F8BA2002F09EF87F
:103EC000242002F08FF8002002F08CF8002002F08D
:103ED00089F8002002F086F8C12002F08FF8202037
:103EE00002F080F8002002F07DF8542002F07AF809
:103EF000002002F077F8FF2002F074F8002002F0B2
:103F000071F8C22002F07AF80A2002F06BF8002063
:103F100002F068F8042002F065F8002002F062F870
:103F2000C32002F06BF83C2002F05CF8002002F0A5
:103F300059F83A2002F056F8002002F053F83920E0
:103F400002F050F8002002F04DF8372002F04AF855
:103F5000002002F047F83C2002F044F8002002F074
:103F600041F8362002F03EF8002002F03BF8322003
:103F700002F038F8002002F035F82F2002F032F875
:103F8000002002F02FF82C2002F02CF8002002F084
:103F900029F8292002F026F8002002F023F8262034
:103FA00002F020F8002002F01DF8242002F01AF898
:103FB000002002F017F8242002F014F8002002F08C
:103FC00011F8232002F00EF8002002F00BF83C203C
:103FD00002F008F8002002F005F8362002F002F89E
:103FE000002001F0FFFF322001F0FCFF002001F073
:103FF000F9FF2F2001F0F6FF002001F0F3FF2C2045
:1040000001F0F0FF002001F0EDFF292001F0EAFFB0
:10401000002001F0E7FF262001F0E4FF002001F07E
:10402000E1FF242001F0DEFF002001F0DBFF24206F
:1040300001F0D8FF002001F0D5FF232001F0D2FFCE
:10404000002001F0CFFFC42001F0D8FF622001F072
:10405000C9FF002001F0C6FF052001F0C3FF0020CA
:1040600001F0C0FF842001F0BDFF002001F0BAFF85
:10407000F02001F0B7FF002001F0B4FF182001F09C
:10408000B1FF002001F0AEFFA42001F0ABFF002043
:1040900001F0A8FF182001F0A5FF002001F0A2FF09
:1040A000502001F09FFF002001F09CFF0C2001F048
:1040B00099FF002001F096FF172001F093FF0020E8
:1040C00001F090FF952001F08DFF002001F08AFFA4
:1040D000F32001F087FF002001F084FFE62001F0CB
:1040E00081FF002001F07EFFC52001F087FF322014
:1040F00001F078FF002001F075FF442001F072FF0D
:10410000002001F06FFF652001F06CFF002001F03E
:1041100069FF762001F066FF002001F063FF882030
:1041200001F060FF002001F05DFFC62001F066FF96
:10413000202001F057FF002001F054FF172001F06C
:1041400051FF002001F04EFF012001F04BFF002045
:1041500001F048FFC72001F051FF002001F042FFAD
:10416000002001F03FFF002001F03CFF002001F0A3
:1041700039FFC82001F042FF002001F033FF00208A
:1041800001F030FF002001F02DFF002001F02AFF98
:10419000C92001F033FF002001F024FF002001F0CE
:1041A00021FF002001F01EFF002001F01BFF002076
:1041B00001F018FF002001F015FF002001F012FFB0
:1041C000002001F00FFF002001F00CFF002001F0A3
:1041D00009FF002001F006FF002001F003FF00208E
:1041E00001F000FF002001F0FDFE002001F0FAFECA
:1041F000002001F0F7FEE02001F000FF162001F0A2
:10420000F1FE002001F0EEFE1C2001F0EBFE00208C
:1042100001F0E8FE212001F0E5FE002001F0E2FEC1
:10422000362001F0DFFE002001F0DCFE462001F028
:10423000D9FE002001F0D6FE522001F0D3FE00206E
:1042400001F0D0FE642001F0CDFE002001F0CAFE96
:104250007A2001F0C7FE002001F0C4FE8B2001F09F
:10426000C1FE002001F0BEFE992001F0BBFE00203F
:1042700001F0B8FEA82001F0B5FE002001F0B2FE6A
:10428000B92001F0AFFE002001F0ACFEC42001F027
:10429000A9FE002001F0A6FECA2001F0A3FE002026
:1042A00001F0A0FED22001F09DFE002001F09AFE58
:1042B000D92001F097FE002001F094FEE02001F0EB
:1042C00091FE002001F08EFEF32001F08BFE002015
:1042D00001F088FEE12001F091FE162001F082FE3F
:1042E000002001F07FFE1C2001F07CFE002001F088
:1042F00079FE222001F076FE002001F073FE3620C8
:1043000001F070FE002001F06DFE452001F06AFE14
:10431000002001F067FE522001F064FE002001F051
:1043200061FE642001F05EFE002001F05BFE7A2059
:1043300001F058FE002001F055FE8B2001F052FEE6
:10434000002001F04FFE992001F04CFE002001F00A
:1043500049FEA82001F046FE002001F043FEB920EE
:1043600001F040FE002001F03DFEC42001F03AFEC5
:10437000002001F037FECA2001F034FE002001F0D9
:1043800031FED22001F02EFE002001F02BFED820BD
:1043900001F028FE002001F025FEE02001F022FEC1
:1043A000002001F01FFEF32001F01CFE002001F0B0
:1043B00019FEE22001F022FE052001F013FE00208C
:1043C00001F010FE0B2001F00DFE002001F00AFEAE
:1043D0001B2001F007FE002001F004FE342001F054
:1043E00001FE002001F0FEFD442001F0FBFD002055
:1043F00001F0F8FD4F2001F0F5FD002001F0F2FD85
:10440000612001F0EFFD002001F0ECFD792001F0CA
:10441000E9FD002001F0E6FD882001F0E3FD002029
:1044200001F0E0FD972001F0DDFD002001F0DAFD54
:10443000A62001F0D7FD002001F0D4FDB72001F047
:10444000D1FD002001F0CEFDC22001F0CBFD002007
:1044500001F0C8FDC72001F0C5FD002001F0C2FD3C
:10446000D12001F0BFFD002001F0BCFDD62001F0FD
:10447000B9FD002001F0B6FDDD2001F0B3FD002004
:1044800001F0B0FDF32001F0ADFD002001F0AAFD28
:10449000E32001F0B3FD052001F0A4FD002001F0B0
:1044A000A1FD0A2001F09EFD002001F09BFD1C20D3
:1044B00001F098FD002001F095FD332001F092FD00
:1044C000002001F08FFD442001F08CFD002001F060
:1044D00089FD502001F086FD002001F083FD62205F
:1044E00001F080FD002001F07DFD782001F07AFDD3
:1044F000002001F077FD882001F074FD002001F01C
:1045000071FD972001F06EFD002001F06BFDA620EB
:1045100001F068FD002001F065FDB72001F062FDAB
:10452000002001F05FFDC22001F05CFD002001F0E1
:1045300059FDC72001F056FD002001F053FDD120A8
:1045400001F050FD002001F04DFDD52001F04AFDA5
:10455000002001F047FDDD2001F044FD002001F0C6
:1045600041FDF32001F03EFD002001F03BFDE42081
:1045700001F044FD012001F035FD002001F032FD85
:10458000012001F02FFD002001F02CFD022001F0A0
:1045900029FD002001F026FD2A2001F023FD002046
:1045A00001F020FD3C2001F01DFD002001F01AFD6E
:1045B0004B2001F017FD002001F014FD5D2001F0FB
:1045C00011FD002001F00EFD742001F00BFD002014
:1045D00001F008FD842001F005FD002001F002FD3E
:1045E000932001F0FFFC002001F0FCFCA22001F070
:1045F000F9FC002001F0F6FCB32001F0F3FC0020F0
:1046000001F0F0FCBE2001F0EDFC002001F0EAFC1E
:10461000C42001F0E7FC002001F0E4FCCD2001F013
:10462000E1FC002001F0DEFCD32001F0DBFC0020E7
:1046300001F0D8FCDD2001F0D5FC002001F0D2FC17
:10464000F32001F0CFFC002001F0CCFCE52001F0CC
:10465000D5FC002001F0C6FC002001F0C3FC0020C6
:1046600001F0C0FC002001F0BDFC022001F0BAFC0A
:10467000002001F0B7FC292001F0B4FC002001F07B
:10468000B1FC3C2001F0AEFC002001F0ABFC4B2063
:1046900001F0A8FC002001F0A5FC5D2001F0A2FCC7
:1046A000002001F09FFC742001F09CFC002001F030
:1046B00099FC842001F096FC002001F093FC9320EB
:1046C00001F090FC002001F08DFCA22001F08AFC9A
:1046D000002001F087FCB32001F084FC002001F0F1
:1046E00081FCBE2001F07EFC002001F07BFCC42098
:1046F00001F078FC002001F075FCCD2001F072FC87
:10470000002001F06FFCD32001F06CFC002001F0D0
:1047100069FCDC2001F066FC002001F063FCF32062
:1047200001F060FC002001F05DFCE62001F066FC79
:10473000112001F057FC002001F054FC342001F05E
:1047400051FC002001F04EFC562001F04BFC0020F3
:1047500001F048FC762001F045FC002001F042FC0D
:10476000772001F03FFC002001F03CFC662001F0C6
:1047700039FC002001F036FC882001F033FC0020D9
:1047800001F030FC992001F02DFC002001F02AFC02
:10479000BB2001F027FC002001F024FC992001F04F
:1047A00021FC002001F01EFC662001F01BFC002013
:1047B00001F018FC552001F015FC002001F012FC5E
:1047C000552001F00FFC002001F00CFC452001F009
:1047D00009FC002001F006FC432001F003FC00204E
:1047E00001F000FC442001F0FDFB002001F0FAFB89
:1047F000E72001F003FC322001F0F4FB002001F07F
:10480000F1FB552001F0EEFB002001F0EBFB7620E0
:1048100001F0E8FB002001F0E5FB662001F0E2FB7F
:10482000002001F0DFFB672001F0DCFB002001F03D
:10483000D9FB672001F0D6FB002001F0D3FB8720D5
:1048400001F0D0FB002001F0CDFB992001F0CAFB64
:10485000002001F0C7FBBB2001F0C4FB002001F0E9
:10486000C1FB992001F0BEFB002001F0BBFB7720CB
:1048700001F0B8FB002001F0B5FB442001F0B2FBD1
:10488000002001F0AFFB562001F0ACFB002001F04E
:10489000A9FB232001F0A6FB002001F0A3FB33209D
:1048A00001F0A0FB002001F09DFB452001F09AFBE8
:1048B000002001F097FBE82001F0A0FB002001F0B0
:1048C00091FB002001F08EFB992001F08BFB002072
:1048D00001F088FB872001F085FB002001F082FBBE
:1048E000882001F07FFB002001F07CFB772001F0A5
:1048F00079FB002001F076FB662001F073FB0020BD
:1049000001F070FB882001F06DFB002001F06AFBD4
:10491000AA2001F067FB002001F064FBBB2001F03E
:1049200061FB002001F05EFB992001F05BFB0020A1
:1049300001F058FB662001F055FB002001F052FB0E
:10494000552001F04FFB002001F04CFB552001F0F9
:1049500049FB002001F046FB442001F043FB00200E
:1049600001F040FB442001F03DFB002001F03AFB48
:10497000552001F037FB002001F034FBE92001F065
:104980003DFBAA2001F02EFB002001F02BFB0020B4
:1049900001F028FB002001F025FB002001F02EFB98
:1049A000AA2001F01FFBCF2001F028FB002001F01E
:1049B00019FB002001F016FB002001F013FB002082
:1049C00001F010FB002001F00DFB002001F00AFBBC
:1049D000002001F007FB002001F004FB002001F0A3
:1049E00001FB002001F0FEFA002001F0FBFA00209C
:1049F00001F0F8FA002001F0F5FA002001F0F2FAD7
:104A0000002001F0EFFA002001F0ECFA002001F0A4
:104A1000E9FAF02001F0F2FA002001F0E3FA502068
:104A200001F0E0FA002001F0DDFA002001F0DAFAEE
:104A3000002001F0D7FAF32001F0E0FA002001F0A5
:104A4000D1FAF92001F0DAFA062001F0CBFA1020B1
:104A500001F0C8FA292001F0C5FA002001F0C2FADD
:104A60003A2001F0CBFA552001F0BCFA112001F0F8
:104A7000C5FA64200BF0EFF9292001F0BFFA3520C8
:104A800001F0BCFA002001F0ADFA512001F0B6FAB5
:104A9000FF2001F0A7FA532001F0B0FA2C2001F01A
:104AA000A1FA552001F0AAFA822001F09BFA2C20ED
:104AB00001F0A4FA01F03FB8FE48808845F2105199
:104AC00088427DD155214FF4704001F0ADFAAA2102
:104AD0004FF2010001F0A8FA52214FF2020001F05A
:104AE000A3FA08214FF2030001F09EFA01214FF2D0
:104AF000040001F099FA0D214FF4304001F094FACE
:104B00000D214BF2010001F08FFA0D214BF2020052
:104B100001F08AFA34214FF4364001F085FA34214D
:104B20004BF2016001F080FA34214BF2026001F097
:104B30007BFA0D214FF4314001F076FA0D214BF252
:104B4000011001F071FA0D214BF2021001F06CFA24
:104B500034214FF4374001F067FA34214BF20170F1
:104B600001F062FA34214BF2027001F05DFA00218B
:104B70004FF4324001F058FA00214BF2012001F0CD
:104B800053FA00214BF2022001F04EFA24214FF497
:104B9000384001F049FA24214BF6010001F044FAB3
:104BA00024214BF6020001F03FFA01214FF43F406F
:104BB00001F03AFA0F214FF4334001F035FA00E0EA
:104BC000FDE30F214BF2013001F02EFA0F214BF2E1
:104BD000023001F029FA34214FF4394001F024FA6F
:104BE00034214BF6011001F01FFA34214BF602106C
:104BF00001F01AFA08214FF4354001F015FA0821A6
:104C00004BF2015001F010FA08214BF2025001F072
:104C10000BFA03214FF4424001F006FA24214FF42D
:104C20003A4001F001FA24214BF6012001F0FCF991
:104C300024214BF6022001F0F7F900214FF43C400B
:104C400001F0F2F978214BF6014001F0EDF9002175
:104C50004BF6024001F0E8F900214FF43D4001F02D
:104C6000E3F978214BF6015001F0DEF900214BF613
:104C7000025001F0D9F900214FF43E4001F0D4F97F
:104C800064214BF6016001F0CFF900214FF451404F
:104C900001F0CAF933214DF2011001F0C5F90021EC
:104CA0004DF2021001F0C0F934214DF2031001F071
:104CB000BBF900214DF2041001F0B6F93A214DF292
:104CC000051001F0B1F900214DF2061001F0ACF928
:104CD0004A214DF2071001F0A7F900214DF208100A
:104CE00001F0A2F95C214DF2091001F09DF90021BB
:104CF0004DF20A1001F098F981214DF20B1001F0EC
:104D000093F900214DF20C1001F08EF9A6214DF21D
:104D10000D1001F089F900214DF20E1001F084F917
:104D2000E5214DF20F1001F07FF901214DF2101035
:104D300001F07AF913214DF2111001F075F90121FA
:104D40004DF2121001F070F954214DF2131001F0E0
:104D50006BF901214DF2141001F066F982214DF238
:104D6000151001F061F901214DF2161001F05CF906
:104D7000CA214DF2171001F057F902214DF2181017
:104D800001F052F900214DF2191001F04DF9022104
:104D90004DF21A1001F048F901214DF21B1001F0FB
:104DA00043F902214DF21C1001F03EF934214DF27D
:104DB0001D1001F039F902214DF21E1001F034F9F5
:104DC00067214DF21F1001F02FF902214DF2201042
:104DD00001F02AF984214DF2211001F025F9022178
:104DE0004DF2221001F020F9A4214DF2231001F020
:104DF0001BF902214DF2241001F016F9B7214DF2F2
:104E0000251001F011F902214DF2261001F00CF9E4
:104E1000CF214DF2271001F007F902214DF22810A1
:104E200001F002F9DE214DF2291001F0FDF8022116
:104E30004DF22A1001F0F8F8F2214DF22B1001F09A
:104E4000F3F802214DF22C1001F0EEF8FE214DF2A4
:104E50002D1001F0E9F803214DF22E1001F0E4F8D5
:104E600010214DF22F1001F0DFF803214DF2301028
:104E700001F0DAF833214DF2311001F0D5F80321B9
:104E80004DF2321001F0D0F86D214DF2331001F0E7
:104E9000CBF800214FF4524001F0C6F833214DF217
:104EA000012001F0C1F800214DF2022001F0BCF810
:104EB000342101E0BCF501204DF2032001F0B4F8EB
:104EC00000214DF2042001F0AFF83A214DF2052007
:104ED00001F0AAF800214DF2062001F0A5F84A21C0
:104EE0004DF2072001F0A0F800214DF2082001F05A
:104EF0009BF85C214DF2092001F096F800214DF25B
:104F00000A2001F091F881214DF20B2001F08CF87C
:104F100000214DF20C2001F087F8A6214DF20D2062
:104F200001F082F800214DF20E2001F07DF8E5211C
:104F30004DF20F2001F078F801214DF2102001F020
:104F400073F813214DF2112001F06EF801214DF29A
:104F5000122001F069F854214DF2132001F064F899
:104F600001214DF2142001F05FF882214DF215204D
:104F700001F05AF801214DF2162001F055F8CA212E
:104F80004DF2172001F050F802214DF2182001F0E7
:104F90004BF800214DF2192001F046F802214DF2A4
:104FA0001A2001F041F801214DF21B2001F03CF8DC
:104FB00002214DF21C2001F037F834214DF21D2062
:104FC00001F032F802214DF21E2001F02DF8672188
:104FD0004DF21F2001F028F802214DF2202001F0AF
:104FE00023F884214DF2212001F01EF802214DF218
:104FF000222001F019F8A4214DF2232001F014F829
:1050000002214DF2242001F00FF8B7214DF22520A6
:1050100001F00AF802214DF2262001F005F8CF2117
:105020004DF2272001F000F802214DF2282000F077
:10503000FBFFDE214DF2292000F0F6FF02214DF2A8
:105040002A2000F0F1FFF2214DF22B2000F0ECFFBE
:1050500002214DF22C2000F0E7FFFE214DF22D2021
:1050600000F0E2FF03214DF22E2000F0DDFF1021C1
:105070004DF22F2000F0D8FF03214DF2302000F038
:10508000D3FF33214DF2312000F0CEFF03214DF24A
:10509000322000F0C9FF6D214DF2332000F0C4FF33
:1050A00000214FF4534000F0BFFF33214DF2013097
:1050B00000F0BAFF00214DF2023000F0B5FF3421BC
:1050C0004DF2033000F0B0FF00214DF2043000F04B
:1050D000ABFF3A214DF2053000F0A6FF00214DF262
:1050E000063000F0A1FF4A214DF2073000F09CFF8E
:1050F00000214DF2083000F097FF5C214DF209309D
:1051000000F092FF00214DF20A3000F08DFF812166
:105110004DF20B3000F088FF00214DF20C3000F012
:1051200083FFA6214DF20D3000F07EFF00214DF2ED
:105130000E3000F079FFE5214DF20F3000F074FFE2
:1051400001214DF2103000F06FFF13214DF21130AC
:1051500000F06AFF01214DF2123000F065FF54218A
:105160004DF2133000F060FF01214DF2143000F0D9
:105170005BFF82214DF2153000F056FF01214DF208
:10518000163000F051FFCA214DF2173000F04CFFED
:1051900002214DF2183000F047FF00214DF2193086
:1051A00000F042FF02214DF21A3000F03DFF0121D4
:1051B0004DF21B3000F038FF02214DF21C3000F0A0
:1051C00033FF34214DF21D3000F02EFF02214DF24D
:1051D0001E3000F029FF67214DF21F3000F024FF40
:1051E00002214DF2203000F01FFF84214DF22130CA
:1051F00000F01AFF02214DF2223000F015FFA42129
:105200004DF2233000F010FF02214DF2243000F067
:105210000BFFB7214DF2253000F006FF02214DF2C1
:10522000263000F001FFCF214DF2273000F0FCFEC8
:1052300002214DF2283000F0F7FEDE214DF2293038
:1052400000F0F2FE02214DF22A3000F0EDFEF221D4
:105250004DF22B3000F0E8FE02214DF22C3000F030
:10526000E3FEFE214DF22D3000F0DEFE03214DF273
:105270002E3000F0D9FE10214DF22F3000F0D4FE78
:1052800003214DF2303000F0CFFE33214DF23130AA
:1052900000F0CAFE03214DF2323000F0C5FE6D2150
:1052A0004DF2333000F0C0FE00214FF4544000F0C6
:1052B000BBFE33214DF2014000F0B6FE00214DF25D
:1052C000024000F0B1FE34214DF2034000F0ACFE8C
:1052D00000214DF2044000F0A7FE3A214DF20540B6
:1052E00000F0A2FE00214DF2064000F09DFE4A2192
:1052F0004DF2074000F098FE00214DF2084000F00A
:1053000093FE5C214DF2094000F08EFE00214DF22B
:105310000A4000F089FE81214DF20B4000F084FE2E
:1053200000214DF20C4000F07FFEA6214DF20D4011
:1053300000F07AFE00214DF20E4000F075FEE521EE
:105340004DF20F4000F070FE01214DF2104000F0D0
:105350006BFE13214DF2114000F066FE01214DF26B
:10536000124000F061FE54214DF2134000F05CFE4B
:1053700001214DF2144000F057FE82214DF21540FC
:1053800000F052FE01214DF2164000F04DFECA2100
:105390004DF2174000F048FE02214DF2184000F097
:1053A00043FE00214DF2194000F03EFE02214DF275
:1053B0001A4000F039FE01214DF21B4000E002E3EB
:1053C00000F032FE02214DF21C4000F02DFE34218F
:1053D0004DF21D4000F028FE02214DF21E4000F06B
:1053E00023FE67214DF21F4000F01EFE02214DF208
:1053F000204000F019FE84214DF2214000F014FEFF
:1054000002214DF2224000F00FFEA4214DF2234074
:1054100000F00AFE02214DF2244000F005FEB72103
:105420004DF2254000F000FE02214DF2264000F032
:10543000FBFDCF214DF2274000F0F6FD02214DF299
:10544000284000F0F1FDDE214DF2294000F0ECFD96
:1054500002214DF22A4000F0E7FDF2214DF22B40EF
:1054600000F0E2FD02214DF22C4000F0DDFDFE21B6
:105470004DF22D4000F0D8FD03214DF22E4000F0FA
:10548000D3FD10214DF22F4000F0CEFD03214DF24F
:10549000304000F0C9FD33214DF2314000F0C4FD31
:1054A00003214DF2324000F0BFFD6D214DF233403B
:1054B00000F0BAFD00214FF4554000F0B5FD332156
:1054C0004DF2015000F0B0FD00214DF2025000F00D
:1054D000ABFD34214DF2035000F0A6FD00214DF24A
:1054E000045000F0A1FD3A214DF2055000F09CFD62
:1054F00000214DF2065000F097FD4A214DF2075071
:1055000000F092FD00214DF2085000F08DFD5C216D
:105510004DF2095000F088FD00214DF20A5000F0D4
:1055200083FD81214DF20B5000F07EFD00214DF2F4
:105530000C5000F079FDA6214DF20D5000F074FDE5
:1055400000214DF20E5000F06FFDE5214DF20F509D
:1055500000F06AFD01214DF2105000F065FD1321AD
:105560004DF2115000F060FD01214DF2125000F09B
:105570005BFD54214DF2135000F056FD01214DF218
:10558000145000F051FD82214DF2155000F04CFDF9
:1055900001214DF2165000F047FDCA214DF217507F
:1055A00000F042FD02214DF2185000F03DFD0021B7
:1055B0004DF2195000F038FD02214DF21A5000F062
:1055C00033FD01214DF21B5000F02EFD02214DF262
:1055D0001C5000F029FD34214DF21D5000F024FD37
:1055E00002214DF21E5000F01FFD67214DF21F50A9
:1055F00000F01AFD02214DF2205000F015FD84212B
:105600004DF2215000F010FD02214DF2225000F029
:105610000BFDA4214DF2235000F006FD02214DF2B6
:10562000245000F001FDB7214DF2255000F0FCFCA4
:1056300002214DF2265000F0F7FCCF214DF2275009
:1056400000F0F2FC02214DF2285000F0EDFCDE21CA
:105650004DF2295000F0E8FC02214DF22A5000F0F2
:10566000E3FCF2214DF22B5000F0DEFC02214DF262
:105670002C5000F0D9FCFE214DF22D5000F0D4FC4E
:1056800003214DF22E5000F0CFFC10214DF22F508F
:1056900000F0CAFC03214DF2305000F0C5FC33216C
:1056A0004DF2315000F0C0FC03214DF2325000F0B9
:1056B000BBFC6D214DF2335000F0B6FC00214FF4DD
:1056C000564000F0B1FC33214DF2016000F0ACFC1B
:1056D00000214DF2026000F0A7FC34214DF203607E
:1056E00000F0A2FC00214DF2046000F09DFC3A2184
:1056F0004DF2056000F098FC00214DF2066000F0CC
:1057000093FC4A214DF2076000F08EFC00214DF21F
:10571000086000F089FC5C214DF2096000F084FC17
:1057200000214DF20A6000F07FFC81214DF20B60F8
:1057300000F07AFC00214DF20C6000F075FCA6210F
:105740004DF20D6000F070FC00214DF20E6000F093
:105750006BFCE5214DF20F6000F066FC01214DF27B
:10576000106000F061FC13214DF2116000F05CFC50
:1057700001214DF2126000F057FC54214DF21360EC
:1057800000F052FC01214DF2146000F04DFC82212A
:105790004DF2156000F048FC01214DF2166000F05A
:1057A00043FCCA214DF2176000F03EFC02214DF28D
:1057B000186000F039FC00214DF2196000F034FC53
:1057C00002214DF21A6000F02FFC01214DF21B6006
:1057D00000F02AFC02214DF21C6000F025FC34216F
:1057E0004DF21D6000F020FC02214DF21E6000F021
:1057F0001BFC67214DF21F6000F016FC02214DF2E8
:10580000206000F011FC84214DF2216000F00CFCBE
:1058100002214DF2226000F007FCA4214DF223602A
:1058200000F002FC02214DF2246000F0FDFBB721E4
:105830004DF2256000F0F8FB02214DF2266000F0E9
:10584000F3FBCF214DF2276000F0EEFB02214DF279
:10585000286000F0E9FBDE214DF2296000F0E4FB56
:1058600002214DF22A6000F0DFFBF2214DF22B60A5
:1058700000F0DAFB02214DF22C6000F0D5FBFE2196
:105880004DF22D6000F0D0FB03214DF22E6000F0B0
:10589000CBFB10214DF22F6000F0C6FB03214DF22F
:1058A000306000F0C1FB33214DF2316000F0BCFBF1
:1058B00003214DF2326000F0B7FB6D214DF23360F1
:1058C00000F0B2FB55214FF4704000F0ADFBAA216F
:1058D0004FF2010000F0A8FB52214FF2020000F04D
:1058E000A3FB08214FF2030000F09EFB00214FF2C2
:1058F000040000F099FBCC214FF4314000F094FB00
:1059000000214BF2011000F08FFB05214FF43640CF
:1059100000F08AFB70214FF4374000F085FB7021C6
:105920004BF2017000F080FB01214FF4384000F091
:105930007BFB03214BF6010000F076FB03214BF6C5
:10594000020000F071FB03214BF6030000F06CFB3A
:1059500002214FF43C4000F067FB00214BF6014070
:1059600000F062FB00214BF6024000F05DFBD0210D
:105970004FF4494000F058FB02214CF6011000F0B2
:1059800053FB50214CF6021000F04EFB50214CF618
:10599000031000F049FB50214CF6041000F044FBCA
:1059A00000214FF4545000F03FFB55214FF4685054
:1059B00000F03AFB4FF4885000F020FB4FF42450E5
:1059C00000F01CFBB7E07C48808841F663118842F8
:1059D000F8D1E22000F012FB1D2000F003FB0220B2
:1059E00000F000FB042000F0FDFAE02000F006FBD0
:1059F000012000F0F7FA0A200AF02DFAE02000F06A
:105A0000FDFA032000F0EEFA0C200AF024FA01203F
:105A100000F0F4FAE62000F0F1FA2F2000F0E2FAAC
:105A2000FF2000F0DFFAFF2000F0DCFAB02000F0E9
:105A3000E5FA202000F0D6FA002000F0D3FA032087
:105A400000F0D0FA40F21F3000F0CCFA012000F054
:105A5000C9FA40F2DF1000F0C5FA002000F0C2FAE7
:105A6000B42000F0CBFA042000F0BCFA40F21F4052
:105A700000F0B8FA002000F0B5FA2E2000F0B2FADB
:105A8000002000F0AFFA002000F0ACFA002000F097
:105A9000A9FA002000F0A6FAB62000F0AFFA022022
:105AA00000F0A0FA4FF4037000F09CFA002000F020
:105AB00099FA172000F096FA152000F093FA0020CA
:105AC00000F090FA002000F08DFAF02000F096FA35
:105AD000032000F087FA292000F090FAD02000F08F
