:020000040800F2
:1000000090FA012081020008815F0008C12C0008DD
:100010007D5F0008850700084179000800000000A6
:10002000000000000000000000000000C101000806
:100030001F090008000000001D020008D972000816
:100040009B0200089B0200089B0200089B0200081C
:100050009B0200089B0200089B0200089B0200080C
:100060009B0200089B0200089B0200089B020008FC
:100070009B0200089B0200089B0200089B020008EC
:100080009B0200089B0200089B0200089B020008DC
:100090009B0200089B0200089B0200089B020008CC
:1000A0009B0200089B0200089B0200089B020008BC
:1000B0009B020008E9730008F97300089B0200081E
:1000C0009B0200089B0200089B0200089B0200089C
:1000D0009B0200089B0200089B0200089B0200088C
:1000E0009B0200089B0200089B0200089B0200087C
:1000F0009B0200089B0200089B0200089B0200086C
:100100009B020008AD6000089B0200089B020008EB
:100110009B0200089B0200089B0200089B0200084B
:100120009B0200089B0200089B020008F5070008DC
:100130009B0200089B0200089B0200089B0200082B
:100140009B0200089B0200089B0200089B0200081B
:100150009B020008050800089B0200089B0200089B
:100160009B0200089B0200089B0200089B020008FB
:100170009B0200089B0200089B0200080000000090
:100180009B0200089B0200089B0200089B020008DB
:100190009B0200089B0200089B0200089B020008CB
:1001A0009B0200089B0200089B020008DFF80CD0AD
:1001B00000F00CFA0048004709A0000890FA01205E
:1001C0002C4B19680868B0E8F04F80F30988BFF33A
:1001D0006F8F4FF0000080F311887047000000001F
:1001E00008480068006880F308884FF0000080F33A
:1001F000148862B661B6BFF34F8FBFF36F8F00DF15
:1002000000BF00BF08ED00E0DFF80C00016841F41A
:1002100070010160704700BF88ED00E0EFF30980D6
:10022000BFF36F8F134B1A681EF0100F08BF20ED3D
:10023000108A20E9F04F106009B44FF0500080F3AD
:100240001188BFF34F8FBFF36F8F0BF0EBFE4FF0B2
:10025000000080F3118809BC19680868B0E8F04F05
:100260001EF0100F08BFB0EC108A80F30988BFF3AE
:100270006F8F704740000020EFF30580704700004B
:100280000648804706480047FEE7FEE7FEE7FEE730
:10029000FEE7FEE7FEE7FEE7FEE7FEE7CD730008B8
:1002A000AD0100082DE9F05F0546002092469B460F
:1002B00088460646814640241BE02846414647467C
:1002C000224600F016F953465A46C01A914110D3FF
:1002D00011461846224600F0FDF82D1A67EB01087A
:1002E0004F4622460120002100F0F4F817EB0009E8
:1002F0004E41201EA4F10104DFDC484631462A4667
:100300004346BDE8F09F40EA01039B0703D009E0A4
:1003100008C9121F08C0042AFAD203E011F8013BF1
:1003200000F8013B521EF9D27047D2B201E000F84A
:10033000012B491EFBD270470022F6E710B5134689
:100340000A4604461946FFF7F0FF204610BD10B5D7
:10035000044604E00B7800F8013B03B1491C521E2F
:10036000F8D2204610BD421C10F8011B0029FBD119
:10037000801A7047034611F8012B00F8012B002A60
:10038000F9D11846704730B505460020034600E015
:100390005B1C934205D2EC5CC85C201A01D1002C96
:1003A000F6D130BD2DE9FE4F81EA030404F000448C
:1003B00021F0004100944FF0000B23F0004350EA7D
:1003C00001045ED052EA03045BD0C3F30A54C1F3C4
:1003D0000A552C44A4F2F3340194A0FB0254C1F357
:1003E000130141F48011C3F3130343F4801301FBA1
:1003F000024400FB034E840A970A44EA815447EA08
:100400008357A4FB076802958D0A05FB07854FEA11
:10041000932C04FB0C542705029D4FEA065847EA2B
:100420001637B5EB08056EEB070C870E920E47EA00
:10043000811742EA8312A7FB0201B6EB0B0164EBC2
:1004400000042B0D43EA0C335E1844EB1C50DA46D3
:100450005146E7FB0201C5F313044FEA0B3343EAAD
:1004600014534FEA0432019C43EA0603A4F10C043E
:100470000294009CCDE900B400F05AF803B0BDE846
:10048000F08F00200146F9E70EB540F233410291AA
:100490000021CDE900110A460B4600F049F803B0EF
:1004A00000BDC1F30A5210B5C1F3130140F2FF338E
:1004B00041F480119A4201DA002010BD40F233432A
:1004C0009A42A2F2334203DC524200F012F810BD0D
:1004D000904010BD202A04DB203A00FA02F10020EF
:1004E00070479140C2F1200320FA03F31943904072
:1004F0007047202A04DB203A21FA02F000217047DD
:1005000021FA02F3D040C2F120029140084319467B
:10051000704710B5141E73F1000408DA401C41F155
:10052000000192185B411A4301D120F0010010BD77
:100530002DE9F04D92469B4611B1B1FA81F202E0ED
:10054000B0FA80F220329046FFF7C4FF04460F460F
:1005500040EA0A0041EA0B0153465A46084313D0C9
:10056000114653EA010019D0C8F140025046FFF786
:10057000C0FF05460E46504659464246FFF7AAFFC1
:10058000084305D0012004E020463946BDE8F08D3F
:100590000020054346EAE0762C4337430A9863057A
:1005A000E40AA0EB08000022FD0A44EA47540A309E
:1005B00002D500200146E9E7010510196941DDE98E
:1005C000084500196941BDE8F04DA2E7064C074D0A
:1005D00006E0E06840F0010394E807009847103413
:1005E000AC42F6D3FFF7E6FD9C1E0108BC1E0108D5
:1005F00070B58C1810F8015B15F0070301D110F8E5
:10060000013B2A1106D110F8012B03E010F8016B11
:1006100001F8016B5B1EF9D12B0705D40023521E94
:100620000DD401F8013BFAE710F8013BCB1A921CFC
:1006300003E013F8015B01F8015B521EF9D5A142FA
:10064000D8D3002070BD000010B5044612480078D1
:10065000072800DB10BD1049097801EBC10202EB4D
:1006600001120E4901EB42003221FFF765FE0A49F3
:10067000097801EBC10202EB0112084901EB4200CB
:1006800031222146FFF763FE03480078401C0249EF
:10069000087000BFDEE7000024000020B006002044
:1006A0007047000010B504462146024801F0B6FC30
:1006B00010BD0000B8F4012010B5044801F0C1FCE1
:1006C000042801D0012010BD0020FCE7B8F401206F
:1006D00010B5002400F014F8012801D0012010BD4D
:1006E000064801F0CFFD044634B94FF400610348D9
:1006F00001F05AFB00B101242046F0E7B8F40120D4
:1007000008B5012000909DF8000008BD2DE9F041DA
:1007100004460D461646002733462A46214604481D
:1007200001F0D6FE00B101273846BDE8F081000097
:10073000B8F4012010B5002201210248006809F038
:1007400067FF10BDB40000202DE9F04104460D46BE
:100750001646002733462A462146044801F06CFF1E
:1007600000B101273846BDE8F0810000B8F401204F
:1007700010B5002202210248006809F049FF10BDAF
:10078000B400002000BFFEE710B50BF01DFE1249BB
:10079000086008460068B0F5805F0BD240F6B830BC
:1007A00009F0B0FE0C48406920F00400001D0A4921
:1007B000486110E008480068B0F5A05F0BD8064813
:1007C0000068B0F5805F06D30348406920F003005D
:1007D000401C0149486110BD8C06002010B5002165
:1007E000034A116051605921312005F033FB10BDDF
:1007F000A801002010B5024800F0F4F910BD000077
:100800003CF5012010B5024800F0ECF910BD0000E5
:100810009CF501200146087810381823B0FBF3F24C
:100820000848805CC865032A05D908686FF3090089
:10083000001D886503E008686FF309008865886D0E
:1008400070470000A0D50008014600208A6A8B6925
:10085000CBB932B1012A0DD0022A03D0032A10D11C
:100860000EE000BFCB6A03F08073B3F1807F00D14C
:10087000012007E0CB6AB3F1C07F00D1012001E085
:1008800000E000BF34E08B69B3F5005F1AD132B1EC
:10089000012A07D0022A03D0032A11D10AE000BF9F
:1008A00001200EE0CB6A03F08073B3F1807F00D1AA
:1008B000012006E0CB6AB3F1C07F00D1012000E047
:1008C00000BF15E032B1012A05D0022A04D0032A64
:1008D0000CD103E000BF00BF012008E0CB6A03F0A9
:1008E0008073B3F1807F00D1012000E000BF00BF22
:1008F000704730B50468246824F4802405682C60AF
:10090000046863608468402C04D10468A2600468B1
:10091000E16003E00468A1600468E26030BD7047F4
:1009200072B600BFFEE7000008B51248006900B9C2
:1009300008BD4FF47A7009F0CBFD00B9F8E70D4817
:10094000406810B902F0D0F9F2E70120094A00909E
:100950005168012310691A460BF06AFC054988604A
:10096000084640688968884201D102F0BDF900BF9D
:10097000DEE700008C06002030B504460D4600225C
:100980002946204600F002F830BD0000F0B50346CD
:10099000012500241148407A01281CDA00200F4E5E
:1009A000767A0E4FB8553846467A001D40F8263004
:1009B000001F467A083082553E46707A461C7E7289
:1009C000044604F1300008703A2048702F208870E7
:1009D0000020C87000252846F0BD0000F01000205F
:1009E00070B504461D460023B5F5804F13D154F869
:1009F00022300C480340D1E9000640EA06108E6818
:100A000040EA06208E8940EA06408E69304303435F
:100A100044F8223003E06FF0704044F822000020D8
:100A200070BD00000000F0CF10B50246002308683A
:100A300052F8203018480340D1E901042043CC6823
:100A400020430C6920434C6920438C692043CC69C6
:100A500020430C6A20434C6A20438C6A2043CC6AB2
:100A60002043CC6B20430C6B20434C6B204303434F
:100A70008868082801D143F04003086842F8203014
:100A8000486BB0F5801F05D1086818B110684C6B31
:100A900020431060002010BD8000E0FF30B5034609
:100AA00014460022601C53F8202002F04042D1E995
:100AB000000540EA05108D6840EA05208D8940EA6E
:100AC0000545088A401E45EA0055087D801E45EA16
:100AD00000608D6928430243601C43F82020186899
:100AE00000F48010B0F5801F07D1586820F4700220
:100AF000088A401E42EA00525A60002030BD0000C1
:100B000038B500250020009000240AF04BFE054671
:100B100027488069A84238D0002025494860084607
:100B20008561C06928B1C8690AF04AFF00202049E0
:100B3000C8611F48806900EBC000840020460AF0AD
:100B4000E9FA1B49C8610846C06918B1C86921465D
:100B5000FFF7F2FB1648006A30B11549086A0AF03F
:100B60002FFF00201249086211488069C0EBC000C5
:100B7000C40020460AF0CEFA0D4908620846006A11
:100B800018B1086A2146FFF7D7FB0948C06900B9C8
:100B900038BD074A9169D0696A460AF01DFE0546CC
:100BA00000F082FB0249C1F8840100BFF0E70000B9
:100BB0008C060020014691F83500022803D08020E1
:100BC000486501207047052081F8350008680068F5
:100BD00020F001000A6810600020F3E70146486D2C
:100BE00070470000F8B50446002000908C4800686B
:100BF0004FF41651B0FBF1F7A56D2E6894F85C1018
:100C000008208840304098B12068006800F0040057
:100C100070B12068006820F004002168086094F832
:100C20005C1008208840A860606D40F0010060659D
:100C300094F85C1001208840304068B12068406919
:100C400000F0800040B194F85C1001208840A8605A
:100C5000606D40F00200606594F85C1004208840EC
:100C6000304068B12068006800F0020040B194F89C
:100C70005C1004208840A860606D40F0040060654E
:100C800094F85C1010208840304078B320680068E9
:100C900000F0080050B394F85C1010208840A86061
:100CA0002068006800F4802080B12068006800F4AB
:100CB000002028B9206CC8B12046216C884715E077
:100CC000A06C98B12046A16C88470FE020680068AE
:100CD00000F4807028B92068006820F008002168BE
:100CE0000860206C10B12046216C884794F85C1095
:100CF000202088403040002865D02068006800F03F
:100D0000100000285FD094F85C1020208840A86074
:100D100094F83500052828D12068006820F01600D6
:100D2000216808602068406920F0800021684861DF
:100D3000206C08B9A06C28B12068006820F0080079
:100D40002168086094F85C103F208840A86000BFCC
:100D5000002084F8340000BF012084F83500206DA5
:100D600010B12046216D8847F8BD2068006800F466
:100D7000802080B12068006800F4002028B9606CF1
:100D800010B12046616C88471DE0E06BD8B1204669
:100D9000E16B884717E02068006800F4807068B94C
:100DA0002068006820F010002168086000BF002063
:100DB00084F8340000BF012084F83500E06B10B1E6
:100DC0002046E16B8847606D38B3606D00F001002C
:100DD000F0B1052084F835002068006820F001009B
:100DE0002168086000BF0098401C0090B84200D9FC
:100DF00005E02068006800F001000028F3D100BF82
:100E000000BF002084F8340000BF012084F83500C2
:100E1000E06C10B12046E16C884700BFA4E70000F9
:100E2000340000202DE9F0410446002500F03CFA92
:100E3000074614B90120BDE8F081606A00B100BF27
:100E400000BF002084F8340000BF022084F8350081
:100E50002068006820F00100216808600AE000F0C6
:100E600023FAC01B052805D920206065032084F8DB
:100E70003500E0E72068006800F001000028EED1AE
:100E80002068056821480540D4E901010843E1686C
:100E900008432169084361690843A1690843E1697E
:100EA0000843216A08430543606A042803D1D4E952
:100EB0000B0108430543206805602068456925F05B
:100EC0000705606A0543606A04280DD1A06A0543DE
:100ED000E06A48B12046FFF7B7FC28B140206065C2
:100EE000012084F83500A6E7206845612046FFF719
:100EF00091FC064694F85C103F208840B0600020CA
:100F00006065012084F83500002094E73F8010F0F0
:100F10002DE9F04704460D4616461F464FF00008DF
:100F2000D4F8589000BF94F83400012802D1022070
:100F3000BDE8F087012084F8340000BF94F8350044
:100F4000012825D1022084F83500002060653B4649
:100F5000324629462046FFF7CCFC94F85C103F202F
:100F60008840C9F808002068006840F01600216831
:100F70000860206C28B12068006840F008002168F3
:100F800008602068006840F001002168086006E001
:100F900000BF002084F8340000BF4FF00208404634
:100FA000C6E7000070B5044600F07EF90646254607
:100FB000681C10B104480078054400BF00F074F9C3
:100FC000801BA842FAD370BD3000002000B587B066
:100FD000142102A8FFF7B0F92348006808B107B050
:100FE00000BD01202049086000BF002001901F487B
:100FF000006840F001001D4908600846006800F0E4
:101000000100019000BF00BF4FF6807002900220E7
:10101000039000200490032005900C20069002A964
:10102000134800F02BF84EF2B370029002200390A8
:1010300000200490032005900C20069002A90D4882
:1010400000F01CF84FF48050029002200390002022
:101050000490032005900C20069002A9064800F099
:101060000DF800BFBBE70000B00100203838024097
:1010700000100240000C024000180240F8B5024681
:101080000B460025002400200021E6E0012606FA98
:1010900001F51E6806EA0504AC4273D15E68012EB4
:1010A00008D05E68022E05D05E68112E02D05E6800
:1010B000122E13D190684F000326BE40B0434F005C
:1010C000DE68BE4030439060506801268E40B043D9
:1010D0001E79C6F300168E4030435060D0684F0032
:1010E0000326BE40B0434F009E68BE403043D060F0
:1010F0005E68022E02D05E68122E13D1CF0802F174
:10110000200656F827004E07F70E0F26BE40B043C4
:101110004F07FF0E1E69BE403043CF0802F1200684
:1011200046F8270010684F000326BE40B0431E79E2
:1011300006F003064F00BE40304310605E6806F0C4
:101140008056B6F1805FA8D100BF00260096454EBC
:10115000366846F48046434F3E603E46366806F4A5
:101160008046009600BF00BF3F4E8F0856F827000C
:101170008E07370F0F26BE40B0433C4EB24202D11D
:1011800000262EE068E03A4EB24201D1012628E066
:10119000384EB24201D1022623E0374EB24201D18D
:1011A00003261EE0354EB24201D1042619E0344E2A
:1011B000B24201D1052614E0324EB24201D10626D8
:1011C0000FE0314EB24201D107260AE02F4EB24263
:1011D00001D1082605E02E4EB24201D1092600E0D9
:1011E0000A268F073F0FBE4030431F4E8F0846F838
:1011F0002700284E3068A0435E6806F48036B6F5B6
:10120000803F00D12043234E3060361D3068A0431C
:101210005E6806F40036B6F5003F00D120431D4E4F
:10122000361D3060361D3068A0435E6806F48016B7
:10123000B6F5801F00D12043164E08363060361DAB
:101240003068A0435E6806F40016B6F5001F00D1B2
:101250002043104E0C363060491C1029FFF416AFA5
:10126000F8BD000044380240083801400000024048
:101270000004024000080240000C0240001002403E
:101280000014024000180240001C024000200240EE
:1012900000240240003C0140024613690B400BB1A0
:1012A000012000E0002070470148006870470000FE
:1012B0002800002010B504460CB9012010BD94F898
:1012C000390028B9002084F83800204601F0B4FC29
:1012D000242084F839002068C06820F40050216878
:1012E000C860204606F038F92068006920F4904074
:1012F000216808612068406920F022002168486167
:101300002068406940F00800216848612068C06892
:1013100040F400502168C8600020E063202084F879
:10132000390084F83A000020C8E770B504460CB9CB
:10133000012070BD4CF6CC402168086045F2555044
:1013400021680860D4E9001048602168A0688860BE
:10135000FFF7AAFF054606E0FFF7A6FF401B30286F
:1013600001D90320E5E72068C0680028F4D14AF6D7
:10137000AA20216808600020DBE701464AF6AA207F
:101380000A68106000207047034800680349097824
:101390000844014908607047280000203000002000
:1013A00010B50D48006840F400700B49086008460D
:1013B000006840F4806008600846006840F480706F
:1013C0000860032000F0C8F8002000F007F800F0E3
:1013D0004BF8002010BD0000003C024070B588B002
:1013E000044600250026002221461E2000F076F843
:1013F0001E2000F063F800BF00200190164800682E
:1014000040F00400144908600846006800F0040039
:10141000019000BF00BF02A903A800F0DBF900F0B3
:1014200001FA45000D48B5FBF0F0461E0C480D4989
:10143000086040F2E7310B48C1604660002101615D
:10144000816001F033FA20B9064801F06DFA08B066
:1014500070BD0120FBE700004038024040420F0011
:10146000000800404006002008B500BF00200090A2
:101470001148006840F480400F4908600846006841
:1014800000F48040009000BF00BF00BF002000902B
:10149000081F006840F08050091F08600846006877
:1014A00000F08050009000BF00BF00220F21901E6E
:1014B00000F014F808BD0000443802400146084618
:1014C000002809DB00F01F0301229A4043099B001A
:1014D00003F1E023C3F8002100BF70472DE9F05F5E
:1014E00080460D461646002706F050FA0746394654
:1014F0002A46334601F00700C0F1070ABAF1040F8B
:1015000002D94FF0040A01E0C0F1070AD14600F108
:10151000040ABAF1070F02D24FF0000A01E0A0F16D
:10152000030AD4464FF0010A0AFA09FAAAF1010A9D
:101530000AEA020A0AFA0CFA4FF0010B0BFA0CFB4A
:10154000ABF1010B0BEA030B4AEA0B0421464046C0
:1015500006F024FABDE8F09F00BF00F00702064B3A
:1015600019684FF6FF031940044B0B4343EA02216D
:10157000014B196000BF70470CED00E00000FA0558
:1015800000BF00BF00BF00BF00BFBFF34F8F00BF51
:1015900000BF00BF0948006800F4E0600849084344
:1015A000001D0649086000BF00BF00BFBFF34F8F9A
:1015B00000BF00BF00BF00BF00BFFDE70CED00E0B3
:1015C0000000FA0538B5002400BF002000901D4837
:1015D000006840F080501B4908600846006800F031
:1015E0008050009000BF00BF012017490864FFF73A
:1015F0005BFE044607E0FFF757FE001BB0F57A7F5D
:1016000001D9032038BD1148406800F48030B0F59E
:10161000803FF0D101200C494864FFF745FE0446A5
:1016200007E0FFF741FE001BB0F57A7F01D90320E8
:10163000E8E70648406800F40030B0F5003FF0D11C
:101640000020DFE74038024000000E4200700040FA
:1016500070B504460D460CB9012070BD58480068AD
:1016600000F00F00A84209D255490D7008460068E5
:1016700000F00F00A84201D00120EEE7207800F032
:10168000020002281DD1207800F00400042805D1B2
:101690004C48006840F4E0504A490860207800F067
:1016A0000800082805D14748006840F460404549D3
:1016B00008604448006820F0F000A16808434149F0
:1016C0000860207800F00100A8B36068012807D105
:1016D0003C4808380068C0F34040B8B90120BCE776
:1016E0006068022802D06068032807D135480838AE
:1016F0000068C0F3406048B90120AEE731480838BF
:101700000068C0F3400008B90120A6E72D48006832
:1017100020F00300616808432A490860FFF7C4FD10
:10172000064609E0FFF7C0FD801B41F28831884280
:1017300002D9032091E707E02248006800F00C007E
:101740006168B0EB810FEDD11D48006800F00F001B
:10175000A84209D91A490D700846006800F00F0028
:10176000A84201D0012078E7207800F00400042886
:1017700007D11448006820F4E050E168084311499B
:101780000860207800F00800082808D10D4800689B
:1017900020F46040216940EAC1000A49086000F075
:1017A00061F808490968C1F30311074A515CC84050
:1017B0000649086006480068FFF710FE00204CE765
:1017C000003C024008380240A8D500083400002040
:1017D0002C0000200F2202600D4A126802F0030262
:1017E00042600B4A126802F0F0028260084A1268F6
:1017F00002F4E052C260064A126802F46042D20863
:101800000261044A126802F00F020A607047000089
:1018100008380240003C0240014800687047000060
:101820003400002000B5FFF7F7FF04490968C1F351
:101830008221034A515CC84000BD000008380240C4
:10184000B8D5000800B5FFF7E7FF04490968C1F300
:101850004231034A515CC84000BD000008380240D4
:10186000B8D500082DE9F047002400250026A14640
:101870002548006800F00C0020B1042805D0082895
:101880003AD105E0DFF8849039E0DFF8849036E063
:101890001D48001F006800F03F041B48001F00683F
:1018A00000F4800078B11A481749091F0968C1F38C
:1018B0008811A0FB01700146224600233846FEF73E
:1018C000F1FC05460EE011480F49091F0968C1F3F4
:1018D0008811A0FB01700146224600233846FEF71E
:1018E000E1FC05460848001F0068C0F30140401CA9
:1018F0004600B5FBF6F902E0DFF8109000BF00BF2C
:101900004846BDE8F0870000083802400024F40093
:1019100040787D01F8B504460CB90120F8BD207867
:1019200000F00100002874D0F948006800F00C00B5
:1019300004280DD0F648006800F00C00082813D1E8
:10194000F348001F006800F48000B0F5800F0BD151
:10195000EF4808380068C0F34040002859D060685C
:10196000002856D10120D9E700BF6068B0F5803F5C
:1019700008D1E7480838006840F48030E449083965
:1019800008601EE06068B0F5A02F0DD1E04808386F
:10199000006840F48020DE49083908600846006885
:1019A00040F4803008600CE0D9480838006820F422
:1019B0008030D749083908600846006820F4802044
:1019C000086000BF606890B1FFF76EFC054606E056
:1019D000FFF76AFC401B642801D903209EE7CC482E
:1019E00008380068C0F340400028F1D011E0FFF74C
:1019F0005BFC054606E0FFF757FC401B642801D955
:101A000003208BE7C24808380068C0F34040002834
:101A1000F1D1207800F0020002285FD1BC480068B4
:101A200000F00C0058B1BA48006800F00C0008281B
:101A30001CD1B748001F006800F48000B0B9B4485A
:101A400008380068C0F3400020B1E068012801D0E8
:101A5000012063E7AE480838006820F0F8002169EB
:101A600040EAC100AA490839086037E0E06800B3DD
:101A70000120A8490860FFF717FC054606E0FFF7BC
:101A800013FC401B022801D9032047E7A04808386F
:101A90000068C0F340000028F1D09D480838006875
:101AA00020F0F800216940EAC1009949083908602E
:101AB00014E0002097490860FFF7F6FB054606E0B2
:101AC000FFF7F2FB401B022801D9032026E79048CC
:101AD00008380068C0F340000028F1D1207800F0F9
:101AE000080008282CD16069A8B101208A49086043
:101AF000FFF7DAFB054606E0FFF7D6FB401B02289E
:101B000001D903200AE782486C300068C0F3400026
:101B10000028F1D014E000207F490860FFF7C4FBE3
:101B2000054606E0FFF7C0FB401B022801D9032051
:101B3000F4E677486C300068C0F340000028F1D12B
:101B4000207800F00400042870D100277048383055
:101B5000006800F0805090B900BF002000906C48F1
:101B60003830006840F080506949383108600846D4
:101B7000006800F08050009000BF00BF0127674858
:101B8000006800F48070B0B96448006840F4807068
:101B900062490860FFF788FB054606E0FFF784FB13
:101BA000401B022801D90320B8E65C48006800F415
:101BB00080700028F2D000BFA068012808D15448E6
:101BC0006830006840F001005149683108601DE04C
:101BD000A06805280DD14E486830006840F0040028
:101BE0004B49683108600846006840F00100086011
:101BF0000CE047486830006820F001004449683133
:101C000008600846006820F00400086000BFA06873
:101C1000A8B1FFF749FB054609E0FFF745FB401B6C
:101C200041F28831884202D9032077E626E038481D
:101C300068300068C0F340000028EED013E0FFF7E2
:101C400033FB054608E0FFF72FFB401B41F28831CC
:101C5000884201D9032061E62D4868300068C0F34E
:101C600040000028EFD1012F07D129483830006803
:101C700020F0805026493831086000BFA069002854
:101C800045D02348006800F00C0008285DD0A0690A
:101C9000022845D100201F490866FFF705FB0546CD
:101CA00006E0FFF701FB401B022801D9032035E6BF
:101CB000174808380068C0F340600028F1D1D4E923
:101CC00007010843616A40EA81110122A06AC2EB60
:101CD000500041EA00412C20005D41EA00600C49BF
:101CE000091F086001200B490866FFF7DDFA054669
:101CF00006E0FFF7D9FA401B022801D903200DE6C0
:101D0000034808380068C0F340600028F1D03FE085
:101D10000838024000004742800E474200700040F1
:101D200000201C490866FFF7BFFA054606E0FFF7EA
:101D3000BBFA401B022801D90320EFE516480068D2
:101D4000C0F340600028F2D122E0A069012800D150
:101D5000E4E51148001D066806F48001E06981424F
:101D600014D106F03F01206A81420FD147F6C070BE
:101D70003040616A884209D106F44031A06A81424C
:101D800004D106F07061E06A814201D00120C5E50E
:101D90000020C3E5000047420038024010B5044669
:101DA000FEF77EFC10BD000070B58AB004460D46FB
:101DB000032084F83400606C032820D0B5F5805FE0
:101DC00004D1A06B40F08050A0631CE0B5F5006F1B
:101DD00007D1204605F037F80646A06B3043A063D4
:101DE00011E03DB9204604F0FAFF0646A06B3043EF
:101DF000A06308E0A06B40F00060A06303E0A06B6C
:101E000040F08050A063A06B38B11048216888630F
:101E1000012084F834000AB070BD60680490A068A6
:101E20000590E0680690079560690890A0690990A0
:101E300007A807C88DE80700206804A90EC904F0A8
:101E40003DF9012084F834000020E4E7FF0540005C
:101E50007047000010B50246506E800F0870506E3B
:101E6000C0F383604870506EC0F301608870506E9C
:101E7000000CC870B2F86400000A087192F864009F
:101E80004871906E000DC880906EC0F303400872D8
:101E90006820805AC0F3C03048726820805AC0F36E
:101EA000803088726820805AC0F34030C872682041
:101EB000805AC0F30030087300204873506C00282B
:101EC00036D16820805A8005030DD06E43EA9070A9
:101ED0000861D06EC0F3C2600875D06EC0F30260B6
:101EE0004875D06EC0F342508875D06EC0F3824002
:101EF000C875D06EC0F3C23008760869401C5065C2
:101F00000B7E506D03F007039B1C01249C40604333
:101F10005065087A00F00F03012098409065D2E9DF
:101F200015035B0A5843D0654FF40073136621E034
:101F3000506C012813D16820805C8006830AD06E23
:101F400043EA104008610869401C83025365536DE1
:101F5000D3654FF400739365936D13660AE02E48C2
:101F600013689863906B40F080509063012082F872
:101F7000340010BD6C20805AC0F3803001F8190F76
:101F80006C20805AC0F3C61048706C20805C00F052
:101F90007F008870106FC00FC870106FC0F3417061
:101FA0000871106FC0F382604871106FC0F38350E6
:101FB0008871106FC0F34050C87100200872106F14
:101FC000C0F3004048727020805AC0F3C03088725D
:101FD0007020805AC0F38030C8727020805AC0F3DD
:101FE000403008737020805AC0F30030487370206E
:101FF000805AC0F3812088737020805AC0F301207A
:10200000C8737020805CC0F34600087401204874D7
:1020100019390020ADE70000FF0540000246506C72
:102020000860906C4860D06C8860106DC860506D1E
:102030000861906D4861D06D8861106EC8610020A4
:102040007047F8B50446002000906946204604F029
:10205000AEFE054615B1A06B2843A0630098C0F3FF
:1020600043263046F8BD000070B50446256B206855
:10207000406BC0F3C03030B105F0080018B1204605
:1020800004F070FEF8E02068406BC0F300200028E8
:1020900062D04FF48070216888632068C06B4CF276
:1020A0003A3188432168C8632068C06A20F0010083
:1020B0002168C86205F0080038B305F0020010B9C5
:1020C00005F0200050B1206804F0B8F906462EB1A2
:1020D000A06B3043A0632046FFF7BAFE40F23A50AF
:1020E00021688863012084F834000020206305F013
:1020F000010010B905F0020018B1204600F092FA74
:10210000BAE0204600F093FAB6E005F0800000281F
:10211000B8D005F0200050B1206804F08FF90646D1
:102120002EB1A06B3043A0632046FFF791FE05F06F
:1021300001000028A6D105F002000028A2D12068E5
:10214000C06A20F008002168C862012084F83400C9
:10215000204600F06CFA8FE02068406BC0F38030BE
:1021600030B105F0080018B1204604F0A0FE83E06D
:102170002068406B40F23A21084008B1012000E09D
:102180000020002878D02068406BC0F3400018B1D0
:10219000A06B40F00200A0632068406BC0F3C00059
:1021A00018B1A06B40F00800A0632068406BC0F33A
:1021B000401018B1A06B40F02000A0632068406B75
:1021C000C0F3001018B1A06B40F01000A0632068AD
:1021D000406BC0F3402018B1A06B40F00800A06332
:1021E00040F23A70216888632068C06B40F23A314F
:1021F00088432168C863206804F020F9A16B084374
:10220000A06305F0080040B1012084F834000020EC
:1022100020632046FFF71CFE2EE005F0800000B38F
:1022200005F0100010B905F0200050B11348E16B23
:102230000865E06BFEF7BEFC98B1E06B04F0EDFBC7
:102240001AE005F0010010B905F0020050B10C4889
:10225000216C0865206CFEF7ADFC10B1206C04F019
:10226000AFFB09E00020A063012084F834000020C7
:1022700020632046FFF792FD70BD00001B6A000836
:10228000C169000810B504460CB9012010BD94F8CE
:10229000340020B900202077204600F053F80320B6
:1022A00084F83400204600F00BF808B10120EDE777
:1022B0000020A0632063012084F834000020E5E7BB
:1022C00070B58AB0044600200490059006900790EF
:1022D00008907620099007A807C88DE807002068B5
:1022E00004A90EC903F0EAFE064616B101200AB0A1
:1022F00070BD002012490860206803F0F9FE01203B
:102300000F49A039C1F8A000204604F0C5FC0546DD
:102310003DB1012084F83400A06B2843A063012064
:10232000E5E7204604F037FC05463DB1012084F87E
:102330003400A06B2843A0630120D8E70020D6E733
:10234000A080254210B586B00446142101A8FDF7EF
:10235000F3FF5849206888427ED100BF00200090DA
:102360005548006840F4006053490860084600681A
:1023700000F40060009000BF00BF00BF002000908C
:102380004D481438006840F004004B491439086087
:102390000846006800F00400009000BF00BF00BFC6
:1023A000002000900846006840F0080008600846D9
:1023B000006800F00800009000BF00BF4FF4F85024
:1023C00001900220029000200390032004900C2032
:1023D000059001A93948FEF751FE04200190022022
:1023E000029000200390032004900C20059001A986
:1023F0003348FEF743FE3348334908604FF000602E
:102400004860002130488160C1604FF48061016103
:1024100089004161890081612021C161002101623F
:1024200004214162032181624FF40001C1628910DD
:102430000163FEF7F7FC08B1FEF772FA00BF22480D
:102440002064846300BF1F484830204908604FF073
:1024500000604860402100E029E01C4881600021C4
:10246000C1604FF48061016189004161890081612F
:102470002021C161002101620421416203218162A6
:102480004FF40001C16289100163FEF7CBFC08B173
:10249000FEF746FA00BF0D48E063846300BF0022E8
:1024A00005213120FFF71AF83120FFF707F806B0B1
:1024B00010BD0000002C01404438024000080240DA
:1024C000000C0240586402403CF501209CF50120BC
:1024D0002DE9F04387B004460F4691461E46C84694
:1024E0003FB9A06B40F00060A063012007B0BDE8D9
:1024F000F08394F83400012871D10020A06308EB28
:102500000601E06D814205D9A06B40F00070A06328
:102510000120EBE7032084F8340000202168C86222
:102520002068C06B40F22A3108432168C8633948EB
:10253000216CC8633848216CC8640020216C086590
:1025400072029308226802F180013A46206CFEF77D
:10255000DFFC80B12068C06B20F495702168C863EF
:102560002E4821688863A06B40F08040A063012062
:1025700084F83400BAE7012029490860606C01281A
:1025800001D04FEA48284FF40071206803F012FE92
:1025900005464DB1214821688863A06B2843A0639C
:1025A000012084F83400A1E74FF0FF300190700261
:1025B00002909020039002200490002005900120BA
:1025C000069001A9206803F04CFD012E08D9822055
:1025D00020634146206803F055FE054607E016E0FB
:1025E000812020634146206803F068FE054665B1FE
:1025F0000A4821688863A06B2843A063012084F8FF
:10260000340000202063012070E700206EE70220E4
:102610006CE700007969000805690008FF054000C3
:102620008C85254210B50446FEF784F810BD10B520
:102630000446FEF79DF810BD2DE9F04387B004462F
:10264000884691461E464F46B8F1000F07D1A06B51
:1026500040F00060A063012007B0BDE8F08394F86B
:102660003400012877D10020A063B919E06D8142C0
:1026700005D9A06B40F00070A0630120ECE70320B7
:1026800084F8340000202168C8622068C06B40F2E2
:102690001A2108432168C8633948E16BC863394887
:1026A000E16BC8640020E16B0865606C012800D014
:1026B0007F024FF40071206803F07CFD05464DB1A8
:1026C000314821688863A06B2843A063012084F807
:1026D0003400C1E7012E07D9A020206339462068C5
:1026E00003F0CAFE054606E09020206339462068C4
:1026F00003F0DEFE054665B1234821688863A06BC0
:102700002843A063012084F83400002020630120C6
:10271000A2E701201D49086071028B08216801F1C0
:1027200080024146E06BFEF7F3FBA8B12068C06B66
:1027300040F21A2188432168C863134821688863DE
:10274000A06B40F08040A063012084F8340000209A
:102750002063012080E711E04FF0FF30019070020C
:102760000290902003900020049005900120069094
:1027700001A9206803F075FC00206DE702206BE7DB
:10278000096A000805690008FF0540008C8525429C
:1027900070B504460E4615460CB9012070BD94F87C
:1027A000490028B9002084F84800204600F01CF8B1
:1027B00004F108012068FEF737F93146A268206865
:1027C000FEF76CF92946236BD4E90102FEF708F9FC
:1027D000A168206850F8210040F00100A26821683B
:1027E00041F822000020D9E710B50446FEF7EEFBC1
:1027F00010BD70477047000030B502460B4600BF61
:1028000092F83C00012801D1022030BD012082F85D
:102810003C0000BF022082F83D0010684468106848
:10282000816824F070041868044310684460184DEF
:102830001068A8421BD01068B0F1804F17D0154D1A
:102840001068A84213D0144D1068A8420FD0134D41
:102850001068A8420BD0124D1068A84207D0114D45
:102860001068A84203D0104D1068A84205D121F08D
:1028700080015868014310688160012082F83D00A2
:1028800000BF002082F83C0000BF00BFBDE7000091
:10289000000001400004004000080040000C00401F
:1028A00000040140004001400018004010B50446FB
:1028B0000CB9012010BD94F83D0028B9002084F81F
:1028C0003C00204600F00CF8022084F83D00211D59
:1028D000206804F099FD012084F83D000020E9E71C
:1028E00038B504460E492068884217D100BF002041
:1028F00000900C48006840F002000A490860084651
:10290000006800F00200009000BF00BF002201211B
:102910001D20FEF7E3FD1D20FEF7D0FD38BD0000B1
:10292000000400404038024001460868C06840F09A
:1029300001000B68D8600868806800F00702062A6A
:1029400005D00868006840F001000B68186000209E
:1029500070472DE9F04104460D4600BF94F83C0055
:10296000012802D10220BDE8F081012084F83C005A
:1029700000BF022084F83D002068866826F07706B4
:1029800026F47F46206886602868502833D00CDC07
:10299000202850D004DC00284BD0102851D149E029
:1029A000302849D040284CD139E060282DD07028FB
:1029B00007D0B0F5805F03D0B0F5005F41D10DE0E6
:1029C00040E0D5E902136A68206804F089FD2068B8
:1029D000866846F077062068866033E0D5E9021302
:1029E0006A68206804F07CFD2068806840F48040BC
:1029F0002168886026E0EA686968206804F084FD40
:102A00005021206804F077FD1CE0EA6869682068BE
:102A100004F08DFD6021206804F06DFD12E0EA688D
:102A20006968206804F070FD4021206804F063FDAF
:102A300008E000BF00BF00BF2968206804F05BFD0C
:102A400000E000BF00BF012084F83D0000BF00206F
:102A500084F83C0000BF00BF85E7704710B504460E
:102A600020680069C0F34000D8B12068C068C0F396
:102A70004000B0B16FF002002168086101202077AA
:102A80002068806900F0030018B12046FFF7E5FFD9
:102A900005E0204600F0ADF8204600F0ABF800203D
:102AA000207720680069C0F38000D8B12068C06832
:102AB000C0F38000B0B16FF004002168086102200B
:102AC00020772068806900F4407018B12046FFF735
:102AD000C4FF05E0204600F08CF8204600F08AF89C
:102AE0000020207720680069C0F3C000D8B12068BA
:102AF000C068C0F3C000B0B16FF008002168086181
:102B0000042020772068C06900F0030018B1204637
:102B1000FFF7A3FF05E0204600F06BF8204600F029
:102B200069F80020207720680069C0F30010D8B150
:102B30002068C068C0F30010B0B16FF010002168C9
:102B40000861082020772068C06900F4407018B13F
:102B50002046FFF782FF05E0204600F04AF82046B5
:102B600000F048F8002020772068006900F001009C
:102B700058B12068C06800F0010030B16FF001006A
:102B800021680861204600F037F820680069C0F32A
:102B9000C01058B12068C068C0F3C01030B16FF0E9
:102BA0008000216808612046FFF723FE2068006945
:102BB000C0F3801058B12068C068C0F3801030B1F5
:102BC0006FF0400021680861204600F033F820686B
:102BD0000069C0F3401058B12068C068C0F34010CD
:102BE00030B16FF02000216808612046FFF702FE37
:102BF00010BD70477047000010B504460A492068B0
:102C0000884202D1FEF7C0FB0CE0084920688842E8
:102C100008D1074802684068521C40F1000004498E
:102C20000A60486010BD0000000800400004004039
:102C3000A80100207047000010B586B0044614219A
:102C400001A8FDF779FB1B49206888422FD100BFFE
:102C5000002000901848006840F0100016490860F5
:102C60000846006800F01000009000BF00BF00BFE1
:102C70000020009010481438006840F001000E4910
:102C8000143908600846006800F00100009000BF99
:102C900000BF4815019012200290002003900320ED
:102CA00004900720059001A90448FEF7E7F906B053
:102CB00010BD0000001001404438024000000240F6
:102CC00000BFFEE710B506480649086006204860C8
:102CD00040F6FF7103488160FEF727FB10BD00003E
:102CE000003000408006002010B50248FEF745FB8A
:102CF00010BD00008006002070B50725002406E006
:102D0000044951F82400FDF79FFC601CC4B2AC429A
:102D1000F6DB70BD0400002000B587B000BF0020C6
:102D200001902648006840F00100244908600846E8
:102D3000006800F00100019000BF00BF00BF00204C
:102D400001900846006840F00400086008460068EA
:102D500000F00400019000BF00BF00BF0020019000
:102D60000846006840F0800008600846006800F0EF
:102D70008000019000BF00BF01200290002003905E
:102D8000022004900320059002A90D48FEF776F971
:102D90004FF4005002900020039001200490032083
:102DA000059002A90748FEF769F90C20029002A9D4
:102DB0000548FEF763F907B000BD00003038024057
:102DC0000000024000080240001C024010B504460A
:102DD000012C01D12D4908702C480078002839D0E9
:102DE00008212B48FEF758FA80B104212848FEF745
:102DF00053FA58B14FF400512648FEF74DFA28B166
:102E000001212548FEF748FA012823D10A2005F0C0
:102E100057FA00201D49087008211D48FEF73CFAAA
:102E200008B9012010BD04211948FEF735FA08B988
:102E30000220F7E74FF400511648FEF72DFA08B9C3
:102E40000320EFE701211448FEF726FA01281BD1E1
:102E50000420E7E708210E48FEF71EFA012813D1E7
:102E600004210B48FEF718FA01280DD14103094847
:102E7000FEF712FA012807D101210748FEF70CFAE4
:102E800010B90120014908700020CBE7AC000020F8
:102E9000001C0240000802400000024070B50446D9
:102EA000002609480588408845430021084602F06D
:102EB00075FC02F059FE00BF02E004490C80761C4C
:102EC000AE42FAD370BD000068F401200000086033
:102ED00010B5044655488471002C51D1F020534957
:102EE00008804FF4A07048800846808849F241313C
:102EF000884205D04D48808845F21031884214D16F
:102F00002C204A4908812A2048812B2088810846A4
:102F1000808845F21031884206D14FF4A0704349B1
:102F200008804FF4F07048807BE04048808845F28C
:102F30001051884210D14FF430503C4908814FF471
:102F4000285048814FF42C5088814FF4F07008804D
:102F50004FF44870488064E03448808841F663113B
:102F600088425ED12C20314908812B2048812A20BB
:102F700088814FF4F07008804FF44870488050E02A
:102F80004FF4A07029490880F020488008468088C6
:102F900049F24131884205D02448808845F21031F9
:102FA000884207D12C20214908812A2048812B20E2
:102FB000888129E01D48808845F21051884210D14F
:102FC0004FF43050194908814FF4285048814FF48C
:102FD0002C5088814FF4487008804FF4F07048807E
:102FE00012E01248808841F6631188420CD12C20EF
:102FF0000E4908812A2048812B2088814FF448708F
:1030000008804FF4F07048800848808845F21031FD
:10301000884206D14FF4F070044908804FF4A07044
:103020004880002002F080FA10BD000068F4012002
:1030300030B504460D463E48808849F24131884209
:1030400005D03B48808845F21031884214D1384978
:10305000488902F07DFD201202F06EFDE0B202F020
:103060006BFD3349888902F073FD281202F064FD7C
:10307000E8B202F061FD54E02D48808845F210511D
:10308000884220D12A49488902F062FD201202F0CC
:1030900053FD27494989491C88B202F059FDE0B225
:1030A00002F04AFD2249888902F052FD281202F0FE
:1030B00043FD1F498989491C88B202F049FDE8B2E5
:1030C00002F03AFD2DE01A48808841F663118842EB
:1030D00027D11748807920B915480088401E001B69
:1030E00084B21349488902F033FD201202F024FD16
:1030F000E0B202F021FD201202F01EFDE0B202F06B
:103100001BFD0B49888902F023FD281202F014FDF3
:10311000E8B202F011FD281202F00EFDE8B202F052
:103120000BFD0348008903490880891C0A8030BDD3
:1031300068F40120FEFF076010B5D32002F008FDFF
:1031400002F0B8F9FE49888002F0B4F9FC498880A1
:1031500002F0B0F9FA498880084680884FF6FF717E
:1031600001EA0020F649888002F0A4F9F449898830
:103170000843F34988800846808849F241318842F3
:1031800078D0D42002F0E4FC02F094F9EC49888075
:1031900002F090F9EA49888002F08CF9E8498880C9
:1031A000084680884FF6FF7101EA0020E4498880D4
:1031B00002F080F9E24989880843E149888008469D
:1031C000808845F21031884254D04FF45A4002F0C2
:1031D000BFFC02F06FF9DA4988804FF45B4002F0DF
:1031E000B7FC02F067F9D6498880084680884FF618
:1031F000FF7101EA0020D24988804FF45C4002F060
:10320000A7FC02F057F9CE4989880843CC49888049
:1032100008468088B0F5004F02D145F210508880F2
:10322000C748808845F21051884223D0A12002F07F
:103230008FFC02F03FF9C249888002F03BF9C04997
:103240008880084680884FF6FF7101EA0020BC495B
:10325000888002F02FF9BA4989880843B8498880E4
:103260000846808845F26171884203D141F66310B7
:10327000B3498880B248808849F2413188427CD184
:10328000CF2002F065FC002002F056FCC12002F0C5
:1032900053FC302002F050FCED2002F059FC642079
:1032A00002F04AFC032002F047FC122002F044FC2A
:1032B000812002F041FCE82002F04AFC852002F067
:1032C0003BFC102002F038FC7A2002F035FCCB20C9
:1032D00002F03EFC392002F02FFC2C2002F02CFCE6
:1032E000002002F029FC342002F026FC022002F02B
:1032F00023FCF72002F02CFC202002F01DFCEA2029
:1033000002F026FC002002F017FC002002F014FC62
:10331000C02002F01DFC1B2002F00EFCC12002F0B8
:1033200017FC012002F008FCC52002F011FC30203F
:1033300002F002FC302002F0FFFBC72002F008FC84
:10334000B72002F0F9FB362002F002FC482002F020
:10335000F3FB3A2002F0FCFB552002F0EDFBB1201C
:1033600002F0F6FB002002F0E7FB1A2002F0E4FB7B
:10337000B62002F0EDFB0A2000E096E002F0DCFB54
:10338000A22002F0D9FBF22002F0E2FB002002F0C2
:10339000D3FB262002F0DCFB012002F0CDFBE02075
:1033A00002F0D6FB0F2002F0C7FB2A2002F0C4FB7C
:1033B000282002F0C1FB082002F0BEFB0E2002F024
:1033C000BBFB082002F0B8FB542002F0B5FBA9209B
:1033D00002F0B2FB432002F0AFFB0A2002F0ACFB8C
:1033E0000F2002F0A9FB002002F0A6FB002002F053
:1033F000A3FB002002F0A0FB002002F09DFBE120D7
:1034000002F0A6FB002002F097FB152002F094FBCF
:10341000172002F091FB072002F08EFB112002F032
:103420008BFB062002F088FB2B2002F085FB562048
:1034300002F082FB3C2002F07FFB052002F07CFBC7
:10344000102002F079FB0F2002F076FB3F2002F003
:1034500073FB3F2002F070FB0F2002F06DFB2B206E
:1034600002F076FB002002F067FB002002F064FB14
:10347000012002F061FB3F2002F05EFB2A2002F0F7
:1034800067FB002002F058FB002002F055FB0020F3
:1034900002F052FBEF2002F04FFB112002F058FB2C
:1034A000292002F055FB01F0BFBF2548808845F276
:1034B0001031884240F07987ED2002F049FB01206D
:1034C00002F03AFBFE2002F037FBEE2002F040FB58
:1034D000DE2002F031FB212002F02EFBF12002F071
:1034E00037FB012002F028FBDF2002F031FB102027
:1034F00002F022FBC42002F02BFB8F2002F01CFB09
:10350000C62002F025FB002002F016FBE22002F0AC
:1035100013FBE22002F010FBE22002F00DFBBF20C3
:1035200002F016FBAA2002F007FBB02002F010FB0D
:103530000D2002F001FB002002F0FEFA0D2001E058
:1035400068F4012002F0F8FA002002F0F5FA1120E8
:1035500002F0F2FA002002F0EFFA192002F0ECFA81
:10356000002002F0E9FA212002F0E6FA002002F041
:10357000E3FA2D2002F0E0FA002002F0DDFA3D200F
:1035800002F0DAFA002002F0D7FA5D2002F0D4FA55
:10359000002002F0D1FA5D2002F0CEFA002002F005
:1035A000CBFAB12002F0D4FA802002F0C5FA002054
:1035B00002F0C2FA8B2002F0BFFA002002F0BCFA3F
:1035C000962002F0B9FA002002F0B6FAB22002F01A
:1035D000BFFA002002F0B0FA002002F0ADFA02209B
:1035E00002F0AAFA002002F0A7FA032002F0A4FADF
:1035F000002002F0A1FAB32002F0AAFA002002F0A3
:103600009BFA002002F098FA002002F095FA0020C0
:1036100002F092FA002002F08FFA002002F08CFAF9
:10362000002002F089FA002002F086FA002002F061
:1036300083FA002002F080FA002002F07DFA0020D8
:1036400002F07AFA002002F077FA002002F074FA11
:10365000002002F071FA002002F06EFA002002F061
:103660006BFA002002F068FA002002F065FA0020F0
:1036700002F062FA002002F05FFA002002F05CFA29
:10368000002002F059FA002002F056FAB42002F0AD
:103690005FFA8B2002F050FA002002F04DFA9620DB
:1036A00002F04AFA002002F047FAA12002F044FAA0
:1036B000002002F041FAB52002F04AFA022002F09E
:1036C0003BFA002002F038FA032002F035FA00201D
:1036D00002F032FA042002F02FFA002002F02CFA55
:1036E000B62002F035FA002002F026FA002002F09F
:1036F00023FAB72002F02CFA002002F01DFA002075
:1037000002F01AFA3F2002F017FA002002F014FA31
:103710005E2002F011FA002002F00EFA642002F09E
:103720000BFA002002F008FA8C2002F005FA0020C3
:1037300002F002FAAC2002F0FFF9002002F0FCF9DE
:10374000DC2002F0F9F9002002F0F6F9702002F016
:10375000F3F9002002F0F0F9902002F0EDF90020DA
:1037600002F0EAF9EB2002F0E7F9002002F0E4F9B8
:10377000DC2002F0E1F9002002F0DEF9B82002F0CE
:10378000E7F9002002F0D8F9002002F0D5F9002076
:1037900002F0D2F9002002F0CFF9002002F0CCF9BB
:1037A000002002F0C9F9002002F0C6F9002002F062
:1037B000C3F9BA2002F0CCF9242002F0BDF90020B0
:1037C00002F0BAF9002002F0B7F9002002F0B4F9D3
:1037D000C12002F0BDF9202002F0AEF9002002F075
:1037E000ABF9542002F0A8F9002002F0A5F9FF205F
:1037F00002F0A2F9002002F09FF9C22002F0A8F91D
:103800000A2002F099F9002002F096F9042002F053
:1038100093F9002002F090F9C32002F099F93C20BE
:1038200002F08AF9002002F087F93A2002F084F9C8
:10383000002002F081F9392002F07EF9002002F028
:103840007BF9372002F078F9002002F075F93C206E
:1038500002F072F9002002F06FF9362002F06CF9E4
:10386000002002F069F9322002F066F9002002F02F
:1038700063F92F2002F060F9002002F05DF92C209E
:1038800002F05AF9002002F057F9292002F054F909
:10389000002002F051F9262002F04EF9002002F03B
:1038A0004BF9242002F048F9002002F045F92420C9
:1038B00002F042F9002002F03FF9232002F03CF927
:1038C000002002F039F93C2002F036F9002002F025
:1038D00033F9362002F030F9002002F02DF93220C1
:1038E00002F02AF9002002F027F92F2002F024F933
:1038F000002002F021F92C2002F01EF9002002F035
:103900001BF9292002F018F9002002F015F92620F1
:1039100002F012F9002002F00FF9242002F00CF955
:10392000002002F009F9242002F006F9002002F03C
:1039300003F9232002F000F9002002F0FDF8C42072
:1039400002F006F9622002F0F7F8002002F0F4F825
:10395000052002F0F1F8002002F0EEF8842002F0D9
:10396000EBF8002002F0E8F8F02002F0E5F8002083
:1039700002F0E2F8182002F0DFF8002002F0DCF894
:10398000A42002F0D9F8002002F0D6F8182002F0A6
:10399000D3F8002002F0D0F8502002F0CDF800203B
:1039A00002F0CAF80C2002F0C7F8002002F0C4F8B8
:1039B000172002F0C1F8002002F0BEF8952002F0B6
:1039C000BBF8002002F0B8F8F32002F0B5F80020B0
:1039D00002F0B2F8E62002F0AFF8002002F0ACF8F6
:1039E000C52002F0B5F8322002F0A6F8002002F05F
:1039F000A3F8442002F0A0F8002002F09DF8652012
:103A000002F09AF8002002F097F8762002F094F87D
:103A1000002002F091F8882002F08EF8002002F0D9
:103A20008BF8C62002F094F8202002F085F80020E0
:103A300002F082F8172002F07FF8002002F07CF8F4
:103A4000012002F079F8002002F076F8C72002F099
:103A50007FF8002002F070F8002002F06DF80020DE
:103A600002F06AF8002002F067F8C82002F070F84F
:103A7000002002F061F8002002F05EF8002002F061
:103A80005BF8002002F058F8C92002F061F800202D
:103A900002F052F8002002F04FF8002002F04CF83B
:103AA000002002F049F8002002F046F8002002F061
:103AB00043F8002002F040F8002002F03DF800201A
:103AC00002F03AF8002002F037F8002002F034F853
:103AD000002002F031F8002002F02EF8002002F061
:103AE0002BF8002002F028F8002002F025F8E02052
:103AF00002F02EF8162002F01FF8002002F01CF849
:103B00001C2002F019F8002002F016F8212002F023
:103B100013F8002002F010F8362002F00DF8002013
:103B200002F00AF8462002F007F8002002F004F83C
:103B3000522002F001F8002001F0FEFF642001F0A5
:103B4000FBFF002001F0F8FF7A2001F0F5FF0020D4
:103B500001F0F2FF8B2001F0EFFF002001F0ECFFFD
:103B6000992001F0E9FF002001F0E6FFA82001F014
:103B7000E3FF002001F0E0FFB92001F0DDFF0020AD
:103B800001F0DAFFC42001F0D7FF002001F0D4FFDC
:103B9000CA2001F0D1FF002001F0CEFFD22001F0B9
:103BA000CBFF002001F0C8FFD92001F0C5FF0020A5
:103BB00001F0C2FFE02001F0BFFF002001F0BCFFD8
:103BC000F32001F0B9FF002001F0B6FFE12001F081
:103BD000BFFF162001F0B0FF002001F0ADFF1C2058
:103BE00001F0AAFF002001F0A7FF222001F0A4FFAE
:103BF000002001F0A1FF362001F09EFF002001F01F
:103C00009BFF452001F098FF002001F095FF522016
:103C100001F092FF002001F08FFF642001F08CFF83
:103C2000002001F089FF7A2001F086FF002001F0DA
:103C300083FF8B2001F080FF002001F07DFF9920A1
:103C400001F07AFF002001F077FFA82001F074FF57
:103C5000002001F071FFB92001F06EFF002001F09B
:103C60006BFFC42001F068FF002001F065FFCA204F
:103C700001F062FF002001F05FFFD22001F05CFF45
:103C8000002001F059FFD82001F056FF002001F07C
:103C900053FFE02001F050FF002001F04DFFF32022
:103CA00001F04AFF002001F047FFE22001F050FF41
:103CB000052001F041FF002001F03EFF0B2001F044
:103CC0003BFF002001F038FF1B2001F035FF0020F2
:103CD00001F032FF342001F02FFF002001F02CFF13
:103CE000442001F029FF002001F026FF4F2001F0C1
:103CF00023FF002001F020FF612001F01DFF0020C4
:103D000001F01AFF792001F017FF002001F014FFE5
:103D1000882001F011FF002001F00EFF972001F034
:103D20000BFF002001F008FFA62001F005FF002096
:103D300001F002FFB72001F0FFFE002001F0FCFEC1
:103D4000C22001F0F9FE002001F0F6FEC72001F0CC
:103D5000F3FE002001F0F0FED12001F0EDFE002086
:103D600001F0EAFED62001F0E7FE002001F0E4FEBB
:103D7000DD2001F0E1FE002001F0DEFEF32001F085
:103D8000DBFE002001F0D8FEE32001F0E1FE05207B
:103D900001F0D2FE002001F0CFFE0A2001F0CCFE9F
:103DA000002001F0C9FE1C2001F0C6FE002001F039
:103DB000C3FE332001F0C0FE002001F0BDFE442010
:103DC00001F0BAFE002001F0B7FE502001F0B4FE71
:103DD000002001F0B1FE622001F0AEFE002001F0F3
:103DE000ABFE782001F0A8FE002001F0A5FE88209F
:103DF00001F0A2FE002001F09FFE972001F09CFE42
:103E0000002001F099FEA62001F096FE002001F0AE
:103E100093FEB72001F090FE002001F08DFEC2203D
:103E200001F08AFE002001F087FEC72001F084FE29
:103E3000002001F081FED12001F07EFE002001F083
:103E40007BFED52001F078FE002001F075FEDD201C
:103E500001F072FE002001F06FFEF32001F06CFE15
:103E6000002001F069FEE42001F072FE012001F063
:103E700063FE002001F060FE012001F05DFE0020E5
:103E800001F05AFE022001F057FE002001F054FE1E
:103E90002A2001F051FE002001F04EFE3C2001F0EE
:103EA0004BFE002001F048FE4B2001F045FE0020B3
:103EB00001F042FE5D2001F03FFE002001F03CFEDB
:103EC000742001F039FE002001F036FE842001F05C
:103ED00033FE002001F030FE932001F02DFE002083
:103EE00001F02AFEA22001F027FE002001F024FEAE
:103EF000B32001F021FE002001F01EFEBE2001F0E3
:103F00001BFE002001F018FEC42001F015FE002069
:103F100001F012FECD2001F00FFE002001F00CFE9A
:103F2000D32001F009FE002001F006FEDD2001F0A3
:103F300003FE002001F000FEF32001F0FDFD002053
:103F400001F0FAFDE52001F003FE002001F0F4FD90
:103F5000002001F0F1FD002001F0EEFD002001F055
:103F6000EBFD022001F0E8FD002001F0E5FD292035
:103F700001F0E2FD002001F0DFFD3C2001F0DCFD5E
:103F8000002001F0D9FD4B2001F0D6FD002001F00A
:103F9000D3FD5D2001F0D0FD002001F0CDFD7420A7
:103FA00001F0CAFD002001F0C7FD842001F0C4FD2E
:103FB000002001F0C1FD932001F0BEFD002001F0C2
:103FC000BBFDA22001F0B8FD002001F0B5FDB3203B
:103FD00001F0B2FD002001F0AFFDBE2001F0ACFD0C
:103FE000002001F0A9FDC42001F0A6FD002001F091
:103FF000A3FDCD2001F0A0FD002001F09DFDD32008
:1040000001F09AFD002001F097FDDC2001F094FD05
:10401000002001F091FDF32001F08EFD002001F061
:104020008BFDE62001F094FD112001F085FD0020BC
:1040300001F082FD342001F07FFD002001F07CFDC5
:10404000562001F079FD002001F076FD762001F088
:1040500073FD002001F070FD772001F06DFD002060
:1040600001F06AFD662001F067FD002001F064FDAB
:10407000882001F061FD002001F05EFD992001F033
:104080005BFD002001F058FDBB2001F055FD002034
:1040900001F052FD992001F04FFD002001F04CFD90
:1040A000662001F049FD002001F046FD552001F099
:1040B00043FD002001F040FD552001F03DFD0020B2
:1040C00001F03AFD452001F037FD002001F034FDFC
:1040D000432001F031FD002001F02EFD442001F0CD
:1040E0002BFD002001F028FDE72001F031FD3220FA
:1040F00001F022FD002001F01FFD552001F01CFD04
:10410000002001F019FD762001F016FD002001F0DD
:1041100013FD662001F010FD002001F00DFD672069
:1041200001F00AFD002001F007FD672001F004FD09
:10413000002001F001FD872001F0FEFC002001F0CD
:10414000FBFC992001F0F8FC002001F0F5FCBB20FD
:1041500001F0F2FC002001F0EFFC992001F0ECFCF2
:10416000002001F0E9FC772001F0E6FC002001F0DE
:10417000E3FC442001F0E0FC002001F0DDFC5620CF
:1041800001F0DAFC002001F0D7FC232001F0D4FC80
:10419000002001F0D1FC332001F0CEFC002001F022
:1041A000CBFC452001F0C8FC002001F0C5FCE82054
:1041B00001F0CEFC002001F0BFFC002001F0BCFCAF
:1041C000992001F0B9FC002001F0B6FC872001F035
:1041D000B3FC002001F0B0FC882001F0ADFC002011
:1041E00001F0AAFC772001F0A7FC002001F0A4FC5C
:1041F000662001F0A1FC002001F09EFC882001F067
:104200009BFC002001F098FCAA2001F095FC002006
:1042100001F092FCBB2001F08FFC002001F08CFC2F
:10422000992001F089FC002001F086FC662001F055
:1042300083FC002001F080FC552001F07DFC002073
:1042400001F07AFC552001F077FC002001F074FCAD
:10425000442001F071FC002001F06EFC442001F0CC
:104260006BFC002001F068FC552001F065FC00208B
:1042700001F062FCE92001F06BFCAA2001F05CFC7B
:10428000002001F059FC002001F056FC002001F054
:1042900053FC002001F05CFCAA2001F04DFCCF2073
:1042A00001F056FC002001F047FC002001F044FC26
:1042B000002001F041FC002001F03EFC002001F054
:1042C0003BFC002001F038FC002001F035FC002010
:1042D00001F032FC002001F02FFC002001F02CFC4A
:1042E000002001F029FC002001F026FC002001F054
:1042F00023FC002001F020FC002001F01DFC002028
:1043000001F01AFC002001F017FCF02001F020FC65
:10431000002001F011FC502001F00EFC002001F003
:104320000BFC002001F008FC002001F005FCF3204C
:1043300001F00EFC002001F0FFFBF92001F008FC69
:10434000062001F0F9FB102001F0F6FB292001F016
:10435000F3FB002001F0F0FB3A2001F0F9FB5520BF
:1043600001F0EAFB112001F0F3FB292001F0F0FB42
:10437000352001F0EDFB002001F0DEFB512001F0C3
:10438000E7FBFF2001F0D8FB532001F0E1FB2C20DC
:1043900001F0D2FB552001F0DBFB822001F0CCFBC9
:1043A0002C2001F0D5FB01F03FB8FE48808845F293
:1043B000105188427ED155214FF4704001F0DEFB50
:1043C000AA214FF2010001F0D9FB52214FF2020065
:1043D00001F0D4FB08214FF2030001F0CFFB0121D3
:1043E0004FF2040001F0CAFB0D214FF4304001F000
:1043F000C5FB0D214BF2010001F0C0FB0D214BF27A
:10440000020001F0BBFB34214FF4364001F0B6FB53
:1044100034214BF2016001F0B1FB34214BF2026018
:1044200001F0ACFB0D214FF4314001F0A7FB0D2151
:104430004BF2011001F0A2FB0D214BF2021001F032
:104440009DFB34214FF4374001F098FB34214BF2AF
:10445000017001F093FB34214BF2027001F08EFBEE
:1044600000214FF4324001F089FB00214BF2012082
:1044700001F084FB00214BF2022001F07FFB24219C
:104480004FF4384001F07AFB24214BF6010001F093
:1044900075FB24214BF6020001F070FB01214FF463
:1044A0003F4001F06BFB0F214FF4334001F066FBFE
:1044B0000F2100E0FEE34BF2013001F05FFB0F2122
:1044C0004BF2023001F05AFB34214FF4394001F035
:1044D00055FB34214BF6011001F050FB34214BF613
:1044E000021001F04BFB08214FF4354001F046FB70
:1044F00008214BF2015001F041FB08214BF2025020
:1045000001F03CFB03214FF4424001F037FB242132
:104510004FF43A4001F032FB24214BF6012001F028
:104520002DFB24214BF6022001F028FB00214FF443
:104530003C4001F023FB78214BF6014001F01EFBCB
:1045400000214BF6024001F019FB00214FF43D40E1
:1045500001F014FB78214BF6015001F00FFB002114
:104560004BF6025001F00AFB00214FF43E4001F0EF
:1045700005FB64214BF6016001F000FB00214FF4C4
:10458000514001F0FBFA33214DF2011001F0F6FA2F
:1045900000214DF2021001F0F1FA34214DF2031026
:1045A00001F0ECFA00214DF2041001F0E7FA3A2193
:1045B0004DF2051001F0E2FA00214DF2061001F073
:1045C000DDFA4A214DF2071001F0D8FA00214DF230
:1045D000081001F0D3FA5C214DF2091001F0CEFA77
:1045E00000214DF20A1001F0C9FA81214DF20B10A1
:1045F00001F0C4FA00214DF20C1001F0BFFAA6211F
:104600004DF20D1001F0BAFA00214DF20E1001F03A
:10461000B5FAE5214DF20F1001F0B0FA01214DF28B
:10462000101001F0ABFA13214DF2111001F0A6FAAF
:1046300001214DF2121001F0A1FA54214DF2131094
:1046400001F09CFA01214DF2141001F097FA822139
:104650004DF2151001F092FA01214DF2161001F001
:104660008DFACA214DF2171001F088FA02214DF29D
:10467000181001F083FA00214DF2191001F07EFAB2
:1046800002214DF21A1001F079FA01214DF21B10AE
:1046900001F074FA02214DF21C1001F06FFA34217E
:1046A0004DF21D1001F06AFA02214DF21E1001F0C8
:1046B00065FA67214DF21F1001F060FA02214DF2F8
:1046C000201001F05BFA84214DF2211001F056FA1E
:1046D00002214DF2221001F051FAA4214DF22310D3
:1046E00001F04CFA02214DF2241001F047FAB721F3
:1046F0004DF2251001F042FA02214DF2261001F090
:104700003DFACF214DF2271001F038FA02214DF287
:10471000281001F033FADE214DF2291001F02EFAB3
:1047200002214DF22A1001F029FAF2214DF22B104C
:1047300001F024FA02214DF22C1001F01FFAFE21A3
:104740004DF22D1001F01AFA03214DF22E1001F056
:1047500015FA10214DF22F1001F010FA03214DF23D
:10476000301001F00BFA33214DF2311001F006FA4E
:1047700003214DF2321001F001FA6D214DF2331098
:1047800001F0FCF900214FF4524001F0F7F9332118
:104790004DF2012001F0F2F900214DF2022001F06A
:1047A000EDF901E068F4012034214DF2032001F01D
:1047B000E5F900214DF2042001F0E0F93A214DF233
:1047C000052001F0DBF900214DF2062001F0D6F9B9
:1047D0004A214DF2072001F0D1F900214DF20820C5
:1047E00001F0CCF95C214DF2092001F0C7F900215C
:1047F0004DF20A2001F0C2F981214DF20B2001F0A7
:10480000BDF900214DF20C2001F0B8F9A6214DF2BE
:104810000D2001F0B3F900214DF20E2001F0AEF9A8
:10482000E5214DF20F2001F0A9F901214DF21020F0
:1048300001F0A4F913214DF2112001F09FF901219B
:104840004DF2122001F09AF954214DF2132001F09B
:1048500095F901214DF2142001F090F982214DF2D9
:10486000152001F08BF901214DF2162001F086F997
:10487000CA214DF2172001F081F902214DF21820D2
:1048800001F07CF900214DF2192001F077F90221A5
:104890004DF21A2001F072F901214DF21B2001F0B6
:1048A0006DF902214DF21C2001F068F934214DF21E
:1048B0001D2001F063F902214DF21E2001F05EF986
:1048C00067214DF21F2001F059F902214DF22020FD
:1048D00001F054F984214DF2212001F04FF9022119
:1048E0004DF2222001F04AF9A4214DF2232001F0DB
:1048F00045F902214DF2242001F040F9B7214DF293
:10490000252001F03BF902214DF2262001F036F975
:10491000CF214DF2272001F031F902214DF228205C
:1049200001F02CF9DE214DF2292001F027F90221B6
:104930004DF22A2001F022F9F2214DF22B2001F054
:104940001DF902214DF22C2001F018F9FE214DF243
:104950002D2001F013F903214DF22E2001F00EF964
:1049600010214DF22F2001F009F903214DF23020E2
:1049700001F004F933214DF2312001F0FFF8032159
:104980004DF2322001F0FAF86D214DF2332001F0A2
:10499000F5F800214FF4534001F0F0F833214DF2C7
:1049A000013001F0EBF800214DF2023001F0E6F8A1
:1049B00034214DF2033001F0E1F800214DF20430D2
:1049C00001F0DCF83A214DF2053001F0D7F8002172
:1049D0004DF2063001F0D2F84A214DF2073001F0D5
:1049E000CDF800214DF2083001F0C8F85C214DF2FD
:1049F000093001F0C3F800214DF20A3001F0BEF891
:104A000081214DF20B3001F0B9F800214DF20C304C
:104A100001F0B4F8A6214DF20D3001F0AFF80021FD
:104A20004DF20E3001F0AAF8E5214DF20F3001F001
:104A3000A5F801214DF2103001F0A0F813214DF23C
:104A4000113001F09BF801214DF2123001F096F87F
:104A500054214DF2133001F091F801214DF2143040
:104A600001F08CF882214DF2153001F087F8012118
:104A70004DF2163001F082F8CA214DF2173001F0E4
:104A80007DF802214DF2183001F078F800214DF246
:104A9000193001F073F802214DF21A3001F06EF86E
:104AA00001214DF21B3001F069F802214DF21C305A
:104AB00001F064F834214DF21D3001F05FF802215D
:104AC0004DF21E3001F05AF867214DF21F3001F00F
:104AD00055F802214DF2203001F050F884214DF2BA
:104AE000213001F04BF802214DF2223001F046F85E
:104AF000A4214DF2233001F041F802214DF224307F
:104B000001F03CF8B7214DF2253001F037F80221D1
:104B10004DF2263001F032F8CF214DF2273001F06E
:104B20002DF802214DF2283001F028F8DE214DF257
:104B3000293001F023F802214DF22A3001F01EF84D
:104B4000F2214DF22B3001F019F802214DF22C30F8
:104B500001F014F8FE214DF22D3001F00FF8032181
:104B60004DF22E3001F00AF810214DF22F3001F0F5
:104B700005F803214DF2303001F000F833214DF2F9
:104B8000313000F0FBFF03214DF2323000F0F6FF30
:104B90006D214DF2333000F0F1FF00214FF454400D
:104BA00000F0ECFF33214DF2014000F0E7FF00215F
:104BB0004DF2024000F0E2FF34214DF2034000F0DC
:104BC000DDFF00214DF2044000F0D8FF3A214DF204
:104BD000054000F0D3FF00214DF2064000F0CEFF6B
:104BE0004A214DF2074000F0C9FF00214DF2084074
:104BF00000F0C4FF5C214DF2094000F0BFFF00212E
:104C00004DF20A4000F0BAFF81214DF20B4000F056
:104C1000B5FF00214DF20C4000F0B0FFA6214DF28F
:104C20000D4000F0ABFF00214DF20E4000F0A6FF5A
:104C3000E5214DF20F4000F0A1FF01214DF210409F
:104C400000F09CFF13214DF2114000F097FF01216D
:104C50004DF2124000F092FF54214DF2134000F04B
:104C60008DFF01214DF2144000F088FF82214DF2AA
:104C7000154000F083FF01214DF2164000F07EFF49
:104C8000CA214DF2174000F079FF02214DF2184081
:104C900000F074FF00214DF2194000F06FFF022177
:104CA0004DF21A4000F06AFF01214DF21B4000F066
:104CB00065FF00E003E302214DF21C4000F05EFFBF
:104CC00034214DF21D4000F059FF02214DF21E40EB
:104CD00000F054FF67214DF21F4000F04FFF02210A
:104CE0004DF2204000F04AFF84214DF2214000F0B7
:104CF00045FF02214DF2224000F040FFA4214DF279
:104D0000234000F03BFF02214DF2244000F036FF2B
:104D1000B7214DF2254000F031FF02214DF226402F
:104D200000F02CFFCF214DF2274000F027FF022199
:104D30004DF2284000F022FFDE214DF2294000F024
:104D40001DFF02214DF22A4000F018FFF2214DF222
:104D50002B4000F013FF02214DF22C4000F00EFF1B
:104D6000FE214DF22D4000F009FF03214DF22E40AF
:104D700000F004FF10214DF22F4000F0FFFE032150
:104D80004DF2304000F0FAFE33214DF2314000F098
:104D9000F5FE03214DF2324000F0F0FE6D214DF2A0
:104DA000334000F0EBFE00214FF4554000F0E6FEEA
:104DB00033214DF2015000F0E1FE00214DF202508E
:104DC00000F0DCFE34214DF2035000F0D7FE00214C
:104DD0004DF2045000F0D2FE3A214DF2055000F0A1
:104DE000CDFE00214DF2065000F0C8FE4A214DF2E2
:104DF000075000F0C3FE00214DF2085000F0BEFE47
:104E00005C214DF2095000F0B9FE00214DF20A502C
:104E100000F0B4FE81214DF20B5000F0AFFE0021F6
:104E20004DF20C5000F0AAFEA6214DF20D5000F0FC
:104E3000A5FE00214DF20E5000F0A0FEE5214DF23E
:104E40000F5000F09BFE01214DF2105000F096FE35
:104E500013214DF2115000F091FE01214DF212503C
:104E600000F08CFE54214DF2135000F087FE01211A
:104E70004DF2145000F082FE82214DF2155000F0E8
:104E80007DFE01214DF2165000F078FECA214DF250
:104E9000175000F073FE02214DF2185000F06EFE24
:104EA00000214DF2195000F069FE02214DF21A5016
:104EB00000F064FE01214DF21B5000F05FFE022164
:104EC0004DF21C5000F05AFE34214DF21D5000F0FE
:104ED00055FE02214DF21E5000F050FE67214DF2AA
:104EE0001F5000F04BFE02214DF2205000F046FE14
:104EF00084214DF2215000F041FE02214DF222505A
:104F000000F03CFEA4214DF2235000F037FE0221B8
:104F10004DF2245000F032FEB7214DF2255000F042
:104F20002DFE02214DF2265000F028FECF214DF239
:104F3000275000F023FE02214DF2285000F01EFE03
:104F4000DE214DF2295000F019FE02214DF22A50C7
:104F500000F014FEF2214DF22B5000F00FFE022162
:104F60004DF22C5000F00AFEFE214DF22D5000F0C3
:104F700005FE03214DF22E5000F000FE10214DF2EF
:104F80002F5000F0FBFD03214DF2305000F0F6FDF4
:104F900033214DF2315000F0F1FD03214DF232503A
:104FA00000F0ECFD6D214DF2335000F0E7FD0021E3
:104FB0004FF4564000F0E2FD33214DF2016000F065
:104FC000DDFD00214DF2026000F0D8FD34214DF2EC
:104FD000036000F0D3FD00214DF2046000F0CEFD2F
:104FE0003A214DF2056000F0C9FD00214DF2066046
:104FF00000F0C4FD4A214DF2076000F0BFFD002122
:105000004DF2086000F0BAFD5C214DF2096000F03D
:10501000B5FD00214DF20A6000F0B0FD81214DF296
:105020000B6000F0ABFD00214DF20C6000F0A6FD1E
:10503000A6214DF20D6000F0A1FD00214DF20E60A1
:1050400000F09CFDE5214DF20F6000F097FD01217D
:105050004DF2106000F092FD13214DF2116000F04E
:105060008DFD01214DF2126000F088FD54214DF2BA
:10507000136000F083FD01214DF2146000F07EFD0D
:1050800082214DF2156000F079FD01214DF216608C
:1050900000F074FDCA214DF2176000F06FFD02218F
:1050A0004DF2186000F06AFD00214DF2196000F029
:1050B00065FD02214DF21A6000F060FD01214DF204
:1050C0001B6000F05BFD02214DF21C6000F056FDFC
:1050D00034214DF21D6000F051FD02214DF21E60A1
:1050E00000F04CFD67214DF21F6000F047FD0221EA
:1050F0004DF2206000F042FD84214DF2216000F06D
:105100003DFD02214DF2226000F038FDA4214DF258
:10511000236000F033FD02214DF2246000F02EFDEB
:10512000B7214DF2256000F029FD02214DF22660E5
:1051300000F024FDCF214DF2276000F01FFD022179
:105140004DF2286000F01AFDDE214DF2296000F0DA
:1051500015FD02214DF22A6000F010FDF2214DF202
:105160002B6000F00BFD02214DF22C6000F006FDDB
:10517000FE214DF22D6000F001FD03214DF22E6065
:1051800000F0FCFC10214DF22F6000F0F7FC032131
:105190004DF2306000F0F2FC33214DF2316000F04E
:1051A000EDFC03214DF2326000F0E8FC6D214DF280
:1051B000336000F0E3FC55214FF4704000F0DEFC5A
:1051C000AA214FF2010000F0D9FC52214FF2020057
:1051D00000F0D4FC08214FF2030000F0CFFC0021C6
:1051E0004FF2040000F0CAFCCC214FF4314000F033
:1051F000C5FC00214BF2011000F0C0FC05214FF46A
:10520000364000F0BBFC70214FF4374000F0B6FC94
:1052100070214BF2017000F0B1FC01214FF43840D5
:1052200000F0ACFC03214BF6010000F0A7FC0321C9
:105230004BF6020000F0A2FC03214BF6030000F045
:105240009DFC02214FF43C4000F098FC00214BF6FD
:10525000014000F093FC00214BF6024000F08EFC70
:10526000D0214FF4494000F089FC02214CF6011096
:1052700000F084FC50214CF6021000F07FFC50211D
:105280004CF6031000F07AFC50214CF6041000F0AC
:1052900075FC00214FF4545000F070FC55214FF480
:1052A000685000F06BFC4FF4885000F051FC7820FF
:1052B00003F012F84FF4245000F04AFCB4E07A48AE
:1052C000808841F663118842F8D1E22000F040FC6A
:1052D0001D2000F031FC022000F02EFC042000F024
:1052E0002BFC642002F0F8FFE02000F031FC0120EC
:1052F00000F022FCE02000F02BFC032000F01CFC5E
:10530000012000F025FCE62000F022FC2F2000F018
:1053100013FCFF2000F010FCFF2000F00DFCB0207B
:1053200000F016FC202000F007FC002000F004FC38
:10533000032000F001FC40F21F3000F0FDFB0120D3
:1053400000F0FAFB40F2DF1000F0F6FB002000F066
:10535000F3FBB42000F0FCFB042000F0EDFB40F276
:105360001F4000F0E9FB002000F0E6FB2E2000F0DB
:10537000E3FB002000F0E0FB002000F0DDFB00205C
:1053800000F0DAFB002000F0D7FBB62000F0E0FBD5
:10539000022000F0D1FB4FF4037000F0CDFB0020A1
:1053A00000F0CAFB172000F0C7FB152000F0C4FB7B
:1053B000002000F0C1FB002000F0BEFBF02000F058
:1053C000C7FB032000F0B8FB292000F0C1FBD02070
:1053D00000F0BEFB002000F0AFFBBE2000F0B8FBE9
:1053E000052000F0A9FBFE2000F0A6FB012000F044
:1053F000A3FB002000F0A0FB002000F09DFB00209C
:1054000000F09AFBB82000F0A3FB032000F094FB0F
:10541000012000F091FBBA2000F09AFB012000F07F
:105420008BFB642000F050F81F48808849F241311E
:10543000884211D01C48808845F2103188420BD038
:105440001948808845F21051884205D01648808856
:1054500041F6631188421CD11448006820F00F0007
:105460004FF02041C1F804010846D0F8040120F4AF
:105470007060C1F804010846D0F8040140F004004F
:10548000C1F804010846D0F8040140F48060C1F876
:1054900004010020FDF71CFD4FF6FF70FDF7FEFC38
:1054A00001200349086010BD68F40120040100A038
:1054B0009482404208B5034800880090BDF800007F
:1054C00008BD00000000086070B52DED048B044697
:1054D000BE2000F03DFB052000F02EFB2046FAF731
:1054E000D3FF41EC190B9FED0E0B53EC102BFAF789
:1054F00059FF41EC180BFAF7D4FF85B2284600F0AB
:105500001BFB012000F018FBFF2000F015FB002022
:1055100000F012FB002000F00FFBBDEC048B70BD0F
:105520006666666666660440F0B505460024002798
:1055300099488079012805D19748808841F6631100
:10554000884208D194488079F0B99348808841F620
:105550006311884218D1082D15D2DFE805F0040642
:10556000080A0C0E101206250DE007250BE0042595
:1055700009E0052507E0012505E0002503E00325F6
:1055800001E0022500BF00BF8348808849F2413115
:10559000884211D08048808845F2103188420BD073
:1055A0007D48808845F21051884205D07A4880882D
:1055B00041F6631188427DD1082D1CD2DFE805F049
:1055C0000406090C0F12151800BF14E044F0800403
:1055D00011E044F040040EE044F0C0040BE044F05D
:1055E000200408E044F0600405E044F0A00402E078
:1055F00044F0E00400BF00BF6748808845F21051C6
:10560000884202D14FF4585700E03627624880881C
:1056100045F2103188420DD05F48808845F2105124
:10562000884207D05C48808841F66311884201D0E7
:1056300044F008042146384600F0A0FA5648808815
:1056400041F6631188421DD004F0200068B1524831
:10565000008851494988884214DA4F4806884088B2
:105660004D490880084646800CE04B4800884A496E
:105670004988884206DD48480688408846490880AF
:10568000084646804448808845F21051884254D1EB
:105690004149488900F05CFA002000F04DFA3E498B
:1056A0004989491C88B200F053FA002000F044FAFE
:1056B000394900E06FE04989891C88B200F048FA56
:1056C00035490988491EC1F30F2000F035FA3249E7
:1056D0004989C91C88B200F03BFA2F490978491E54
:1056E000C8B200F029FA2C49888900F031FA00206C
:1056F00000F022FA28498989491C88B200F028FA6A
:10570000002000F019FA24498989891C88B200F028
:105710001FFA21494988491EC1F30F2000F00CFAF5
:105720001D498989C91C88B200F012FA1A49897882
:10573000491EC8B200F000FA2DE01749488900F070
:1057400007FA002000F0F8F9002000F0F5F91249FE
:105750000988491EC1F30F2000F0EEF90E490978BF
:10576000491EC8B200F0E8F90B49888900F0F0F949
:10577000002000F0E1F9002000F0DEF90649498838
:10578000491EC1F30F2000F0D7F903498978491E5B
:10579000C8B200F0D1F9F0BD68F4012010B502469E
:1057A0000C464B48808849F24131884205D0484830
:1057B000808845F21031884214D14549488900F06B
:1057C000C7F9101200F0B8F9D0B200F0B5F94049AD
:1057D000888900F0BDF9201200F0AEF9E0B200F0C7
:1057E000ABF973E03A48808841F66311884247D1AB
:1057F00037488079A8B936480088401E801A82B29E
:105800003349488900F0A4F9002000F095F9002000
:1058100000F092F9101200F08FF9D0B200F08CF97C
:1058200016E02B49488900F093F9101200F084F932
:10583000D0B200F081F926490988491EC1F30F2032
:1058400000F07AF922490978491EC8B200F074F9CB
:105850001F49888900F07CF9201200F06DF9E0B250
:1058600000F06AF91A494988491EC1F30F2000F077
:1058700063F917498978491EC8B200F05DF925E03F
:105880001348808845F2105188421FD11049488939
:1058900000F05EF9101200F04FF90D494989491CDA
:1058A00088B200F055F9D0B200F046F9084988896D
:1058B00000F04EF9201200F03FF905498989491C92
:1058C00088B200F045F9E0B200F036F910BD0000F2
:1058D00068F401202DE9F84F80460F4616461C4615
:1058E000BB462046E31704EB5373DB1021464FEA17
:1058F000E47C04EB5C7C4FEAEC0CA4EBCC0CBCF13C
:10590000000F02D04FF0010C01E04FF0000C634497
:10591000224604EBD27C4FEA6C0C03FB0CF3DBB2A7
:105920000093A6F12000C6B2002578E00C2C07D128
:1059300006EB46003C4901EB800010F805901BE0A7
:10594000102C05D1394800EB061010F8059013E033
:10595000182C07D106EBC600354901EB800010F882
:10596000059009E0202C05D1324800EBC61010F854
:10597000059001E0BDE8F88F4FF0000A49E009F01A
:10598000800030B12C48394602684046FDF750FB94
:1059900007E00A9828B92948394602684046FDF7C9
:1059A00047FB4FEA49604FEA1069781C87B22448E8
:1059B0004088B8420DDC00BF00F0F4F840F24F73AD
:1059C00020A2294929A001F0BDFF00F0DFF800BFA7
:1059D000D0E7A7EB0B00A04217D15F4608F101000A
:1059E0001FFA80F81648008840450DDC00BF00F023
:1059F000D9F84FF4EB6313A21B4928A001F0A2FFD2
:105A000000F0C4F800BFB5E706E00AF1010000F0BD
:105A1000FF0ABAF1080FB2DB00BF681CC5B20098DC
:105A2000854283DB00BFA5E7C8D600083CDB000841
:105A30002CE1000888EE0008D0000020D4000020EF
:105A400068F401202E2E5C5372635C6D6F64756C7C
:105A5000655C7466746C63645C7466746C63645FC8
:105A60006172672E63000000081E01081B5B313B5A
:105A700033316D5B202573205D2020257320286C39
:105A8000696E6520256429202D3E20686569676858
:105A900074206F75740D0A1B5B306D001B5B313B0E
:105AA00033316D5B202573205D2020257320286C09
:105AB000696E6520256429202D3E2077696474680D
:105AC000206F75740D0A1B5B306D00002DE9F84FD7
:105AD00004460E4690469946DDE90A7504F0FF0A31
