:020000040800F2
:10000000E0F4012081020008234D0008C12100080E
:10001000214D0008750600082D5C00080000000056
:10002000000000000000000000000000C101000806
:1000300035070008000000001D02000849590008AB
:100040009B0200089B0200089B0200089B0200081C
:100050009B0200089B0200089B0200089B0200080C
:100060009B0200089B0200089B0200089B020008FC
:100070009B0200089B0200089B0200089B020008EC
:100080009B0200089B0200089B0200089B020008DC
:100090009B0200089B0200089B0200089B020008CC
:1000A0009B0200089B0200089B0200089B020008BC
:1000B0009B0200089B020008315A00089B020008BE
:1000C0009B0200089B0200089B0200089B0200089C
:1000D0009B0200089B0200089B0200089B0200088C
:1000E0009B0200089B0200089B0200089B0200087C
:1000F0009B0200089B0200089B0200089B0200086C
:100100009B020008594D00089B0200089B02000852
:100110009B0200089B0200089B0200089B0200084B
:100120009B0200089B0200089B0200087906000859
:100130009B0200089B0200089B0200089B0200082B
:100140009B0200089B0200089B0200089B0200081B
:100150009B020008850600089B0200089B0200081D
:100160009B0200089B0200089B0200089B020008FB
:100170009B0200089B0200089B0200080000000090
:100180009B0200089B0200089B0200089B020008DB
:100190009B0200089B0200089B0200089B020008CB
:1001A0009B0200089B0200089B020008DFF80CD0AD
:1001B00000F0EEF90048004715620008E0F4012065
:1001C0002C4B19680868B0E8F04F80F30988BFF33A
:1001D0006F8F4FF0000080F311887047000000001F
:1001E00008480068006880F308884FF0000080F33A
:1001F000148862B661B6BFF34F8FBFF36F8F00DF15
:1002000000BF00BF08ED00E0DFF80C00016841F41A
:1002100070010160704700BF88ED00E0EFF30980D6
:10022000BFF36F8F134B1A681EF0100F08BF20ED3D
:10023000108A20E9F04F106009B44FF0500080F3AD
:100240001188BFF34F8FBFF36F8F06F0B9FD4FF0EA
:10025000000080F3118809BC19680868B0E8F04F05
:100260001EF0100F08BFB0EC108A80F30988BFF3AE
:100270006F8F704714000020EFF305807047000077
:100280000648804706480047FEE7FEE7FEE7FEE730
:10029000FEE7FEE7FEE7FEE7FEE7FEE7155A000889
:1002A000AD0100082DE9F05F0546002092469B460F
:1002B00088460646814640241BE02846414647467C
:1002C000224600F0F7F853465A46C01A914110D31F
:1002D00011461846224600F0DEF82D1A67EB010899
:1002E0004F4622460120002100F0D5F817EB000907
:1002F0004E41201EA4F10104DFDC484631462A4667
:100300004346BDE8F09F40EA01039B0703D009E0A4
:1003100008C9121F08C0042AFAD203E011F8013BF1
:1003200000F8013B521EF9D27047D2B201E000F84A
:10033000012B491EFBD270470022F6E710B5134689
:100340000A4604461946FFF7F0FF204610BD10B5D7
:10035000044604E00B7800F8013B03B1491C521E2F
:10036000F8D2204610BD2DE9FE4F81EA030404F0C7
:10037000004421F0004100944FF0000B23F00043B3
:1003800050EA01045ED052EA03045BD0C3F30A547E
:10039000C1F30A552C44A4F2F3340194A0FB025497
:1003A000C1F3130141F48011C3F3130343F4801329
:1003B00001FB024400FB034E840A970A44EA81547D
:1003C00047EA8357A4FB076802958D0A05FB07855A
:1003D0004FEA932C04FB0C542705029D4FEA065864
:1003E00047EA1637B5EB08056EEB070C870E920E41
:1003F00047EA811742EA8312A7FB0201B6EB0B0121
:1004000064EB00042B0D43EA0C335E1844EB1C50E4
:10041000DA465146E7FB0201C5F313044FEA0B33FA
:1004200043EA14534FEA0432019C43EA0603A4F161
:100430000C040294009CCDE900B400F05AF803B01B
:10044000BDE8F08F00200146F9E70EB540F23341D8
:1004500002910021CDE900110A460B4600F049F84F
:1004600003B000BDC1F30A5210B5C1F3130140F24D
:10047000FF3341F480119A4201DA002010BD40F2AE
:1004800033439A42A2F2334203DC524200F012F8A4
:1004900010BD904010BD202A04DB203A00FA02F182
:1004A000002070479140C2F1200320FA03F3194362
:1004B00090407047202A04DB203A21FA02F0002104
:1004C000704721FA02F3D040C2F120029140084364
:1004D0001946704710B5141E73F1000408DA401C69
:1004E00041F1000192185B411A4301D120F0010053
:1004F00010BD2DE9F04D92469B4611B1B1FA81F243
:1005000002E0B0FA80F220329046FFF7C4FF0446C2
:100510000F4640EA0A0041EA0B0153465A46084397
:1005200013D0114653EA010019D0C8F140025046D9
:10053000FFF7C0FF05460E46504659464246FFF7B4
:10054000AAFF084305D0012004E020463946BDE853
:10055000F08D0020054346EAE0762C4337430A98A5
:100560006305E40AA0EB08000022FD0A44EA4754B0
:100570000A3002D500200146E9E70105101969415A
:10058000DDE9084500196941BDE8F04DA2E700002A
:10059000064C074D06E0E06840F0010394E80700D0
:1005A00098471034AC42F6D3FFF704FE48C0000869
:1005B00068C00008704700000146014801F05EB9BC
:1005C00008EF012010B5044801F06AF9042801D0B1
:1005D000012010BD002010BD08EF012010B500F073
:1005E00015F8012801D0012010BD074801F072FA6A
:1005F000040006D14FF40061034800F0F7FF00B19A
:100600000124204610BD000008EF012008B501209C
:100610008DF800009DF8000008BD0000134610B5DD
:100620000A4601460024034801F03CFB00B10124C6
:10063000204610BD08EF0120024800220121406839
:1006400005F092BE74000020134610B50A4601461C
:100650000024034801F0C6FB00B10124204610BD70
:1006600008EF0120024800220221406805F07CBE0C
:1006700074000020FEE70000014800F019B90000F6
:100680008CEF0120014800F013B90000ECEF0120CD
:1006900001681823CAB2103AB2FBF3F2054B6FF3AC
:1006A0000901032A9B5CC36500D9091D81650846C1
:1006B000704700007478000810B5014600208B696F
:1006C0008A6A4FF0C07453B1B3F5005F15D072B1B0
:1006D000012A0CD0022A0AD0032A09D104E01AB157
:1006E000012A06D0022A03D1C96AC90100D5012016
:1006F00010BDC96AA142FAD010BD002AF7D0012A64
:10070000F2D0022AF3D0032AF3D010BD30B504682A
:10071000256825F480252560046863608368402B84
:10072000036803D099600068C26030BD9A600068B9
:10073000C16030BD704772B6FEE70022AFF30080A3
:1007400030B50E4B054601205C7A002C14D1587A46
:100750001C54587A03EB800045605D7A03F1080071
:100760002A54587A421C5A72303008703A20487025
:100770002F208870CC70002030BD0000C00B0020FE
:1007800070B5B3F5804F05D06FF0704140F822107E
:10079000002070BD50F82240084B8E891C40D1E9E2
:1007A000003543EA05138D6889692D0245EA06453F
:1007B0002B430B43234340F82230E9E70000F0CFFE
:1007C000F0B50C6850F82430174A1340D1E90125E0
:1007D000D1E903672A433E4332434E6932438E696F
:1007E0003243CE6932430E6A32434E6A32438E6AD6
:1007F0003243CE6A3243CE6B32430E6B32434E6B82
:1008000032431A43082D01D142F0400240F824201F
:100810004A6BB2F5801F05D1096819B1016841F42E
:10082000801101600020F0BD8000E0FFF0B500EB1A
:100830008204626802F04045D1E9002342EA0312D3
:100840008B688E891B0243EA06431A430E8A0D4BBE
:1008500003EB065632430E7D5F0107EB066632431B
:100860008E6932432A4362600268D20207D5426829
:10087000098A22F4700203EB015111434160002008
:10088000F0BD00000000F0FF90F83510022903D001
:100890008021416501207047052180F835100068EE
:1008A000016821F00101016000207047406D704730
:1008B0002DE9F84304464FF00009CDF80090634855
:1008C0004FF41651A56D0068B0FBF1F72E6894F84F
:1008D0005C10082000FA01F131420FD021680A684B
:1008E00052070BD50A6822F004020A6094F85C10E3
:1008F0008840A860606D40F00100606594F85C106D
:100900004FF0010808FA01F0304208D02168496927
:10091000090604D5A860606D40F00200606594F897
:100920005C1004208840304208D02168096889079B
:1009300004D5A860606D40F00400606594F85C1018
:1009400010208840304218D021680968090714D562
:10095000A86020680168490304D50068000308D531
:10096000A16C07E00168C90503D4016821F0080102
:100970000160216C09B12046884794F85C10202062
:100980008840304231D021680968C9062DD5A86059
:1009900094F8350005282068016806D0490347D53A
:1009A000006800031DD4616C1CE021F01601016099
:1009B0002068416921F080014161206C08B9A06C78
:1009C00020B12068016821F00801016094F85C10F2
:1009D0003F208840A86084F8349084F83580216DE9
:1009E0001FE0E16B09B120468847606D00282BD0DD
:1009F000606DC00714D0052084F8350020680168B8
:100A000021F0010101600098401C0090B84203D819
:100A100020680068C007F6D184F8349084F83580E7
:100A2000E16C002910D001B02046BDE8F043084732
:100A30000168C905D5D4016821F01001016084F86E
:100A4000349084F83580CCE7BDE8F88310000020AE
:100A50002DE9F041044600F0DFF906465CB10025BF
:100A600084F83450022084F835002068016821F0B1
:100A7000010101600DE00120BDE8F08100F0CCF93A
:100A8000801B052805D920206065032084F83500E7
:100A9000F2E720680068C007F0D12268116820489A
:100AA0000140D4E901031843D4E903363343184322
:100AB00063691843A3691843E3691843236A184319
:100AC0000843616A042903D1D4E90B13194308438D
:100AD000106020684069666A20F0070130460E43C6
:100AE000012704280CD1A06A0643E06A40B12046E1
:100AF000FFF7E2FD20B14020606584F83570BAE769
:100B0000206846612046FFF7C3FD94F85C203F2132
:100B100091408160656584F835700020ACE7000085
:100B20003F8010F02DE9F0410446866D90F83400C6
:100B3000002501280DD0012084F8340094F8357088
:100B40000020012F07D084F8340002252846BDE894
:100B5000F0810220FBE7022784F8357060652046AB
:100B6000FFF7D4FD94F85C103F208840B060206807
:100B7000016841F016010160206C20B12068016815
:100B800041F0080101602068016841F00101016045
:100B9000DCE7000070B5044600F03EF90546601C35
:100BA00002D004480078044400F036F9401BA0420B
:100BB000FAD370BD04000020F0B587B01421684658
:100BC000FFF7BAFB1A48016800292ED10121016004
:100BD00018480024016841F0010101600068022505
:100BE00000F0010005904FF68070CDE9000502AAE3
:100BF00003260C2782E8D00069460F4800F022F84F
:100C00004EF2B370CDE9000502AA694682E8D00031
:100C10000A4800F017F8E802CDE9000502AA694683
:100C200082E8D000064800F00DF807B0F0BD0000E3
:100C30008C0000203838024000100240000C0240B6
:100C4000001802402DE9F84F00224FF0010803255B
:100C50004FF00F0E0B6808FA02F42340A3426ED146
:100C60004E68012E05D0022E03D0112E01D0122E77
:100C700012D186684FEA420C05FA0CF7BE43CF68E2
:100C800007FA0CF7374387604668A6430C79C4F32C
:100C90000014944034434460C668570005FA07FCCA
:100CA0008C6826EA0C06BC403443C4604C68022CB5
:100CB00001D0122C13D1D40800EB8404A346D4F83D
:100CC000209054074FEAD46A0EFA0AF629EA060978
:100CD0000E6906FA0AF646EA0906CBF820600468AF
:100CE0000E7924EA0C0406F00306BE402643066093
:100CF0004C68E4006FD53B4C266846F4804626607D
:100D0000246822F0030604F480440094364C3444F2
:100D1000A446D4F808489607360F0EFA06F7BC43E7
:100D2000324FB84201D100272EE0314FB84201D1F5
:100D3000012729E02F4FB84202D1022724E04AE0E0
:100D40002D4FB84201D103271EE02C4FB84201D1EC
:100D5000042719E02A4FB84201D1052714E0294F92
:100D6000B84201D106270FE0274FB84201D107272B
:100D70000AE0264FB84201D1082705E0244FB842C7
:100D800001D1092700E00A27B7402743CCF80878AB
:100D9000204E34684F689C43FF0300D51C433460E9
:100DA0001C4E361D34684F689C43BF0300D51C435E
:100DB0003460184E083634684F689C43FF0200D5F3
:100DC0001C433460134E0C3634684F689C43BF029A
:100DD00000D51C433460521C102AFFF43BAFBDE821
:100DE000F88F00004438024000300140000002400B
:100DF0000004024000080240000C024000100240C3
:100E00000014024000180240001C02400020024072
:100E100000240240003C0140014880687047000007
:100E20000400002070B5040004D094F839000025B7
:100E300010B106E0012070BD84F83850204601F062
:100E400089F9242084F839002068C16821F4005110
:100E5000C160204604F056FE2068016921F49041EB
:100E600001612068416921F02201416120684169E6
:100E700041F0080141612068C16841F40051C1603E
:100E8000E563202084F8390084F83A00002070BD22
:100E90000248816802781144816070470400002094
:100EA0000B4810B5016841F400710160016841F41C
:100EB00080610160016841F480710160032000F0ED
:100EC0008DF8002000F006F800F03EF8002010BD7C
:100ED000003C024010B5014688B000221E2000F000
:100EE0005DF81E2000F04CF813480024016841F022
:100EF00004010160006805A900F00400069068463E
:100F000000F050F900F06EF90C494000B0FBF1F12F
:100F10000C480B4A491E026040F2E732C0E9032444
:100F2000C0E9011401F027F810B1012008B010BD8C
:100F3000044801F03CF8F9E74038024040420F0015
:100F400000080040180500200C4882B0016841F4F8
:100F500080410160006800F4804000900748001F55
:100F6000016841F0805101600068002200F080506B
:100F700000900F21901E02B000F010B844380240DB
:100F8000002809DB00F01F02012191404009800088
:100F900000F1E020C0F8001170470000F0B40E4BE3
:100FA0001B680C46C3F30223C3F10705042D00D9C7
:100FB0000425191D072901D2002300E0DB1E0126AC
:100FC00006FA05F1491E214099409E40761E1640C2
:100FD0003143F0BC04F03CBE0CED00E0064900F0EB
:100FE000070208684FF6FF03184040EA0220034A50
:100FF00010430860704700000CED00E00000FA05A7
:101000002DE9F8431748016841F0805101600068FC
:10101000154F00F08050012600903E64FFF7FCFE63
:1010200005464FF47A78114C05E000BFFFF7F4FE57
:10103000401B40450DD86068C003F7D57E64FFF7BC
:10104000EBFE0546464607E0FFF7E6FE401BB042D2
:1010500002D90320BDE8F88360688003F4D500203E
:10106000F8E700004038024000000E4200700040E7
:101070002DE9F0470E46050065D0DFF81481D8F859
:101080000000F7B200F00F00B04207D288F80070FD
:10109000D8F8000000F00F00B04254D128683D4C51
:1010A000810712D5400703D5206840F4E050206046
:1010B0002878000703D5206840F46040206020684D
:1010C000A96820F0F000084320602878C0072DD0E0
:1010D000304968680839012812D0022813D0032843
:1010E00011D00968890700292DDA216821F0030150
:1010F00001432160FFF790FE814641F2883A0EE0FD
:1011000009688903EFE709688901ECE7FFF784FEC6
:10111000A0EB0901514502D90320BDE8F087206802
:10112000696800F00C00B0EB810FEFD1D8F8001027
:10113000404601F00F01B14207D90770006800F086
:101140000F00B04201D00120E7E72878400705D51D
:101150002068E96820F4E050084320602878000700
:1011600006D52068296920F4604040EAC10020606B
:1011700000F058F82168084AC1F30311515CC840D7
:101180000649086006480068FFF7A4FE0020C4E78F
:10119000003C0240083802407C7800081000002023
:1011A000080000200F2202600C4A136803F00303BA
:1011B0004360136803F0F0038360136803F4E053A3
:1011C000C36012684FF4E05303EAD202026104489C
:1011D000006800F00F000860704700000838024007
:1011E000003C02400448054900680968044AC1F30C
:1011F0008221515CC840704710000020083802402E
:101200008C7800080448054900680968044AC1F35D
:101210004231515CC840704710000020083802403D
:101220008C780008154810B5006810F00C021448BE
:1012300013D01449042A0FD0082A0ED10F4C241FB2
:101240002268236802F03F025B0207D52068C0F3E2
:101250008810A0FB010106E0084610BD2168C1F31B
:101260008811A1FB00010023FFF71CF82168C1F3DE
:101270000141491C4900B0FBF1F010BD08380240A3
:101280000024F40040787D012DE9F84F04006ED071
:101290002078DFF83C93C007A9F104054AD009F192
:1012A00004000168C1F38101012908D00068C0F37E
:1012B000810002280AD1D9F80000400206D528682A
:1012C000800337D560680028E1D033E06068B0F56E
:1012D000803F10D0B0F5A02F286810D020F48030C7
:1012E0002860286820F4802028606068A8B1FFF793
:1012F00093FD06460DE0286840F48030F4E740F4A2
:1013000080202860F7E700BFFFF786FD801B642878
:1013100073D828688003F7D50CE0FFF77DFD0646FB
:1013200005E000BFFFF778FD801B6428F0D828682F
:101330008003F7D42078DFF89C8280074FF0000A02
:101340003ED5A348001D016811F00C0F08D00068BD
:10135000C0F3810002280BD1D9F80000400207D465
:101360002868800716D5E068012800D112E02BE13B
:10137000E068B8B10120C8F80000FFF74DFD06464F
:1013800005E000BFFFF748FD801B0228C0D8286891
:101390008007F7D52868216920F0F80040EAC100ED
:1013A00028600DE0C8F800A0FFF736FD064604E00F
:1013B000FFF732FD801B02281FD828688007F7D46A
:1013C0002078000722D5824E83486169703671B15A
:1013D00001210160FFF720FD074604E0FFF71CFD37
:1013E000C01B022809D830688007F7D50EE0C0F886
:1013F00000A0FFF711FD074605E082E0FFF70CFDB6
:10140000C01B02287DD830688007F7D420784007B9
:1014100068D5DFF8BCB100270BF13C0BDBF800000E
:10142000C0000BD4DBF8001041F08051CBF8001065
:10143000DBF80000012700F080500090674E306814
:10144000C00510D4306840F480703060FFF7E4FCD1
:10145000009005E0FFF7E0FC0099401A022850D800
:101460003068C005F6D55A4EA0686C3601280FD0FA
:101470000528306810D020F001003060306820F07E
:1014800004003060A068B8B1FFF7C6FC00900FE020
:10149000306840F00100F4E740F004003060F7E706
:1014A000FFF7BAFC0099411A41F28830814266D8B0
:1014B00030688007F4D50EE0FFF7AEFC009007E03F
:1014C000FFF7AAFC0099411A41F28830814256D8B0
:1014D00030688007F4D42FB1DBF8001021F0805180
:1014E000CBF80010A069C8B33949091D0968C1F3D8
:1014F000810102294AD00228504607D0C8F860006E
:1015000000E03CE0FFF788FC04463BE04746C8F8B3
:101510006000FFF781FC064605E000BFFFF77CFC9A
:10152000801B02282BD828688001F7D4D4E9070152
:101530000843A16A2A4A490802EB0141626A41EA6A
:101540008211084394F82C1040EA0161C9F8001098
:1015500001203866FFF760FC044606E036E000BF75
:10156000FFF75AFC001B022809D828688001F7D52C
:101570002CE000BFFFF750FC001B022802D903201B
:10158000BDE8F88F28688001F4D41FE00128F7D067
:10159000D9F80000E26900F48001914214D1226A76
:1015A00000F03F0191420FD147F6C071626A0140DD
:1015B000914209D1A26A00F44031914204D1E16A1A
:1015C00000F07060884201D00120D9E70020D7E701
:1015D0000438024000004742800E4742007000403D
:1015E0000000FFFF10B5FEF7E5FF10BD2DE9FE433B
:1015F000044603200F4684F83400606C03285AD058
:10160000B7F5805F57D04FF4006600254FF0806833
:10161000B7421CD1009501950021206803F098FB8A
:10162000800121D46946204603F080FF98BB0198D1
:10163000400332D5B4F850000104206803F0C4FB25
:1016400048BB0221206822E0A06B284327E01FB19D
:10165000A06B40F0006022E0009501950021206819
:1016600003F076FB800101D53546EDE7694620465B
:1016700003F05CFF78B90198C0030ED5B4F85000B0
:101680000104206803F0A0FB28B90021206803F0C2
:10169000E8FB0028D8D00546D6E74546D4E7A06346
:1016A000A06B012558B121680C48886384F8345038
:1016B0000120BDE8FE83A06B40F08050EFE7211DC4
:1016C000D4E905060EC90097CDE90106206803F0AC
:1016D00049FB84F834500020EBE70000FF05400090
:1016E00070470000F0B5426E920F0A70426EC2F36E
:1016F00083624A70426EC2F301628A70426E120CBB
:10170000CA70B0F86420120A0A7190F864204A7115
:10171000826E120DCA80826EC2F303420A72B0F862
:101720006820C2F3C0324A72B0F86820C2F3803237
:101730008A72B0F86820C2F34032CA72B0F86820EA
:10174000C2F300320A7300264E73426C4FF40075E8
:10175000012462B1012A3AD0026847499163816B42
:1017600041F08051816380F834400120F0BDB0F831
:101770006820C36E9205120D42EA93720A61C26E2E
:10178000C2F3C2620A75C26EC2F302624A75C26EC9
:10179000C2F342528A75C26EC2F38242CA75C26EE9
:1017A000C2F3C2320A760A69521C42650B7E03F00C
:1017B00007039B1C9A4042650B7A03F00F0704FA5B
:1017C00007F383655B0A5A43C0E917250EE090F8DA
:1017D0006820C36E9206920A42EA13420A610A69BD
:1017E000521C92024265C0E91652056630F86C2F11
:1017F000C2F3803201F8192F0288C2F3C6124A7070
:10180000027802F07F028A704268D20FCA70426882
:10181000C2F341720A714268C2F382624A7142683D
:10182000C2F383528A714268C2F34052CA710E7287
:101830004268C2F300424A728288C2F3C0328A729E
:101840008288C2F38032CA728288C2F340320A733D
:101850008288C2F300324A738288C2F381228A737B
:101860008288C2F30122CA730079C0F3460008746B
:101870004C740020F0BD0000FF054000426C0A607F
:10188000826C4A60C26C8A60026DCA60426D0A61F5
:10189000826D4A61C26D8A61006EC8610020704726
:1018A00070B50446B0F8500000250104206803F02C
:1018B000E2FB18B1A16B0143A16304E000212068A1
:1018C00003F046FA0546C5F3432070BDF8B5056B35
:1018D00004460068416B09041BD5290719D5D4E9D2
:1018E0000A56002E14D00027206803F055FA05F898
:1018F000010B010A05F8011B010C05F8021B000E83
:10190000361F7F1C05F8010C082FEDD3C4E90A56D9
:10191000F8BD416B4FF00006C9054FF0010744D5F3
:10192000390281632068C16B4CF23A329143C16342
:101930002068C16A21F00101C16228071DD515F098
:10194000220F09D0206803F0C7FB28B1A16B014327
:10195000A1632046FFF7C4FE216840F23A50886335
:1019600084F834702663A80703D0204600F032FACA
:10197000F8BD204600F032FAF8BD2806FCD5A806CE
:1019800009D5206803F0A8FB28B1A16B0143A1632E
:101990002046FFF7A5FEA807EED12068C16A21F016
:1019A0000801C16284F83470E3E7416B490424D52F
:1019B000290722D5D4E90856002EDDD05FF00007B4
:1019C00015F8010B009015F8011B361F40EA0120A5
:1019D000009015F8021B40EA0140009015F8011C28
:1019E00040EA016000906946206803F0E8F97F1C36
:1019F000082FE5D3C4E90856F8BD416B40F23A22FE
:101A00001142F9D0416B890703D5A16B41F0020166
:101A1000A163416B090703D5A16B41F00801A163E4
:101A2000416B890603D5A16B41F02001A163416B95
:101A3000C90603D5A16B41F01001A163416B890573
:101A400003D5A16B41F00801A16340F23A718163B3
:101A50002068C16B40F23A329143C163206803F0C1
:101A60003BFBA16B0843A063280706D584F83470BC
:101A700026632046FFF734FEF8BD2806FCD515F096
:101A8000300F0CD0E16B11480865E06BFEF7FCFEEF
:101A90000028F1D0E06BBDE8F84003F025BDA807B1
:101AA0000CD0216C0A480865206CFEF7EDFE00287A
:101AB000E2D0206CBDE8F84003F0EDBCA66384F8EA
:101AC000347026632046FFF78DFDF8BDE954000809
:101AD0009754000870B504000ED094F83400002527
:101AE00018B92577204600F03BF8032084F834002D
:101AF000204600F00BF808B1012070BDA5632563F6
:101B0000012084F83400002070BD0000FEB50025DF
:101B1000044676200095CDE9015029460B460A4639
:101B2000206803F01FF908B10120FEBD0B4E46F8F6
:101B3000A05F206803F028F901253560204603F0F6
:101B4000D7FD20B9204603F05BFD0028EDD084F8D6
:101B50003450A16B0143A163E6E7000000802542F9
:101B60002DE9F04F87B0054614216846FEF7E4FBE7
:101B70004649286888427DD145480068444940F478
:101B800000600860086800F4006005904048143860
:101B900000683F4940F0040014390860086800F00C
:101BA00004000590086840F00800086008680224F6
:101BB00000F0080005904FF4F850CDE9000402AAA7
:101BC000002003264FF00C0882E8410169463148A5
:101BD000FFF738F802AA002082E841010427CDE986
:101BE000007469462C48FFF72DF82D4C2B484FF018
:101BF0000068C4E9000800204FF48069A060C4E9CF
:101C00000309B8024FF4804BC4E9050BC4E9097617
:101C10004FF0200A0020C4E907A07E05B710204637
:101C2000C4E90B67FEF714FF08B1FEF784FD2C64CE
:101C3000A5631B4C194860344830C4E900084020B3
:101C4000A0600020C4E90309C4E907A00420606281
:101C500004F12802032082E8C1004FF48051C4E956
:101C6000051B2046FEF7F4FE08B1FEF764FDEC63A9
:101C7000002200E007E005213120A563FFF78EF97F
:101C80003120FFF77DF907B0BDE8F08F002C01404F
:101C90004438024000080240000C024058640240F0
:101CA0008CEF01202DE9F04786B01F46044615460B
:101CB00039B194F83400012807D0022006B0BDE8FD
:101CC000F087A06B40F0006008E00020A063E36DA7
:101CD000EA199A4204D9A06B40F00070A0636FE04B
:101CE000032284F8342022688246D0622268D36BB3
:101CF00040F22A363343D363236C324A4FEA4729F2
:101D0000DA63236C304ADA64226C4FEA9903106577
:101D100020680A46266C00F180013046FEF702FF7B
:101D2000DFF8A880012660B12068C16B21F49571AD
:101D3000C1632168C1F83880A06B40F08040A06387
:101D400011E023480660606C012800D06D024FF45A
:101D50000071206803F06CF840B12268C2F8388046
:101D6000A16B0143A16384F8346029E04FF0FF3098
:101D7000CDE900099020029002200596CDE9030AE2
:101D8000D1466946206802F0CDFF012F06D9822096
:101D900020632946206803F0DFF805E081202063F6
:101DA0002946206803F0F1F8002887D02268C2F89D
:101DB0003880A16B0143A16384F83460C4F830908B
:101DC00001207BE755540008F1530008FF0540004F
:101DD0008C85254210B5FEF72FFC10BD10B5FEF71F
:101DE00041FC10BD2DE9FF4F87B0044608981F46FF
:101DF000164638B194F83400012807D002200BB001
:101E0000BDE8F08FA06B40F0006008E00025A563FE
:101E1000E16DF019884204D9A06B40F00070A06316
:101E200061E0032084F834002068C5622068C16B3B
:101E300040F21A2A41EA0A01C163E16B3248C863E1
:101E4000E16B3248C864E06B0565606C012800D026
:101E500076024FF40071206802F0EAFFDFF8B090DC
:101E60004FF0010840B12268C2F83890A16B0143DD
:101E7000A16384F8348036E04FF0900B012F06D92F
:101E8000A02020633146206803F040F905E0C4F843
:101E900030B03146206803F052F940B12268C2F8F0
:101EA0003890A16B0143A16384F834801AE019488B
:101EB0004646C0F8008022687F02BB08E06B803293
:101EC0000899FEF72FFE80B12068C16B21EA0A0154
:101ED000C1632168C1F83890A06B40F08040A063D6
:101EE00084F834602563012089E74FF0FF30CDE9A5
:101EF0000007CDE902B5CDE904566946206802F035
:101F000011FF00207BE70000DB540008F1530008BC
:101F1000FF0540008C85254270B515460E4604002D
:101F200003D094F8490010B107E0012070BD0020F3
:101F300084F84800204600F01AF804F108012068EF
:101F4000FEF73EFC3146A2682068FEF76FFCD4E93C
:101F500001022946236BFEF713FCA168206850F8A4
:101F6000212042F0010240F82120002070BDFEF740
:101F700023BE7047704710B5040003D094F83D00AD
:101F800010B107E0012010BD002084F83C0020467D
:101F900000F00CF8022084F83D00211D206803F0B9
:101FA0004DFD012084F83D00002010BD7047016800
:101FB000CA6842F00102CA600068816801F0070146
:101FC000062903D0016841F001010160002070473B
:101FD000704770B50446006801694FF00005C943B9
:101FE000890715D4C168C943890711D4E91E016165
:101FF00001202077206880698007204602D0FFF703
:10200000E7FF04E000F098F8204600F096F8257706
:1020100020680169C943490717D4C168C943490702
:1020200013D46FF0040101610220207720688069D9
:1020300010F4407F204602D0FFF7CAFF04E000F012
:102040007BF8204600F079F8257720680169C943BC
:10205000090716D4C168C943090712D46FF00801F3
:102060000161042020772068C0698007204602D0E3
:10207000FFF7AEFF04E000F05FF8204600F05DF8E7
:10208000257720680169C943C90617D4C168C943C7
:10209000C90613D46FF01001016108202077206871
:1020A000C06910F4407F204602D0FFF791FF04E0A2
:1020B00000F042F8204600F040F8257720680169DA
:1020C000C943C90708D1C168C943C90704D1891EDA
:1020D0000161204600F032F820680169C943090611
:1020E00009D4C168C943090605D46FF080010161B4
:1020F0002046FFF73EFF20680169C943490609D41D
:10210000C168C943490605D46FF04001016120460A
:1021100000F01EF820680169C94389060BD4C16824
:10212000C943890607D46FF0200101612046BDE84C
:102130007040FFF71FBF70BD7047704700680349CC
:10214000884201D1FEF7A4BE70470000000800409D
:102150007047000010B586B0044614216846FEF7AB
:10216000EBF814492068884221D113480021026805
:1021700042F010020260006800F0100005900E4866
:102180001438026842F001020260006800F00100A9
:1021900005904FF4007000901220CDE9010103205A
:1021A00003900720049069460448FEF74BFD06B0F3
:1021B00010BD000000100140443802400000024001
:1021C000FEE7000070B50A490646002408884D88DD
:1021D00021464543204602F07DFB02F0B3FCB0B23D
:1021E000044901E00880641CAC42FBD370BD0000D0
:1021F000F8EE0120000008602DE9F04F33492C244F
:102200000A4688712A2592882B2645F2105B4FF4E6
:10221000305E4FF448774FF0F00949F2413A4FF4FD
:10222000A07845F2103C4FF4F07358B1A1F800804B
:10223000A1F80290524501D0624529D10C814D810F
:102240008E8139E0A1F80090A1F80280524501D0BA
:10225000624508D10C814D818E81624531D1A1F852
:1022600000804B802DE05A4508D1A1F808E04FF4DA
:10227000285048814FF42C50888106E0A2F5C850C0
:1022800063381ED10C814E818D810B804F8018E008
:102290005A4508D1A1F808E04FF4285048814FF47E
:1022A0002C50888106E0A2F5C850633804D10C8117
:1022B0004D818E810F804B80624502D10B80A1F849
:1022C0000280BDE8F04F002002F028BAF8EE0120AD
:1022D0002DE9F041354C90460D460246060AA1888C
:1022E00020462F0A4089A1F51343413B0CD0A1F5AC
:1022F000A643103B08D0A1F5AA43103B10D0A1F58E
:10230000C853633B25D048E002F010FC304602F091
:1023100001FCD0B202F0FEFBA08902F007FC36E01F
:1023200002F004FC304602F0F5FB6089401C80B2EC
:1023300002F0FCFBD0B202F0EDFBA08902F0F6FB4C
:10234000384602F0E7FBA089401C80B202F0EEFBA9
:1023500020E0A17919B92188891A491E8AB202F0B0
:10236000E5FB160A304602F0D5FBD0B202F0D2FBF4
:10237000304602F0CFFBD0B202F0CCFBA08902F0D5
:10238000D5FB384602F0C6FBE8B202F0C3FB384684
:1023900002F0C0FBE8B202F0BDFB054920890880CD
:1023A000891CA1F80080BDE8F0810000F8EE012052
:1023B000FEFF07602DE9F05FD32002F0B7FB02F0CB
:1023C0007BF9FD4CA08002F077F9A08002F074F94F
:1023D0004FF6FF7909EA0020A08002F06DF9A1888C
:1023E00049F241380843A08045F2103645F21055B5
:1023F00041F66317404548D0D42002F097FB02F025
:102400005BF9A08002F058F9A08002F055F909EAC2
:1024100000204A46A08002F04FF9A1880843A0801E
:10242000B04232D04FF45A4002F080FB02F044F93F
:10243000A0804FF45B4002F079FB02F03DF902EA24
:102440000020A0804FF45C4002F070FB02F034F9F1
:10245000A1880843A080B0F5004F7CD0A84214D0DA
:10246000A12002F063FB02F027F9A08002F024F91A
:1024700002EA0020A08002F01FF9A1880843A0F51D
:10248000AE41A080613900D1A780A188CBA003F024
:10249000CFFBA08840457DD1CF2002F047FB002034
:1024A00002F038FBC12002F035FB302002F032FB95
:1024B000ED2002F03BFB642002F02CFB032002F035
:1024C00029FB122002F026FB812002F023FBE820EA
:1024D00002F02CFB852002F01DFB102002F01AFBFD
:1024E0007A2002F017FBCB2002F020FB392002F00B
:1024F00011FB2C2002F00EFB002002F00BFB34201D
:1025000002F008FB022002F005FBF72002F00EFBB0
:10251000202002F0FFFAEA2002F008FB002002F07F
:10252000F9FA002002F0F6FAC02002F0FFFA1B20B0
:1025300002F0F0FAC12002F0F9FA012002F0EAFA02
:10254000C52002F0F3FA302002F0E4FA302002F065
:10255000E1FAC72000E0B7E002F0E8FAB72002F0A5
:10256000D9FA362002F0E2FA482002F0D3FA3A20F3
:1025700002F0DCFA552002F0CDFAB12002F0D6FAD2
:10258000002002F0C7FA1A2002F0C4FAB62002F0C6
:10259000CDFA00E09AE00A2002F0BCFAA22002F094
:1025A000B9FAF22002F0C2FA002002F0B3FA2620B3
:1025B00002F0BCFA012002F0ADFAE02002F0B6FA17
:1025C0000F2002F0A7FA2A2002F0A4FA282002F035
:1025D000A1FA082002F09EFA0E2002F09BFA0820D1
:1025E00002F098FA542002F095FAA92002F092FA2B
:1025F000432002F08FFA0A2002F08CFA0F2002F03A
:1026000089FA002002F086FA002002F083FA002006
:1026100002F080FA002002F07DFAE12002F086FA52
:10262000002002F077FA152002F074FA172002F069
:1026300071FA072002F06EFA112002F06BFA062000
:1026400002F068FA2B2002F065FA562002F062FAD6
:102650003C2002F05FFA052002F05CFA102002F044
:1026600059FA0F2002F056FA3F2002F053FA3F20A9
:1026700002F050FA0F2002F04DFA2B2002F056FA29
:10268000002002F047FA002002F044FA012002F094
:1026900041FA3F2002F03EFA2A2002F047FA0020D9
:1026A00002F038FA002002F035FA002002F032FA87
:1026B000EF2002F02FFA112002F038FA782003F010
:1026C00085FD292001F00ABFA580DEE6B0427DD15C
:1026D000ED2002F02BFA012002F01CFAFE2002F09D
:1026E00019FAEE2002F022FADE2002F013FA21207D
:1026F00002F010FAF12002F019FA012002F00AFAB1
:10270000DF2002F013FA102002F004FAC42002F0D5
:102710000DFA8F2002F0FEF9C62002F007FA002021
:1027200002F0F8F9E22002F0F5F9E22002F0F2F905
:10273000E22002F0EFF9BF2002F0F8F9AA2002F03F
:10274000E9F9B02002F0F2F90D2002F0E3F90020DF
:1027500002F0E0F90D2002F0DDF9002002F0DAF9D4
:10276000112002F0D7F9002002F0D4F9192002F06C
:10277000D1F9002002F0CEF9212002F0CBF900209F
:1027800002F0C8F92D2002F0C5F9002002F0C2F9CC
:102790003D2002F0BFF9002002F0BCF95D2002F0FC
:1027A000B9F9002002F0B6F95D2002F0B3F900207B
:1027B00002F0B0F9B1200AE0F8EE0120204C4344C9
:1027C0002049443A25780D0A00000000FEE302F09B
:1027D000ADF9802002F09EF9002002F09BF98B20D9
:1027E00002F098F9002002F095F9962002F092F993
:1027F000002002F08FF9B22002F098F9002002F0D8
:1028000089F9002002F086F9022002F083F9002005
:1028100002F080F9032002F07DF9002002F07AF93D
:10282000B32002F083F9002002F074F9002002F0D6
:1028300071F9002002F06EF9002002F06BF900201F
:1028400002F068F9002002F065F9002002F062F958
:10285000002002F05FF9002002F05CF9002002F095
:1028600059F9002002F056F9002002F053F9002037
:1028700002F050F9002002F04DF9002002F04AF970
:10288000002002F047F9002002F044F9002002F095
:1028900041F9002002F03EF9002002F03BF900204F
:1028A00002F038F9002002F035F9002002F032F988
:1028B000002002F02FF9B42002F038F98B2002F04A
:1028C00029F9002002F026F9962002F023F90020D1
:1028D00002F020F9A12002F01DF9002002F01AF9FF
:1028E000B52002F023F9022002F014F9002002F0D2
:1028F00011F9032002F00EF9002002F00BF9042078
:1029000002F008F9002002F005F9B62002F00EF9F5
:10291000002002F0FFF8002002F0FCF8B72002F0DF
:1029200005F9002002F0F6F8002002F0F3F83F204D
:1029300002F0F0F8002002F0EDF85E2002F0EAF874
:10294000002002F0E7F8642002F0E4F8002002F032
:10295000E1F88C2002F0DEF8002002F0DBF8AC2079
:1029600002F0D8F8002002F0D5F8DC2002F0D2F80E
:10297000002002F0CFF8702002F0CCF8002002F026
:10298000C9F8902002F0C6F8002002F0C3F8EB204E
:1029900002F0C0F8002002F0BDF8DC2002F0BAF826
:1029A000002002F0B7F8B82002F0C0F8002002F0D2
:1029B000B1F8002002F0AEF8002002F0ABF80020E1
:1029C00002F0A8F8002002F0A5F8002002F0A2F81A
:1029D000002002F09FF8002002F09CF8BA2002F0DC
:1029E000A5F8242002F096F8002002F093F80020C9
:1029F00002F090F8002002F08DF8C12002F096F865
:102A0000202002F087F8002002F084F8542002F021
:102A100081F8002002F07EF8FF2002F07BF8002011
:102A200002F078F8C22002F081F80A2002F072F871
:102A3000002002F06FF8042002F06CF8002002F091
:102A400069F8C32002F072F83C2002F063F800201D
:102A500002F060F83A2002F05DF8002002F05AF827
:102A6000392002F057F8002002F054F8372002F025
:102A700051F8002002F04EF83C2002F04BF8002004
:102A800002F048F8362002F045F8002002F042F843
:102A9000322002F03FF8002002F03CF82F2002F034
:102AA00039F8002002F036F82C2002F033F800202C
:102AB00002F030F8292002F02DF8002002F02AF868
:102AC000262002F027F8002002F024F8242002F04B
:102AD00021F8002002F01EF8242002F01BF800204C
:102AE00002F018F8232002F015F8002002F012F886
:102AF0003C2002F00FF8002002F00CF8362002F023
:102B000009F8002002F006F8322002F003F8002055
:102B100002F000F82F2001F0FDFF002001F0FAFF85
:102B20002C2001F0F7FF002001F0F4FF292001F034
:102B3000F1FF002001F0EEFF262001F0EBFF002066
:102B400001F0E8FF242001F0E5FF002001F0E2FFA2
:102B5000242001F0DFFF002001F0DCFF232001F042
:102B6000D9FF002001F0D6FFC42001F0DFFF622072
:102B700001F0D0FF002001F0CDFF052001F0CAFFD9
:102B8000002001F0C7FF842001F0C4FF002001F005
:102B9000C1FFF02001F0BEFF002001F0BBFF1820B4
:102BA00001F0B8FF002001F0B5FFA42001F0B2FF52
:102BB000002001F0AFFF182001F0ACFF002001F071
:102BC000A9FF502001F0A6FF002001F0A3FF0C2078
:102BD00001F0A0FF002001F09DFF172001F09AFFF7
:102BE000002001F097FF952001F094FF002001F0F4
:102BF00091FFF32001F08EFF002001F08BFFE62013
:102C000001F088FF002001F085FFC52001F08EFF54
:102C1000322001F07FFF002001F07CFF442001F012
:102C200079FF002001F076FF652001F073FF00209E
:102C300001F070FF762001F06DFF002001F06AFFC7
:102C4000882001F067FF002001F064FFC62001F03A
:102C50006DFF202001F05EFF002001F05BFF1720D8
:102C600001F058FF002001F055FF012001F052FF54
:102C7000002001F04FFFC72001F058FF002001F0B5
:102C800049FF002001F046FF002001F043FF002033
:102C900001F040FFC82001F049FF002001F03AFF99
:102CA000002001F037FF002001F034FF002001F088
:102CB00031FFC92001F03AFF002001F02BFF002076
:102CC00001F028FF002001F025FF002001F022FF85
:102CD000002001F01FFF002001F01CFF002001F088
:102CE00019FF002001F016FF002001F013FF002063
:102CF00001F010FF002001F00DFF002001F00AFF9D
:102D0000002001F007FF002001F004FF002001F087
:102D100001FF002001F0FEFEE02001F007FF162079
:102D200001F0F8FE002001F0F5FE1C2001F0F2FE9B
:102D3000002001F0EFFE212001F0ECFE002001F068
:102D4000E9FE362001F0E6FE002001F0E3FE462019
:102D500001F0E0FE002001F0DDFE522001F0DAFE7D
:102D6000002001F0D7FE642001F0D4FE002001F025
:102D7000D1FE7A2001F0CEFE002001F0CBFE8B20A8
:102D800001F0C8FE002001F0C5FE992001F0C2FE4E
:102D9000002001F0BFFEA82001F0BCFE002001F0E1
:102DA000B9FEB92001F0B6FE002001F0B3FEC42048
:102DB00001F0B0FE002001F0ADFECA2001F0AAFE35
:102DC000002001F0A7FED22001F0A4FE002001F0B7
:102DD000A1FED92001F09EFE002001F09BFEE02024
:102DE00001F098FE002001F095FEF32001F092FE24
:102DF000002001F08FFEE12001F098FE162001F086
:102E000089FE002001F086FE1C2001F083FE0020D8
:102E100001F080FE222001F07DFE002001F07AFE0C
:102E2000362001F077FE002001F074FE452001F00D
:102E300071FE002001F06EFE522001F06BFE0020BA
:102E400001F068FE642001F065FE002001F062FEE2
:102E50007A2001F05FFE002001F05CFE8B2001F083
:102E600059FE002001F056FE992001F053FE00208B
:102E700001F050FEA82001F04DFE002001F04AFEB6
:102E8000B92001F047FE002001F044FEC42001F00B
:102E900041FE002001F03EFECA2001F03BFE002072
:102EA00001F038FED22001F035FE002001F032FEA4
:102EB000D82001F02FFE002001F02CFEE02001F0D0
:102EC00029FE002001F026FEF32001F023FE002061
:102ED00001F020FEE22001F029FE052001F01AFE9B
:102EE000002001F017FE0B2001F014FE002001F07D
:102EF00011FE1B2001F00EFE002001F00BFE34201D
:102F000001F008FE002001F005FE442001F002FE61
:102F1000002001F0FFFD4F2001F0FCFD002001F03A
:102F2000F9FD612001F0F6FD002001F0F3FD7920AC
:102F300001F0F0FD002001F0EDFD882001F0EAFD38
:102F4000002001F0E7FD972001F0E4FD002001F0F2
:102F5000E1FDA62001F0DEFD002001F0DBFDB72041
:102F600001F0D8FD002001F0D5FDC22001F0D2FD16
:102F7000002001F0CFFDC72001F0CCFD002001F0C2
:102F8000C9FDD12001F0C6FD002001F0C3FDD6200F
:102F900001F0C0FD002001F0BDFDDD2001F0BAFD13
:102FA000002001F0B7FDF32001F0B4FD002001F096
:102FB000B1FDE32001F0BAFD052001F0ABFD0020DA
:102FC00001F0A8FD0A2001F0A5FD00E004E30020C7
:102FD00001F0A0FD1C2001F09DFD002001F09AFDF4
:102FE000332001F097FD002001F094FD442001F012
:102FF00091FD002001F08EFD502001F08BFD00209E
:1030000001F088FD622001F085FD002001F082FDC5
:10301000782001F07FFD002001F07CFD882001F088
:1030200079FD002001F076FD972001F073FD00206E
:1030300001F070FDA62001F06DFD002001F06AFD99
:10304000B72001F067FD002001F064FDC22001F00F
:1030500061FD002001F05EFDC72001F05BFD002056
:1030600001F058FDD12001F055FD002001F052FD86
:10307000D52001F04FFD002001F04CFDDD2001F0D6
:1030800049FD002001F046FDF32001F043FD002042
:1030900001F040FDE42001F049FD012001F03AFD7E
:1030A000002001F037FD012001F034FD002001F087
:1030B00031FD022001F02EFD002001F02BFD2A2021
:1030C00001F028FD002001F025FD3C2001F022FD4B
:1030D000002001F01FFD4B2001F01CFD002001F03D
:1030E00019FD5D2001F016FD002001F013FD742094
:1030F00001F010FD002001F00DFD842001F00AFD1B
:10310000002001F007FD932001F004FD002001F0F4
:1031100001FDA22001F0FEFC002001F0FBFCB32029
:1031200001F0F8FC002001F0F5FCBE2001F0F2FCFB
:10313000002001F0EFFCC42001F0ECFC002001F0C5
:10314000E9FCCD2001F0E6FC002001F0E3FCD320F7
:1031500001F0E0FC002001F0DDFCDD2001F0DAFCF4
:10316000002001F0D7FCF32001F0D4FC002001F096
:10317000D1FCE52001F0DAFC002001F0CBFC0020BE
:1031800001F0C8FC002001F0C5FC002001F0C2FCE9
:10319000022001F0BFFC002001F0BCFC292001F05E
:1031A000B9FC002001F0B6FC3C2001F0B3FC00208B
:1031B00001F0B0FC4B2001F0ADFC002001F0AAFCB6
:1031C0005D2001F0A7FC002001F0A4FC742001F0B8
:1031D000A1FC002001F09EFC842001F09BFC00205B
:1031E00001F098FC932001F095FC002001F092FC86
:1031F000A22001F08FFC002001F08CFCB32001F034
:1032000089FC002001F086FCBE2001F083FC002038
:1032100001F080FCC42001F07DFC002001F07AFC6C
:10322000CD2001F077FC002001F074FCD32001F0E8
:1032300071FC002001F06EFCDC2001F06BFC002032
:1032400001F068FCF32001F065FC002001F062FC55
:10325000E62001F06BFC112001F05CFC002001F085
:1032600059FC342001F056FC002001F053FC56209C
:1032700001F050FC002001F04DFC762001F04AFCEA
:10328000002001F047FC772001F044FC002001F011
:1032900041FC662001F03EFC002001F03BFC882050
:1032A00001F038FC002001F035FC992001F032FCDF
:1032B000002001F02FFCBB2001F02CFC002001F0CD
:1032C00029FC992001F026FC002001F023FC662057
:1032D00001F020FC002001F01DFC552001F01AFC3B
:1032E000002001F017FC552001F014FC002001F033
:1032F00011FC452001F00EFC002001F00BFC4320E6
:1033000001F008FC002001F005FC442001F002FC63
:10331000002001F0FFFBE72001F008FC322001F063
:10332000F9FB002001F0F6FB552001F0F3FB002033
:1033300001F0F0FB762001F0EDFB002001F0EAFB4C
:10334000662001F0E7FB002001F0E4FB672001F0BC
:10335000E1FB002001F0DEFB672001F0DBFB002039
:1033600001F0D8FB872001F0D5FB002001F0D2FB53
:10337000992001F0CFFB002001F0CCFBBB2001F035
:10338000C9FB002001F0C6FB992001F0C3FB00201F
:1033900001F0C0FB772001F0BDFB002001F0BAFB7B
:1033A000442001F0B7FB002001F0B4FB562001F0EF
:1033B000B1FB002001F0AEFB232001F0ABFB0020AD
:1033C00001F0A8FB332001F0A5FB002001F0A2FBD7
:1033D000452001F09FFB002001F09CFBE82001F05C
:1033E000A5FB002001F096FB002001F093FB992043
:1033F00001F090FB002001F08DFB872001F08AFB9B
:10340000002001F087FB882001F084FB002001F000
:1034100081FB772001F07EFB002001F07BFB662022
:1034200001F078FB002001F075FB882001F072FBB1
:10343000002001F06FFBAA2001F06CFB002001F0DE
:1034400069FBBB2001F066FB002001F063FB9920C3
:1034500001F060FB002001F05DFB662001F05AFBEB
:10346000002001F057FB552001F054FB002001F033
:1034700051FB552001F04EFB002001F04BFB442096
:1034800001F048FB002001F045FB442001F042FB25
:10349000002001F03FFB552001F03CFB002001F033
:1034A00039FBE92001F042FBAA2001F033FB0020A8
:1034B00001F030FB002001F02DFB002001F02AFB81
:1034C000002001F033FBAA2001F024FBCF2001F003
:1034D0002DFB002001F01EFB002001F01BFB002053
:1034E00001F018FB002001F015FB002001F012FB99
:1034F000002001F00FFB002001F00CFB002001F088
:1035000009FB002001F006FB002001F003FB002076
:1035100001F000FB002001F0FDFA002001F0FAFAB2
:10352000002001F0F7FA002001F0F4FA002001F089
:10353000F1FA002001F0EEFAF02001F0F7FA002095
:1035400001F0E8FA502001F0E5FA002001F0E2FA7B
:10355000002001F0DFFA002001F0DCFAF32001F096
:10356000E5FA002001F0D6FAF92001F0DFFA062092
:1035700001F0D0FA102001F0CDFA292001F0CAFAAA
:10358000002001F0C7FA3A2001F0D0FA552001F0EE
:10359000C1FA112001F0CAFA642002F017FE2920B6
:1035A00001F0C4FA352001F0C1FA002001F0B2FAAE
:1035B000512001F0BBFAFF2001F0ACFA532001F0DA
:1035C000B5FA2C2001F0A6FA552001F0AFFA8220BE
:1035D00001F0A0FA2C20FCE3A8427CD14FF4704308
:1035E0005521184601F0B8FA4FF2010AAA215046B7
:1035F00001F0B2FA4FF2020B5221584601F0ACFA38
:1036000008214FF2030001F0A7FA01214FF2040054
:1036100001F0A2FA0D214FF4304001F09DFA0D2186
:103620004BF2010001F098FA0D214BF2020001F07B
:1036300093FA34214FF4364001F08EFA34214BF2E4
:10364000016001F089FA34214BF2026001F084FA42
:103650000D214FF4314001F07FFA0D214BF20110A2
:1036600001F07AFA0D214BF2021001F075FA3421C3
:103670004FF4374001F070FA34214BF2017001F041
:103680006BFA34214BF2027001F066FA00214FF41C
:10369000324001F061FA00214BF2012001F05CFAA6
:1036A00000214BF2022001F057FA24214FF4384058
:1036B00001F052FA24214BF6010001F04DFA2421C9
:1036C0004BF6020001F048FA01214FF43F4001F0AF
:1036D00043FA0F2100E0FDE34FF4334001F03CFAE0
:1036E0000F214BF2013001F037FA0F214BF202307B
:1036F00001F032FA34214FF4394001F02DFA34212F
:103700004BF6011001F028FA34214BF6021001F0BB
:1037100023FA08214FF4354001F01EFA08214BF23C
:10372000015001F019FA08214BF2025001F014FA8D
:1037300003214FF4424001F00FFA24214FF43A40A4
:1037400001F00AFA24214BF6012001F005FA2421A8
:103750004BF6022001F000FA00214FF43C4001F04A
:10376000FBF978214BF6014001F0F6F900214BF608
:10377000024001F0F1F900214FF43D4001F0ECF975
:1037800078214BF6015001F0E7F900214BF6025089
:1037900001F0E2F900214FF43E4001F0DDF964212F
:1037A0004BF6016001F0D8F900214FF4514001F0CF
:1037B000D3F933214DF2011001F0CEF900214DF281
:1037C000021001F0C9F934214DF2031001F0C4F9DF
:1037D00000214DF2041001F0BFF93A214DF205101D
:1037E00001F0BAF900214DF2061001F0B5F94A21B5
:1037F0004DF2071001F0B0F900214DF2081001F070
:10380000ABF95C214DF2091001F0A6F900214DF24F
:103810000A1001F0A1F981214DF20B1001F09CF981
:1038200000214DF20C1001F097F9A6214DF20D1078
:1038300001F092F900214DF20E1001F08DF9E52111
:103840004DF20F1001F088F901214DF2101001F036
:1038500083F913214DF2111001F07EF901214DF28F
:10386000121001F079F954214DF2131001F074F99E
:1038700001214DF2141001F06FF982214DF2151063
:1038800001F06AF901214DF2161001F065F9CA2123
:103890004DF2171001F060F902214DF2181001F0FD
:1038A0005BF900214DF2191001F056F902214DF299
:1038B0001A1001F051F901214DF21B1001F04CF9E1
:1038C00002214DF21C1001F047F934214DF21D1078
:1038D00001F042F902214DF21E1001F03DF967217D
:1038E0004DF21F1001F038F902214DF2201001F0C5
:1038F00033F984214DF2211001F02EF902214DF20D
:10390000221001F029F9A4214DF2231001F024F92D
:1039100002214DF2241001F01FF9B7214DF22510BC
:1039200001F01AF902214DF2261001F015F9CF210C
:103930004DF2271001F010F902214DF2281001F08C
:103940000BF9DE214DF2291001F006F902214DF2AA
:103950002A1001F001F9F2214DF22B1001F0FCF8D0
:1039600002214DF22C1001F0F7F8FE214DF22D103E
:1039700001F0F2F803214DF22E1001F0EDF81021C4
:103980004DF22F1001F0E8F803214DF2301001F054
:10399000E3F833214DF2311001F0DEF803214DF24E
:1039A000321001F0D9F86D214DF2331001F0D4F846
:1039B00000214FF4524001F0CFF833214DF20120A5
:1039C00001F0CAF800214DF2022001F0C5F83421BF
:1039D0004DF2032001F0C0F800214DF2042001F067
:1039E000BBF83A214DF2052001F0B6F800214DF266
:1039F000062001F0B1F84A214DF2072001F0ACF8A1
:103A000000214DF2082001F0A7F85C214DF20920B9
:103A100001F0A2F800214DF20A2001F09DF8812169
:103A20004DF20B2001F098F800214DF20C2001F02E
:103A300093F8A6214DF20D2001F08EF800214DF2F1
:103A40000E2001F089F8E5214DF20F2001F084F8F5
:103A500001214DF2102001F07FF813214DF21120C9
:103A600001F07AF801214DF2122001F075F854218D
:103A70004DF2132001F070F801214DF2142001F0F5
:103A80006BF882214DF2152001F066F801214DF20C
:103A9000162001F061F8CA214DF2172001F05CF800
:103AA00002214DF2182001F057F800214DF21920A3
:103AB00001F052F802214DF21A2001F04DF80121D7
:103AC0004DF21B2001F048F802214DF21C2001F0BC
:103AD00043F834214DF21D2001F03EF802214DF251
:103AE0001E2001F039F867214DF21F2001F034F853
:103AF00002214DF2202001F02FF884214DF22120E7
:103B000001F02AF802214DF2222001F025F8A4212B
:103B10004DF2232001F020F802214DF2242001F083
:103B20001BF8B7214DF2252001F016F802214DF2C5
:103B3000262001F011F8CF214DF2272001F00CF8DA
:103B400002214DF2282001F007F8DE214DF2292054
:103B500001F002F802214DF22A2000F0FDFFF221CF
:103B60004DF22B2000F0F8FF02214DF22C2000F046
:103B7000F3FFFE214DF22D2000F0EEFF03214DF268
:103B80002E2000F0E9FF10214DF22F2000F0E4FF7D
:103B900003214DF2302000F0DFFF33214DF23120C0
:103BA00000F0DAFF03214DF2322000F0D5FF6D2145
:103BB0004DF2332000F0D0FF00214FF4534000F0CD
:103BC000CBFF33214DF2013000F0C6FF00214DF252
:103BD000023000F0C1FF34214DF2033000F0BCFF91
:103BE00000214DF2043000F0B7FF3A214DF20530CC
:103BF00000F0B2FF00214DF2063000F0ADFF4A2187
:103C00004DF2073000F0A8FF00214DF2083000F01F
:103C1000A3FF5C214DF2093000F09EFF00214DF220
:103C20000A3000F099FF81214DF20B3000F094FF33
:103C300000214DF20C3000F08FFFA6214DF20D3027
:103C400000F08AFF00214DF20E3000F085FFE521E3
:103C50004DF20F3000F080FF01214DF2103000F0E6
:103C60007BFF13214DF2113000F076FF01214DF260
:103C7000123000F071FF54214DF2133000F06CFF50
:103C800001214DF2143000F067FF82214DF2153012
:103C900000F062FF01214DF2163000F05DFFCA21F5
:103CA0004DF2173000F058FF02214DF2183000F0AD
:103CB00053FF00214DF2193000F04EFF02214DF26A
:103CC0001A3000F049FF01214DF21B3000F044FF93
:103CD00002214DF21C3000F03FFF34214DF21D3027
:103CE00000F03AFF02214DF21E3000F035FF67214F
:103CF0004DF21F3000F030FF02214DF2203000F075
:103D00002BFF84214DF2213000F026FF02214DF2DD
:103D1000223000F021FFA4214DF2233000F01CFFDF
:103D200002214DF2243000F017FFB7214DF225306B
:103D300000F012FF02214DF2263000F00DFFCF21DE
:103D40004DF2273000F008FF02214DF2283000F03C
:103D500003FFDE214DF2293000F0FEFE02214DF27C
:103D60002A3000F0F9FEF2214DF22B3000F0F4FE83
:103D700002214DF22C3000F0EFFEFE214DF22D30ED
:103D800000F0EAFE03214DF22E3000F0E5FE102196
:103D90004DF22F3000F0E0FE03214DF2303000F004
:103DA000DBFE33214DF2313000F0D6FE03214DF21F
:103DB000323000F0D1FE6D214DF2333000F0CCFEF8
:103DC00000214FF4544000F0C7FE33214DF2014072
:103DD00000E083E300F0C0FE00214DF2024000F05D
:103DE000BBFE34214DF2034000F0B6FE00214DF23F
:103DF000044000F0B1FE3A214DF2054000F0ACFE67
:103E000000214DF2064000F0A7FE4A214DF2074086
:103E100000F0A2FE00214DF2084000F09DFE5C2162
:103E20004DF2094000F098FE00214DF20A4000F0EA
:103E300093FE81214DF20B4000F08EFE00214DF2E9
:103E40000C4000F089FEA6214DF20D4000F084FEEA
:103E500000214DF20E4000F07FFEE5214DF20F40B3
:103E600000F07AFE01214DF2104000F075FE1321A2
:103E70004DF2114000F070FE01214DF2124000F0B1
:103E80006BFE54214DF2134000F066FE01214DF20D
:103E9000144000F061FE82214DF2154000F05CFEFE
:103EA00001214DF2164000F057FECA214DF2174095
:103EB00000F052FE02214DF2184000F04DFE0021AC
:103EC0004DF2194000F048FE02214DF21A4000F078
:103ED00043FE00E005E301214DF21B4000F03CFEF3
:103EE00002214DF21C4000F037FE34214DF21D40FE
:103EF00000F032FE02214DF21E4000F02DFE67213F
:103F00004DF21F4000F028FE02214DF2204000F04B
:103F100023FE84214DF2214000F01EFE02214DF2CD
:103F2000224000F019FEA4214DF2234000F014FEBF
:103F300002214DF2244000F00FFEB7214DF2254042
:103F400000F00AFE02214DF2264000F005FECF21CE
:103F50004DF2274000F000FE02214DF2284000F013
:103F6000FBFDDE214DF2294000F0F6FD02214DF26D
:103F70002A4000F0F1FDF2214DF22B4000F0ECFD63
:103F800002214DF22C4000F0E7FDFE214DF22D40C4
:103F900000F0E2FD03214DF22E4000F0DDFD102186
:103FA0004DF22F4000F0D8FD03214DF2304000F0DB
:103FB000D3FD33214DF2314000F0CEFD03214DF20F
:103FC000324000F0C9FD6D214DF2334000F0C4FDD8
:103FD00000214FF4554000F0BFFD33214DF2015058
:103FE00000F0BAFD00214DF2025000F0B5FD342181
:103FF0004DF2035000F0B0FD00214DF2045000F0EE
:10400000ABFD3A214DF2055000F0A6FD00214DF226
:10401000065000F0A1FD4A214DF2075000F09CFD32
:1040200000214DF2085000F097FD5C214DF209503F
:1040300000F092FD00214DF20A5000F08DFD81212B
:104040004DF20B5000F088FD00214DF20C5000F0B5
:1040500083FDA6214DF20D5000F07EFD00214DF2B2
:104060000E5000F079FDE5214DF20F5000F074FD87
:1040700001214DF2105000F06FFD13214DF211504F
:1040800000F06AFD01214DF2125000F065FD54214F
:104090004DF2135000F060FD01214DF2145000F07C
:1040A0005BFD82214DF2155000F056FD01214DF2CD
:1040B000165000F051FDCA214DF2175000F04CFD92
:1040C00002214DF2185000F047FD00214DF2195029
:1040D00000F042FD02214DF21A5000F03DFD012199
:1040E0004DF21B5000F038FD02214DF21C5000F043
:1040F00033FD34214DF21D5000F02EFD02214DF212
:104100001E5000F029FD67214DF21F5000F024FDE4
:1041100002214DF2205000F01FFD84214DF221506C
:1041200000F01AFD02214DF2225000F015FDA421ED
:104130004DF2235000F010FD02214DF2245000F00A
:104140000BFDB7214DF2255000F006FD02214DF286
:10415000265000F001FDCF214DF2275000F0FCFC6D
:1041600002214DF2285000F0F7FCDE214DF22950DB
:1041700000F0F2FC02214DF22A5000F0EDFCF22199
:104180004DF22B5000F0E8FC02214DF22C5000F0D3
:10419000E3FCFE214DF22D5000F0DEFC03214DF238
:1041A0002E5000F0D9FC10214DF22F5000F0D4FC1D
:1041B00003214DF2305000F0CFFC33214DF231504D
:1041C00000F0CAFC03214DF2325000F0C5FC6D2115
:1041D0004DF2335000F0C0FC00214FF4564000F087
:1041E000BBFC33214DF2016000F0B6FC00214DF222
:1041F000026000F0B1FC34214DF2036000F0ACFC31
:1042000000214DF2046000F0A7FC3A214DF2056058
:1042100000F0A2FC00214DF2066000F09DFC4A2156
:104220004DF2076000F098FC00214DF2086000F0AC
:1042300093FC5C214DF2096000F08EFC00214DF2F0
:104240000A6000F089FC81214DF20B6000F084FCD3
:1042500000214DF20C6000F07FFCA6214DF20D60B4
:1042600000F07AFC00214DF20E6000F075FCE521B3
:104270004DF20F6000F070FC01214DF2106000F073
:104280006BFC13214DF2116000F066FC01214DF230
:10429000126000F061FC54214DF2136000F05CFCF0
:1042A00001214DF2146000F057FC82214DF215609F
:1042B00000F052FC01214DF2166000F04DFCCA21C5
:1042C0004DF2176000F048FC02214DF2186000F03A
:1042D00043FC00214DF2196000F03EFC02214DF23A
:1042E0001A6000F039FC01214DF21B6000F034FC33
:1042F00002214DF21C6000F02FFC34214DF21D60B4
:1043000000F02AFC02214DF21E6000F025FC67211E
:104310004DF21F6000F020FC02214DF2206000F001
:104320001BFC84214DF2216000F016FC02214DF2AD
:10433000226000F011FCA4214DF2236000F00CFC7F
:1043400002214DF2246000F007FCB7214DF22560F8
:1043500000F002FC02214DF2266000F0FDFBCF21AF
:104360004DF2276000F0F8FB02214DF2286000F0CA
:10437000F3FBDE214DF2296000F0EEFB02214DF24D
:104380002A6000F0E9FBF2214DF22B6000F0E4FB23
:1043900002214DF22C6000F0DFFBFE214DF22D607A
:1043A00000F0DAFB03214DF22E6000F0D5FB102166
:1043B0004DF22F6000F0D0FB03214DF2306000F091
:1043C000CBFB33214DF2316000F0C6FB03214DF2EF
:1043D000326000F0C1FB6D214DF2336000F0BCFB98
:1043E0005521184600F0B8FBAA21504600F0B4FB56
:1043F0005221584600F0B0FB08214FF2030000F0B4
:10440000ABFB00214FF2040000F0A6FBCC214FF4DF
:10441000314000F0A1FB00214BF2011000F09CFBA9
:1044200005214FF4364000F097FB70214FF43740E0
:1044300000F092FB70214BF2017000F08DFB012126
:104440004FF4384000F088FB03214BF6010000F0E8
:1044500083FB03214BF6020000F07EFB03214BF6A9
:10446000030000F079FB02214FF43C4000F074FBA4
:1044700000214BF6014000F06FFB00214BF602409B
:1044800000F06AFBD0214FF4494000F065FB0221A7
:104490004CF6011000F060FB50214CF6021000F0C9
:1044A0005BFB50214CF6031000F056FB50214CF6FC
:1044B000041000F051FB00214FF4545000F04CFB6D
:1044C00055214FF4685000F047FB4FF4885000F03E
:1044D0002DFB782001F085FE4FF4245000F026FBE0
:1044E000B9E0B842FCD1E22000F020FB1D2000F032
:1044F00011FB022000F00EFB042000F00BFB6420F7
:1045000001F06FFEE02000F011FB012000F002FB43
:104510000A2001F05BFEE02000F008FB032000F021
:10452000F9FA0C2001F052FE012000F0FFFA0A20F7
:1045300001F04CFEE62000F0F9FA2F2000F0EAFA34
:10454000FF2000F0E7FAFF2000F0E4FAB02000F0CE
:10455000EDFA202000F0DEFA002000F0DBFA032064
:1045600000F0D8FA40F21F3000F0D4FA012000F039
:10457000D1FA40F2DF1000F0CDFA002000F0CAFAC4
:10458000B42000F0D3FA042000F0C4FA40F21F4037
:1045900000F0C0FA002000F0BDFA2E2000F0BAFAB8
:1045A000002000F0B7FA002000F0B4FA002000F07C
:1045B000B1FA002000F0AEFAB62000F0B7FA0220FF
:1045C00000F0A8FA4FF4037000F0A4FA002000F005
:1045D000A1FA172000F09EFA152000F09BFA0020A7
:1045E00000F098FA002000F095FAF02000F09EFA12
:1045F000032000F08FFA292000F098FAD02000F074
:1046000095FA002000F086FABE2000F08FFA05200F
:1046100000F080FAFE2000F07DFA012000F07AFA26
:10462000002000F077FA002000F074FA002000F07B
:1046300071FAB82000F07AFA032000F06BFA01203A
:1046400000F068FABA2000F071FA012000F062FA76
:10465000642000F03BF8A088404505D0B04203D06C
:10466000A84201D0B84219D14FF02040D0F804112F
:1046700021F00F01C0F80411D0F8041121F4706189
:10468000C0F80411D0F8041141F00401C0F804117D
:10469000D0F8041141F48061C0F804110020FDF746
:1046A000ABFD04490120C1F894024846BDE8F05F23
:1046B000FDF788BD00804042034808B50088ADF88A
:1046C0000000BDF8000008BD0000086010B50246FB
:1046D000BE2000F02BFA052000F01CFA1046FBF774
:1046E000B4FE9FED0C1B53EC112BFBF73CFEFBF7CC
:1046F000B9FE80B200F00EFA012000F00BFAFF20A4
:1047000000F008FA002000F005FABDE81040002093
:1047100000F000BA6666666666660440F0B56C4CEA
:1047200000232146A279898841F66316012A01D027
:104730001AB11BE0B14202D118E0B14216D10828EB
:1047400014D2DFE800F00406080A0C0E101206204E
:104750000CE007200AE0042008E0052006E0012024
:1047600004E0002002E0032000E00220A1F513474E
:1047700045F2103245F21055413F05D0914203D029
:10478000A94201D0B14277D1082812D2DFE800F067
:10479000110406080A0C0E1080230AE0402308E0EA
:1047A000C02306E0202304E0602302E0A02300E011
:1047B000E023A94202D14FF4585000E03620914244
:1047C00005D0A94203D0B14201D043F008031946F5
:1047D00000F0C2F9A188B1420AD098062088628808
:1047E00002D5904202D303E0904201D9228060803A
:1047F0006089A94241D100F099F9002000F08AF9BE
:104800006089401C80B200F091F9002000F082F92C
:104810006089801C80B200F089F92088401EC0F3B6
:104820000F2000F077F96089C01C80B200F07EF99B
:104830002078401EC0B200F06DF9A08900F076F932
:10484000002000F067F9A089401C80B200F06EF9EA
:10485000002000F05FF9A089801C80B200F066F9AA
:104860006088401EC0F30F2000F054F9A089C01CDE
:1048700080B200F05BF922E028E000F057F9002058
:1048800000F048F9002000F045F92088401EC0F3F0
:104890000F2000F03FF92078401EC0B200F03AF936
:1048A000A08900F043F9002000F034F9002000F066
:1048B00031F96088401EC0F30F2000F02BF9A0787A
:1048C000BDE8F040401EC0B200F024B9F0BD0000C9
:1048D000F8EE0120F0B53F4A0D460446060A9188DD
:1048E00010462F0A4089A1F51343413B28D0A1F57A
:1048F000A643103B24D0A1F5C853633B2FD0A1F5AC
:10490000AA43103B64D100F011F9304600F002F9DF
:104910005089401C80B200F009F9E0B200F0FAF8CA
:10492000908900F003F9384600F0F4F89089401CB3
:1049300080B200F0FBF8E8B2BDE8F04000F0EAB861
:1049400000F0F4F8304600F0E5F8E0B200F0E2F8EC
:10495000908900F0EBF8384600F0DCF8EBE791794D
:1049600029B300F0E3F8304600F0D4F8E0B200F0EC
:10497000D1F81088401EC0F30F2000F0CBF810785B
:10498000401EC0B200F0C6F8908900F0CFF838465B
:1049900000F0C0F8E8B200F0BDF85088401EC0F347
:1049A0000F2000F0B7F89078401EC0B2C4E711881D
:1049B000091B491E8CB200F0B9F8002000F0AAF8DB
:1049C000002000F0A7F8200A00F0A4F8E0B2D9E730
:1049D000F0BD0000F8EE01202DE9FF4F1D460C460A
:1049E0008A46580700D0012000EBD500690810FB6B
:1049F00001F0203A00F0FF09D0B20026DFF8A4B0A1
:104A000002904BE00C2D11D0102D14D0182D17D082
:104A1000202D45D12449029801EBC0104FF0000829
:104A2000875D380613D52148026814E002982049B2
:104A300000EB400008E01F49029801EB0010EDE791
:104A400002981D4900EBC00001EB8000E6E70D98DD
:104A500028B91648426821460098FDF739FC7806C7
:104A6000070E641CBBF80200A4B2A04218D9A4EB44
:104A70000A00A84209D100985446401C80B2009018
:104A8000BBF8001081420BD906E008F1010000F0EC
:104A9000FF08B8F1080FC4D3761CF6B24E45B1D367
:104AA000BDE8FF8FF8EE0120949000088000002000
:104AB000D4780008487D0008388300082DE9F84FB5
:104AC000044600F0FF0910190D46DDE90AB61FFA89
:104AD00080F8581987B2002E1AD04FF0000A3278A9
:104AE000A2F120005E2813D8444503D305EB0B0048
:104AF0004C4685B2BD420BD25B4629462046CDF8D6
:104B000000A0FFF769FF04EB5B0084B2761CE6E7C8
:104B1000BDE8F88F01B5BDF80000ADF80000BDF8A4
:104B200000000149088008BD0000086001B5BDF81B
:104B30000000ADF80000BDF800000149088008BD84
:104B4000FEFF0760024803490089088070470000A3
:104B5000F8EE0120FEFF0760024A1080901C0180E1
:104B600070470000FEFF07600D4808B5016841F47A
:104B7000800101600068002200F48000009005219F
:104B80003B20FCF70BFA3B20FCF7FAF90022052149
:104B90004520FCF703FABDE808404520FCF7F0B9D2
:104BA0003038024010B5034C0348611CFBF7C5FDCB
:104BB000207010BDBCEC01209478000800B51748A7
:104BC0008FB04FF02041016015494160062181609E
:104BD00000211022C160C0E904128161C16112028A
:104BE0000162C0E90912C162016341638163C1636B
:104BF00041640F2046228DE80700CDE90810CDE979
:104C000006100D9107AA69460448FDF785F90028AA
:104C100001D0FBF790FD0FB000BD00008CF001202B
:104C2000040100A000F07EBE00B587B014216846E4
:104C3000FBF782FB2248016841F0800101600168B6
:104C400001F080010591016841F0100101600168E7
:104C500001F010010591016841F00801016001684F
:104C600001F008010591016841F00401016001684B
:104C700001F004010591016841F001010160016842
:104C800001F001010591016841F0400101600168F6
:104C900001F040010591016841F0020101600068E6
:104CA000694600F00200059020200090012001904C
:104CB0000290032003900348FBF7C4FF07B000BD38
:104CC00030380240000402400648054901600021D6
:104CD00041608160C1600161416102218161704771
:104CE000002C014008EF01200C4810B50A49016072
:104CF0004FF4E1314160002181600C22C160C0E9C4
:104D000004128161C161FCF78DF8002803D0BDE871
:104D10001040FBF710BD10BD001001404CF0012009
:104D2000FEE7FEE70A6842624A688262D1E902232E
:104D30001A43D1E904310B43C16A1A4321F0F70148
:104D40001143C16200207047006800F00300704703
:104D500008444069704700000148FCF7B7BD0000F7
:104D600008EF012070B50DF1100C11439CE87000A4
:104D70002343194329434268314347F6FF639A436B
:104D80000A434260002070BD10B50321016002207B
:104D9000FBF700FF002010BDD0F8800070470A68C4
:104DA0008260D1E901231A43D1E903310B43C16881
:104DB0001A436FF30B011143C1600020704709686B
:104DC000C0F880100020704710B586B00446372028
:104DD000CDE9001040200290002003904FF4806045
:104DE000049069462046FFF7DAFF41F28832372106
:104DF000204600F0BDF906B010BD000010B5044615
:104E00000A4886B001432920CDE9001040200290D5
:104E1000002003904FF48060049069462046FFF71D
:104E2000BEFF204600F05CFA06B010BD0000108006
:104E300010B586B004461020CDE900104020029045
:104E4000002003904FF48060049069462046FFF7ED
:104E5000A6FF41F288321021204600F089F906B001
:104E600010BD10B586B004460620CDE900104020E4
:104E70000290002003904FF4806004906946204621
:104E8000FFF78DFF41F288320621204600F070F9CD
:104E900006B010BD30B585B00024054600940194DD
:104EA0004FF480600294CDE9034069462846FFF73D
:104EB00076FF0B484FF4FA510068B0FBF1F041F275
:104EC00088314843401E03D24FF0004005B030BD4A
:104ED000696B0906F6D5C520A8632046F6E70000F1
:104EE0001000002070B585B004464FF4D5700090D6
:104EF00001A908204025002681E86100C001049036
:104F000069462046FFF74BFF12484FF4FA510068FC
:104F1000B0FBF1F041F288314843401E03D24FF01C
:104F2000004005B070BD616B11F0450FF5D009056B
:104F3000F3D4606B400701D5042003E0606BC00729
:104F400002D00120A063ECE7606B400600D5A563AA
:104F50003046E6E71000002010B586B00446122067
:104F6000CDE9001040200290002003904FF48060B3
:104F7000049069462046FFF712FF41F28832122161
:104F8000204600F0F5F806B010BD10B586B0044616
:104F90001120CDE9001040200290002003904FF432
:104FA0008060049069462046FFF7F9FE41F288329E
:104FB0001121204600F0DCF806B010BD10B586B017
:104FC00004460720CDE900204020029000200390F5
:104FD0004FF48060049069462046FFF7E0FE41F2FE
:104FE00088320721204600F0C3F806B010BD10B586
:104FF00086B0044600210220CDE90010C020CDE992
:1050000002014FF48060049069462046FFF7C7FE16
:10501000204600F03DF906B010BD10B586B004463C
:105020000920CDE90010C0200290002003904FF429
:105030008060049069462046FFF7B1FE204600F0EC
:1050400027F906B010BD10B586B004460021332004
:10505000CDE900104020CDE902010001049069462D
:105060002046FFF79CFE41F288323321204600F0B3
:105070007FF806B010BD10B586B004460D20CDE90E
:10508000001040200290002003904FF480600490B4
:1050900069462046FFF783FE41F288320D21204603
:1050A00000F066F806B010BD30B585B00C46054678
:1050B00000210320CDE900104020CDE902010001CC
:1050C000049069462846FFF76AFE224603212846D7
:1050D00000F028F905B030BD10B586B004460021B7
:1050E0000C20CDE900104020CDE902010001049020
:1050F00069462046FFF753FE034A0C21204600F084
:1051000037F806B010BD000000E1F50510B586B017
:1051100004461920CDE900104020029000200390A1
:105120004FF48060049069462046FFF738FE41F254
:1051300088321921204600F01BF806B010BD10B5CA
:1051400086B004461820CDE90010402002900020CF
:1051500003904FF48060049069462046FFF71FFEDD
:1051600041F288321821204600F002F806B010BD46
:10517000454B10B51B684FF4FA54B3FBF4F353439B
:105180005B1E02D24FF0004010BD426B12F0450F83
:10519000F6D01205F4D4426B520703D50421816383
:1051A000084610BD426BD20702D00121816305E0A1
:1051B000C52282630269D2B28A4201D0012010BDA9
:1051C0000021FFF7C5FD3149084201D1002010BD83
:1051D000002802DA4FF0007010BD410001D54020D8
:1051E00010BD810001D5802010BDC10002D54FF453
:1051F000807010BD010102D54FF4007010BD410157
:1052000002D54FF4806010BDC10102D54FF400609B
:1052100010BD010202D54FF4805010BD410202D5ED
:105220004FF4005010BD810202D54FF4804010BDF4
:10523000C10202D54FF4004010BD410302D54FF426
:10524000003010BD810302D54FF4802010BDC10392
:1052500002D54FF4002010BD010402D54FF4801098
:1052600010BD410402D54FF4001010BD810402D5D9
:105270004FF4800010BD000702D54FF4000010BDB0
:105280004FF4803010BD00001000002008E0FFFD4A
:1052900012494FF4FA520968B1FBF2F141F2883237
:1052A0005143491E02D24FF000407047426B12F04A
:1052B000450FF6D01205F4D4416B490703D50421FC
:1052C000816308467047416BC90703D001218163A0
:1052D00008467047C52181630020704710000020F8
:1052E0000F494FF4FA520968B1FBF2F141F28832EA
:1052F0005143491E02D24FF000407047426B12F0FA
:10530000450FF6D01205F4D4416B490703D50421AB
:10531000816308467047C521816300207047000003
:105320001000002030B5204B4FF4FA541B68B3FB3B
:10533000F4F341F2883463435B1E02D24FF0004025
:1053400030BD446B14F0450FF6D02405F4D4436B04
:105350005B0703D504218163084630BD436BDB073F
:1053600002D00121816303E00369DBB28B4201D0EB
:10537000012030BDC52181630021FFF7E9FC10F455
:10538000604F04D0410406D54FF4005030BD000CEE
:105390001080002030BD000402D54FF4805030BD95
:1053A0004FF4803030BD00001000002010B5064CD6
:1053B00001202070FBF706F918B9207820F00100D1
:1053C0002070207810BD00007400002070B50546E4
:1053D00000F061FF044603E0FBF7F4F8002806D074
:1053E00000F059FF001BA842F6D34FF0FF3070BD0C
:1053F00010B5846BFBF75AFA022828D0206C416D57
:10540000E06B406D012901D001281DD121681048B1
:1054100088632068C16B21F49D71C163A06B40F06B
:105420008040A0632046FCF73BFA062801D00528FF
:1054300005D12068FFF750FEA16B0843A06301204F
:1054400084F83400002020632046FCF749F910BDA1
:10545000FF05400010B5846B206B822809D12068BD
:10546000FFF73AFE28B1A16B0143A1632046FCF788
:1054700037F92068C16A21F00801C162216840F251
:105480003A508863012084F83400002020632046CD
:10549000FCF7A0FC10BD10B5846B40F23A502168B7
:1054A00088632046FCF7FCF9012184F834100021C0
:1054B0002163062801D0052805D12068FFF70CFEDE
:1054C000A16B0843A063A06B0028204602D0FCF724
:1054D00007F910BDFCF786F810BD806B0068C16B42
:1054E00041F48071C163704710B5846B40F23A504B
:1054F000216888632046FCF7D3F9012184F8341031
:1055000000212163062801D0052805D12068FFF776
:10551000E3FDA16B0843A063A06B0028204602D0E6
:10552000FCF7DEF810BDFCF75DF810BD2DE9F04F7B
:1055300089B00D460446FBF76FFC002683460096B3
:105540000196374608212068FFF772FC002834D105
:10555000B4F8500001042068FFF736FC00282CD175
:10556000401E4FF00808CDE9020830204FF0020934
:10557000CDE904090120CDE9067002A92068FFF7F2
:10558000D1FB2068FFF75FFD002816D1EA4640F204
:105590002A472068416B394212D1416B890204D5F8
:1055A000FFF7FAFB4AF82600761CFBF735FCA0EB68
:1055B0000B00401CEDD14FF0004009B0BDE8F08F6A
:1055C000416B090703D5C0F838800820F5E7416B27
:1055D000890703D5C0F838900220EEE7416B8906B1
:1055E00003D5202181630846E7E740F23A51816301
:1055F000019800BA2860009800BA68600020DCE7D3
:1056000010B590B004460120ADF838002068FFF7CF
:105610009BFB002854D0606C032842D02068FFF721
:10562000E6FC00284AD100212068FFF791FB606763
:1056300004212068FFF78CFBA06708212068FFF792
:1056400087FBE0670C212068FFF782FBC4F880002D
:10565000606C032825D00EA92068FFF725FD0028DF
:105660002CD1606C03281CD0BDF8380020650104E3
:105670002068FFF7D2FC002820D100212068FFF726
:1056800067FB606604212068FFF762FBA0660821C3
:105690002068FFF75DFBE0660C212068FFF758FBF0
:1056A000206704212068FFF753FB000DE06403A985
:1056B0002046FCF717F830B14FF0805010B010BD05
:1056C0004FF08060FAE7B4F850000023020420682D
:1056D000FFF774FC0028F1D104F1100007C88DE831
:1056E000070094E80F00FFF73DFB0020E6E700000D
:1056F0002DE9F84F0026044600963546B04600686E
:10570000FFF7C8FB002827D12068FFF7EBFB4FF01D
:10571000805B4FF001094FF6FF7748B1A66420681F
:10572000FFF7B8FB002817D1A06C012802D020E0B9
:10573000C4F8489000212068FFF746FB58B918E0EC
:1057400000212068FFF740FB002805D15146206862
:10575000FFF754FB10B15846BDE8F88F00212068D0
:10576000FFF7F6FA05464FEAD0780098401C009003
:1057700002E0DFF82CA00098B84202D2B8F1000F86
:10578000DED00098B84202D34FF08070E4E76800A2
:1057900002D5C4F8449000E066640020DCE7000015
:1057A000000010C17FB5124C05460120207000F0AA
:1057B00064FDC8B1FAF712FF18B92846FFF7F6FDE5
:1057C0002070207801280FD0606868B9094B0FCB92
:1057D0008DE80F000021684600F069FD606018B98F
:1057E000207840F001002070207804B070BD0000E7
:1057F00074000020A878000810B5124888B014463C
:105800000078C00702D0032008B010BDC1B1012943
:1058100005D0022908D003290CD00420F4E76846FB
:10582000FAF7CAFE06980AE06846FAF7C5FE079836
:10583000208005E06846FAF7BFFE0798400A20601E
:105840000020E1E7740000202DE9FE4347F23054C8
:105850001E461746884601252046FFF7B7FD00285B
:105860001EDB324639464046FAF7D8FEC0B90F482B
:1058700022464168684600F02DFDDDE90010102940
:105880000ED101280CD100F006FD064603E000BF52
:10589000FAF798FE38B100F0FEFC801BA042F7D367
:1058A0002846BDE8FE830025FAE7000074000020CA
:1058B000FFF77CBD2DE9FE4347F230541D461746E5
:1058C000884601262046FFF781FD00281EDB2A4678
:1058D00039464046FAF7B8FEC0B90F48224641683B
:1058E000684600F0F7FCDDE9001010290ED102280F
:1058F0000CD100F0D0FC054603E000BFFAF762FED1
:1059000038B100F0C8FC401BA042F7D33046BDE8D8
:10591000FE830026FAE7000074000020012000F05A
:10592000A5FCFBE710B504A000F082F900F02AFC0A
:10593000BDE8104000F0FEBB0D0A72756E20737456
:105940006172742D210D0A0010B5502080F311886A
:10595000BFF34F8FBFF36F8F01F032FE18B10449D0
:105960004FF080500860002080F3118810BD0000C7
:1059700004ED00E030B593B030216846FAF7DCFC66
:1059800014210CA8FAF7D8FC20480025016841F042
:1059900080510160006800F0805011901C4801683F
:1059A00041F4404101600068022400F4404011903D
:1059B00001200090000401908001CDE906401920EB
:1059C00008904FF4B470CDE9090408200B906846A4
:1059D000FBF75AFC08B172B6FEE7FBF711FB08B102
:1059E00072B6FEE70CA90F2081E831004FF4A050F9
:1059F0000F904FF48050109005210CA8FBF738FB56
:105A0000002801D072B6FEE713B030BD4038024026
:105A1000007000400548016841F4700101600349CD
:105A20004FF00060803908607047000088ED00E0AA
:105A30000148FCF7CEBA000018050020F0B5026856
:105A4000254C264D264E274F274B4FF0804CA04229
:105A500009D0604507D0A84205D0B04203D0B84273
:105A600001D0984204D122F0700E4A6842EA0E0238
:105A7000A0421BD0604519D0A84217D0B04215D023
:105A8000B84213D0984211D0184DA8420ED0184DEC
:105A9000A8420BD0174DA84208D0174DA84205D0F8
:105AA000164DA84202D0164DA84203D122F44075EB
:105AB000CA682A434D6922F080022A4302608A683C
:105AC000C2620A688262A04201D0984201D109698B
:105AD000016301214161F0BD00000140000400406C
