:020000040800F2
:1000000080FC022081020008FD5C0008E92D000848
:10001000F95C0008050700084D6B000800000000AF
:10002000000000000000000000000000C101000806
:10003000110A0008000000001D020008E564000825
:100040009B0200089B0200089B020008915E0008CA
:100050009B0200089B020008130A00089B0200088C
:100060009B0200089B0200089B0200089B020008FC
:100070009B0200089B0200089B0200089B020008EC
:100080009B0200089B0200089B0200089B020008DC
:100090009B0200089B0200089B0200089B020008CC
:1000A0009B0200089B0200089B0200089B020008BC
:1000B0009B020008F5650008056600089B02000821
:1000C0009B0200089B0200089B0200089B0200089C
:1000D0009B0200089B0200089B0200089B0200088C
:1000E0009B020008615D00089B0200089B0200085B
:1000F0009B0200089B0200089B0200089B0200086C
:100100009B020008315F00089B0200089B02000868
:100110009B0200089B0200089B0200089B0200084B
:10012000750700089B0200089B020008850700086D
:100130009B0200089B0200089B0200089B0200082B
:100140009B0200089B0200089B0200089B0200081B
:100150009B020008950700089B0200089B0200080C
:100160009B0200089B0200089B0200089B020008FB
:100170009B0200089B0200089B0200080000000090
:100180009B0200089B0200089B0200089B020008DB
:100190009B0200089B0200089B0200089B020008CB
:1001A0009B0200089B0200089B020008DFF80CD0AD
:1001B00000F028FA004800472139030880FC02209B
:1001C0002C4B19680868B0E8F04F80F30988BFF33A
:1001D0006F8F4FF0000080F311887047000000001F
:1001E00008480068006880F308884FF0000080F33A
:1001F000148862B661B6BFF34F8FBFF36F8F00DF15
:1002000000BF00BF08ED00E0DFF80C00016841F41A
:1002100070010160704700BF88ED00E0EFF30980D6
:10022000BFF36F8F134B1A681EF0100F08BF20ED3D
:10023000108A20E9F04F106009B44FF0500080F3AD
:100240001188BFF34F8FBFF36F8F3AF0CDF94FF0A6
:10025000000080F3118809BC19680868B0E8F04F05
:100260001EF0100F08BFB0EC108A80F30988BFF3AE
:100270006F8F704704000020EFF305807047000087
:100280000648804706480047FEE7FEE7FEE7FEE730
:10029000FEE7FEE7FEE7FEE7FEE7FEE7D9650008BA
:1002A000AD0100082DE9F05F0546002092469B460F
:1002B00088460646814640241BE02846414647467C
:1002C000224600F031F953465A46C01A914110D3E4
:1002D00011461846224600F018F92D1A67EB01085E
:1002E0004F4622460120002100F00FF917EB0009CC
:1002F0004E41201EA4F10104DFDC484631462A4667
:100300004346BDE8F09F40EA01039B0703D009E0A4
:1003100008C9121F08C0042AFAD203E011F8013BF1
:1003200000F8013B521EF9D27047D2B201E000F84A
:10033000012B491EFBD270470022F6E710B5134689
:100340000A4604461946FFF7F0FF204610BD10B5D7
:10035000044604E00B7800F8013B03B1491C521E2F
:10036000F8D2204610BD421C10F8011B0029FBD119
:10037000801A704710B5002200E0521C835C8C5C30
:10038000A34201D1002BF8D1D8B2E1B2401A10BD7E
:1003900030B504460020034600E05B1C934203D2C4
:1003A000E05CCD5C401BF8D030BD034611F8012B5A
:1003B00000F8012B002AF9D11846704730B50546E0
:1003C0000020034600E05B1C934205D2EC5CC85C55
:1003D000201A01D1002CF6D130BD2DE9FE4F81EA63
:1003E000030404F0004421F0004100944FF0000B9E
:1003F00023F0004350EA01045ED052EA03045BD0CC
:10040000C3F30A54C1F30A552C44A4F2F334019403
:10041000A0FB0254C1F3130141F48011C3F3130391
:1004200043F4801301FB024400FB034E840A970A45
:1004300044EA815447EA8357A4FB076802958D0A72
:1004400005FB07854FEA932C04FB0C542705029DFE
:100450004FEA065847EA1637B5EB08056EEB070C6E
:10046000870E920E47EA811742EA8312A7FB020128
:10047000B6EB0B0164EB00042B0D43EA0C335E1862
:1004800044EB1C50DA465146E7FB0201C5F3130466
:100490004FEA0B3343EA14534FEA0432019C43EA18
:1004A0000603A4F10C040294009CCDE900B400F012
:1004B0005AF803B0BDE8F08F00200146F9E70EB509
:1004C00040F2334102910021CDE900110A460B466A
:1004D00000F049F803B000BDC1F30A5210B5C1F3F2
:1004E000130140F2FF3341F480119A4201DA0020F7
:1004F00010BD40F233439A42A2F2334203DC52422F
:1005000000F012F810BD904010BD202A04DB203A04
:1005100000FA02F1002070479140C2F1200320FA56
:1005200003F3194390407047202A04DB203A21FA54
:1005300002F00021704721FA02F3D040C2F12002FC
:10054000914008431946704710B5141E73F100041A
:1005500008DA401C41F1000192185B411A4301D1B5
:1005600020F0010010BD2DE9F04D92469B4611B1DF
:10057000B1FA81F202E0B0FA80F220329046FFF741
:10058000C4FF04460F4640EA0A0041EA0B01534605
:100590005A46084313D0114653EA010019D0C8F156
:1005A00040025046FFF7C0FF05460E4650465946EA
:1005B0004246FFF7AAFF084305D0012004E0204689
:1005C0003946BDE8F08D0020054346EAE0762C432D
:1005D00037430A986305E40AA0EB08000022FD0AED
:1005E00044EA47540A3002D500200146E9E70105F4
:1005F00010196941DDE9084500196941BDE8F04D70
:10060000A2E70000064C074D06E0E06840F0010359
:1006100094E8070098471034AC42F6D3FFF7CAFDC0
:1006200098FE0308D8FE030870B58C1810F8015B1B
:1006300015F0070301D110F8013B2A1106D110F87B
:10064000012B03E010F8016B01F8016B5B1EF9D17F
:100650002B0705D40023521E0DD401F8013BFAE705
:1006600010F8013BCB1A921C03E013F8015B01F870
:10067000015B521EF9D5A142D8D3002070BD000005
:1006800010B5044612480078072800DB10BD104959
:10069000097801EBC10202EB01120E4901EB4200A5
:1006A0003221FFF749FE0A49097801EBC10202EB4A
:1006B0000112084901EB420031222146FFF747FEB3
:1006C00003480078401C0249087000BFDEE70000C4
:1006D00024000220400700207047000010B50022CF
:1006E00001210248006834F05FF810BD4C00002082
:1006F00010B5002202210248006834F055F810BD00
:100700004C00002000BFFEE710B53AF075FD12491D
:10071000086008460068B0F5805F0BD240F6B8303C
:1007200034F031F80C48406920F00400001D0A49FB
:10073000486110E008480068B0F5A05F0BD8064893
:100740000068B0F5805F06D30348406920F00300DD
:10075000401C0149486110BD1C07002010B5002154
:10076000034A116051605921312005F031FA10BD62
:100770007800022010B5024800F07EFA10BD00009B
:1007800084F4012010B5024800F076FA10BD000094
:10079000C4F3012010B5024800F06EFA10BD00004D
:1007A00024F401200146087810381823B0FBF3F236
:1007B0000848805CC865032A05D908686FF30900FA
:1007C000001D886503E008686FF309008865886D7F
:1007D00070470000A4BF0308014600208A6A8B69A5
:1007E000CBB932B1012A0DD0022A03D0032A10D18D
:1007F0000EE000BFCB6A03F08073B3F1807F00D1BD
:10080000012007E0CB6AB3F1C07F00D1012001E0F5
:1008100000E000BF34E08B69B3F5005F1AD132B15C
:10082000012A07D0022A03D0032A11D10AE000BF0F
:1008300001200EE0CB6A03F08073B3F1807F00D11A
:10084000012006E0CB6AB3F1C07F00D1012000E0B7
:1008500000BF15E032B1012A05D0022A04D0032AD4
:100860000CD103E000BF00BF012008E0CB6A03F019
:100870008073B3F1807F00D1012000E000BF00BF92
:10088000704700002DE9F04704460D4616461F4606
:10089000DDE90889244800F0EBF924490870224872
:1008A00000F0E6F9012802D021A006F051F9301B32
:1008B000401C791B491C4843400022498860084677
:1008C000C0F8048080F810908068B0F5803F03D3B2
:1008D0004FF6FF70C86003E01A4880681949C86085
:1008E0001848007C012808D10F480068006820F4EF
:1008F00000700D490968086007E00B48006800684F
:1009000040F400700849096808603B4632462946B1
:10091000204602F095FA0B48C3680B4A416802482A
:1009200000F040FBBDE8F08784F401208000022045
:10093000444D41206973206E6F7420726561647943
:10094000210D0A00E4F401200000086030B50468BD
:10095000246824F4802405682C600468636084683B
:10096000402C04D10468A2600468E16003E00468DC
:10097000A1600468E26030BD08B500BF00200090AF
:100980001E48006840F480001C4908600846006862
:1009900000F48000009000BF00BF4FF000701849C5
:1009A00048608021164881600021C16001614FF4D8
:1009B000005181614161090101620021C16104218D
:1009C00041620321816200210163C1620D480C492B
:1009D0000860084600F070FA00B108BD0A480849EE
:1009E000C8630A48C86403221146382000F0CCFDD1
:1009F000382000F0B9FD00BFEFE7000030380240BA
:100A000084F4012010640240F5EA000865EB000858
:100A1000704710B5012000F079FB10BD72B600BF21
:100A2000FEE7000008B51248006900B908BD4FF4A0
:100A30007A7033F055FC00B9F8E70D48406810B9FA
:100A400002F0E6F9F2E70120094A0090516801231B
:100A500010691A463AF004FB054988600846406868
:100A60008968884201D102F0D3F900BFDEE70000B7
:100A70001C07002070B504461D460023B5F5804FC5
:100A800013D154F822300C480340D1E9000640EA63
:100A900006108E6840EA06208E8940EA06408E697C
:100AA0003043034344F8223003E06FF0704044F8D1
:100AB0002200002070BD00000000F0CF10B50246FB
:100AC0000023086852F8203018480340D1E9010497
:100AD0002043CC6820430C6920434C6920438C6937
:100AE0002043CC6920430C6A20434C6A20438C6A23
:100AF0002043CC6A2043CC6B20430C6B20434C6BCF
:100B0000204303438868082801D143F04003086864
:100B100042F82030486BB0F5801F05D1086818B145
:100B200010684C6B20431060002010BD8000E0FF77
:100B300030B5034614460022601C53F8202002F012
:100B40004042D1E9000540EA05108D6840EA0520E1
:100B50008D8940EA0545088A401E45EA0055087D12
:100B6000801E45EA00608D6928430243601C43F8FB
:100B70002020186800F48010B0F5801F07D1586855
:100B800020F47002088A401E42EA00525A60002097
:100B900030BD000038B5002500200090002439F059
:100BA00077F9054627488069A84238D000202549B2
:100BB000486008468561C06928B1C86939F076FA8D
:100BC00000202049C8611F48806900EBC0008400F4
:100BD000204634F083FB1B49C8610846C06918B140
:100BE000C8692146FFF7A8FB1648006A30B11549CD
:100BF000086A39F05BFA00201249086211488069DE
:100C0000C0EBC000C400204634F068FB0D49086208
:100C10000846006A18B1086A2146FFF78DFB0948AB
:100C2000C06900B938BD074A9169D0696A4639F090
:100C300049F9054600F08EFB0249C1F8840100BF66
:100C4000F0E700001C070020014691F8350002285B
:100C500003D08020486501207047052081F83500C9
:100C60000868006820F001000A6810600020F3E7BF
:100C7000014691F835007047F8B504460020009011
:100C80008C4800684FF41651B0FBF1F7A56D2E6843
:100C900094F85C1008208840304098B120680068C3
:100CA00000F0040070B12068006820F004002168A2
:100CB000086094F85C1008208840A860606D40F0DF
:100CC0000100606594F85C1001208840304068B1F4
:100CD0002068406900F0800040B194F85C10012069
:100CE0008840A860606D40F00200606594F85C1078
:100CF00004208840304068B12068006800F002009D
:100D000040B194F85C1004208840A860606D40F009
:100D10000400606594F85C1010208840304078B37F
:100D20002068006800F0080050B394F85C101020B0
:100D30008840A8602068006800F4802080B12068A6
:100D4000006800F4002028B9206CC8B12046216C4E
:100D5000884715E0A06C98B12046A16C88470FE049
:100D60002068006800F4807028B92068006820F0CE
:100D7000080021680860206C10B12046216C88476B
:100D800094F85C10202088403040002865D020680E
:100D9000006800F0100000285FD094F85C1020205C
:100DA0008840A86094F83500052828D1206800689C
:100DB00020F01600216808602068406920F080005B
:100DC00021684861206C08B9A06C28B120680068CF
:100DD00020F008002168086094F85C103F208840EB
:100DE000A86000BF002084F8340000BF012084F810
:100DF0003500206D10B12046216D8847F8BD206870
:100E0000006800F4802080B12068006800F40020B1
:100E100028B9606C10B12046616C88471DE0E06B1A
:100E2000D8B12046E16B884717E02068006800F4DD
:100E3000807068B92068006820F0100021680860A0
:100E400000BF002084F8340000BF012084F8350082
:100E5000E06B10B12046E16B8847606D38B3606D80
:100E600000F00100F0B1052084F83500206800682A
:100E700020F001002168086000BF0098401C00902D
:100E8000B84200D905E02068006800F001000028A1
:100E9000F3D100BF00BF002084F8340000BF012060
:100EA00084F83500E06C10B12046E16C884700BF43
:100EB000A4E70000000000202DE9F04104460025D1
:100EC00000F048FA074614B90120BDE8F081606AD5
:100ED00000B100BF00BF002084F8340000BF022032
:100EE00084F835002068006820F00100216808605F
:100EF0000AE000F02FFAC01B052805D92020606504
:100F0000032084F83500E0E72068006800F0010065
:100F10000028EED12068056821480540D4E9010188
:100F20000843E16808432169084361690843A169EE
:100F30000843E1690843216A08430543606A0428BD
:100F400003D1D4E90B0108430543206805602068FC
:100F5000456925F00705606A0543606A04280DD1DC
:100F6000A06A0543E06A48B12046FFF735FC28B186
:100F700040206065012084F83500A6E720684561BF
:100F80002046FFF70FFC064694F85C103F2088408F
:100F9000B06000206065012084F83500002094E7EF
:100FA0003F8010F02DE9F04704460D4616461F46D7
:100FB0004FF00008D4F8589000BF94F8340001288E
:100FC00002D10220BDE8F087012084F8340000BF80
:100FD00094F83500012825D1022084F8350000203E
:100FE00060653B46324629462046FFF7AFFC94F841
:100FF0005C103F208840C9F808002068006840F075
:10100000160021680860206C28B12068006840F054
:101010000800216808602068006840F0010021682D
:10102000086006E000BF002084F8340000BF4FF0E5
:1010300002084046C6E7000000B587B0142102A8A8
:10104000FFF77AF92348006808B107B000BD012016
:101050002049086000BF002001901F48006840F050
:1010600001001D4908600846006800F00100019079
:1010700000BF00BF4FF68070029002200390002056
:101080000490032005900C20069002A9134800F05C
:101090004BF84EF2B37002900220039000200490AF
:1010A000032005900C20069002A90D4800F03CF8A2
:1010B0004FF48050029002200390002004900320FF
:1010C00005900C20069002A9064800F02DF800BFFC
:1010D000BBE70000500000203838024000100240FA
:1010E000000C02400018024010B50446012C0BD140
:1010F00015F096FD10B1012804D102E036F024FE6F
:1011000001E000E000BF00BF10BD000010B50446C4
:1011100004480068204020B1024804602046FFF7E0
:10112000E3FF10BD143C0140F8B502460B46002514
:10113000002400200021E6E0012606FA01F51E68E1
:1011400006EA0504AC4273D15E68012E08D05E68E1
:10115000022E05D05E68112E02D05E68122E13D1C9
:1011600090684F000326BE40B0434F00DE68BE408B
:1011700030439060506801268E40B0431E79C6F31C
:1011800000168E4030435060D0684F000326BE40AA
:10119000B0434F009E68BE403043D0605E68022E70
:1011A00002D05E68122E13D1CF0802F1200656F845
:1011B00027004E07F70E0F26BE40B0434F07FF0E25
:1011C0001E69BE403043CF0802F1200646F82700D2
:1011D00010684F000326BE40B0431E7906F0030698
:1011E0004F00BE40304310605E6806F08056B6F196
:1011F000805FA8D100BF00260096454E366846F4B1
:101200008046434F3E603E46366806F48046009670
:1012100000BF00BF3F4E8F0856F827008E07370FDC
:101220000F26BE40B0433C4EB24202D100262EE013
:1012300068E03A4EB24201D1012628E0384EB2426F
:1012400001D1022623E0374EB24201D103261EE02F
:10125000354EB24201D1042619E0344EB24201D1DA
:10126000052614E0324EB24201D106260FE0314E7F
:10127000B24201D107260AE02F4EB24201D1082620
:1012800005E02E4EB24201D1092600E00A268F0762
:101290003F0FBE4030431F4E8F0846F82700284EB0
:1012A0003068A0435E6806F48036B6F5803F00D112
:1012B0002043234E3060361D3068A0435E6806F43C
:1012C0000036B6F5003F00D120431D4E361D30607C
:1012D000361D3068A0435E6806F48016B6F5801FA0
:1012E00000D12043164E08363060361D3068A043CA
:1012F0005E6806F40016B6F5001F00D12043104EBC
:101300000C363060491C1029FFF416AFF8BD000000
:101310004438024008380140000002400004024006
:1013200000080240000C024000100240001402407D
:1013300000180240001C024000200240002402402D
:10134000003C0140024613690B400BB1012000E054
:101350000020704701480068704700002800022004
:1013600010B504460CB9012010BD94F8390028B915
:10137000002084F83800204601F0F2FC242084F894
:1013800039002068C06820F400502168C8602046F9
:1013900005F0E8F92068006920F4904021680861B0
:1013A0002068406920F02200216848612068406977
:1013B00040F00800216848612068C06840F400508F
:1013C0002168C8600020E063202084F8390084F898
:1013D0003A000020C8E770B504460CB9012070BD82
:1013E0004CF6CC402168086045F2555021680860F1
:1013F000D4E9001048602168A0688860FFF7AAFF60
:10140000054606E0FFF7A6FF401B302801D9032060
:10141000E5E72068C0680028F4D14AF6AA202168D0
:1014200008600020DBE701464AF6AA200A6810603F
:1014300000207047034800680349097808440149BF
:1014400008607047280002203000022010B50D48C7
:10145000006840F400700B4908600846006840F4DA
:10146000806008600846006840F4807008600320CF
:1014700000F0C8F8002000F007F800F04BF800205A
:1014800010BD0000003C024070B588B00446002545
:101490000026002221461E2000F076F81E2000F0D3
:1014A00063F800BF002001901648006840F0040077
:1014B000144908600846006800F00400019000BF6D
:1014C00000BF02A903A800F07FFB00F0A5FB4500C8
:1014D0000D48B5FBF0F0461E0C480D49086040F27F
:1014E000E7310B48C160466000210161816001F075
:1014F00079FA20B9064801F0B3FA08B070BD0120AE
:10150000FBE700004038024040420F000008004066
:10151000D006002008B500BF0020009011480068E8
:1015200040F480400F4908600846006800F480409D
:10153000009000BF00BF00BF00200090081F00689F
:1015400040F08050091F08600846006800F0805095
:10155000009000BF00BF00220F21901E00F014F881
:1015600008BD00004438024001460846002809DB57
:1015700000F01F0301229A4043099B0003F1E0237E
:10158000C3F8002100BF70472DE9F05F80460D468B
:101590001646002705F0ECFA074639462A46334638
:1015A00001F00700C0F1070ABAF1040F02D94FF0A9
:1015B000040A01E0C0F1070AD14600F1040ABAF1B9
:1015C000070F02D24FF0000A01E0A0F1030AD4464F
:1015D0004FF0010A0AFA09FAAAF1010A0AEA020A14
:1015E0000AFA0CFA4FF0010B0BFA0CFBABF1010BF2
:1015F0000BEA030B4AEA0B042146404605F0C0FA09
:10160000BDE8F09F00BF00F00702064B19684FF6D7
:10161000FF031940044B0B4343EA0221014B1960BD
:1016200000BF70470CED00E00000FA0500BF00BFEE
:1016300000BF00BF00BFBFF34F8F00BF00BF00BFA0
:101640000948006800F4E06008490843001D0649A5
:10165000086000BF00BF00BFBFF34F8F00BF00BFD7
:1016600000BF00BF00BFFDE70CED00E00000FA0581
:1016700038B5002400BF002000901D48006840F0ED
:1016800080501B4908600846006800F080500090B8
:1016900000BF00BF012017490864FFF75BFE044646
:1016A00007E0FFF757FE001BB0F57A7F01D9032052
:1016B00038BD1148406800F48030B0F5803FF0D16B
:1016C00001200C494864FFF745FE044607E0FFF798
:1016D00041FE001BB0F57A7F01D90320E8E70648F8
:1016E000406800F40030B0F5003FF0D10020DFE7A3
:1016F0004038024000000E420070004001200149C5
:101700000862704700000E42024949680143014ADD
:1017100051607047007000400748006840F00200C8
:10172000054908600548006840F004000349086066
:1017300000BF00BF30BF70470070004010ED00E0F8
:10174000F8B5044600250026207800F0010048B9CD
:10175000207800F00200022804D0207800F0400039
:10176000402862D10020B1498866FFF7F3FD0546A5
:1017700006E0FFF7EFFD401B022801D90320F8BD6A
:10178000AB480068C0F3C0600028F2D1207800F0B8
:10179000010038B160688101207A41EA0070A449F3
:1017A00084310860207800F00200022819D1A04896
:1017B00084300068C0F3027660688101207B41EAD2
:1017C000006040EA06709A498431086098488C307D
:1017D000006820F01F00E169491E084394498C31DC
:1017E0000860207800F0400040280AD1606881013C
:1017F000207B41EA0061207A41EA00708C49843103
:101800000860012089498866FFF7A4FD054606E0C7
:10181000FFF7A0FD401B022801D90320AFE7844851
:101820000068C0F3C0600028F2D0207800F0040007
:10183000042804D0207800F00800082863D1002094
:101840007A490867FFF786FD054606E0FFF782FD47
:10185000401B022801D9032091E775480068C0F3B6
:1018600040700028F2D1207800F00400042819D13B
:101870006F4888300068C0F3027620698101207DBE
:1018800041EA006040EA0670694988310860081D35
:10189000006820F4F851206A401E41EA00206449A3
:1018A0008C310860207800F00800082817D16048C3
:1018B00088300068C0F303662069800140EA066151
:1018C000207E41EA00705A4988310860081D00688E
:1018D00020F44030616A084355498C31086001208A
:1018E00052490867FFF736FD054606E0FFF732FD6F
:1018F000401B022801D9032041E74D480068C0F38E
:1019000040700028F2D0207800F0200020287DD1FF
:1019100000BF0020009046484030006840F08050F2
:101920004349403108600846006800F0805000904C
:1019300000BF00BF3F48006840F480703D49086028
:10194000FFF708FD054606E0FFF704FD401B0228EF
:1019500001D9032013E73748006800F4807000289D
:10196000F2D033487030006800F440764EB3208DDA
:1019700000F44070B04224D02D487030006820F44C
:10198000407601202C49086000200860284870300B
:101990000660006800F0010098B1FFF7DBFC054627
:1019A00008E0FFF7D7FC401B41F28831884201D99B
:1019B0000320E4E61E4870300068C0F340000028B1
:1019C000EFD000BF208D00F44070B0F5407F0CD107
:1019D00017480830006820F4F810184AA16A11402E
:1019E000084313490831086007E0114808300068CF
:1019F00020F4F8100E49083108600D487030006876
:101A0000218DC1F30B010843094900E002E0703168
:101A1000086000BF207800F01000102803D194F86F
:101A20002C00074908600020A9E60000000047429A
:101A30000038024000700040400E4742FFFCFF0F9C
:101A4000E011474270B504460D460CB9012070BD47
:101A50005848006800F00F00A84209D255490D709F
:101A60000846006800F00F00A84201D00120EEE710
:101A7000207800F0020002281DD1207800F0040038
:101A8000042805D14C48006840F4E0504A490860F9
:101A9000207800F00800082805D14748006840F485
:101AA0006040454908604448006820F0F000A168A3
:101AB000084341490860207800F00100A8B360683D
:101AC000012807D13C4808380068C0F34040B8B945
:101AD0000120BCE76068022802D06068032807D1B3
:101AE000354808380068C0F3406048B90120AEE7C7
:101AF000314808380068C0F3400008B90120A6E763
:101B00002D48006820F00300616808432A490860F6
:101B1000FFF720FC064609E0FFF71CFC801B41F2A2
:101B20008831884202D9032091E707E02248006803
:101B300000F00C006168B0EB810FEDD11D4800682A
:101B400000F00F00A84209D91A490D700846006834
:101B500000F00F00A84201D0012078E7207800F0C3
:101B60000400042807D11448006820F4E050E1681C
:101B7000084311490860207800F00800082808D1BF
:101B80000D48006820F46040216940EAC1000A491C
:101B9000086000F061F808490968C1F30311074AB9
:101BA000515CC8400649086006480068FFF76CFCB5
:101BB00000204CE7003C024008380240ACBF03085C
:101BC000000000202C0002200F2202600D4A126843
:101BD00002F0030242600B4A126802F0F0028260D7
:101BE000084A126802F4E052C260064A126802F41F
:101BF0006042D2080261044A126802F00F020A60D1
:101C00007047000008380240003C0240014800686C
:101C1000704700000000002000B5FFF7F7FF0449FF
:101C20000968C1F38221034A515CC84000BD00002D
:101C300008380240BCBF030800B5FFF7E7FF0449BE
:101C40000968C1F34231034A515CC84000BD00003D
:101C500008380240BCBF03082DE9F04700240025E6
:101C60000026A1462548006800F00C0020B1042899
:101C700005D008283AD105E0DFF8849039E0DFF894
:101C8000849036E01D48001F006800F03F041B48A8
:101C9000001F006800F4800078B11A481749091F36
:101CA0000968C1F38811A0FB017001462246002398
:101CB0003846FEF7F7FA05460EE011480F49091FAE
:101CC0000968C1F38811A0FB017001462246002378
:101CD0003846FEF7E7FA05460848001F0068C0F3DB
:101CE0000140401C4600B5FBF6F902E0DFF8109019
:101CF00000BF00BF4846BDE8F0870000083802403A
:101D00000024F40040787D01F8B504460CB90120A8
:101D1000F8BD207800F00100002874D0F948006870
:101D200000F00C0004280DD0F648006800F00C000C
:101D3000082813D1F348001F006800F48000B0F5B4
:101D4000800F0BD1EF4808380068C0F340400028EE
:101D500059D06068002856D10120D9E700BF6068DB
:101D6000B0F5803F08D1E7480838006840F480307B
:101D7000E449083908601EE06068B0F5A02F0DD175
:101D8000E0480838006840F48020DE4908390860DF
:101D90000846006840F4803008600CE0D9480838F4
:101DA000006820F48030D749083908600846006888
:101DB00020F48020086000BF606890B1FFF7CAFA85
:101DC000054606E0FFF7C6FA401B642801D9032048
:101DD0009EE7CC4808380068C0F340400028F1D0A6
:101DE00011E0FFF7B7FA054606E0FFF7B3FA401B2C
:101DF000642801D903208BE7C24808380068C0F383
:101E000040400028F1D1207800F0020002285FD184
:101E1000BC48006800F00C0058B1BA48006800F0F7
:101E20000C0008281CD1B748001F006800F480008F
:101E3000B0B9B44808380068C0F3400020B1E06889
:101E4000012801D0012063E7AE480838006820F07F
:101E5000F800216940EAC100AA490839086037E062
:101E6000E06800B30120A8490860FFF773FA05464F
:101E700006E0FFF76FFA401B022801D9032047E76D
:101E8000A04808380068C0F340000028F1D09D4801
:101E90000838006820F0F800216940EAC10099493B
:101EA0000839086014E0002097490860FFF752FAEB
:101EB000054606E0FFF74EFA401B022801D9032031
:101EC00026E7904808380068C0F340000028F1D1A8
:101ED000207800F0080008282CD16069A8B1012002
:101EE0008A490860FFF736FA054606E0FFF732FA3E
:101EF000401B022801D903200AE782486C300068A1
:101F0000C0F340000028F1D014E000207F490860B1
:101F1000FFF720FA054606E0FFF71CFA401B0228EF
:101F200001D90320F4E677486C300068C0F3400024
:101F30000028F1D1207800F00400042870D1002797
:101F400070483830006800F0805090B900BF002021
:101F500000906C483830006840F080506949383152
:101F600008600846006800F08050009000BF00BF85
:101F700001276748006800F48070B0B964480068C1
:101F800040F4807062490860FFF7E4F9054606E016
:101F9000FFF7E0F9401B022801D90320B8E65C48AE
:101FA000006800F480700028F2D000BFA06801280B
:101FB00008D154486830006840F001005149683148
:101FC00008601DE0A06805280DD14E486830006803
:101FD00040F004004B49683108600846006840F052
:101FE000010008600CE047486830006820F00100FC
:101FF0004449683108600846006820F00400086021
:1020000000BFA068A8B1FFF7A5F9054609E0FFF7F2
:10201000A1F9401B41F28831884202D9032077E6BA
:1020200026E0384868300068C0F340000028EED051
:1020300013E0FFF78FF9054608E0FFF78BF9401B27
:1020400041F28831884201D9032061E62D48683089
:102050000068C0F340000028EFD1012F07D12948C4
:102060003830006820F0805026493831086000BFC1
:10207000A069002845D02348006800F00C0008281B
:102080005DD0A069022845D100201F490866FFF7EE
:1020900061F9054606E0FFF75DF9401B022801D90A
:1020A000032035E6174808380068C0F34060002870
:1020B000F1D1D4E907010843616A40EA81110122A4
:1020C000A06AC2EB500041EA00412C20005D41EAC9
:1020D00000600C49091F086001200B490866FFF7E2
:1020E00039F9054606E0FFF735F9401B022801D90A
:1020F00003200DE6034808380068C0F3406000285C
:10210000F1D03FE00838024000004742800E4742CD
:102110000070004000201C490866FFF71BF90546C7
:1021200006E0FFF717F9401B022801D90320EFE56D
:1021300016480068C0F340600028F2D122E0A06990
:10214000012800D1E4E51148001D066806F480016D
:10215000E069814214D106F03F01206A81420FD12B
:1021600047F6C0703040616A884209D106F44031B8
:10217000A06A814204D106F07061E06A814201D018
:102180000120C5E50020C3E50000474200380240B9
:10219000704702460023106800F1500303EB8103EF
:1021A0001868704710B50023046804F1500303EB6E
:1021B00081031A6010BD704710B504462068C068DE
:1021C000C0F3802050B12046FFF7F5FF2068C068BB
:1021D00000F0800060F490602168C8604FF48000D7
:1021E000024908600120607710BD0000143C0140E6
:1021F00010B5044600BF03F0DBFB8E2304A20A499E
:102200000AA004F0A5FC03F0C7FB00BF10BD00004E
:102210002E2E5C5372635C6472765C7274635C72C3
:1022200074632E6300000000F9BF03081B5B313BA1
:1022300033316D5B202573205D2020257320286CB1
:10224000696E6520256429202D3E20414C41524D68
:102250002041210D0A0D0A1B5B306D0010B50446AC
:1022600020688068C0F3003078B12068C068C0F38F
:10227000002050B12046FFF7BBFF2068C06800F087
:10228000800060F4C0702168C86020688068C0F376
:10229000403078B12068C068C0F3402050B120467B
:1022A000FFF776FF2068C06800F0800060F42070BF
:1022B0002168C8604FF4003002490860012060774F
:1022C00010BD0000143C014010B504460CB90120BB
:1022D00010BD607F20B900202077204600F060F814
:1022E0000220607700BFCA2021684862532021681D
:1022F000486200BF204603F048FD40B100BFFF2008
:102300002168486200BF042060770120E0E7206870
:102310008068224908402168886021696068084314
:1023200061690843216889680843216888602168D9
:10233000E068086120680169208941EA004021685D
:1023400008612068C06820F080002168C8602068AB
:10235000806800F0200060B9204600F067F940B1C5
:1023600000BFFF202168486200BF04206077012081
:10237000AEE72068006C20F48020216808642068A3
:10238000006CA16908432168086400BFFF20216830
:10239000486200BF01206077002099E7BFFF8FFFF0
:1023A00010B59AB0044600BF0020019011480068A3
:1023B00040F080500F4908600846006800F08050E7
:1023C000019000BF00BFFFF799F904200E90002094
:1023D0001490012010900EA8FFF796FC2020029088
:1023E000C0000C9002A8FFF7ABF901200249086079
:1023F0001AB010BD403802403C0E47422DE9F04172
:1024000004460D461646002700BF207F012802D152
:102410000220BDE8F0810120207700BF0220607714
:102420004EB9687800F01000102804D1687800F0E8
:10243000EF000A30687086B9E87803F099FC03046D
:10244000687803F095FC43EA0023A87803F090FC39
:102450000343287843EA403709E0E87800046978C4
:1024600040EA0120A9780843297840EA413700BFB3
:10247000CA202168486253202168486200BF204674
:1024800003F083FC60B100BFFF202168486200BFF9
:102490000420607700BF0020207700BF0120B8E74C
:1024A00016483840216848602068C06820F08000E5
:1024B0002168C8602068806800F0200080B920464C
:1024C00000F0B4F860B100BFFF202168486200BF8F
:1024D0000420607700BF0020207700BF012098E72C
:1024E00000BFFF202168486200BF0120607700BF65
:1024F0000020207700BF00BF8BE700003FFFFF00F8
:102500002DE9F04104460D461646002700BF207F06
:10251000012802D10220BDE8F0810120207700BF10
:1025200002206077CEB92068806800F0400000B1DA
:1025300002E00020E87000BF287803F019FC0304D3
:10254000687803F015FC43EA0023A87803F010FC38
:102550000343E87843EA004712E02068806800F00F
:10256000400000B102E00020E87000BF28780004BD
:10257000697840EA0120A9780843E97840EA0147F0
:1025800000BFCA202168486253202168486200BF0A
:10259000204603F0FAFB60B100BFFF2021684862CB
:1025A00000BF0420607700BF0020207700BF01201B
:1025B000B1E71D483840216808602068806820F431
:1025C000802021688860D5E9030108432168896873
:1025D0000843216888602068C06820F08000216876
:1025E000C8602068806800F0200080B9204600F0B4
:1025F0001DF860B100BFFF202168486200BF0420C1
:10260000607700BF0020207700BF012083E700BF74
:10261000FF202168486200BF0120607700BF0020D2
:10262000207700BF00BF76E77F7F7F0070B504464C
:1026300000252068C06820F0A0002168C860FEF76F
:1026400089FE054607E0FEF785FE401BB0F57A7F60
:1026500001D9032070BD2068C06800F02000002868
:10266000F1D00020F6E710B50446FEF735F810BDAE
:102670007047F8B50446002000906946204603F0F4
:10268000FAFD054615B1A06B2843A0630098C0F37E
:1026900043263046F8BD000070B50446256B20681F
:1026A000406BC0F3C03030B105F0080018B12046CF
:1026B00003F0BCFDF8E02068406BC0F30020002868
:1026C00062D04FF48070216888632068C06B4CF240
:1026D0003A3188432168C8632068C06A20F001004D
:1026E0002168C86205F0080038B305F0020010B98F
:1026F00005F0200050B1206803F05CFC06462EB1C6
:10270000A06B3043A0632046FFF7B2FF40F23A507F
:1027100021688863012084F834000020206305F0DC
:10272000010010B905F0020018B1204600F0C2F80F
:10273000BAE0204600F0C3F8B6E005F080000028BB
:10274000B8D005F0200050B1206803F033FC0646F5
:102750002EB1A06B3043A0632046FFF789FF05F040
:1027600001000028A6D105F002000028A2D12068AF
:10277000C06A20F008002168C862012084F8340093
:10278000204600F09CF88FE02068406BC0F380305A
:1027900030B105F0080018B1204603F084FD83E055
:1027A0002068406B40F23A21084008B1012000E067
:1027B0000020002878D02068406BC0F3400018B19A
:1027C000A06B40F00200A0632068406BC0F3C00023
:1027D00018B1A06B40F00800A0632068406BC0F304
:1027E000401018B1A06B40F02000A0632068406B3F
:1027F000C0F3001018B1A06B40F01000A063206877
:10280000406BC0F3402018B1A06B40F00800A063FB
:1028100040F23A70216888632068C06B40F23A3118
:1028200088432168C863206803F0C4FBA16B084398
:10283000A06305F0080040B1012084F834000020B6
:1028400020632046FFF714FF2EE005F0800000B360
:1028500005F0100010B905F0200050B11348E16BED
:102860000865E06BFEF7F0F998B1E06B03F0BAFC95
:102870001AE005F0010010B905F0020050B10C4853
:10288000216C0865206CFEF7DFF910B1206C03F0B5
:1028900085FC09E00020A063012084F834000020BA
:1028A00020632046FFF7DFFE70BD0000E5610008F1
:1028B0009D61000810B50446FDF710FF10BD10B56E
:1028C0000446FDF715FF10BD70B504460E461546CB
:1028D0000CB9012070BD94F8490028B9002084F893
:1028E0004800204600F01CF804F108012068FEF7BB
:1028F000E5F83146A2682068FEF71AF92946236BED
:10290000D4E90102FEF7B6F8A168206850F821006A
:1029100040F00100A268216841F822000020D9E7B8
:1029200010B50446FEF788FB10BD704770470000E5
:1029300030B502460B4600BF92F83C00012801D199
:10294000022030BD012082F83C0000BF022082F846
:102950003D00106844681068816824F070041868AD
:10296000044310684460184D1068A8421BD01068DA
:10297000B0F1804F17D0154D1068A84213D0144DF8
:102980001068A8420FD0134D1068A8420BD0124D0A
:102990001068A84207D0114D1068A84203D0104D0E
:1029A0001068A84205D121F08001586801431068E1
:1029B0008160012082F83D0000BF002082F83C00C9
:1029C00000BF00BFBDE70000000001400004004060
:1029D00000080040000C004000040140004001409D
:1029E0000018004010B504460CB9012010BD94F841
:1029F0003D0028B9002084F83C00204600F00CF887
:102A0000022084F83D00211D206803F003FE012010
:102A100084F83D000020E9E738B504460E492068F7
:102A2000884217D100BF002000900C48006840F099
:102A300002000A4908600846006800F002000090A1
:102A400000BF00BF002201211D20FEF79DFD1D20BB
:102A5000FEF78AFD38BD0000000400404038024007
:102A600001460868C06840F001000B68D86008683B
:102A7000806800F00702062A05D00868006840F068
:102A800001000B681860002070472DE9F0410446F2
:102A90000D4600BF94F83C00012802D10220BDE899
:102AA000F081012084F83C0000BF022084F83D0042
:102AB0002068866826F0770626F47F4620688660C0
:102AC0002868502833D00CDC202850D004DC0028A3
:102AD0004BD0102851D149E0302849D040284CD162
:102AE00039E060282DD0702807D0B0F5805F03D082
:102AF000B0F5005F41D10DE040E0D5E902136A680E
:102B0000206803F0F3FD2068866846F077062068A9
:102B1000866033E0D5E902136A68206803F0E6FDB9
:102B20002068806840F480402168886026E0EA6878
:102B30006968206803F0EEFD5021206803F0E1FD94
:102B40001CE0EA686968206803F0F7FD60212068EE
:102B500003F0D7FD12E0EA686968206803F0DAFD47
:102B60004021206803F0CDFD08E000BF00BF00BF9A
:102B70002968206803F0C5FD00E000BF00BF012008
:102B800084F83D0000BF002084F83C0000BF00BF77
:102B900085E7704710B5044620680069C0F340001F
:102BA000D8B12068C068C0F34000B0B16FF0020037
:102BB00021680861012020772068806900F0030007
:102BC00018B12046FFF7E5FF05E0204600F0ADF81C
:102BD000204600F0ABF80020207720680069C0F3A1
:102BE0008000D8B12068C068C0F38000B0B16FF039
:102BF000040021680861022020772068806900F4C1
:102C0000407018B12046FFF7C4FF05E0204600F0F1
:102C10008CF8204600F08AF80020207720680069B0
:102C2000C0F3C000D8B12068C068C0F3C000B0B124
:102C30006FF0080021680861042020772068C069CF
:102C400000F0030018B12046FFF7A3FF05E020467F
:102C500000F06BF8204600F069F80020207720682B
:102C60000069C0F30010D8B12068C068C0F300103C
:102C7000B0B16FF01000216808610820207720684B
:102C8000C06900F4407018B12046FFF782FF05E0EC
:102C9000204600F04AF8204600F048F8002020774F
:102CA0002068006900F0010058B12068C06800F099
:102CB000010030B16FF0010021680861204600F08A
:102CC00037F820680069C0F3C01058B12068C068A8
:102CD000C0F3C01030B16FF0800021680861204659
:102CE000FFF723FE20680069C0F3801058B1206808
:102CF000C068C0F3801030B16FF0400021680861F7
:102D0000204600F02BF820680069C0F3401058B14D
:102D10002068C068C0F3401030B16FF02000216817
:102D200008612046FFF702FE10BD704770470000A3
:102D300010B5044607492068884202D1FEF77AFBA5
:102D400006E005492068884202D1012030F082FB6C
:102D500010BD000000080040000400407047000063
:102D600010B586B00446142101A8FDF7E5FA1B4909
:102D7000206888422FD100BF0020009018480068CA
:102D800040F01000164908600846006800F0100086
:102D9000009000BF00BF00BF002000901048143812
:102DA000006840F001000E491439086008460068C8
:102DB00000F00100009000BF00BF481501901220F4
:102DC000029000200390032004900720059001A9A1
:102DD0000448FEF7A9F906B010BD0000001001403C
:102DE000443802400000024000BFFEE710B506482C
:102DF000064908600620486040F6FF71034881607C
:102E0000FEF7E9FA10BD0000003000401007002076
:102E100010B50248FEF707FB10BD000010070020A8
:102E200070B50725002406E0044951F82400FDF799
:102E300027FC601CC4B2AC42F6DB70BD040002206B
:102E40002DE9F04104460D4616461F46781B401CEE
:102E500083B2301B401C82B22946204602F0A2FCFD
:102E60004FF4305002F074FDBDE8F08170B50446B7
:102E7000002609480588408845430021084602F09D
:102E8000F5FB02F071FD00BF02E004490C80761CE6
:102E9000AE42FAD370BD00002C0102200000086091
:102EA00010B5044655488471002C51D1F020534987
:102EB00008804FF4A07048800846808849F241316C
:102EC000884205D04D48808845F21031884214D19F
:102ED0002C204A4908812A2048812B2088810846D5
:102EE000808845F21031884206D14FF4A0704349E2
:102EF00008804FF4F07048807BE04048808845F2BD
:102F00001051884210D14FF430503C4908814FF4A1
:102F1000285048814FF42C5088814FF4F07008807D
:102F20004FF44870488064E03448808841F663116B
:102F300088425ED12C20314908812B2048812A20EB
:102F400088814FF4F07008804FF44870488050E05A
:102F50004FF4A07029490880F020488008468088F6
:102F600049F24131884205D02448808845F2103129
:102F7000884207D12C20214908812A2048812B2012
:102F8000888129E01D48808845F21051884210D17F
:102F90004FF43050194908814FF4285048814FF4BC
:102FA0002C5088814FF4487008804FF4F0704880AE
:102FB00012E01248808841F6631188420CD12C201F
:102FC0000E4908812A2048812B2088814FF44870BF
:102FD00008804FF4F07048800848808845F210312E
:102FE000884206D14FF4F070044908804FF4A07075
:102FF0004880002002F000FA10BD00002C010220E1
:1030000010B5D32002F0A4FC02F0BCF9FE49888080
:1030100002F0B8F9FC49888002F0B4F9FA498880D6
:10302000084680884FF6FF7101EA0020F649888043
:1030300002F0A8F9F44989880843F34988800846D2
:10304000808849F24131884278D0D42002F080FC57
:1030500002F098F9EC49888002F094F9EA498880F6
:1030600002F090F9E8498880084680884FF6FF71A1
:1030700001EA0020E449888002F084F9E249898865
:103080000843E14988800846808845F2103188422B
:1030900054D04FF45A4002F05BFC02F073F9DA4965
:1030A00088804FF45B4002F053FC02F06BF9D64984
:1030B0008880084680884FF6FF7101EA0020D249D7
:1030C00088804FF45C4002F043FC02F05BF9CE498B
:1030D00089880843CC49888008468088B0F5004F2D
:1030E00002D145F210508880C748808845F21051BF
:1030F000884223D0A12002F02BFC02F043F9C24900
:10310000888002F03FF9C0498880084680884FF6E1
:10311000FF7101EA0020BC49888002F033F9BA4906
:1031200089880843B84988800846808845F26171DB
:10313000884203D141F66310B3498880B248808841
:1031400049F2413188427CD1CF2002F001FC0020BD
:1031500002F0F2FBC12002F0EFFB302002F0ECFBAA
:10316000ED2002F0F5FB642002F0E6FB032002F004
:10317000E3FB122002F0E0FB812002F0DDFBE820FF
:1031800002F0E6FB852002F0D7FB102002F0D4FB12
:103190007A2002F0D1FBCB2002F0DAFB392002F0DA
:1031A000CBFB2C2002F0C8FB002002F0C5FB342032
:1031B00002F0C2FB022002F0BFFBF72002F0C8FBC6
:1031C000202002F0B9FBEA2002F0C2FB002002F04E
:1031D000B3FB002002F0B0FBC02002F0B9FB1B20C3
:1031E00002F0AAFBC12002F0B3FB012002F0A4FB15
:1031F000C52002F0ADFB302002F09EFB302002F033
:103200009BFBC72002F0A4FBB72002F095FB362001
:1032100002F09EFB482002F08FFB3A2002F098FB60
:10322000552002F089FBB12002F092FB002002F051
:1032300083FB1A2002F080FBB62002F089FB0A20F3
:1032400000E096E002F078FBA22002F075FBF2208D
:1032500002F07EFB002002F06FFB262002F078FBDC
:10326000012002F069FBE02002F072FB0F2002F067
:1032700063FB2A2002F060FB282002F05DFB08209F
:1032800002F05AFB0E2002F057FB082002F054FB1C
:10329000542002F051FBA92002F04EFB432002F023
:1032A0004BFB0A2002F048FB0F2002F045FB0020F8
:1032B00002F042FB002002F03FFB002002F03CFB4A
:1032C000002002F039FBE12002F042FB002002F076
:1032D00033FB152002F030FB172002F02DFB0720F6
:1032E00002F02AFB112002F027FB062002F024FB4B
:1032F0002B2002F021FB562002F01EFB3C2002F0A6
:103300001BFB052002F018FB102002F015FB0F201C
:1033100002F012FB3F2002F00FFB3F2002F00CFBFB
:103320000F2002F009FB2B2002F012FB002002F01C
:1033300003FB002002F000FB012002F0FDFA3F2019
:1033400002F0FAFA2A2002F003FB002002F0F4FA5D
:10335000002002F0F1FA002002F0EEFAEF2002F075
:10336000EBFA112002F0F4FA292002F0F1FA01F050
:10337000C2BF2548808845F21031884240F07C87E2
:10338000ED2002F0E5FA012002F0D6FAFE2002F06C
:10339000D3FAEE2002F0DCFADE2002F0CDFA212092
:1033A00002F0CAFAF12002F0D3FA012002F0C4FAC6
:1033B000DF2002F0CDFA102002F0BEFAC42002F0A5
:1033C000C7FA8F2002F0B8FAC62002F0C1FA002036
:1033D00002F0B2FAE22002F0AFFAE22002F0ACFA18
:1033E000E22002F0A9FABF2002F0B2FAAA2002F00D
:1033F000A3FAB02002F0ACFA0D2002F09DFA0020F2
:1034000002F09AFA0D2001E02C01022002F094FA59
:10341000002002F091FA112002F08EFA002002F052
:103420008BFA192002F088FA002002F085FA212098
:1034300002F082FA002002F07FFA2D2002F07CFADE
:10344000002002F079FA3D2002F076FA002002F026
:1034500073FA5D2002F070FA002002F06DFA5D2030
:1034600002F06AFA002002F067FAB12002F070FA66
:10347000802002F061FA002002F05EFA8B2002F058
:103480005BFA002002F058FA962002F055FA00206C
:1034900002F052FAB22002F05BFA002002F04CFA7D
:1034A000002002F049FA022002F046FA002002F061
:1034B00043FA032002F040FA002002F03DFAB32064
:1034C00002F046FA002002F037FA002002F034FA47
:1034D000002002F031FA002002F02EFA002002F063
:1034E0002BFA002002F028FA002002F025FA002032
:1034F00002F022FA002002F01FFA002002F01CFA6B
:10350000002002F019FA002002F016FA002002F062
:1035100013FA002002F010FA002002F00DFA002049
:1035200002F00AFA002002F007FA002002F004FA82
:10353000002002F001FA002002F0FEF9002002F063
:10354000FBF9002002F0F8F9002002F0F5F9002064
:1035500002F0F2F9B42002F0FBF98B2002F0ECF952
:10356000002002F0E9F9962002F0E6F9002002F0CE
:10357000E3F9A12002F0E0F9002002F0DDF9B52026
:1035800002F0E6F9022002F0D7F9002002F0D4F9A7
:10359000032002F0D1F9002002F0CEF9042002F05D
:1035A000CBF9002002F0C8F9B62002F0D1F90020D2
:1035B00002F0C2F9002002F0BFF9B72002F0C8F90A
:1035C000002002F0B9F9002002F0B6F93F2002F025
:1035D000B3F9002002F0B0F95E2002F0ADF900204E
:1035E00002F0AAF9642002F0A7F9002002F0A4F981
:1035F0008C2002F0A1F9002002F09EF9AC2002F02C
:103600009BF9002002F098F9DC2002F095F90020E7
:1036100002F092F9702002F08FF9002002F08CF98C
:10362000902002F089F9002002F086F9EB2002F0E8
:1036300083F9002002F080F9DC2002F07DF90020FF
:1036400002F07AF9B82002F083F9002002F074F950
:10365000002002F071F9002002F06EF9002002F063
:103660006BF9002002F068F9002002F065F90020F3
:1036700002F062F9002002F05FF9BA2002F068F966
:10368000242002F059F9002002F056F9002002F03F
:1036900053F9002002F050F9C12002F059F920201E
:1036A00002F04AF9002002F047F9542002F044F9F0
:1036B000002002F041F9FF2002F03EF9002002F064
:1036C0003BF9C22002F044F90A2002F035F900204B
:1036D00002F032F9042002F02FF9002002F02CF958
:1036E000C32002F035F93C2002F026F9002002F058
:1036F00023F93A2002F020F9002002F01DF93920C8
:1037000002F01AF9002002F017F9372002F014F93C
:10371000002002F011F93C2002F00EF9002002F026
:103720000BF9362002F008F9002002F005F93220EA
:1037300002F002F9002002F0FFF82F2002F0FCF85E
:10374000002002F0F9F82C2002F0F6F8002002F038
:10375000F3F8292002F0F0F8002002F0EDF826201E
:1037600002F0EAF8002002F0E7F8242002F0E4F882
:10377000002002F0E1F8242002F0DEF8002002F040
:10378000DBF8232002F0D8F8002002F0D5F83C2026
:1037900002F0D2F8002002F0CFF8362002F0CCF888
:1037A000002002F0C9F8322002F0C6F8002002F032
:1037B000C3F82F2002F0C0F8002002F0BDF82C2042
:1037C00002F0BAF8002002F0B7F8292002F0B4F8AD
:1037D000002002F0B1F8262002F0AEF8002002F03E
:1037E000ABF8242002F0A8F8002002F0A5F824206D
:1037F00002F0A2F8002002F09FF8232002F09CF8CB
:10380000002002F099F8C42002F0A2F8622002F031
:1038100093F8002002F090F8052002F08DF80020C7
:1038200002F08AF8842002F087F8002002F084F881
:10383000F02002F081F8002002F07EF8182002F05B
:103840007BF8002002F078F8A42002F075F8002040
:1038500002F072F8182002F06FF8002002F06CF805
:10386000502002F069F8002002F066F80C2002F007
:1038700063F8002002F060F8172002F05DF80020E5
:1038800002F05AF8952002F057F8002002F054F8A0
:10389000F32002F051F8002002F04EF8E62002F08A
:1038A0004BF8002002F048F8C52002F051F8322011
:1038B00002F042F8002002F03FF8442002F03CF809
:1038C000002002F039F8652002F036F8002002F0FE
:1038D00033F8762002F030F8002002F02DF888202E
:1038E00002F02AF8002002F027F8C62002F030F893
:1038F000202002F021F8002002F01EF8172002F02C
:103900001BF8002002F018F8012002F015F8002042
:1039100002F012F8C72002F01BF8002002F00CF8A9
:10392000002002F009F8002002F006F8002002F062
:1039300003F8C82002F00CF8002001F0FDFF002081
:1039400001F0FAFF002001F0F7FF002001F0F4FF82
:10395000C92001F0FDFF002001F0EEFF002001F082
:10396000EBFF002001F0E8FF002001F0E5FF002060
:1039700001F0E2FF002001F0DFFF002001F0DCFF9A
:10398000002001F0D9FF002001F0D6FF002001F057
:10399000D3FF002001F0D0FF002001F0CDFF002078
:1039A00001F0CAFF002001F0C7FF002001F0C4FFB2
:1039B000002001F0C1FFE02001F0CAFF162001F055
:1039C000BBFF002001F0B8FF1C2001F0B5FF002074
:1039D00001F0B2FF212001F0AFFF002001F0ACFFA9
:1039E000362001F0A9FF002001F0A6FF462001F0DB
:1039F000A3FF002001F0A0FF522001F09DFF002056
:103A000001F09AFF642001F097FF002001F094FF7D
:103A10007A2001F091FF002001F08EFF8B2001F051
:103A20008BFF002001F088FF992001F085FF002026
:103A300001F082FFA82001F07FFF002001F07CFF51
:103A4000B92001F079FF002001F076FFC42001F0D9
:103A500073FF002001F070FFCA2001F06DFF00200D
:103A600001F06AFFD22001F067FF002001F064FF3F
:103A7000D92001F061FF002001F05EFFE02001F09D
:103A80005BFF002001F058FFF32001F055FF0020FC
:103A900001F052FFE12001F05BFF162001F04CFF26
:103AA000002001F049FF1C2001F046FF002001F03A
:103AB00043FF222001F040FF002001F03DFF3620AF
:103AC00001F03AFF002001F037FF452001F034FFFC
:103AD000002001F031FF522001F02EFF002001F004
:103AE0002BFF642001F028FF002001F025FF7A2041
:103AF00001F022FF002001F01FFF8B2001F01CFFCE
:103B0000002001F019FF992001F016FF002001F0BC
:103B100013FFA82001F010FF002001F00DFFB920D5
:103B200001F00AFF002001F007FFC42001F004FFAC
:103B3000002001F001FFCA2001F0FEFE002001F08C
:103B4000FBFED22001F0F8FE002001F0F5FED820A7
:103B500001F0F2FE002001F0EFFEE02001F0ECFEAB
:103B6000002001F0E9FEF32001F0E6FE002001F064
:103B7000E3FEE22001F0ECFE052001F0DDFE002076
:103B800001F0DAFE0B2001F0D7FE002001F0D4FE98
:103B90001B2001F0D1FE002001F0CEFE342001F008
:103BA000CBFE002001F0C8FE442001F0C5FE00203D
:103BB00001F0C2FE4F2001F0BFFE002001F0BCFE6C
:103BC000612001F0B9FE002001F0B6FE792001F07D
:103BD000B3FE002001F0B0FE882001F0ADFE002011
:103BE00001F0AAFE972001F0A7FE002001F0A4FE3C
:103BF000A62001F0A1FE002001F09EFEB72001F0FA
:103C00009BFE002001F098FEC22001F095FE0020EE
:103C100001F092FEC72001F08FFE002001F08CFE23
:103C2000D12001F089FE002001F086FED62001F0AF
:103C300083FE002001F080FEDD2001F07DFE0020EB
:103C400001F07AFEF32001F077FE002001F074FE0F
:103C5000E32001F07DFE052001F06EFE002001F062
:103C60006BFE0A2001F068FE002001F065FE1C20BA
:103C700001F062FE002001F05FFE332001F05CFEE7
:103C8000002001F059FE442001F056FE002001F012
:103C900053FE502001F050FE002001F04DFE622046
:103CA00001F04AFE002001F047FE782001F044FEBA
:103CB000002001F041FE882001F03EFE002001F0CE
:103CC0003BFE972001F038FE002001F035FEA620D3
:103CD00001F032FE002001F02FFEB72001F02CFE93
:103CE000002001F029FEC22001F026FE002001F094
:103CF00023FEC72001F020FE002001F01DFED12090
:103D000001F01AFE002001F017FED52001F014FE8C
:103D1000002001F011FEDD2001F00EFE002001F078
:103D20000BFEF32001F008FE002001F005FEE42068
:103D300001F00EFE012001F0FFFD002001F0FCFD6E
:103D4000012001F0F9FD002001F0F6FD022001F054
:103D5000F3FD002001F0F0FD2A2001F0EDFD002030
:103D600001F0EAFD3C2001F0E7FD002001F0E4FD58
:103D70004B2001F0E1FD002001F0DEFD5D2001F0AF
:103D8000DBFD002001F0D8FD742001F0D5FD0020FE
:103D900001F0D2FD842001F0CFFD002001F0CCFD28
:103DA000932001F0C9FD002001F0C6FDA22001F022
:103DB000C3FD002001F0C0FDB32001F0BDFD0020D7
:103DC00001F0BAFDBE2001F0B7FD002001F0B4FD06
:103DD000C42001F0B1FD002001F0AEFDCD2001F0C6
:103DE000ABFD002001F0A8FDD32001F0A5FD0020CF
:103DF00001F0A2FDDD2001F09FFD002001F09CFDFF
:103E0000F32001F099FD002001F096FDE52001F07E
:103E10009FFD002001F090FD002001F08DFD0020AD
:103E200001F08AFD002001F087FD022001F084FDF1
:103E3000002001F081FD292001F07EFD002001F02D
:103E40007BFD3C2001F078FD002001F075FD4B204A
:103E500001F072FD002001F06FFD5D2001F06CFDAE
:103E6000002001F069FD742001F066FD002001F0E2
:103E700063FD842001F060FD002001F05DFD9320D2
:103E800001F05AFD002001F057FDA22001F054FD81
:103E9000002001F051FDB32001F04EFD002001F0A3
:103EA0004BFDBE2001F048FD002001F045FDC4207F
:103EB00001F042FD002001F03FFDCD2001F03CFD6E
:103EC000002001F039FDD32001F036FD002001F083
:103ED00033FDDC2001F030FD002001F02DFDF3204A
:103EE00001F02AFD002001F027FDE62001F030FD61
:103EF000112001F021FD002001F01EFD342001F011
:103F00001BFD002001F018FD562001F015FD0020DA
:103F100001F012FD762001F00FFD002001F00CFDF4
:103F2000772001F009FD002001F006FD662001F078
:103F300003FD002001F000FD882001F0FDFC0020C1
:103F400001F0FAFC992001F0F7FC002001F0F4FCEC
:103F5000BB2001F0F1FC002001F0EEFC992001F003
:103F6000EBFC002001F0E8FC662001F0E5FC0020FD
:103F700001F0E2FC552001F0DFFC002001F0DCFC48
:103F8000552001F0D9FC002001F0D6FC452001F0BD
:103F9000D3FC002001F0D0FC432001F0CDFC002038
:103FA00001F0CAFC442001F0C7FC002001F0C4FC71
:103FB000E72001F0CDFC322001F0BEFC002001F032
:103FC000BBFC552001F0B8FC002001F0B5FC7620C8
:103FD00001F0B2FC002001F0AFFC662001F0ACFC67
:103FE000002001F0A9FC672001F0A6FC002001F0F0
:103FF000A3FC672001F0A0FC002001F09DFC8720BD
:1040000001F09AFC002001F097FC992001F094FC4B
:10401000002001F091FCBB2001F08EFC002001F09B
:104020008BFC992001F088FC002001F085FC7720B2
:1040300001F082FC002001F07FFC442001F07CFCB8
:10404000002001F079FC562001F076FC002001F000
:1040500073FC232001F070FC002001F06DFC332084
:1040600001F06AFC002001F067FC452001F064FCCF
:10407000002001F061FCE82001F06AFC002001F062
:104080005BFC002001F058FC992001F055FC002059
:1040900001F052FC872001F04FFC002001F04CFCA5
:1040A000882001F049FC002001F046FC772001F057
:1040B00043FC002001F040FC662001F03DFC0020A4
:1040C00001F03AFC882001F037FC002001F034FCBC
:1040D000AA2001F031FC002001F02EFCBB2001F0F1
:1040E0002BFC002001F028FC992001F025FC002089
:1040F00001F022FC662001F01FFC002001F01CFCF6
:10410000552001F019FC002001F016FC552001F0AB
:1041100013FC002001F010FC442001F00DFC0020F5
:1041200001F00AFC442001F007FC002001F004FC2F
:10413000552001F001FC002001F0FEFBE92001F018
:1041400007FCAA2001F0F8FB002001F0F5FB00209D
:1041500001F0F2FB002001F0EFFB002001F0F8FB82
:10416000AA2001F0E9FBCF2001F0F2FB002001F0D2
:10417000E3FB002001F0E0FB002001F0DDFB00206C
:1041800001F0DAFB002001F0D7FB002001F0D4FBA6
:10419000002001F0D1FB002001F0CEFB002001F057
:1041A000CBFB002001F0C8FB002001F0C5FB002084
:1041B00001F0C2FB002001F0BFFB002001F0BCFBBE
:1041C000002001F0B9FB002001F0B6FB002001F057
:1041D000B3FBF02001F0BCFB002001F0ADFB502050
:1041E00001F0AAFB002001F0A7FB002001F0A4FBD6
:1041F000002001F0A1FBF32001F0AAFB002001F058
:104200009BFBF92001F0A4FB062001F095FB102098
:1042100001F092FB292001F08FFB002001F08CFBC4
:104220003A2001F095FB552001F086FB112001F0AA
:104230008FFB64200AF021FC292001F089FB352046
:1042400001F086FB002001F077FB512001F080FB9C
:10425000FF2001F071FB532001F07AFB2C2001F0CC
:104260006BFB552001F074FB822001F065FB2C20D4
:1042700001F06EFB01F03FB8FE48808845F2105116
:1042800088427DD155214FF4704001F077FBAA217F
:104290004FF2010001F072FB52214FF2020001F0D7
:1042A0006DFB08214FF2030001F068FB01214FF282
:1042B000040001F063FB0D214FF4304001F05EFB80
:1042C0000D214BF2010001F059FB0D214BF20200D0
:1042D00001F054FB34214FF4364001F04FFB342100
:1042E0004BF2016001F04AFB34214BF2026001F015
:1042F00045FB0D214FF4314001F040FB0D214BF205
:10430000011001F03BFB0D214BF2021001F036FBD6
:1043100034214FF4374001F031FB34214BF201706E
:1043200001F02CFB34214BF2027001F027FB00213D
:104330004FF4324001F022FB00214BF2012001F04A
:104340001DFB00214BF2022001F018FB24214FF449
:10435000384001F013FB24214BF6010001F00EFB65
:1043600024214BF6020001F009FB01214FF43F40EC
:1043700001F004FB0F214FF4334001F0FFFA00E09D
:10438000FDE30F214BF2013001F0F8FA0F214BF25F
:10439000023001F0F3FA34214FF4394001F0EEFA23
:1043A00034214BF6011001F0E9FA34214BF60210EA
:1043B00001F0E4FA08214FF4354001F0DFFA08215A
:1043C0004BF2015001F0DAFA08214BF2025001F0F1
:1043D000D5FA03214FF4424001F0D0FA24214FF4E2
:1043E0003A4001F0CBFA24214BF6012001F0C6FA45
:1043F00024214BF6022001F0C1FA00214FF43C4089
:1044000001F0BCFA78214BF6014001F0B7FA002127
:104410004BF6024001F0B2FA00214FF43D4001F0AA
:10442000ADFA78214BF6015001F0A8FA00214BF6C5
:10443000025001F0A3FA00214FF43E4001F09EFA31
:1044400064214BF6016001F099FA00214FF45140CC
:1044500001F094FA33214DF2011001F08FFA00219E
:104460004DF2021001F08AFA34214DF2031001F0EE
:1044700085FA00214DF2041001F080FA3A214DF244
:10448000051001F07BFA00214DF2061001F076FADA
:104490004A214DF2071001F071FA00214DF2081087
:1044A00001F06CFA5C214DF2091001F067FA00216D
:1044B0004DF20A1001F062FA81214DF20B1001F069
:1044C0005DFA00214DF20C1001F058FAA6214DF2D0
:1044D0000D1001F053FA00214DF20E1001F04EFACA
:1044E000E5214DF20F1001F049FA01214DF21010B3
:1044F00001F044FA13214DF2111001F03FFA0121AD
:104500004DF2121001F03AFA54214DF2131001F05D
:1045100035FA01214DF2141001F030FA82214DF2EA
:10452000151001F02BFA01214DF2161001F026FAB8
:10453000CA214DF2171001F021FA02214DF2181094
:1045400001F01CFA00214DF2191001F017FA0221B6
:104550004DF21A1001F012FA01214DF21B1001F078
:104560000DFA02214DF21C1001F008FA34214DF22F
:104570001D1001F003FA02214DF21E1001F0FEF9A8
:1045800067214DF21F1001F0F9F902214DF22010C0
:1045900001F0F4F984214DF2211001F0EFF902212C
:1045A0004DF2221001F0EAF9A4214DF2231001F09E
:1045B000E5F902214DF2241001F0E0F9B7214DF2A6
:1045C000251001F0DBF902214DF2261001F0D6F999
:1045D000CF214DF2271001F0D1F902214DF2281020
:1045E00001F0CCF9DE214DF2291001F0C7F90221CA
:1045F0004DF22A1001F0C2F9F2214DF22B1001F018
:10460000BDF902214DF22C1001F0B8F9FE214DF256
:104610002D1001F0B3F903214DF22E1001F0AEF987
:1046200010214DF22F1001F0A9F903214DF23010A5
:1046300001F0A4F933214DF2311001F09FF903216B
:104640004DF2321001F09AF96D214DF2331001F064
:1046500095F900214FF4524001F090F933214DF2C9
:10466000012001F08BF900214DF2022001F086F9C2
:10467000342101E02C0102204DF2032001F07EF9EB
:1046800000214DF2042001F079F93A214DF2052084
:1046900001F074F900214DF2062001F06FF94A2172
:1046A0004DF2072001F06AF900214DF2082001F0D7
:1046B00065F95C214DF2092001F060F900214DF20D
:1046C0000A2001F05BF981214DF20B2001F056F92F
:1046D00000214DF20C2001F051F9A6214DF20D20E0
:1046E00001F04CF900214DF20E2001F047F9E521CF
:1046F0004DF20F2001F042F901214DF2102001F09E
:104700003DF913214DF2112001F038F901214DF24C
:10471000122001F033F954214DF2132001F02EF94B
:1047200001214DF2142001F029F982214DF21520CA
:1047300001F024F901214DF2162001F01FF9CA21E0
:104740004DF2172001F01AF902214DF2182001F064
:1047500015F900214DF2192001F010F902214DF256
:104760001A2001F00BF901214DF21B2001F006F98E
:1047700002214DF21C2001F001F934214DF21D20DF
:1047800001F0FCF802214DF21E2001F0F7F867213C
:104790004DF21F2001F0F2F802214DF2202001F02D
:1047A000EDF884214DF2212001F0E8F802214DF2CC
:1047B000222001F0E3F8A4214DF2232001F0DEF8DD
:1047C00002214DF2242001F0D9F8B7214DF2252025
:1047D00001F0D4F802214DF2262001F0CFF8CF21CC
:1047E0004DF2272001F0CAF802214DF2282001F0F5
:1047F000C5F8DE214DF2292001F0C0F802214DF26A
:104800002A2001F0BBF8F2214DF22B2001F0B6F87E
:1048100002214DF22C2001F0B1F8FE214DF22D20A5
:1048200001F0ACF803214DF22E2001F0A7F8102181
:104830004DF22F2001F0A2F803214DF2302001F0BB
:104840009DF833214DF2312001F098F803214DF20B
:10485000322001F093F86D214DF2332001F08EF8F3
:1048600000214FF4534001F089F833214DF201301B
:1048700001F084F800214DF2023001F07FF834217C
:104880004DF2033001F07AF800214DF2043001F0CE
:1048900075F83A214DF2053001F070F800214DF223
:1048A000063001F06BF84A214DF2073001F066F84E
:1048B00000214DF2083001F061F85C214DF2093021
:1048C00001F05CF800214DF20A3001F057F8812127
:1048D0004DF20B3001F052F800214DF20C3001F096
:1048E0004DF8A6214DF20D3001F048F800214DF2AF
:1048F0000E3001F043F8E5214DF20F3001F03EF8A3
:1049000001214DF2103001F039F813214DF2113030
:1049100001F034F801214DF2123001F02FF854214A
:104920004DF2133001F02AF801214DF2143001F05C
:1049300025F882214DF2153001F020F801214DF2C9
:10494000163001F01BF8CA214DF2173001F016F8AD
:1049500002214DF2183001F011F800214DF219300A
:1049600001F00CF802214DF21A3001F007F8012194
:104970004DF21B3001F002F802214DF21C3000F024
:10498000FDFF34214DF21D3000F0F8FF02214DF201
:104990001E3000F0F3FF67214DF21F3000F0EEFFF4
:1049A00002214DF2203000F0E9FF84214DF2213048
:1049B00000F0E4FF02214DF2223000F0DFFFA421DD
:1049C0004DF2233000F0DAFF02214DF2243000F0E6
:1049D000D5FFB7214DF2253000F0D0FF02214DF276
:1049E000263000F0CBFFCF214DF2273000F0C6FF7C
:1049F00002214DF2283000F0C1FFDE214DF22930B6
:104A000000F0BCFF02214DF22A3000F0B7FFF22186
:104A10004DF22B3000F0B2FF02214DF22C3000F0AD
:104A2000ADFFFE214DF22D3000F0A8FF03214DF225
:104A30002E3000F0A3FF10214DF22F3000F09EFF2A
:104A400003214DF2303000F099FF33214DF2313027
:104A500000F094FF03214DF2323000F08FFF6D2102
:104A60004DF2333000F08AFF00214FF4544000F043
:104A700085FF33214DF2014000F080FF00214DF20F
:104A8000024000F07BFF34214DF2034000F076FF3E
:104A900000214DF2044000F071FF3A214DF2054033
:104AA00000F06CFF00214DF2064000F067FF4A2144
:104AB0004DF2074000F062FF00214DF2084000F087
:104AC0005DFF5C214DF2094000F058FF00214DF2DE
:104AD0000A4000F053FF81214DF20B4000F04EFFE1
:104AE00000214DF20C4000F049FFA6214DF20D408F
:104AF00000F044FF00214DF20E4000F03FFFE521A1
:104B00004DF20F4000F03AFF01214DF2104000F04D
:104B100035FF13214DF2114000F030FF01214DF21D
:104B2000124000F02BFF54214DF2134000F026FFFD
:104B300001214DF2144000F021FF82214DF2154079
:104B400000F01CFF01214DF2164000F017FFCA21B2
:104B50004DF2174000F012FF02214DF2184000F014
:104B60000DFF00214DF2194000F008FF02214DF227
:104B70001A4000F003FF01214DF21B4000E002E368
:104B800000F0FCFE02214DF21C4000F0F7FE342143
:104B90004DF21D4000F0F2FE02214DF21E4000F0E9
:104BA000EDFE67214DF21F4000F0E8FE02214DF2BC
:104BB000204000F0E3FE84214DF2214000F0DEFEB3
:104BC00002214DF2224000F0D9FEA4214DF22340F3
:104BD00000F0D4FE02214DF2244000F0CFFEB721B8
:104BE0004DF2254000F0CAFE02214DF2264000F0B1
:104BF000C5FECF214DF2274000F0C0FE02214DF24C
:104C0000284000F0BBFEDE214DF2294000F0B6FE48
:104C100002214DF22A4000F0B1FEF2214DF22B406C
:104C200000F0ACFE02214DF22C4000F0A7FEFE2168
:104C30004DF22D4000F0A2FE03214DF22E4000F077
:104C40009DFE10214DF22F4000F098FE03214DF201
:104C5000304000F093FE33214DF2314000F08EFEE3
:104C600003214DF2324000F089FE6D214DF23340B8
:104C700000F084FE00214FF4554000F07FFE332108
:104C80004DF2015000F07AFE00214DF2025000F08A
:104C900075FE34214DF2035000F070FE00214DF2FC
:104CA000045000F06BFE3A214DF2055000F066FE14
:104CB00000214DF2065000F061FE4A214DF20750EE
:104CC00000F05CFE00214DF2085000F057FE5C2120
:104CD0004DF2095000F052FE00214DF20A5000F052
:104CE0004DFE81214DF20B5000F048FE00214DF2A7
:104CF0000C5000F043FEA6214DF20D5000F03EFE98
:104D000000214DF20E5000F039FEE5214DF20F501A
:104D100000F034FE01214DF2105000F02FFE13215F
:104D20004DF2115000F02AFE01214DF2125000F018
:104D300025FE54214DF2135000F020FE01214DF2CA
:104D4000145000F01BFE82214DF2155000F016FEAB
:104D500001214DF2165000F011FECA214DF21750FC
:104D600000F00CFE02214DF2185000F007FE002169
:104D70004DF2195000F002FE02214DF21A5000F0DF
:104D8000FDFD01214DF21B5000F0F8FD02214DF216
:104D90001C5000F0F3FD34214DF21D5000F0EEFDEB
:104DA00002214DF21E5000F0E9FD67214DF21F5027
:104DB00000F0E4FD02214DF2205000F0DFFD8421DF
:104DC0004DF2215000F0DAFD02214DF2225000F0A8
:104DD000D5FDA4214DF2235000F0D0FD02214DF26B
:104DE000245000F0CBFDB7214DF2255000F0C6FD58
:104DF00002214DF2265000F0C1FDCF214DF2275087
:104E000000F0BCFD02214DF2285000F0B7FDDE217C
:104E10004DF2295000F0B2FD02214DF22A5000F06F
:104E2000ADFDF2214DF22B5000F0A8FD02214DF214
:104E30002C5000F0A3FDFE214DF22D5000F09EFD00
:104E400003214DF22E5000F099FD10214DF22F500C
:104E500000F094FD03214DF2305000F08FFD33211E
:104E60004DF2315000F08AFD03214DF2325000F036
:104E700085FD6D214DF2335000F080FD00214FF48F
:104E8000564000F07BFD33214DF2016000F076FDCD
:104E900000214DF2026000F071FD34214DF20360FB
:104EA00000F06CFD00214DF2046000F067FD3A2136
:104EB0004DF2056000F062FD00214DF2066000F049
:104EC0005DFD4A214DF2076000F058FD00214DF2D2
:104ED000086000F053FD5C214DF2096000F04EFDCA
:104EE00000214DF20A6000F049FD81214DF20B6076
:104EF00000F044FD00214DF20C6000F03FFDA621C2
:104F00004DF20D6000F03AFD00214DF20E6000F010
:104F100035FDE5214DF20F6000F030FD01214DF22D
:104F2000106000F02BFD13214DF2116000F026FD02
:104F300001214DF2126000F021FD54214DF2136069
:104F400000F01CFD01214DF2146000F017FD8221DC
:104F50004DF2156000F012FD01214DF2166000F0D7
:104F60000DFDCA214DF2176000F008FD02214DF23F
:104F7000186000F003FD00214DF2196000F0FEFC06
:104F800002214DF21A6000F0F9FC01214DF21B6084
:104F900000F0F4FC02214DF21C6000F0EFFC342123
:104FA0004DF21D6000F0EAFC02214DF21E6000F09F
:104FB000E5FC67214DF21F6000F0E0FC02214DF29C
:104FC000206000F0DBFC84214DF2216000F0D6FC73
:104FD00002214DF2226000F0D1FCA4214DF22360A9
:104FE00000F0CCFC02214DF2246000F0C7FCB72198
:104FF0004DF2256000F0C2FC02214DF2266000F067
:10500000BDFCCF214DF2276000F0B8FC02214DF22B
:10501000286000F0B3FCDE214DF2296000F0AEFC08
:1050200002214DF22A6000F0A9FCF2214DF22B6022
:1050300000F0A4FC02214DF22C6000F09FFCFE2148
:105040004DF22D6000F09AFC03214DF22E6000F02D
:1050500095FC10214DF22F6000F090FC03214DF2E1
:10506000306000F08BFC33214DF2316000F086FCA3
:1050700003214DF2326000F081FC6D214DF233606E
:1050800000F07CFC55214FF4704000F077FCAA2121
:105090004FF2010000F072FC52214FF2020000F0CA
:1050A0006DFC08214FF2030000F068FC00214FF274
:1050B000040000F063FCCC214FF4314000F05EFCB2
:1050C00000214BF2011000F059FC05214FF436404D
:1050D00000F054FC70214FF4374000F04FFC702179
:1050E0004BF2017000F04AFC01214FF4384000F00F
:1050F00045FC03214BF6010000F040FC03214BF678
:10510000020000F03BFC03214BF6030000F036FCEC
:1051100002214FF43C4000F031FC00214BF60140ED
:1051200000F02CFC00214BF6024000F027FCD021BF
:105130004FF4494000F022FC02214CF6011000F02F
:105140001DFC50214CF6021000F018FC50214CF6CA
:10515000031000F013FC50214CF6041000F00EFC7C
:1051600000214FF4545000F009FC55214FF46850D1
:1051700000F004FC4FF4885000F0EAFB4FF4245098
:1051800000F0E6FBB7E07C48808841F66311884276
:10519000F8D1E22000F0DCFB1D2000F0CDFB022066
:1051A00000F0CAFB042000F0C7FBE02000F0D0FBB9
:1051B000012000F0C1FB0A2009F05FFCE02000F0B4
:1051C000C7FB032000F0B8FB0C2009F056FC0120BF
:1051D00000F0BEFBE62000F0BBFB2F2000F0ACFB94
:1051E000FF2000F0A9FBFF2000F0A6FBB02000F09C
:1051F000AFFB202000F0A0FB002000F09DFB03206F
:1052000000F09AFB40F21F3000F096FB012000F006
:1052100093FB40F2DF1000F08FFB002000F08CFBCE
:10522000B42000F095FB042000F086FB40F21F4004
:1052300000F082FB002000F07FFB2E2000F07CFBC2
:10524000002000F079FB002000F076FB002000F049
:1052500073FB002000F070FBB62000F079FB022009
:1052600000F06AFB4FF4037000F066FB002000F0D2
:1052700063FB172000F060FB152000F05DFB0020B1
:1052800000F05AFB002000F057FBF02000F060FB1C
:10529000032000F051FB292000F05AFBD02000F041
:1052A00057FB002000F048FBBE2000F051FB05201A
:1052B00000F042FBFE2000F03FFB012000F03CFB31
:1052C000002000F039FB002000F036FB002000F049
:1052D00033FBB82000F03CFB032000F02DFB012045
:1052E00000F02AFBBA2000F033FB012000F024FB81
:1052F000642000F051F82048808849F2413188420A
:1053000011D01D48808845F2103188420BD01A48D0
:10531000808845F21051884205D01748808841F6B0
:10532000631188421CD11548006820F00F004FF02F
:105330002041C1F804010846D0F8040120F470604F
:10534000C1F804010846D0F8040140F00400C1F897
:1053500004010846D0F8040140F48060C1F804015B
:105360000020FDF79DFD4FF6FF70FDF77FFD01204A
:105370000349086010BD00002C010220040100A0B8
:105380009482404208B5034800880090BDF80000B0
:1053900008BD00000000086070B52DED048B0446C8
:1053A000BE2000F0D5FA052000F0C6FA2046FBF733
:1053B00086F841EC190B9FED0E0B53EC102BFBF70D
:1053C0000CF841EC180BFBF787F885B2284600F083
:1053D000B3FA012000F0B0FAFF2000F0ADFA00208F
:1053E00000F0AAFA002000F0A7FABDEC048B70BD13
:1053F0006666666666660440F0B5054600240027CA
:1054000099488079012805D19748808841F6631131
:10541000884208D194488079F0B99348808841F651
:105420006311884218D1082D15D2DFE805F0040673
:10543000080A0C0E101206250DE007250BE00425C6
:1054400009E0052507E0012505E0002503E0032527
:1054500001E0022500BF00BF8348808849F2413146
:10546000884211D08048808845F2103188420BD0A4
:105470007D48808845F21051884205D07A4880885E
:1054800041F6631188427DD1082D1CD2DFE805F07A
:105490000406090C0F12151800BF14E044F0800434
:1054A00011E044F040040EE044F0C0040BE044F08E
:1054B000200408E044F0600405E044F0A00402E0A9
:1054C00044F0E00400BF00BF6748808845F21051F7
:1054D000884202D14FF4585700E03627624880884E
:1054E00045F2103188420DD05F48808845F2105156
:1054F000884207D05C48808841F66311884201D019
:1055000044F008042146384600F038FA56488088AE
:1055100041F6631188421DD004F0200068B1524862
:10552000008851494988884214DA4F4806884088E3
:105530004D490880084646800CE04B4800884A499F
:105540004988884206DD48480688408846490880E0
:10555000084646804448808845F21051884254D11C
:105560004149488900F0F4F9002000F0E5F93E498E
:105570004989491C88B200F0EBF9002000F0DCF901
:10558000394900E06FE04989891C88B200F0E0F9F0
:1055900035490988491EC1F30F2000F0CDF9324981
:1055A0004989C91C88B200F0D3F92F490978491EEE
:1055B000C8B200F0C1F92C49888900F0C9F900206F
:1055C00000F0BAF928498989491C88B200F0C0F96D
:1055D000002000F0B1F924498989891C88B200F0C3
:1055E000B7F921494988491EC1F30F2000F0A4F9F9
:1055F0001D498989C91C88B200F0AAF91A4989781D
:10560000491EC8B200F098F92DE01749488900F00A
:105610009FF9002000F090F9002000F08DF9124968
:105620000988491EC1F30F2000F086F90E49097858
:10563000491EC8B200F080F90B49888900F088F94A
:10564000002000F079F9002000F076F90649498839
:10565000491EC1F30F2000F06FF903498978491EF4
:10566000C8B200F069F9F0BD2C01022010B5024665
:105670000C464B48808849F24131884205D0484861
:10568000808845F21031884214D14549488900F09C
:105690005FF9101200F050F9D0B200F04DF9404916
:1056A000888900F055F9201200F046F9E0B200F0C8
:1056B00043F973E03A48808841F66311884247D144
:1056C00037488079A8B936480088401E801A82B2CF
:1056D0003349488900F03CF9002000F02DF9002002
:1056E00000F02AF9101200F027F9D0B200F024F9E6
:1056F00016E02B49488900F02BF9101200F01CF934
:10570000D0B200F019F926490988491EC1F30F20CB
:1057100000F012F922490978491EC8B200F00CF9CC
:105720001F49888900F014F9201200F005F9E0B251
:1057300000F002F91A494988491EC1F30F2000F010
:10574000FBF817498978491EC8B200F0F5F825E042
:105750001348808845F2105188421FD1104948896A
:1057600000F0F6F8101200F0E7F80D494989491CDD
:1057700088B200F0EDF8D0B200F0DEF80849888970
:1057800000F0E6F8201200F0D7F805498989491C95
:1057900088B200F0DDF8E0B200F0CEF810BD0000F5
:1057A0002C0102202DE9F04104460D461E46A018AA
:1057B000401E87B2A819401E1FFA80F85D488088F5
:1057C00049F2413188420FD05A48808845F2103161
:1057D000884209D057488079012828D155488088C7
:1057E00041F66311884222D15249488900F0B0F84D
:1057F000201200F0A1F8E0B200F09EF8381200F09C
:105800009BF8F8B200F098F84A49888900F0A0F8AF
:10581000281200F091F8E8B200F08EF84FEA282044
:1058200000F08AF808F0FF0000F086F87FE04148B9
:10583000808841F6631188422DD13E480088801A45
:10584000001B84B2A819401E86B23A49488900F06C
:105850007FF8201200F070F8E0B200F06DF8A118A7
:10586000491EC1F30F2000F067F8A118491EC8B205
:1058700000F062F82F49888900F06AF8281200F0D9
:105880005BF8E8B200F058F8301200F055F8F0B2CA
:1058900000F052F84BE02748808845F210518842CA
:1058A00045D12449488900F053F8201200F044F80B
:1058B00020494989491C88B200F04AF8E0B200F05A
:1058C0003BF81C494989891C88B200F041F838121C
:1058D00000F032F817494989C91C88B200F038F83D
:1058E000F8B200F029F81349888900F031F828123D
:1058F00000F022F80F498989491C88B200F028F885
:10590000E8B200F019F80B498989891C88B200F0C7
:105910001FF84FEA282000F00FF806498989C91CB2
:1059200088B200F015F808F0FF0000F005F8BDE8B7
:10593000F08100002C01022001B5BDF800000090AC
:10594000BDF800000149088008BD000000000860A3
:1059500001B5BDF800000090BDF8000001490880C5
:1059600008BD0000FEFF0760024800890249088068
:10597000704700002C010220FEFF0760024A1080E1
:10598000921C118070470000FEFF076010B51EF0EA
:1059900097FD27F095F910BD10B5044900231A466C
:1059A0000868194635F070FD10BD0000580002204F
:1059B00010B50648006800B910BD044908684FF0EA
:1059C000FF3135F0D1FE00BFF6E70000580002209D
:1059D00010B5012035F0CAFC084908600846006887
:1059E00058B900BFFFF7E4FF112305A209490AA037
:1059F00001F0AEF8FFF7D0FF00BF10BD5800022045
:105A00002E2E5C5372635C746F6F6C735C6C6F678B
:105A10002E630000C4BF03081B5B313B33316D5B59
:105A2000202573205D2020257320286C696E652059
:105A3000256429202D3E206D75746578206D616C7C
:105A40006C6F63206661696C0D0A1B5B306D000032
:105A500000B58FB04FF020401849086018484860E2
:105A60000020886000211548C1600161102141615A
:105A700000218161C16141624FF480518162002146
:105A8000C1624FF4804101630021416381630620BC
:105A90000890002009901A200A9000200E90032000
:105AA000019000200290062003900020079001AA98
:105AB00008A90248FCF708FF0FB000BD90F20120D2
:105AC000040100A010B500F02FFC10BD00B587B098
:105AD000142102A8FAF730FC00BF002001903A48D8
