:020000040800F2
:1000000088720010810200085D5C0008D92C00088D
:10001000595C0008BD0700081576000800000000C4
:10002000000000000000000000000000C101000806
:1000300057090008000000001D020008AD6F00080D
:100040009B0200089B0200089B0200089B0200081C
:100050009B0200089B0200089B0200089B0200080C
:100060009B0200089B0200089B0200089B020008FC
:100070009B0200089B0200089B0200089B020008EC
:100080009B0200089B0200089B0200089B020008DC
:100090009B0200089B0200089B0200089B020008CC
:1000A0009B0200089B0200089B0200089B020008BC
:1000B0009B020008BD700008CD7000089B0200087C
:1000C0009B0200089B0200089B0200089B0200089C
:1000D0009B0200089B0200089B0200089B0200088C
:1000E0009B0200089B0200089B0200089B0200087C
:1000F0009B0200089B0200089B0200089B0200086C
:100100009B020008855D00089B0200089B02000816
:100110009B0200089B0200089B0200089B0200084B
:100120009B0200089B0200089B0200082D080008A3
:100130009B0200089B0200089B0200089B0200082B
:100140009B0200089B0200089B0200089B0200081B
:100150009B0200083D0800089B0200089B02000863
:100160009B0200089B0200089B0200089B020008FB
:100170009B0200089B0200089B0200080000000090
:100180009B0200089B0200089B0200089B020008DB
:100190009B0200089B0200089B0200089B020008CB
:1001A0009B0200089B0200089B020008DFF80CD0AD
:1001B00000F028FA004800478542030888720010C2
:1001C0002C4B19680868B0E8F04F80F30988BFF33A
:1001D0006F8F4FF0000080F311887047000000001F
:1001E00008480068006880F308884FF0000080F33A
:1001F000148862B661B6BFF34F8FBFF36F8F00DF15
:1002000000BF00BF08ED00E0DFF80C00016841F41A
:1002100070010160704700BF88ED00E0EFF30980D6
:10022000BFF36F8F134B1A681EF0100F08BF20ED3D
:10023000108A20E9F04F106009B44FF0500080F3AD
:100240001188BFF34F8FBFF36F8F3AF08BFE4FF0E3
:10025000000080F3118809BC19680868B0E8F04F05
:100260001EF0100F08BFB0EC108A80F30988BFF3AE
:100270006F8F704710000010EFF30580704700008B
:100280000648804706480047FEE7FEE7FEE7FEE730
:10029000FEE7FEE7FEE7FEE7FEE7FEE7A1700008E7
:1002A000AD0100082DE9F05F0546002092469B460F
:1002B00088460646814640241BE02846414647467C
:1002C000224600F031F953465A46C01A914110D3E4
:1002D00011461846224600F018F92D1A67EB01085E
:1002E0004F4622460120002100F00FF917EB0009CC
:1002F0004E41201EA4F10104DFDC484631462A4667
:100300004346BDE8F09F40EA01039B0703D009E0A4
:1003100008C9121F08C0042AFAD203E011F8013BF1
:1003200000F8013B521EF9D27047D2B201E000F84A
:10033000012B491EFBD270470022F6E710B5134689
:100340000A4604461946FFF7F0FF204610BD10B5D7
:10035000044604E00B7800F8013B03B1491C521E2F
:10036000F8D2204610BD421C10F8011B0029FBD119
:10037000801A704710B5002200E0521C835C8C5C30
:10038000A34201D1002BF8D1D8B2E1B2401A10BD7E
:1003900030B504460020034600E05B1C934203D2C4
:1003A000E05CCD5C401BF8D030BD034611F8012B5A
:1003B00000F8012B002AF9D11846704730B50546E0
:1003C0000020034600E05B1C934205D2EC5CC85C55
:1003D000201A01D1002CF6D130BD2DE9FE4F81EA63
:1003E000030404F0004421F0004100944FF0000B9E
:1003F00023F0004350EA01045ED052EA03045BD0CC
:10040000C3F30A54C1F30A552C44A4F2F334019403
:10041000A0FB0254C1F3130141F48011C3F3130391
:1004200043F4801301FB024400FB034E840A970A45
:1004300044EA815447EA8357A4FB076802958D0A72
:1004400005FB07854FEA932C04FB0C542705029DFE
:100450004FEA065847EA1637B5EB08056EEB070C6E
:10046000870E920E47EA811742EA8312A7FB020128
:10047000B6EB0B0164EB00042B0D43EA0C335E1862
:1004800044EB1C50DA465146E7FB0201C5F3130466
:100490004FEA0B3343EA14534FEA0432019C43EA18
:1004A0000603A4F10C040294009CCDE900B400F012
:1004B0005AF803B0BDE8F08F00200146F9E70EB509
:1004C00040F2334102910021CDE900110A460B466A
:1004D00000F049F803B000BDC1F30A5210B5C1F3F2
:1004E000130140F2FF3341F480119A4201DA0020F7
:1004F00010BD40F233439A42A2F2334203DC52422F
:1005000000F012F810BD904010BD202A04DB203A04
:1005100000FA02F1002070479140C2F1200320FA56
:1005200003F3194390407047202A04DB203A21FA54
:1005300002F00021704721FA02F3D040C2F12002FC
:10054000914008431946704710B5141E73F100041A
:1005500008DA401C41F1000192185B411A4301D1B5
:1005600020F0010010BD2DE9F04D92469B4611B1DF
:10057000B1FA81F202E0B0FA80F220329046FFF741
:10058000C4FF04460F4640EA0A0041EA0B01534605
:100590005A46084313D0114653EA010019D0C8F156
:1005A00040025046FFF7C0FF05460E4650465946EA
:1005B0004246FFF7AAFF084305D0012004E0204689
:1005C0003946BDE8F08D0020054346EAE0762C432D
:1005D00037430A986305E40AA0EB08000022FD0AED
:1005E00044EA47540A3002D500200146E9E70105F4
:1005F00010196941DDE9084500196941BDE8F04D70
:10060000A2E70000064C074D06E0E06840F0010359
:1006100094E8070098471034AC42F6D3FFF7CAFDC0
:10062000500B0408900B040870B58C1810F8015B8F
:1006300015F0070301D110F8013B2A1106D110F87B
:10064000012B03E010F8016B01F8016B5B1EF9D17F
:100650002B0705D40023521E0DD401F8013BFAE705
:1006600010F8013BCB1A921C03E013F8015B01F870
:10067000015B521EF9D5A142D8D3002070BD000005
:1006800010B5044612480078072800DB10BD104959
:10069000097801EBC10202EB01120E4901EB4200A5
:1006A0003221FFF749FE0A49097801EBC10202EB4A
:1006B0000112084901EB420031222146FFF747FEB3
:1006C00003480078401C0249087000BFDEE70000C4
:1006D00024000020C00100207047000010B504462F
:1006E0002146024801F0AEFC10BD0000E0060010FB
:1006F00010B5044801F0B9FC042801D0012010BD58
:100700000020FCE7E006001010B5002400F014F80B
:10071000012801D0012010BD064801F0C7FD0446A4
:1007200034B94FF40061034801F052FB00B10124D9
:100730002046F0E7E006001008B5012000909DF883
:10074000000008BD2DE9F04104460D46164600277D
:1007500033462A462146044801F0CEFE00B1012767
:100760003846BDE8F0810000E006001010B5002218
:1007700001210248006834F041FD10BD3000002026
:100780002DE9F04104460D461646002733462A4619
:100790002146044801F064FF00B101273846BDE856
:1007A000F0810000E006001010B50022022102488E
:1007B000006834F023FD10BD3000002000BFFEE7CC
:1007C00010B53BF0D7F91249086008460068B0F54B
:1007D000805F0BD240F6B83034F089FC0C48406999
:1007E00020F00400001D0A49486110E00848006834
:1007F000B0F5A05F0BD806480068B0F5805F06D35F
:100800000348406920F00300401C0149486110BDC5
:100810009C01002010B50021034A1160516059214C
:10082000312005F085F910BD9000001010B5024888
:1008300000F0F4F910BD00006407001010B5024884
:1008400000F0ECF910BD0000C40700100146087864
:1008500010381823B0FBF3F20848805CC865032AFF
:1008600005D908686FF30900001D886503E0086872
:100870006FF309008865886D7047000054CC030849
:10088000014600208A6A8B69CBB932B1012A0DD0AA
:10089000022A03D0032A10D10EE000BFCB6A03F076
:1008A0008073B3F1807F00D1012007E0CB6AB3F100
:1008B000C07F00D1012001E000E000BF34E08B697F
:1008C000B3F5005F1AD132B1012A07D0022A03D052
:1008D000032A11D10AE000BF01200EE0CB6A03F029
:1008E0008073B3F1807F00D1012006E0CB6AB3F1C1
:1008F000C07F00D1012000E000BF15E032B1012A25
:1009000005D0022A04D0032A0CD103E000BF00BFA7
:10091000012008E0CB6A03F08073B3F1807F00D13F
:10092000012000E000BF00BF704730B504682468B4
:1009300024F4802405682C60046863608468402C7B
:1009400004D10468A2600468E16003E00468A16067
:100950000468E26030BD704772B600BFFEE7000079
:1009600008B51248006900B908BD4FF47A7034F038
:100970006BF900B9F8E70D48406810B902F0C0F90A
:10098000F2E70120094A00905168012310691A46D4
:100990003BF024F805498860084640688968884229
:1009A00001D102F0ADF900BFDEE700009C0100209C
:1009B00030B504460D4600222946204600F002F8D4
:1009C00030BD0000F0B50346012500241148407AEF
:1009D00001281CDA00200F4E767A0E4FB8553846A3
:1009E000467A001D40F82630001F467A08308255AE
:1009F0003E46707A461C7E72044604F13000087050
:100A00003A2048702F2088700020C87000252846A2
:100A1000F0BD0000E00B002070B504461D46002329
:100A2000B5F5804F13D154F822300C480340D1E97A
:100A3000000640EA06108E6840EA06208E8940EAE9
:100A400006408E693043034344F8223003E06FF0E0
:100A5000704044F82200002070BD00000000F0CF7C
:100A600010B502460023086852F8203018480340A9
:100A7000D1E901042043CC6820430C6920434C6930
:100A800020438C692043CC6920430C6A20434C6A84
:100A900020438C6A2043CC6A2043CC6B20430C6BF0
:100AA00020434C6B204303438868082801D143F05E
:100AB0004003086842F82030486BB0F5801F05D12C
:100AC000086818B110684C6B20431060002010BDFE
:100AD0008000E0FF30B5034614460022601C53F846
:100AE000202002F04042D1E9000540EA05108D685F
:100AF00040EA05208D8940EA0545088A401E45EAFE
:100B00000055087D801E45EA00608D692843024338
:100B1000601C43F82020186800F48010B0F5801F96
:100B200007D1586820F47002088A401E42EA005239
:100B30005A60002030BD000038B50025002000902C
:100B4000002439F063FE054627488069A84238D062
:100B500000202549486008468561C06928B1C869F8
:100B600039F062FF00202049C8611F48806900EB0E
:100B7000C0008400204635F0EFF81B49C8610846E4
:100B8000C06918B1C8692146FFF7D6FB1648006A4C
:100B900030B11549086A39F047FF00201249086250
:100BA00011488069C0EBC000C400204635F0D4F87D
:100BB0000D4908620846006A18B1086A2146FFF725
:100BC000BBFB0948C06900B938BD074A9169D069C3
:100BD0006A4639F035FE054600F07AFB0249C1F855
:100BE000840100BFF0E700009C010020014691F85D
:100BF0003500022803D08020486501207047052079
:100C000081F835000868006820F001000A6810606B
:100C10000020F3E70146486D70470000F8B5044630
:100C2000002000908C4800684FF41651B0FBF1F79B
:100C3000A56D2E6894F85C1008208840304098B16B
:100C40002068006800F0040070B12068006820F09F
:100C500004002168086094F85C1008208840A860AF
:100C6000606D40F00100606594F85C1001208840E0
:100C7000304068B12068406900F0800040B194F8CD
:100C80005C1001208840A860606D40F00200606543
:100C900094F85C1004208840304068B120680068F7
:100CA00000F0020040B194F85C1004208840A86075
:100CB000606D40F00400606594F85C10102088407E
:100CC000304078B32068006800F0080050B394F812
:100CD0005C1010208840A8602068006800F4802024
:100CE00080B12068006800F4002028B9206CC8B1E9
:100CF0002046216C884715E0A06C98B12046A16C75
:100D000088470FE02068006800F4807028B92068E8
:100D1000006820F0080021680860206C10B12046AF
:100D2000216C884794F85C102020884030400028CF
:100D300065D02068006800F0100000285FD094F8AB
:100D40005C1020208840A86094F83500052828D140
:100D50002068006820F0160021680860206840695B
:100D600020F0800021684861206C08B9A06C28B18F
:100D70002068006820F008002168086094F85C1082
:100D80003F208840A86000BF002084F8340000BFE6
:100D9000012084F83500206D10B12046216D884770
:100DA000F8BD2068006800F4802080B120680068E9
:100DB00000F4002028B9606C10B12046616C8847AF
:100DC0001DE0E06BD8B12046E16B884717E0206852
:100DD000006800F4807068B92068006820F0100096
:100DE0002168086000BF002084F8340000BF0120A3
:100DF00084F83500E06B10B12046E16B8847606DE8
:100E000038B3606D00F00100F0B1052084F83500C2
:100E10002068006820F001002168086000BF009889
:100E2000401C0090B84200D905E02068006800F03E
:100E300001000028F3D100BF00BF002084F8340077
:100E400000BF012084F83500E06C10B12046E16C51
:100E5000884700BFA4E700000C0000102DE9F04116
:100E60000446002500F034FA074614B90120BDE815
:100E7000F081606A00B100BF00BF002084F8340038
:100E800000BF022084F835002068006820F00100CF
:100E9000216808600AE000F01BFAC01B052805D98C
:100EA00020206065032084F83500E0E720680068B2
:100EB00000F001000028EED12068056821480540B7
:100EC000D4E901010843E1680843216908436169E5
:100ED0000843A1690843E1690843216A08430543BF
:100EE000606A042803D1D4E90B0108430543206854
:100EF00005602068456925F00705606A0543606A5A
:100F000004280DD1A06A0543E06A48B12046FFF7E6
:100F1000B7FC28B140206065012084F83500A6E7C1
:100F2000206845612046FFF791FC064694F85C1066
:100F30003F208840B06000206065012084F83500C3
:100F4000002094E73F8010F02DE9F04704460D465D
:100F500016461F464FF00008D4F8589000BF94F88A
:100F60003400012802D10220BDE8F087012084F876
:100F7000340000BF94F83500012825D1022084F800
:100F80003500002060653B46324629462046FFF783
:100F9000CCFC94F85C103F208840C9F80800206819
:100FA000006840F0160021680860206C28B12068B5
:100FB000006840F00800216808602068006840F080
:100FC00001002168086006E000BF002084F83400BA
:100FD00000BF4FF002084046C6E7000070B5044667
:100FE00000F076F906462546681C10B104480078E2
:100FF000054400BF00F06CF9801BA842FAD370BD15
:101000000800001000B587B0142102A8FFF794F97A
:101010002348006808B107B000BD012020490860DE
:1010200000BF002001901F48006840F001001D49EA
:1010300008600846006800F00100019000BF00BF92
:101040004FF680700290022003900020049003204D
:1010500005900C20069002A9134800F02BF84EF2E0
:10106000B3700290022003900020049003200590AA
:101070000C20069002A90D4800F01CF84FF4805097
:1010800002900220039000200490032005900C2081
:10109000069002A9064800F00DF800BFBBE700006B
:1010A000340000203838024000100240000C02409A
:1010B00000180240F8B502460B4600250024002027
:1010C0000021E6E0012606FA01F51E6806EA05049D
:1010D000AC4273D15E68012E08D05E68022E05D046
:1010E0005E68112E02D05E68122E13D190684F00F8
:1010F0000326BE40B0434F00DE68BE4030439060E0
:10110000506801268E40B0431E79C6F300168E400B
:1011100030435060D0684F000326BE40B0434F00BC
:101120009E68BE403043D0605E68022E02D05E688A
:10113000122E13D1CF0802F1200656F827004E07D1
:10114000F70E0F26BE40B0434F07FF0E1E69BE408C
:101150003043CF0802F1200646F8270010684F0000
:101160000326BE40B0431E7906F003064F00BE4082
:10117000304310605E6806F08056B6F1805FA8D1FB
:1011800000BF00260096454E366846F48046434F21
:101190003E603E46366806F48046009600BF00BFBB
:1011A0003F4E8F0856F827008E07370F0F26BE4098
:1011B000B0433C4EB24202D100262EE068E03A4EE7
:1011C000B24201D1012628E0384EB24201D10226B6
:1011D00023E0374EB24201D103261EE0354EB24223
:1011E00001D1042619E0344EB24201D1052614E0A3
:1011F000324EB24201D106260FE0314EB24201D149
:1012000007260AE02F4EB24201D1082605E02E4EF5
:10121000B24201D1092600E00A268F073F0FBE40E7
:1012200030431F4E8F0846F82700284E3068A043F1
:101230005E6806F48036B6F5803F00D12043234E29
:101240003060361D3068A0435E6806F40036B6F59F
:10125000003F00D120431D4E361D3060361D3068E2
:10126000A0435E6806F48016B6F5801F00D12043C7
:10127000164E08363060361D3068A0435E6806F4AE
:101280000016B6F5001F00D12043104E0C3630601A
:10129000491C1029FFF416AFF8BD00004438024085
:1012A00008380140000002400004024000080240EB
:1012B000000C0240001002400014024000180240DE
:1012C000001C02400020024000240240003C01407B
:1012D00001480068704700000000001010B5044687
:1012E0000CB9012010BD94F8390028B9002084F809
:1012F0003800204601F0ACFC242084F83900206836
:10130000C06820F400502168C860204605F08EFFB8
:101310002068006920F490402168086120684069D5
:1013200020F02200216848612068406940F00800F0
:10133000216848612068C06840F400502168C86096
:101340000020E063202084F8390084F83A0000206F
:10135000C8E770B504460CB9012070BD4CF6CC400E
:101360002168086045F2555021680860D4E90010F2
:1013700048602168A0688860FFF7AAFF054606E07C
:10138000FFF7A6FF401B302801D90320E5E72068BE
:10139000C0680028F4D14AF6AA202168086000201D
:1013A000DBE701464AF6AA200A6810600020704771
:1013B00003480068034909780844014908607047F8
:1013C000000000100800001010B50D48006840F43F
:1013D00000700B4908600846006840F480600860AF
:1013E0000846006840F480700860032000F0C8F8E8
:1013F000002000F007F800F04BF8002010BD0000BE
:10140000003C024070B588B004460025002600224A
:1014100021461E2000F076F81E2000F063F800BF81
:10142000002001901648006840F00400144908604C
:101430000846006800F00400019000BF00BF02A948
:1014400003A800F0DBF900F001FA45000D48B5FBF8
:10145000F0F0461E0C480D49086040F2E7310B4899
:10146000C160466000210161816001F033FA20B95A
:10147000064801F06DFA08B070BD0120FBE70000DE
:101480004038024040420F00000800405001002058
:1014900008B500BF002000901148006840F480406B
:1014A0000F4908600846006800F48040009000BFC3
:1014B00000BF00BF00200090081F006840F080506F
:1014C000091F08600846006800F08050009000BFC7
:1014D00000BF00220F21901E00F014F808BD00008C
:1014E0004438024001460846002809DB00F01F038B
:1014F00001229A4043099B0003F1E023C3F8002135
:1015000000BF70472DE9F05F80460D461646002764
:1015100006F092F8074639462A46334601F007009E
:10152000C0F1070ABAF1040F02D94FF0040A01E032
:10153000C0F1070AD14600F1040ABAF1070F02D23E
:101540004FF0000A01E0A0F1030AD4464FF0010A6F
:101550000AFA09FAAAF1010A0AEA020A0AFA0CFAD4
:101560004FF0010B0BFA0CFBABF1010B0BEA030B79
:101570004AEA0B042146404606F066F8BDE8F09FB3
:1015800000BF00F00702064B19684FF6FF03194031
:10159000044B0B4343EA0221014B196000BF704723
:1015A0000CED00E00000FA0500BF00BF00BF00BF67
:1015B00000BFBFF34F8F00BF00BF00BF09480068E6
:1015C00000F4E06008490843001D0649086000BFB8
:1015D00000BF00BFBFF34F8F00BF00BF00BF00BF01
:1015E00000BFFDE70CED00E00000FA0538B500246F
:1015F00000BF002000901D48006840F080501B494B
:1016000008600846006800F08050009000BF00BFEE
:10161000012017490864FFF75BFE044607E0FFF767
:1016200057FE001BB0F57A7F01D9032038BD114861
:10163000406800F48030B0F5803FF0D101200C49C3
:101640004864FFF745FE044607E0FFF741FE001B34
:10165000B0F57A7F01D90320E8E70648406800F436
:101660000030B0F5003FF0D10020DFE74038024005
:1016700000000E420070004070B504460D460CB9E3
:10168000012070BD5848006800F00F00A84209D240
:1016900055490D700846006800F00F00A84201D0BF
:1016A0000120EEE7207800F0020002281DD120780A
:1016B00000F00400042805D14C48006840F4E050D4
:1016C0004A490860207800F00800082805D14748FA
:1016D000006840F46040454908604448006820F0D4
:1016E000F000A168084341490860207800F001003B
:1016F000A8B36068012807D13C4808380068C0F3E7
:101700004040B8B90120BCE76068022802D0606898
:10171000032807D1354808380068C0F3406048B94D
:101720000120AEE7314808380068C0F3400008B92E
:101730000120A6E72D48006820F0030061680843F7
:101740002A490860FFF7C4FD064609E0FFF7C0FD1F
:10175000801B41F28831884202D9032091E707E0DB
:101760002248006800F00C006168B0EB810FEDD1F9
:101770001D48006800F00F00A84209D91A490D70F1
:101780000846006800F00F00A84201D0012078E769
:10179000207800F00400042807D11448006820F4E1
:1017A000E050E168084311490860207800F0080023
:1017B000082808D10D48006820F46040216940EAFB
:1017C000C1000A49086000F061F808490968C1F3DE
:1017D0000311074A515CC840064908600648006882
:1017E000FFF710FE00204CE7003C024008380240A2
:1017F0005CCC03080C000010040000100F220260F3
:101800000D4A126802F0030242600B4A126802F0AD
:10181000F0028260084A126802F4E052C260064A8E
:10182000126802F46042D2080261044A126802F0AF
:101830000F020A607047000008380240003C024076
:1018400001480068704700000C00001000B5FFF769
:10185000F7FF04490968C1F38221034A515CC8407B
:1018600000BD0000083802406CCC030800B5FFF74B
:10187000E7FF04490968C1F34231034A515CC8409B
:1018800000BD0000083802406CCC03082DE9F04789
:10189000002400250026A1462548006800F00C0021
:1018A00020B1042805D008283AD105E0DFF884905B
:1018B00039E0DFF8849036E01D48001F006800F032
:1018C0003F041B48001F006800F4800078B11A48EC
:1018D0001749091F0968C1F38811A0FB017001466F
:1018E000224600233846FEF7DDFC05460EE011488F
:1018F0000F49091F0968C1F38811A0FB0170014657
:10190000224600233846FEF7CDFC05460848001F56
:101910000068C0F30140401C4600B5FBF6F902E048
:10192000DFF8109000BF00BF4846BDE8F087000018
:10193000083802400024F40040787D01F8B50446E0
:101940000CB90120F8BD207800F00100002874D007
:10195000F948006800F00C0004280DD0F648006833
:1019600000F00C00082813D1F348001F006800F4B1
:101970008000B0F5800F0BD1EF4808380068C0F345
:101980004040002859D06068002856D10120D9E78E
:1019900000BF6068B0F5803F08D1E74808380068AC
:1019A00040F48030E449083908601EE06068B0F512
:1019B000A02F0DD1E0480838006840F48020DE49AF
:1019C000083908600846006840F4803008600CE080
:1019D000D9480838006820F48030D74908390860B1
:1019E0000846006820F48020086000BF606890B15D
:1019F000FFF76EFC054606E0FFF76AFC401B642813
:101A000001D903209EE7CC4808380068C0F3404065
:101A10000028F1D011E0FFF75BFC054606E0FFF778
:101A200057FC401B642801D903208BE7C2480838C3
:101A30000068C0F340400028F1D1207800F0020097
:101A400002285FD1BC48006800F00C0058B1BA48C9
:101A5000006800F00C0008281CD1B748001F00687F
:101A600000F48000B0B9B44808380068C0F3400002
:101A700020B1E068012801D0012063E7AE480838B2
:101A8000006820F0F800216940EAC100AA4908393D
:101A9000086037E0E06800B30120A8490860FFF75C
:101AA00017FC054606E0FFF713FC401B022801D98E
:101AB000032047E7A04808380068C0F3400000282A
:101AC000F1D09D480838006820F0F800216940EA0C
:101AD000C10099490839086014E00020974908605E
:101AE000FFF7F6FB054606E0FFF7F2FB401B022876
:101AF00001D9032026E7904808380068C0F3400069
:101B00000028F1D1207800F0080008282CD1606965
:101B1000A8B101208A490860FFF7DAFB054606E014
:101B2000FFF7D6FB401B022801D903200AE78248B1
:101B30006C300068C0F340000028F1D014E00020B1
:101B40007F490860FFF7C4FB054606E0FFF7C0FBCE
:101B5000401B022801D90320F4E677486C30006866
:101B6000C0F340000028F1D1207800F004000428E0
:101B700070D1002770483830006800F0805090B96C
:101B800000BF002000906C483830006840F0805062
:101B90006949383108600846006800F080500090BC
:101BA00000BF00BF01276748006800F48070B0B92B
:101BB0006448006840F4807062490860FFF788FB61
:101BC000054606E0FFF784FB401B022801D90320ED
:101BD000B8E65C48006800F480700028F2D000BFCE
:101BE000A068012808D154486830006840F001001E
:101BF0005149683108601DE0A06805280DD14E48A4
:101C00006830006840F004004B49683108600846BD
:101C1000006840F0010008600CE047486830006848
:101C200020F001004449683108600846006820F04F
:101C30000400086000BFA068A8B1FFF749FB054693
:101C400009E0FFF745FB401B41F28831884202D989
:101C5000032077E626E0384868300068C0F340008B
:101C60000028EED013E0FFF733FB054608E0FFF74E
:101C70002FFB401B41F28831884201D9032061E6E5
:101C80002D4868300068C0F340000028EFD1012FD4
:101C900007D129483830006820F080502649383173
:101CA000086000BFA069002845D02348006800F004
:101CB0000C0008285DD0A069022845D100201F49EA
:101CC0000866FFF705FB054606E0FFF701FB401B32
:101CD000022801D9032035E6174808380068C0F308
:101CE00040600028F1D1D4E907010843616A40EA65
:101CF00081110122A06AC2EB500041EA00412C2070
:101D0000005D41EA00600C49091F086001200B4991
:101D10000866FFF7DDFA054606E0FFF7D9FA401B33
:101D2000022801D903200DE6034808380068C0F3F3
:101D300040600028F1D03FE00838024000004742F0
:101D4000800E47420070004000201C490866FFF7E3
:101D5000BFFA054606E0FFF7BBFA401B022801D98F
:101D60000320EFE516480068C0F340600028F2D178
:101D700022E0A069012800D1E4E51148001D0668B1
:101D800006F48001E069814214D106F03F01206A27
:101D900081420FD147F6C0703040616A884209D154
:101DA00006F44031A06A814204D106F07061E06A15
:101DB000814201D00120C5E50020C3E50000474273
:101DC0000038024010B50446FEF786FC10BD000046
:101DD00070B58AB004460D46032084F83400606C68
:101DE000032820D0B5F5805F04D1A06B40F080506F
:101DF000A0631CE0B5F5006F07D1204604F08FFE0C
:101E00000646A06B3043A06311E03DB9204604F0C4
:101E100052FE0646A06B3043A06308E0A06B40F082
:101E20000060A06303E0A06B40F08050A063A06B53
:101E300038B1104821688863012084F834000AB062
:101E400070BD60680490A0680590E06806900795F2
:101E500060690890A069099007A807C88DE8070085
:101E6000206804A90EC903F095FF012084F834000E
:101E70000020E4E7FF0540007047000010B502466F
:101E8000506E800F0870506EC0F383604870506EC3
:101E9000C0F301608870506E000CC870B2F8640026
:101EA000000A087192F864004871906E000DC880B5
:101EB000906EC0F3034008726820805AC0F3C030AF
:101EC00048726820805AC0F3803088726820805A37
:101ED000C0F34030C8726820805AC0F300300873E5
:101EE00000204873506C002836D16820805A800545
:101EF000030DD06E43EA90700861D06EC0F3C260EB
:101F00000875D06EC0F302604875D06EC0F34250C1
:101F10008875D06EC0F38240C875D06EC0F3C230F1
:101F200008760869401C50650B7E506D03F007036E
:101F30009B1C01249C4060435065087A00F00F030D
:101F4000012098409065D2E915035B0A5843D0659B
:101F50004FF40073136621E0506C012813D1682000
:101F6000805C8006830AD06E43EA104008610869ED
:101F7000401C83025365536DD3654FF40073936522
:101F8000936D13660AE02E4813689863906B40F0D7
:101F900080509063012082F8340010BD6C20805A7C
:101FA000C0F3803001F8190F6C20805AC0F3C610BE
:101FB00048706C20805C00F07F008870106FC00F4C
:101FC000C870106FC0F341700871106FC0F3826069
:101FD0004871106FC0F383508871106FC0F3405088
:101FE000C87100200872106FC0F300404872702062
:101FF000805AC0F3C03088727020805AC0F380309D
:10200000C8727020805AC0F3403008737020805A24
:10201000C0F3003048737020805AC0F38120887369
:102020007020805AC0F30120C8737020805CC0F318
:10203000460008740120487419390020ADE70000FB
:10204000FF0540000246506C0860906C4860D06C00
:102050008860106DC860506D0861906D4861D06DEA
:102060008861106EC86100207047F8B504460020F2
:1020700000906946204604F006FD054615B1A06BA8
:102080002843A0630098C0F343263046F8BD000003
:1020900070B50446256B2068406BC0F3C03030B18A
:1020A00005F0080018B1204604F0C8FCF8E02068EC
:1020B000406BC0F30020002862D04FF4807021688C
:1020C00088632068C06B4CF23A3188432168C8634A
:1020D0002068C06A20F001002168C86205F008008D
:1020E00038B305F0020010B905F0200050B12068A7
:1020F00004F010F806462EB1A06B3043A0632046D2
:10210000FFF7BAFE40F23A5021688863012084F854
:1021100034000020206305F0010010B905F0020032
:1021200018B1204600F092FABAE0204600F093FA87
:10213000B6E005F080000028B8D005F0200050B1CE
:10214000206803F0E7FF06462EB1A06B3043A06382
:102150002046FFF791FE05F001000028A6D105F00A
:1021600002000028A2D12068C06A20F0080021687F
:10217000C862012084F83400204600F06CFA8FE039
:102180002068406BC0F3803030B105F0080018B112
:10219000204604F0F8FC83E02068406B40F23A21CE
:1021A000084008B1012000E00020002878D0206815
:1021B000406BC0F3400018B1A06B40F00200A06378
:1021C0002068406BC0F3C00018B1A06B40F008005D
:1021D000A0632068406BC0F3401018B1A06B40F0C2
:1021E0002000A0632068406BC0F3001018B1A06B02
:1021F00040F01000A0632068406BC0F3402018B18D
:10220000A06B40F00800A06340F23A702168886338
:102210002068C06B40F23A3188432168C863206867
:1022200003F078FFA16B0843A06305F0080040B1FC
:10223000012084F83400002020632046FFF71CFEB4
:102240002EE005F0800000B305F0100010B905F095
:10225000200050B11348E16B0865E06BFEF7C6FC47
:1022600098B1E06B04F045FA1AE005F0010010B9EE
:1022700005F0020050B10C48216C0865206CFEF797
:10228000B5FC10B1206C04F007FA09E00020A0634F
:10229000012084F83400002020632046FFF792FDDF
:1022A00070BD0000F36600089966000810B504468A
:1022B0000CB9012010BD94F8340020B9002020771B
:1022C000204600F053F8032084F83400204600F044
:1022D0000BF808B10120EDE70020A0632063012086
:1022E00084F834000020E5E770B58AB00446002089
:1022F000049005900690079008907620099007A812
:1023000007C88DE80700206804A90EC903F042FD44
:10231000064616B101200AB070BD002012490860BF
:10232000206803F051FD01200F49A039C1F8A00039
:10233000204604F01DFB05463DB1012084F8340021
:10234000A06B2843A0630120E5E7204604F08FFA44
:1023500005463DB1012084F83400A06B2843A063FA
:102360000120D8E70020D6E7A080254210B586B02E
:102370000446142101A8FDF7DFFF58492068884270
:102380007ED100BF002000905548006840F40060F6
:10239000534908600846006800F40060009000BFE0
:1023A00000BF00BF002000904D481438006840F086
:1023B00004004B49143908600846006800F0040026
:1023C000009000BF00BF00BF0020009008460068DA
:1023D00040F0080008600846006800F0080000901F
:1023E00000BF00BF4FF4F85001900220029000207F
:1023F0000390032004900C20059001A93948FEF7B2
:1024000059FE042001900220029000200390032036
:1024100004900C20059001A93348FEF74BFE334889
:10242000334908604FF00060486000213048816007
:10243000C1604FF48061016189004161890081615F
:102440002021C161002101620421416203218162D6
:102450004FF40001C16289100163FEF7FFFC08B16F
:10246000FEF77AFA00BF22482064846300BF1F4849
:102470004830204908604FF000604860402100E08B
:1024800029E01C4881600021C1604FF48061016136
:1024900089004161890081612021C16100210162BF
:1024A00004214162032181624FF40001C16289105D
:1024B0000163FEF7D3FC08B1FEF74EFA00BF0D48EA
:1024C000E063846300BF002205213120FFF71AF882
:1024D0003120FFF707F806B010BD0000002C0140C6
:1024E0004438024000080240000C02405864024098
:1024F00064070010C40700102DE9F04387B00446BC
:102500000F4691461E46C8463FB9A06B40F000609A
:10251000A063012007B0BDE8F08394F834000128DF
:1025200071D10020A06308EB0601E06D814205D95E
:10253000A06B40F00070A0630120EBE7032084F85B
:10254000340000202168C8622068C06B40F22A3144
:1025500008432168C8633948216CC8633848216C36
:10256000C8640020216C086572029308226802F199
:1025700080013A46206CFEF7E7FC80B12068C06B12
:1025800020F495702168C8632E4821688863A06B89
:1025900040F08040A063012084F83400BAE70120B5
:1025A00029490860606C012801D04FEA48284FF49F
:1025B0000071206803F06AFC05464DB1214821688E
:1025C0008863A06B2843A063012084F83400A1E74E
:1025D0004FF0FF3001907002029090200390022093
:1025E0000490002005900120069001A9206803F0C6
:1025F000A4FB012E08D9822020634146206803F005
:10260000ADFC054607E016E08120206341462068C6
:1026100003F0C0FC054665B10A4821688863A06BD9
:102620002843A063012084F83400002020630120A7
:1026300070E700206EE702206CE70000516600089A
:10264000DD650008FF0540008C85254210B5044675
:10265000FEF78CF810BD10B50446FEF7A5F810BDC6
:102660002DE9F04387B00446884691461E464F4602
:10267000B8F1000F07D1A06B40F00060A06301200B
:1026800007B0BDE8F08394F83400012877D100202A
:10269000A063B919E06D814205D9A06B40F00070CC
:1026A000A0630120ECE7032084F8340000202168B7
:1026B000C8622068C06B40F21A2108432168C863D1
:1026C0003948E16BC8633948E16BC8640020E16BAD
:1026D0000865606C012800D07F024FF4007120680B
:1026E00003F0D4FB05464DB1314821688863A06BE7
:1026F0002843A063012084F83400C1E7012E07D9E4
:10270000A02020633946206803F022FD054606E03C
:10271000902020633946206803F036FD054665B1F8
:10272000234821688863A06B2843A063012084F8B4
:102730003400002020630120A2E701201D49086029
:1027400071028B08216801F180024146E06BFEF7BF
:10275000FBFBA8B12068C06B40F21A2188432168B6
:10276000C863134821688863A06B40F08040A06371
:10277000012084F8340000202063012080E711E06C
:102780004FF0FF30019070020290902003900020E3
:10279000049005900120069001A9206803F0CDFA6D
:1027A00000206DE702206BE7E1660008DD650008A8
:1027B000FF0540008C85254270B504460E4615463F
:1027C0000CB9012070BD94F8490028B9002084F8A4
:1027D0004800204600F01CF804F108012068FEF7CC
:1027E0003FF93146A2682068FEF774F92946236B49
:1027F000D4E90102FEF710F9A168206850F8210021
:1028000040F00100A268216841F822000020D9E7C9
:1028100010B50446FEF7F6FB10BD70477047000088
:1028200030B502460B4600BF92F83C00012801D1AA
:10283000022030BD012082F83C0000BF022082F857
:102840003D00106844681068816824F070041868BE
:10285000044310684460184D1068A8421BD01068EB
:10286000B0F1804F17D0154D1068A84213D0144D09
:102870001068A8420FD0134D1068A8420BD0124D1B
:102880001068A84207D0114D1068A84203D0104D1F
:102890001068A84205D121F08001586801431068F2
:1028A0008160012082F83D0000BF002082F83C00DA
:1028B00000BF00BFBDE70000000001400004004071
:1028C00000080040000C00400004014000400140AE
:1028D0000018004010B504460CB9012010BD94F852
:1028E0003D0028B9002084F83C00204600F00CF898
:1028F000022084F83D00211D206804F0EFFB012038
:1029000084F83D000020E9E738B504460E49206808
:10291000884217D100BF002000900C48006840F0AA
:1029200002000A4908600846006800F002000090B2
:1029300000BF00BF002201211D20FEF7E3FD1D2086
:10294000FEF7D0FD38BD00000004004040380240D2
:1029500001460868C06840F001000B68D86008684C
:10296000806800F00702062A05D00868006840F079
:1029700001000B681860002070472DE9F041044603
:102980000D4600BF94F83C00012802D10220BDE8AA
:10299000F081012084F83C0000BF022084F83D0053
:1029A0002068866826F0770626F47F4620688660D1
:1029B0002868502833D00CDC202850D004DC0028B4
:1029C0004BD0102851D149E0302849D040284CD173
:1029D00039E060282DD0702807D0B0F5805F03D093
:1029E000B0F5005F41D10DE040E0D5E902136A681F
:1029F000206804F0DFFB2068866846F077062068D0
:102A0000866033E0D5E902136A68206804F0D2FBDF
:102A10002068806840F480402168886026E0EA6889
:102A20006968206804F0DAFB5021206804F0CDFBCF
:102A30001CE0EA686968206804F0E3FB6021206814
:102A400004F0C3FB12E0EA686968206804F0C6FB82
:102A50004021206804F0B9FB08E000BF00BF00BFC0
:102A60002968206804F0B1FB00E000BF00BF01202E
:102A700084F83D0000BF002084F83C0000BF00BF88
:102A800085E7704710B5044620680069C0F3400030
:102A9000D8B12068C068C0F34000B0B16FF0020048
:102AA00021680861012020772068806900F0030018
:102AB00018B12046FFF7E5FF05E0204600F0ADF82D
:102AC000204600F0ABF80020207720680069C0F3B2
:102AD0008000D8B12068C068C0F38000B0B16FF04A
:102AE000040021680861022020772068806900F4D2
:102AF000407018B12046FFF7C4FF05E0204600F003
:102B00008CF8204600F08AF80020207720680069C1
:102B1000C0F3C000D8B12068C068C0F3C000B0B135
:102B20006FF0080021680861042020772068C069E0
:102B300000F0030018B12046FFF7A3FF05E0204690
:102B400000F06BF8204600F069F80020207720683C
:102B50000069C0F30010D8B12068C068C0F300104D
:102B6000B0B16FF01000216808610820207720685C
:102B7000C06900F4407018B12046FFF782FF05E0FD
:102B8000204600F04AF8204600F048F80020207760
:102B90002068006900F0010058B12068C06800F0AA
:102BA000010030B16FF0010021680861204600F09B
:102BB00037F820680069C0F3C01058B12068C068B9
:102BC000C0F3C01030B16FF080002168086120466A
:102BD000FFF723FE20680069C0F3801058B1206819
:102BE000C068C0F3801030B16FF040002168086108
:102BF000204600F02BF820680069C0F3401058B15F
:102C00002068C068C0F3401030B16FF02000216828
:102C100008612046FFF702FE10BD704770470000B4
:102C200010B5044607492068884202D1FEF7C0FB70
:102C300006E005492068884202D1012031F0BCF845
:102C400010BD000000080040000400407047000074
:102C500010B586B00446142101A8FDF76DFB1B4991
:102C6000206888422FD100BF0020009018480068DB
:102C700040F01000164908600846006800F0100097
:102C8000009000BF00BF00BF002000901048143823
:102C9000006840F001000E491439086008460068D9
:102CA00000F00100009000BF00BF48150190122005
:102CB000029000200390032004900720059001A9B2
:102CC0000448FEF7F7F906B010BD000000100140FF
:102CD000443802400000024000BFFEE710B506483D
:102CE000064908600620486040F6FF71034881608D
:102CF000FEF72FFB10BD00000030004090010020C7
:102D000010B50248FEF74DFB10BD000090010020F9
:102D100070B50725002406E0044951F82400FDF7AA
:102D2000AFFC601CC4B2AC42F6DB70BD04000020F6
:102D300000B587B000BF002001902648006840F031
:102D40000100244908600846006800F00100019075
:102D500000BF00BF00BF002001900846006840F09F
:102D6000040008600846006800F00400019000BFFD
:102D700000BF00BF002001900846006840F08000BE
:102D800008600846006800F08000019000BF00BFA6
:102D9000012002900020039002200490032005905F
:102DA00002A90D48FEF786F94FF40050029000206A
:102DB0000390012004900320059002A90748FEF724
:102DC00079F90C20029002A90548FEF773F907B0C3
:102DD00000BD000030380240000002400008024000
:102DE000001C024070B5044600260948058840884A
:102DF00045430021084602F06FFC02F021FD00BFB0
:102E000002E004490C80761CAE42FAD370BD00008B
:102E1000900600100000086010B504465548847103
:102E2000002C51D1F020534908804FF4A070488005
:102E30000846808849F24131884205D04D48808853
:102E400045F21031884214D12C204A4908812A20A9
:102E500048812B2088810846808845F210318842BD
:102E600006D14FF4A070434908804FF4F0704880B9
:102E70007BE04048808845F21051884210D14FF4E1
:102E800030503C4908814FF4285048814FF42C5071
:102E900088814FF4F07008804FF44870488064E0F7
:102EA0003448808841F6631188425ED12C20314934
:102EB00008812B2048812A2088814FF4F0700880F7
:102EC0004FF44870488050E04FF4A07029490880C2
:102ED000F02048800846808849F24131884205D078
:102EE0002448808845F21031884207D12C2021499E
:102EF00008812A2048812B20888129E01D4880886C
:102F000045F21051884210D14FF4305019490881D0
:102F10004FF4285048814FF42C5088814FF448706A
:102F200008804FF4F070488012E01248808841F623
:102F3000631188420CD12C200E4908812A20488137
:102F40002B2088814FF4487008804FF4F07048803F
:102F50000848808845F21031884206D14FF4F0705D
:102F6000044908804FF4A0704880002002F07AFAEB
:102F700010BD00009006001030B504460D463E48D6
:102F8000808849F24131884205D03B48808845F22B
:102F90001031884214D13849488902F045FC20128A
:102FA00002F036FCE0B202F033FC3349888902F0CB
:102FB0003BFC281202F02CFCE8B202F029FC54E0A1
:102FC0002D48808845F21051884220D12A494889ED
:102FD00002F02AFC201202F01BFC27494989491CF7
:102FE00088B202F021FCE0B202F012FC224988898A
:102FF00002F01AFC281202F00BFC1F498989491CB7
:1030000088B202F011FCE8B202F002FC2DE01A488E
:10301000808841F66311884227D11748807920B90A
:1030200015480088401E001B84B21349488902F0ED
:10303000FBFB201202F0ECFBE0B202F0E9FB2012F5
:1030400002F0E6FBE0B202F0E3FB0B49888902F0F4
:10305000EBFB281202F0DCFBE8B202F0D9FB2812ED
:1030600002F0D6FBE8B202F0D3FB03480089034923
:103070000880891C0A8030BD90060010FEFF0760A2
:1030800010B5D32002F0D0FB02F0B2F9FE498880DF
:1030900002F0AEF9FC49888002F0AAF9FA4988806A
:1030A000084680884FF6FF7101EA0020F6498880C3
:1030B00002F09EF9F44989880843F349888008465C
:1030C000808849F24131884278D0D42002F0ACFBAC
:1030D00002F08EF9EC49888002F08AF9EA4988808A
:1030E00002F086F9E8498880084680884FF6FF712B
:1030F00001EA0020E449888002F07AF9E2498988EF
:103100000843E14988800846808845F210318842AA
:1031100054D04FF45A4002F087FB02F069F9DA49C3
:1031200088804FF45B4002F07FFB02F061F9D649E2
:103130008880084680884FF6FF7101EA0020D24956
:1031400088804FF45C4002F06FFB02F051F9CE49E9
:1031500089880843CC49888008468088B0F5004FAC
:1031600002D145F210508880C748808845F210513E
:10317000884223D0A12002F057FB02F039F9C2495E
:10318000888002F035F9C0498880084680884FF66B
:10319000FF7101EA0020BC49888002F029F9BA4990
:1031A00089880843B84988800846808845F261715B
:1031B000884203D141F66310B3498880B2488088C1
:1031C00049F2413188427CD1CF2002F02DFB002012
:1031D00002F01EFBC12002F01BFB302002F018FBA6
:1031E000ED2002F021FB642002F012FB032002F02C
:1031F0000FFB122002F00CFB812002F009FBE820FB
:1032000002F012FB852002F003FB102002F000FB0D
:103210007A2002F0FDFACB2002F006FB392002F002
:10322000F7FA2C2002F0F4FA002002F0F1FA342030
:1032300002F0EEFA022002F0EBFAF72002F0F4FAC4
:10324000202002F0E5FAEA2002F0EEFA002002F077
:10325000DFFA002002F0DCFAC02002F0E5FA1B20C1
:1032600002F0D6FAC12002F0DFFA012002F0D0FA13
:10327000C52002F0D9FA302002F0CAFA302002F05C
:10328000C7FAC72002F0D0FAB72002F0C1FA362000
:1032900002F0CAFA482002F0BBFA3A2002F0C4FA5F
:1032A000552002F0B5FAB12002F0BEFA002002F07B
:1032B000AFFA1A2002F0ACFAB62002F0B5FA0A20F2
:1032C00000E096E002F0A4FAA22002F0A1FAF220B7
:1032D00002F0AAFA002002F09BFA262002F0A4FADB
:1032E000012002F095FAE02002F09EFA0F2002F091
:1032F0008FFA2A2002F08CFA282002F089FA08209E
:1033000002F086FA0E2002F083FA082002F080FA1A
:10331000542002F07DFAA92002F07AFA432002F04C
:1033200077FA0A2002F074FA0F2002F071FA0020F6
:1033300002F06EFA002002F06BFA002002F068FA48
:10334000002002F065FAE12002F06EFA002002F09F
:103350005FFA152002F05CFA172002F059FA0720F4
:1033600002F056FA112002F053FA062002F050FA49
:103370002B2002F04DFA562002F04AFA3C2002F0CF
:1033800047FA052002F044FA102002F041FA0F201B
:1033900002F03EFA3F2002F03BFA3F2002F038FAFA
:1033A0000F2002F035FA2B2002F03EFA002002F046
:1033B0002FFA002002F02CFA012002F029FA3F2017
:1033C00002F026FA2A2002F02FFA002002F020FA5A
:1033D000002002F01DFA002002F01AFAEF2002F09D
:1033E00017FA112002F020FA292002F01DFA01F04C
:1033F000B9BF2548808845F21031884240F079876E
:10340000ED2002F011FA012002F002FAFE2002F093
:10341000FFF9EE2002F008FADE2002F0F9F921208F
:1034200002F0F6F9F12002F0FFF9012002F0F0F9C4
:10343000DF2002F0F9F9102002F0EAF9C42002F0CE
:10344000F3F98F2002F0E4F9C62002F0EDF9002034
:1034500002F0DEF9E22002F0DBF9E22002F0D8F916
:10346000E22002F0D5F9BF2002F0DEF9AA2002F036
:10347000CFF9B02002F0D8F90D2002F0C9F90020F0
:1034800002F0C6F90D2001E09006001002F0C0F92C
:10349000002002F0BDF9112002F0BAF9002002F07C
:1034A000B7F9192002F0B4F9002002F0B1F9212097
:1034B00002F0AEF9002002F0ABF92D2002F0A8F9DD
:1034C000002002F0A5F93D2002F0A2F9002002F050
:1034D0009FF95D2002F09CF9002002F099F95D202F
:1034E00002F096F9002002F093F9B12002F09CF965
:1034F000802002F08DF9002002F08AF98B2002F082
:1035000087F9002002F084F9962002F081F900206A
:1035100002F07EF9B22002F087F9002002F078F97B
:10352000002002F075F9022002F072F9002002F08A
:103530006FF9032002F06CF9002002F069F9B32062
:1035400002F072F9002002F063F9002002F060F945
:10355000002002F05DF9002002F05AF9002002F08C
:1035600057F9002002F054F9002002F051F9002030
:1035700002F04EF9002002F04BF9002002F048F969
:10358000002002F045F9002002F042F9002002F08C
:103590003FF9002002F03CF9002002F039F9002048
:1035A00002F036F9002002F033F9002002F030F981
:1035B000002002F02DF9002002F02AF9002002F08C
:1035C00027F9002002F024F9002002F021F9002060
:1035D00002F01EF9B42002F027F98B2002F018F94E
:1035E000002002F015F9962002F012F9002002F0F6
:1035F0000FF9A12002F00CF9002002F009F9B52022
:1036000002F012F9022002F003F9002002F000F9A2
:10361000032002F0FDF8002002F0FAF8042002F086
:10362000F7F8002002F0F4F8B62002F0FDF80020D0
:1036300002F0EEF8002002F0EBF8B72002F0F4F808
:10364000002002F0E5F8002002F0E2F83F2002F04E
:10365000DFF8002002F0DCF85E2002F0D9F800204C
:1036600002F0D6F8642002F0D3F8002002F0D0F87F
:103670008C2002F0CDF8002002F0CAF8AC2002F055
:10368000C7F8002002F0C4F8DC2002F0C1F80020E6
:1036900002F0BEF8702002F0BBF8002002F0B8F88B
:1036A000902002F0B5F8002002F0B2F8EB2002F012
:1036B000AFF8002002F0ACF8DC2002F0A9F80020FE
:1036C00002F0A6F8B82002F0AFF8002002F0A0F84F
:1036D000002002F09DF8002002F09AF8002002F08D
:1036E00097F8002002F094F8002002F091F80020F2
:1036F00002F08EF8002002F08BF8BA2002F094F865
:10370000242002F085F8002002F082F8002002F068
:103710007FF8002002F07CF8C12002F085F820201C
:1037200002F076F8002002F073F8542002F070F8EE
:10373000002002F06DF8FF2002F06AF8002002F08D
:1037400067F8C22002F070F80A2002F061F8002049
:1037500002F05EF8042002F05BF8002002F058F856
:10376000C32002F061F83C2002F052F8002002F081
:103770004FF83A2002F04CF8002002F049F83920C6
:1037800002F046F8002002F043F8372002F040F83B
:10379000002002F03DF83C2002F03AF8002002F050
:1037A00037F8362002F034F8002002F031F83220E9
:1037B00002F02EF8002002F02BF82F2002F028F85B
:1037C000002002F025F82C2002F022F8002002F060
:1037D0001FF8292002F01CF8002002F019F826201A
:1037E00002F016F8002002F013F8242002F010F87E
:1037F000002002F00DF8242002F00AF8002002F068
:1038000007F8232002F004F8002002F001F83C2021
:1038100001F0FEFF002001F0FBFF362001F0F8FF71
:10382000002001F0F5FF322001F0F2FF002001F04E
:10383000EFFF2F2001F0ECFF002001F0E9FF2C202A
:1038400001F0E6FF002001F0E3FF292001F0E0FF96
:10385000002001F0DDFF262001F0DAFF002001F05A
:10386000D7FF242001F0D4FF002001F0D1FF242055
:1038700001F0CEFF002001F0CBFF232001F0C8FFB4
:10388000002001F0C5FFC42001F0CEFF622001F04E
:10389000BFFF002001F0BCFF052001F0B9FF0020B0
:1038A00001F0B6FF842001F0B3FF002001F0B0FF6B
:1038B000F02001F0ADFF002001F0AAFF182001F078
:1038C000A7FF002001F0A4FFA42001F0A1FF002029
:1038D00001F09EFF182001F09BFF002001F098FFEF
:1038E000502001F095FF002001F092FF0C2001F024
:1038F0008FFF002001F08CFF172001F089FF0020CE
:1039000001F086FF952001F083FF002001F080FF89
:10391000F32001F07DFF002001F07AFFE62001F0A6
:1039200077FF002001F074FFC52001F07DFF3220F9
:1039300001F06EFF002001F06BFF442001F068FFF2
:10394000002001F065FF652001F062FF002001F01A
:103950005FFF762001F05CFF002001F059FF882016
:1039600001F056FF002001F053FFC62001F05CFF7C
:10397000202001F04DFF002001F04AFF172001F048
:1039800047FF002001F044FF012001F041FF00202B
:1039900001F03EFFC72001F047FF002001F038FF93
:1039A000002001F035FF002001F032FF002001F07F
:1039B0002FFFC82001F038FF002001F029FF002070
:1039C00001F026FF002001F023FF002001F020FF7E
:1039D000C92001F029FF002001F01AFF002001F0AA
:1039E00017FF002001F014FF002001F011FF00205C
:1039F00001F00EFF002001F00BFF002001F008FF96
:103A0000002001F005FF002001F002FF002001F07E
:103A1000FFFE002001F0FCFE002001F0F9FE002076
:103A200001F0F6FE002001F0F3FE002001F0F0FEB0
:103A3000002001F0EDFEE02001F0F6FE162001F07E
:103A4000E7FE002001F0E4FE1C2001F0E1FE002072
:103A500001F0DEFE212001F0DBFE002001F0D8FEA7
:103A6000362001F0D5FE002001F0D2FE462001F004
:103A7000CFFE002001F0CCFE522001F0C9FE002054
:103A800001F0C6FE642001F0C3FE002001F0C0FE7C
:103A90007A2001F0BDFE002001F0BAFE8B2001F07B
:103AA000B7FE002001F0B4FE992001F0B1FE002025
:103AB00001F0AEFEA82001F0ABFE002001F0A8FE50
:103AC000B92001F0A5FE002001F0A2FEC42001F003
:103AD0009FFE002001F09CFECA2001F099FE00200C
:103AE00001F096FED22001F093FE002001F090FE3E
:103AF000D92001F08DFE002001F08AFEE02001F0C7
:103B000087FE002001F084FEF32001F081FE0020FA
:103B100001F07EFEE12001F087FE162001F078FE24
:103B2000002001F075FE1C2001F072FE002001F063
:103B30006FFE222001F06CFE002001F069FE3620AD
:103B400001F066FE002001F063FE452001F060FEFA
:103B5000002001F05DFE522001F05AFE002001F02D
:103B600057FE642001F054FE002001F051FE7A203F
:103B700001F04EFE002001F04BFE8B2001F048FECC
:103B8000002001F045FE992001F042FE002001F0E6
:103B90003FFEA82001F03CFE002001F039FEB920D4
:103BA00001F036FE002001F033FEC42001F030FEAB
:103BB000002001F02DFECA2001F02AFE002001F0B5
:103BC00027FED22001F024FE002001F021FED820A3
:103BD00001F01EFE002001F01BFEE02001F018FEA7
:103BE000002001F015FEF32001F012FE002001F08C
:103BF0000FFEE22001F018FE052001F009FE002072
:103C000001F006FE0B2001F003FE002001F000FE93
:103C10001B2001F0FDFD002001F0FAFD342001F031
:103C2000F7FD002001F0F4FD442001F0F1FD00203B
:103C300001F0EEFD4F2001F0EBFD002001F0E8FD6A
:103C4000612001F0E5FD002001F0E2FD792001F0A6
:103C5000DFFD002001F0DCFD882001F0D9FD00200F
:103C600001F0D6FD972001F0D3FD002001F0D0FD3A
:103C7000A62001F0CDFD002001F0CAFDB72001F023
:103C8000C7FD002001F0C4FDC22001F0C1FD0020ED
:103C900001F0BEFDC72001F0BBFD002001F0B8FD22
:103CA000D12001F0B5FD002001F0B2FDD62001F0D9
:103CB000AFFD002001F0ACFDDD2001F0A9FD0020EA
:103CC00001F0A6FDF32001F0A3FD002001F0A0FD0E
:103CD000E32001F0A9FD052001F09AFD002001F08C
:103CE00097FD0A2001F094FD002001F091FD1C20B9
:103CF00001F08EFD002001F08BFD332001F088FDE6
:103D0000002001F085FD442001F082FD002001F03B
:103D10007FFD502001F07CFD002001F079FD622044
:103D200001F076FD002001F073FD782001F070FDB8
:103D3000002001F06DFD882001F06AFD002001F0F7
:103D400067FD972001F064FD002001F061FDA620D1
:103D500001F05EFD002001F05BFDB72001F058FD91
:103D6000002001F055FDC22001F052FD002001F0BD
:103D70004FFDC72001F04CFD002001F049FDD1208E
:103D800001F046FD002001F043FDD52001F040FD8B
:103D9000002001F03DFDDD2001F03AFD002001F0A2
:103DA00037FDF32001F034FD002001F031FDE42067
:103DB00001F03AFD012001F02BFD002001F028FD6B
:103DC000012001F025FD002001F022FD022001F07C
:103DD0001FFD002001F01CFD2A2001F019FD00202C
:103DE00001F016FD3C2001F013FD002001F010FD54
:103DF0004B2001F00DFD002001F00AFD5D2001F0D7
:103E000007FD002001F004FD742001F001FD0020F9
:103E100001F0FEFC842001F0FBFC002001F0F8FC26
:103E2000932001F0F5FC002001F0F2FCA22001F04B
:103E3000EFFC002001F0ECFCB32001F0E9FC0020D5
:103E400001F0E6FCBE2001F0E3FC002001F0E0FC04
:103E5000C42001F0DDFC002001F0DAFCCD2001F0EF
:103E6000D7FC002001F0D4FCD32001F0D1FC0020CD
:103E700001F0CEFCDD2001F0CBFC002001F0C8FCFD
:103E8000F32001F0C5FC002001F0C2FCE52001F0A8
:103E9000CBFC002001F0BCFC002001F0B9FC0020AC
:103EA00001F0B6FC002001F0B3FC022001F0B0FCF0
:103EB000002001F0ADFC292001F0AAFC002001F057
:103EC000A7FC3C2001F0A4FC002001F0A1FC4B2049
:103ED00001F09EFC002001F09BFC5D2001F098FCAD
:103EE000002001F095FC742001F092FC002001F00C
:103EF0008FFC842001F08CFC002001F089FC9320D1
:103F000001F086FC002001F083FCA22001F080FC7F
:103F1000002001F07DFCB32001F07AFC002001F0CC
:103F200077FCBE2001F074FC002001F071FCC4207D
:103F300001F06EFC002001F06BFCCD2001F068FC6C
:103F4000002001F065FCD32001F062FC002001F0AC
:103F50005FFCDC2001F05CFC002001F059FCF32048
:103F600001F056FC002001F053FCE62001F05CFC5F
:103F7000112001F04DFC002001F04AFC342001F03A
:103F800047FC002001F044FC562001F041FC0020D9
:103F900001F03EFC762001F03BFC002001F038FCF3
:103FA000772001F035FC002001F032FC662001F0A2
:103FB0002FFC002001F02CFC882001F029FC0020BF
:103FC00001F026FC992001F023FC002001F020FCE8
:103FD000BB2001F01DFC002001F01AFC992001F02B
:103FE00017FC002001F014FC662001F011FC0020F9
:103FF00001F00EFC552001F00BFC002001F008FC44
:10400000552001F005FC002001F002FC452001F0E4
:10401000FFFB002001F0FCFB432001F0F9FB002036
:1040200001F0F6FB442001F0F3FB002001F0F0FB6F
:10403000E72001F0F9FB322001F0EAFB002001F05B
:10404000E7FB552001F0E4FB002001F0E1FB7620C6
:1040500001F0DEFB002001F0DBFB662001F0D8FB65
:10406000002001F0D5FB672001F0D2FB002001F019
:10407000CFFB672001F0CCFB002001F0C9FB8720BB
:1040800001F0C6FB002001F0C3FB992001F0C0FB4A
:10409000002001F0BDFBBB2001F0BAFB002001F0C5
:1040A000B7FB992001F0B4FB002001F0B1FB7720B1
:1040B00001F0AEFB002001F0ABFB442001F0A8FBB7
:1040C000002001F0A5FB562001F0A2FB002001F02A
:1040D0009FFB232001F09CFB002001F099FB332083
:1040E00001F096FB002001F093FB452001F090FBCE
:1040F000002001F08DFBE82001F096FB002001F08C
:1041000087FB002001F084FB992001F081FB002057
:1041100001F07EFB872001F07BFB002001F078FBA3
:10412000882001F075FB002001F072FB772001F080
:104130006FFB002001F06CFB662001F069FB0020A2
:1041400001F066FB882001F063FB002001F060FBBA
:10415000AA2001F05DFB002001F05AFBBB2001F01A
:1041600057FB002001F054FB992001F051FB002087
:1041700001F04EFB662001F04BFB002001F048FBF4
:10418000552001F045FB002001F042FB552001F0D5
:104190003FFB002001F03CFB442001F039FB0020F4
:1041A00001F036FB442001F033FB002001F030FB2E
:1041B000552001F02DFB002001F02AFBE92001F041
:1041C00033FBAA2001F024FB002001F021FB00209A
:1041D00001F01EFB002001F01BFB002001F024FB7E
:1041E000AA2001F015FBCF2001F01EFB002001F0FA
:1041F0000FFB002001F00CFB002001F009FB002068
:1042000001F006FB002001F003FB002001F000FBA1
:10421000002001F0FDFA002001F0FAFA002001F080
:10422000F7FA002001F0F4FA002001F0F1FA002082
:1042300001F0EEFA002001F0EBFA002001F0E8FABC
:10424000002001F0E5FA002001F0E2FA002001F080
:10425000DFFAF02001F0E8FA002001F0D9FA50204E
:1042600001F0D6FA002001F0D3FA002001F0D0FAD4
:10427000002001F0CDFAF32001F0D6FA002001F081
:10428000C7FAF92001F0D0FA062001F0C1FA102097
:1042900001F0BEFA292001F0BBFA002001F0B8FAC3
:1042A0003A2001F0C1FA552001F0B2FA112001F0D4
:1042B000BBFA292001F0B8FA352001F0B5FA002048
:1042C00001F0A6FA512001F0AFFAFF2001F0A0FAA8
:1042D000532001F0A9FA2C2001F09AFA552001F0A0
:1042E000A3FA822001F094FA2C2001F09DFA01F04B
:1042F00039B8FE48808845F2105188427ED1552158
:104300004FF4704001F0A6FAAA214FF2010001F02B
:10431000A1FA52214FF2020001F09CFA08214FF25B
:10432000030001F097FA01214FF2040001F092FA24
:104330000D214FF4304001F08DFA0D214BF20100B8
:1043400001F088FA0D214BF2020001F083FA3421CA
:104350004FF4364001F07EFA34214BF2016001F057
:1043600079FA34214BF2026001F074FA0D214FF416
:10437000314001F06FFA0D214BF2011001F06AFAA1
:104380000D214BF2021001F065FA34214FF4374051
:1043900001F060FA34214BF2017001F05BFA342134
:1043A0004BF2027001F056FA00214FF4324001F056
:1043B00051FA00214BF2012001F04CFA00214BF29E
:1043C000022001F047FA24214FF4384001F042FA6C
:1043D00024214BF6010001F03DFA24214BF60200A6
:1043E00001F038FA01214FF43F4001F033FA0F2178
:1043F0004FF4334001F02EFA0F2100E0FEE34BF2C0
:10440000013001F027FA0F214BF2023001F022FABD
:1044100034214FF4394001F01DFA34214BF60110DC
:1044200001F018FA34214BF6021001F013FA0821BA
:104430004FF4354001F00EFA08214BF2015001F023
:1044400009FA08214BF2025001F004FA03214FF45B
:10445000424001F0FFF924214FF43A4001F0FAF90B
:1044600024214BF6012001F0F5F924214BF602201E
:1044700001F0F0F900214FF43C4001F0EBF9782114
:104480004BF6014001F0E6F900214BF6024001F045
:10449000E1F900214FF43D4001F0DCF978214BF6C1
:1044A000015001F0D7F900214BF6025001F0D2F98A
:1044B00000214FF43E4001F0CDF964214BF601603C
:1044C00001F0C8F900214FF4514001F0C3F9332144
:1044D0004DF2011001F0BEF900214DF2021001F081
:1044E000B9F934214DF2031001F0B4F900214DF275
:1044F000041001F0AFF93A214DF2051001F0AAF9CC
:1045000000214DF2061001F0A5F94A214DF20710E5
:1045100001F0A0F900214DF2081001F09BF95C2197
:104520004DF2091001F096F900214DF20A1001F048
:1045300091F981214DF20B1001F08CF900214DF21F
:104540000C1001F087F9A6214DF20D1001F082F94F
:1045500000214DF20E1001F07DF9E5214DF20F1012
:1045600001F078F901214DF2101001F073F91321D7
:104570004DF2111001F06EF901214DF2121001F00F
:1045800069F954214DF2131001F064F901214DF243
:10459000141001F05FF982214DF2151001F05AF963
:1045A00001214DF2161001F055F9CA214DF21710F4
:1045B00001F050F902214DF2181001F04BF90021E1
:1045C0004DF2191001F046F902214DF21A1001F0D6
:1045D00041F901214DF21B1001F03CF902214DF28D
:1045E0001C1001F037F934214DF21D1001F032F9A1
:1045F00002214DF21E1001F02DF967214DF21F101E
:1046000001F028F902214DF2201001F023F9842154
:104610004DF2211001F01EF902214DF2221001F09D
:1046200019F9A4214DF2231001F014F902214DF2E1
:10463000241001F00FF9B7214DF2251001F00AF90D
:1046400002214DF2261001F005F9CF214DF227107D
:1046500001F000F902214DF2281001F0FBF8DE21F3
:104660004DF2291001F0F6F802214DF22A1001F066
:10467000F1F8F2214DF22B1001F0ECF802214DF28D
:104680002C1001F0E7F8FE214DF22D1001F0E2F8B8
:1046900003214DF22E1001F0DDF810214DF22F1004
:1046A00001F0D8F803214DF2301001F0D3F8332196
:1046B0004DF2311001F0CEF803214DF2321001F02D
:1046C000C9F86D214DF2331001F0C4F800214FF408
:1046D000524001F0BFF833214DF2012001F0BAF849
:1046E00000214DF2022001F0B5F801E09006001023
:1046F00034214DF2032001F0ADF800214DF20420E9
:1047000001F0A8F83A214DF2052001F0A3F80021AC
:104710004DF2062001F09EF84A214DF2072001F0EB
:1047200099F800214DF2082001F094F85C214DF237
:10473000092001F08FF800214DF20A2001F08AF8DB
:1047400081214DF20B2001F085F800214DF20C2063
:1047500001F080F8A6214DF20D2001F07BF8002138
:104760004DF20E2001F076F8E5214DF20F2001F018
:1047700071F801214DF2102001F06CF813214DF277
:10478000112001F067F801214DF2122001F062F8CA
:1047900054214DF2132001F05DF801214DF2142057
:1047A00001F058F882214DF2152001F053F8012153
:1047B0004DF2162001F04EF8CA214DF2172001F0FB
:1047C00049F802214DF2182001F044F800214DF281
:1047D000192001F03FF802214DF21A2001F03AF8B9
:1047E00001214DF21B2001F035F802214DF21C2071
:1047F00001F030F834214DF21D2001F02BF8022198
:104800004DF21E2001F026F867214DF21F2001F025
:1048100021F802214DF2202001F01CF884214DF2F4
:10482000212001F017F802214DF2222001F012F8A8
:10483000A4214DF2232001F00DF802214DF2242095
:1048400001F008F8B7214DF2252001F003F802210C
:104850004DF2262000F0FEFFCF214DF2272000F080
:10486000F9FF02214DF2282000F0F4FFDE214DF285
:10487000292000F0EFFF02214DF22A2000F0EAFF8C
:10488000F2214DF22B2000F0E5FF02214DF22C2009
:1048900000F0E0FFFE214DF22D2000F0DBFF0321B0
:1048A0004DF22E2000F0D6FF10214DF22F2000F007
:1048B000D1FF03214DF2302000F0CCFF33214DF227
:1048C000312000F0C7FF03214DF2322000F0C2FF7B
:1048D0006D214DF2332000F0BDFF00214FF4534015
:1048E00000F0B8FF33214DF2013000F0B3FF00219A
:1048F0004DF2023000F0AEFF34214DF2033000F0F3
:10490000A9FF00214DF2043000F0A4FF3A214DF23E
:10491000053000F09FFF00214DF2063000F09AFFB5
:104920004A214DF2073000F095FF00214DF208308A
:1049300000F090FF5C214DF2093000F08BFF002168
:104940004DF20A3000F086FF81214DF20B3000F06D
:1049500081FF00214DF20C3000F07CFFA6214DF2CA
:104960000D3000F077FF00214DF20E3000F072FFA5
:10497000E5214DF20F3000F06DFF01214DF21030B6
:1049800000F068FF13214DF2113000F063FF0121A8
:104990004DF2123000F05EFF54214DF2133000F062
:1049A00059FF01214DF2143000F054FF82214DF2E5
:1049B000153000F04FFF01214DF2163000F04AFF94
:1049C000CA214DF2173000F045FF02214DF2183098
:1049D00000F040FF00214DF2193000F03BFF0221B2
:1049E0004DF21A3000F036FF01214DF21B3000F07D
:1049F00031FF02214DF21C3000F02CFF34214DF22A
:104A00001D3000F027FF02214DF21E3000F022FF82
:104A100067214DF21F3000F01DFF02214DF22030C2
:104A200000F018FF84214DF2213000F013FF022125
:104A30004DF2223000F00EFFA4214DF2233000F0A1
:104A400009FF02214DF2243000F004FFB7214DF29E
:104A5000253000F0FFFE02214DF2263000F0FAFE74
:104A6000CF214DF2273000F0F5FE02214DF2283023
:104A700000F0F0FEDE214DF2293000F0EBFE0221C5
:104A80004DF22A3000F0E6FEF2214DF22B3000F01C
:104A9000E1FE02214DF22C3000F0DCFEFE214DF251
:104AA0002D3000F0D7FE03214DF22E3000F0D2FE63
:104AB00010214DF22F3000F0CDFE03214DF23030A9
:104AC00000F0C8FE33214DF2313000F0C3FE032167
:104AD0004DF2323000F0BEFE6D214DF2333000F069
:104AE000B9FE00214FF4544000F0B4FE33214DF2E2
:104AF000014000F0AFFE00214DF2024000F0AAFE9E
:104B000034214DF2034000F0A5FE00214DF2044097
:104B100000F0A0FE3A214DF2054000F09BFE00217E
:104B20004DF2064000F096FE4A214DF2074000F09B
:104B300091FE00214DF2084000F08CFE5C214DF208
:104B4000094000F087FE00214DF20A4000F082FE8D
:104B500081214DF20B4000F07DFE00214DF20C4012
:104B600000F078FEA6214DF20D4000F073FE00210A
:104B70004DF20E4000F06EFEE5214DF20F4000F0C8
:104B800069FE01214DF2104000F064FE13214DF248
:104B9000114000F05FFE01214DF2124000F05AFE7C
:104BA00054214DF2134000F055FE01214DF2144006
:104BB00000F050FE82214DF2154000F04BFE012125
:104BC0004DF2164000F046FECA214DF2174000F0AB
:104BD00041FE02214DF2184000F03CFE00214DF252
:104BE000194000F037FE02214DF21A4000F032FE6B
:104BF00001214DF21B4000F02DFE00E000E30221F8
:104C00004DF21C4000F026FE34214DF21D4000F014
:104C100021FE02214DF21E4000F01CFE67214DF2E4
:104C20001F4000F017FE02214DF2204000F012FE5E
:104C300084214DF2214000F00DFE02214DF2224070
:104C400000F008FEA4214DF2234000F003FE0221F3
:104C50004DF2244000F0FEFDB7214DF2254000F05A
:104C6000F9FD02214DF2264000F0F4FDCF214DF276
:104C7000274000F0EFFD02214DF2284000F0EAFD50
:104C8000DE214DF2294000F0E5FD02214DF22A40DF
:104C900000F0E0FDF2214DF22B4000F0DBFD02219F
:104CA0004DF22C4000F0D6FDFE214DF22D4000F0DB
:104CB000D1FD03214DF22E4000F0CCFD10214DF22C
:104CC0002F4000F0C7FD03214DF2304000F0C2FD3F
:104CD00033214DF2314000F0BDFD03214DF2324051
:104CE00000F0B8FD6D214DF2334000F0B3FD00211E
:104CF0004FF4554000F0AEFD33214DF2015000F06D
:104D0000A9FD00214DF2025000F0A4FD34214DF226
:104D1000035000F09FFD00214DF2045000F09AFD79
:104D20003A214DF2055000F095FD00214DF206505C
:104D300000F090FD4A214DF2075000F08BFD00215C
:104D40004DF2085000F086FD5C214DF2095000F054
:104D500081FD00214DF20A5000F07CFD81214DF2D1
:104D60000B5000F077FD00214DF20C5000F072FD69
:104D7000A6214DF20D5000F06DFD00214DF20E50B8
:104D800000F068FDE5214DF20F5000F063FD0121B8
:104D90004DF2105000F05EFD13214DF2115000F065
:104DA00059FD01214DF2125000F054FD54214DF2F5
:104DB000135000F04FFD01214DF2145000F04AFD58
:104DC00082214DF2155000F045FD01214DF21650A3
:104DD00000F040FDCA214DF2175000F03BFD0221CA
:104DE0004DF2185000F036FD00214DF2195000F040
:104DF00031FD02214DF21A5000F02CFD01214DF23F
:104E00001B5000F027FD02214DF21C5000F022FD46
:104E100034214DF21D5000F01DFD02214DF21E50B7
:104E200000F018FD67214DF21F5000F013FD022124
:104E30004DF2205000F00EFD84214DF2215000F083
:104E400009FD02214DF2225000F004FDA4214DF293
:104E5000235000F0FFFC02214DF2245000F0FAFC38
:104E6000B7214DF2255000F0F5FC02214DF22650FD
:104E700000F0F0FCCF214DF2275000F0EBFC0221B6
:104E80004DF2285000F0E6FCDE214DF2295000F0F2
:104E9000E1FC02214DF22A5000F0DCFCF2214DF23F
:104EA0002B5000F0D7FC02214DF22C5000F0D2FC28
:104EB000FE214DF22D5000F0CDFC03214DF22E507D
:104EC00000F0C8FC10214DF22F5000F0C3FC03216C
:104ED0004DF2305000F0BEFC33214DF2315000F065
:104EE000B9FC03214DF2325000F0B4FC6D214DF2BB
:104EF000335000F0AFFC00214FF4564000F0AAFC04
:104F000033214DF2016000F0A5FC00214DF202605A
:104F100000F0A0FC34214DF2036000F09BFC002166
:104F20004DF2046000F096FC3A214DF2056000F06D
:104F300091FC00214DF2066000F08CFC4A214DF2FC
:104F4000076000F087FC00214DF2086000F082FC51
:104F50005C214DF2096000F07DFC00214DF20A60F9
:104F600000F078FC81214DF20B6000F073FC002111
:104F70004DF20C6000F06EFCA6214DF20D6000F0C9
:104F800069FC00214DF20E6000F064FCE5214DF259
:104F90000F6000F05FFC01214DF2106000F05AFC40
:104FA00013214DF2116000F055FC01214DF2126009
:104FB00000F050FC54214DF2136000F04BFC012135
:104FC0004DF2146000F046FC82214DF2156000F0B5
:104FD00041FC01214DF2166000F03CFCCA214DF26B
:104FE000176000F037FC02214DF2186000F032FC2F
:104FF00000214DF2196000F02DFC02214DF21A60E3
:1050000000F028FC01214DF21B6000F023FC02217E
:105010004DF21C6000F01EFC34214DF21D6000F0CA
:1050200019FC02214DF21E6000F014FC67214DF2C4
:105030001F6000F00FFC02214DF2206000F00AFC1E
:1050400084214DF2216000F005FC02214DF2226026
:1050500000F000FCA4214DF2236000F0FBFB0221D4
:105060004DF2246000F0F6FBB7214DF2256000F010
:10507000F1FB02214DF2266000F0ECFBCF214DF256
:10508000276000F0E7FB02214DF2286000F0E2FB10
:10509000DE214DF2296000F0DDFB02214DF22A6095
:1050A00000F0D8FBF2214DF22B6000F0D3FB02217F
:1050B0004DF22C6000F0CEFBFE214DF22D6000F091
:1050C000C9FB03214DF22E6000F0C4FB10214DF20C
:1050D0002F6000F0BFFB03214DF2306000F0BAFBFF
:1050E00033214DF2316000F0B5FB03214DF2326007
:1050F00000F0B0FB6D214DF2336000F0ABFB5521A9
:105100004FF4704000F0A6FBAA214FF2010000F01E
:10511000A1FB52214FF2020000F09CFB08214FF24C
:10512000030000F097FB00214FF2040000F092FB17
:10513000CC214FF4314000F08DFB00214BF20110E7
:1051400000F088FB05214FF4364000F083FB70210E
:105150004FF4374000F07EFB70214BF2017000F0FD
:1051600079FB01214FF4384000F074FB03214BF62A
:10517000010000F06FFB03214BF6020000F06AFB18
:1051800003214BF6030000F065FB02214FF43C4085
:1051900000F060FB00214BF6014000F05BFB0021BA
:1051A0004BF6024000F056FBD0214FF4494000F08E
:1051B00051FB02214CF6011000F04CFB50214CF643
:1051C000021000F047FB50214CF6031000F042FBA8
:1051D00050214CF6041000F03DFB00214FF45450D8
:1051E00000F038FB55214FF4685000F033FB4FF4CA
:1051F000885000F019FB4FF4245000F015FBB1E08B
:105200007848808841F663118842F8D1E22000F0A6
:105210000BFB1D2000F0FCFA022000F0F9FA04203C
:1052200000F0F6FAE02000F0FFFA012000F0F0FABA
:10523000E02000F0F9FA032000F0EAFA012000F083
:10524000F3FAE62000F0F0FA2F2000F0E1FAFF2058
:1052500000F0DEFAFF2000F0DBFAB02000F0E4FA04
:10526000202000F0D5FA002000F0D2FA032000F050
:10527000CFFA40F21F3000F0CBFA012000F0C8FA5C
:1052800040F2DF1000F0C4FA002000F0C1FAB420B0
:1052900000F0CAFA042000F0BBFA40F21F4000F010
:1052A000B7FA002000F0B4FA2E2000F0B1FA002086
:1052B00000F0AEFA002000F0ABFA002000F0A8FAEF
:1052C000002000F0A5FAB62000F0AEFA022000F0AF
:1052D0009FFA4FF4037000F09BFA002000F098FA58
:1052E000172000F095FA152000F092FA002000F047
:1052F0008FFA002000F08CFAF02000F095FA0320DD
:1053000000F086FA292000F08FFAD02000F08CFA05
:10531000002000F07DFABE2000F086FA052000F0A3
:1053200077FAFE2000F074FA012000F071FA0020F4
:1053300000F06EFA002000F06BFA002000F068FA2E
:10534000B82000F071FA032000F062FA012000F0AA
:105350005FFABA2000F068FA012000F059FA6420E0
:1053600000F050F81F48808849F24131884211D03E
:105370001C48808845F2103188420BD0194880883B
:1053800045F21051884205D01648808841F66311D5
:1053900088421CD11448006820F00F004FF02041D3
:1053A000C1F804010846D0F8040120F47060C1F887
:1053B00004010846D0F8040140F00400C1F80401DB
:1053C0000846D0F8040140F48060C1F804010020D0
:1053D000FDF722FD4FF6FF70FDF704FD01200349A4
:1053E000086010BD90060010040100A094824042A5
:1053F00008B5034800880090BDF8000008BD000013
:105400000000086070B52DED048B0446BE2000F04E
:105410000BFA052000F0FCF92046FBF750F841ECB0
:10542000190B9FED0E0B53EC102BFAF7D6FF41EC46
:10543000180BFBF751F885B2284600F0E9F9012076
:1054400000F0E6F9FF2000F0E3F9002000F0E0F9B9
:10545000002000F0DDF9BDEC048B70BD6666666669
:1054600066660440F0B50546002400279948807917
:10547000012805D19748808841F66311884208D1F8
:1054800094488079F0B99348808841F66311884246
:1054900018D1082D15D2DFE805F00406080A0C0E15
:1054A000101206250DE007250BE0042509E005256F
:1054B00007E0012505E0002503E0032501E00225C2
:1054C00000BF00BF8348808849F24131884211D033
:1054D0008048808845F2103188420BD07D48808812
:1054E00045F21051884205D07A48808841F6631110
:1054F00088427DD1082D1CD2DFE805F00406090C96
:105500000F12151800BF14E044F0800411E044F0BD
:1055100040040EE044F0C0040BE044F0200408E036
:1055200044F0600405E044F0A00402E044F0E0042C
:1055300000BF00BF6748808845F21051884202D101
:105540004FF4585700E036276248808845F2103102
:1055500088420DD05F48808845F21051884207D0BC
:105560005C48808841F66311884201D044F0080409
:105570002146384600F06EF95648808841F663119E
:1055800088421DD004F0200068B15248008851497B
:105590004988884214DA4F48068840884D49088077
:1055A000084646800CE04B4800884A4949888842B2
:1055B00006DD4848068840884649088008464680F7
:1055C0004448808845F21051884254D14149488965
:1055D00000F02AF9002000F01BF93E494989491CD6
:1055E00088B200F021F9002000F012F9394900E0FA
:1055F0006FE04989891C88B200F016F9354909889D
:10560000491EC1F30F2000F003F932494989C91C32
:1056100088B200F009F92F490978491EC8B200F094
:10562000F7F82C49888900F0FFF8002000F0F0F826
:1056300028498989491C88B200F0F6F8002000F05A
:10564000E7F824498989891C88B200F0EDF82149DE
:105650004988491EC1F30F2000F0DAF81D498989F5
:10566000C91C88B200F0E0F81A498978491EC8B20E
:1056700000F0CEF82DE01749488900F0D5F8002059
:1056800000F0C6F8002000F0C3F812490988491E4E
:10569000C1F30F2000F0BCF80E490978491EC8B2CA
:1056A00000F0B6F80B49888900F0BEF8002000F041
:1056B000AFF8002000F0ACF806494988491EC1F354
:1056C0000F2000F0A5F803498978491EC8B200F000
:1056D0009FF8F0BD9006001010B502460C464B48EE
:1056E000808849F24131884205D04848808845F297
:1056F0001031884214D14549488900F095F81012BC
:1057000000F086F8D0B200F083F84049888900F0B4
:105710008BF8201200F07CF8E0B200F079F873E02A
:105720003A48808841F66311884247D137488079EA
:10573000A8B936480088401E801A82B23349488989
:1057400000F072F8002000F063F8002000F060F82C
:10575000101200F05DF8D0B200F05AF816E02B49B4
:10576000488900F061F8101200F052F8D0B200F051
:105770004FF826490988491EC1F30F2000F048F868
:1057800022490978491EC8B200F042F81F498889A9
:1057900000F04AF8201200F03BF8E0B200F038F8D0
:1057A0001A494988491EC1F30F2000F031F8174902
:1057B0008978491EC8B200F02BF825E0134880888C
:1057C00045F2105188421FD11049488900F02CF849
:1057D000101200F01DF80D494989491C88B200F0EB
:1057E00023F8D0B200F014F80849888900F01CF8BA
:1057F000201200F00DF805498989491C88B200F093
:1058000013F8E0B200F004F810BD0000900600109C
:1058100001B5BDF800000090BDF800000149088006
:1058200008BD00000000086001B5BDF80000009050
:10583000BDF800000149088008BD0000FEFF0760B8
:105840000248008902490880704700009006001055
:10585000FEFF0760024A1080921C11807047000012
:10586000FEFF076010B5044900231A460868194670
:1058700036F038FB10BD00002800002010B50648A7
:10588000006800B910BD044908684FF0FF3136F0D8
:10589000B3FD00BFF6E700002800002010B501208E
:1058A00036F022FA084908600846006858B900BF77
:1058B000FFF7E4FF112305A209490AA001F0ACFE9D
:1058C000FFF7D0FF00BF10BD280000202E2E5C5334
:1058D00072635C746F6F6C735C6C6F672E63000037
:1058E00074CC03081B5B313B33316D5B2025732087
:1058F0005D2020257320286C696E65202564292091
:105900002D3E206D75746578206D616C6C6F632021
:105910006661696C0D0A1B5B306D000008B500BF45
:10592000002000900E48006840F480000C49086098
:105930000846006800F48000009000BF00BF00220D
:1059400005213B20FBF7DEFD3B20FBF7CBFD0022D2
:1059500005214520FBF7D6FD4520FBF7C3FD08BD1B
:105960003038024010B504490448FBF721F80249D9
:10597000491E087010BD0000DDEC012080CC03083A
:1059800000B58FB04FF020401B4908601B484860AD
:105990000020886000211848C16001611021416128
:1059A00000218161C16141624FF480518162002117
:1059B000C1624FF4804101630021416381634FF470
:1059C0008011C163002101620F200890002009901E
:1059D00046200A9000200E900F2001900020029097
:1059E0000F2003900020079001AA08A90248FCF7A5
:1059F000E3FE0FB000BD000058EF0120040100A03D
:105A000010B501F0F5F910BD00B587B0142102A85A
:105A1000FAF792FC00BF002001903A48006840F07D
:105A20008000384908600846006800F08000019056
:105A300000BF00BF00BF002001900846006840F092
:105A4000100008600846006800F01000019000BFD8
:105A500000BF00BF002001900846006840F0080029
:105A600008600846006800F00800019000BF00BF11
:105A700000BF002001900846006840F00400086064
:105A80000846006800F00400019000BF00BF00BF9E
:105A9000002001900846006840F0010008600846B8
:105AA000006800F00100019000BF00BF00BF0020AF
:105AB00001900846006840F0400008600846006811
:105AC00000F04000019000BF00BF00BF0020019027
:105AD0000846006840F0020008600846006800F0D0
