:020000040800F2
:10000000A8F2012081020008234D0008C121000848
:10001000214D000875060008295C0008000000005A
:10002000000000000000000000000000C101000806
:1000300035070008000000001D02000845590008AF
:100040009B0200089B0200089B0200089B0200081C
:100050009B0200089B0200089B0200089B0200080C
:100060009B0200089B0200089B0200089B020008FC
:100070009B0200089B0200089B0200089B020008EC
:100080009B0200089B0200089B0200089B020008DC
:100090009B0200089B0200089B0200089B020008CC
:1000A0009B0200089B0200089B0200089B020008BC
:1000B0009B0200089B0200082D5A00089B020008C2
:1000C0009B0200089B0200089B0200089B0200089C
:1000D0009B0200089B0200089B0200089B0200088C
:1000E0009B0200089B0200089B0200089B0200087C
:1000F0009B0200089B0200089B0200089B0200086C
:100100009B020008594D00089B0200089B02000852
:100110009B0200089B0200089B0200089B0200084B
:100120009B0200089B0200089B0200087906000859
:100130009B0200089B0200089B0200089B0200082B
:100140009B0200089B0200089B0200089B0200081B
:100150009B020008850600089B0200089B0200081D
:100160009B0200089B0200089B0200089B020008FB
:100170009B0200089B0200089B0200080000000090
:100180009B0200089B0200089B0200089B020008DB
:100190009B0200089B0200089B0200089B020008CB
:1001A0009B0200089B0200089B020008DFF80CD0AD
:1001B00000F0EEF900480047C1610008A8F20120F4
:1001C0002C4B19680868B0E8F04F80F30988BFF33A
:1001D0006F8F4FF0000080F311887047000000001F
:1001E00008480068006880F308884FF0000080F33A
:1001F000148862B661B6BFF34F8FBFF36F8F00DF15
:1002000000BF00BF08ED00E0DFF80C00016841F41A
:1002100070010160704700BF88ED00E0EFF30980D6
:10022000BFF36F8F134B1A681EF0100F08BF20ED3D
:10023000108A20E9F04F106009B44FF0500080F3AD
:100240001188BFF34F8FBFF36F8F06F081FD4FF022
:10025000000080F3118809BC19680868B0E8F04F05
:100260001EF0100F08BFB0EC108A80F30988BFF3AE
:100270006F8F704724000020EFF305807047000067
:100280000648804706480047FEE7FEE7FEE7FEE730
:10029000FEE7FEE7FEE7FEE7FEE7FEE7115A00088D
:1002A000AD0100082DE9F05F0546002092469B460F
:1002B00088460646814640241BE02846414647467C
:1002C000224600F0F7F853465A46C01A914110D31F
:1002D00011461846224600F0DEF82D1A67EB010899
:1002E0004F4622460120002100F0D5F817EB000907
:1002F0004E41201EA4F10104DFDC484631462A4667
:100300004346BDE8F09F40EA01039B0703D009E0A4
:1003100008C9121F08C0042AFAD203E011F8013BF1
:1003200000F8013B521EF9D27047D2B201E000F84A
:10033000012B491EFBD270470022F6E710B5134689
:100340000A4604461946FFF7F0FF204610BD10B5D7
:10035000044604E00B7800F8013B03B1491C521E2F
:10036000F8D2204610BD2DE9FE4F81EA030404F0C7
:10037000004421F0004100944FF0000B23F00043B3
:1003800050EA01045ED052EA03045BD0C3F30A547E
:10039000C1F30A552C44A4F2F3340194A0FB025497
:1003A000C1F3130141F48011C3F3130343F4801329
:1003B00001FB024400FB034E840A970A44EA81547D
:1003C00047EA8357A4FB076802958D0A05FB07855A
:1003D0004FEA932C04FB0C542705029D4FEA065864
:1003E00047EA1637B5EB08056EEB070C870E920E41
:1003F00047EA811742EA8312A7FB0201B6EB0B0121
:1004000064EB00042B0D43EA0C335E1844EB1C50E4
:10041000DA465146E7FB0201C5F313044FEA0B33FA
:1004200043EA14534FEA0432019C43EA0603A4F161
:100430000C040294009CCDE900B400F05AF803B01B
:10044000BDE8F08F00200146F9E70EB540F23341D8
:1004500002910021CDE900110A460B4600F049F84F
:1004600003B000BDC1F30A5210B5C1F3130140F24D
:10047000FF3341F480119A4201DA002010BD40F2AE
:1004800033439A42A2F2334203DC524200F012F8A4
:1004900010BD904010BD202A04DB203A00FA02F182
:1004A000002070479140C2F1200320FA03F3194362
:1004B00090407047202A04DB203A21FA02F0002104
:1004C000704721FA02F3D040C2F120029140084364
:1004D0001946704710B5141E73F1000408DA401C69
:1004E00041F1000192185B411A4301D120F0010053
:1004F00010BD2DE9F04D92469B4611B1B1FA81F243
:1005000002E0B0FA80F220329046FFF7C4FF0446C2
:100510000F4640EA0A0041EA0B0153465A46084397
:1005200013D0114653EA010019D0C8F140025046D9
:10053000FFF7C0FF05460E46504659464246FFF7B4
:10054000AAFF084305D0012004E020463946BDE853
:10055000F08D0020054346EAE0762C4337430A98A5
:100560006305E40AA0EB08000022FD0A44EA4754B0
:100570000A3002D500200146E9E70105101969415A
:10058000DDE9084500196941BDE8F04DA2E700002A
:10059000064C074D06E0E06840F0010394E80700D0
:1005A00098471034AC42F6D3FFF704FEB4BF0008FE
:1005B000D4BF0008704700000146014801F05EB951
:1005C000C0EC012010B5044801F06AF9042801D0FC
:1005D000012010BD002010BDC0EC012010B500F0BE
:1005E00015F8012801D0012010BD074801F072FA6A
:1005F000040006D14FF40061034800F0F7FF00B19A
:100600000124204610BD0000C0EC012008B50120E7
:100610008DF800009DF8000008BD0000134610B5DD
:100620000A4601460024034801F03CFB00B10124C6
:10063000204610BDC0EC0120024800220121406884
:1006400005F068BE04000020134610B50A460146B6
:100650000024034801F0C6FB00B10124204610BD70
:10066000C0EC0120024800220221406805F052BE81
:1006700004000020FEE70000014800F019B9000066
:1006800044ED0120014800F013B90000A4ED012061
:1006900001681823CAB2103AB2FBF3F2054B6FF3AC
:1006A0000901032A9B5CC36500D9091D81650846C1
:1006B000704700002878000810B5014600208B69BB
:1006C0008A6A4FF0C07453B1B3F5005F15D072B1B0
:1006D000012A0CD0022A0AD0032A09D104E01AB157
:1006E000012A06D0022A03D1C96AC90100D5012016
:1006F00010BDC96AA142FAD010BD002AF7D0012A64
:10070000F2D0022AF3D0032AF3D010BD30B504682A
:10071000256825F480252560046863608368402B84
:10072000036803D099600068C26030BD9A600068B9
:10073000C16030BD704772B6FEE70022AFF30080A3
:1007400030B50E4B054601205C7A002C14D1587A46
:100750001C54587A03EB800045605D7A03F1080071
:100760002A54587A421C5A72303008703A20487025
:100770002F208870CC70002030BD0000C40B0020FA
:1007800070B5B3F5804F05D06FF0704140F822107E
:10079000002070BD50F82240084B8E891C40D1E9E2
:1007A000003543EA05138D6889692D0245EA06453F
:1007B0002B430B43234340F82230E9E70000F0CFFE
:1007C000F0B50C6850F82430174A1340D1E90125E0
:1007D000D1E903672A433E4332434E6932438E696F
:1007E0003243CE6932430E6A32434E6A32438E6AD6
:1007F0003243CE6A3243CE6B32430E6B32434E6B82
:1008000032431A43082D01D142F0400240F824201F
:100810004A6BB2F5801F05D1096819B1016841F42E
:10082000801101600020F0BD8000E0FFF0B500EB1A
:100830008204626802F04045D1E9002342EA0312D3
:100840008B688E891B0243EA06431A430E8A0D4BBE
:1008500003EB065632430E7D5F0107EB066632431B
:100860008E6932432A4362600268D20207D5426829
:10087000098A22F4700203EB015111434160002008
:10088000F0BD00000000F0FF90F83510022903D001
:100890008021416501207047052180F835100068EE
:1008A000016821F00101016000207047406D704730
:1008B0002DE9F84304464FF00009CDF80090634855
:1008C0004FF41651A56D0068B0FBF1F72E6894F84F
:1008D0005C10082000FA01F131420FD021680A684B
:1008E00052070BD50A6822F004020A6094F85C10E3
:1008F0008840A860606D40F00100606594F85C106D
:100900004FF0010808FA01F0304208D02168496927
:10091000090604D5A860606D40F00200606594F897
:100920005C1004208840304208D02168096889079B
:1009300004D5A860606D40F00400606594F85C1018
:1009400010208840304218D021680968090714D562
:10095000A86020680168490304D50068000308D531
:10096000A16C07E00168C90503D4016821F0080102
:100970000160216C09B12046884794F85C10202062
:100980008840304231D021680968C9062DD5A86059
:1009900094F8350005282068016806D0490347D53A
:1009A000006800031DD4616C1CE021F01601016099
:1009B0002068416921F080014161206C08B9A06C78
:1009C00020B12068016821F00801016094F85C10F2
:1009D0003F208840A86084F8349084F83580216DE9
:1009E0001FE0E16B09B120468847606D00282BD0DD
:1009F000606DC00714D0052084F8350020680168B8
:100A000021F0010101600098401C0090B84203D819
:100A100020680068C007F6D184F8349084F83580E7
:100A2000E16C002910D001B02046BDE8F043084732
:100A30000168C905D5D4016821F01001016084F86E
:100A4000349084F83580CCE7BDE8F883200000209E
:100A50002DE9F041044600F0DFF906465CB10025BF
:100A600084F83450022084F835002068016821F0B1
:100A7000010101600DE00120BDE8F08100F0CCF93A
:100A8000801B052805D920206065032084F83500E7
:100A9000F2E720680068C007F0D12268116820489A
:100AA0000140D4E901031843D4E903363343184322
:100AB00063691843A3691843E3691843236A184319
:100AC0000843616A042903D1D4E90B13194308438D
:100AD000106020684069666A20F0070130460E43C6
:100AE000012704280CD1A06A0643E06A40B12046E1
:100AF000FFF7E2FD20B14020606584F83570BAE769
:100B0000206846612046FFF7C3FD94F85C203F2132
:100B100091408160656584F835700020ACE7000085
:100B20003F8010F02DE9F0410446866D90F83400C6
:100B3000002501280DD0012084F8340094F8357088
:100B40000020012F07D084F8340002252846BDE894
:100B5000F0810220FBE7022784F8357060652046AB
:100B6000FFF7D4FD94F85C103F208840B060206807
:100B7000016841F016010160206C20B12068016815
:100B800041F0080101602068016841F00101016045
:100B9000DCE7000070B5044600F03EF90546601C35
:100BA00002D004480078044400F036F9401BA0420B
:100BB000FAD370BD14000020F0B587B01421684648
:100BC000FFF7BAFB1A48016800292ED10121016004
:100BD00018480024016841F0010101600068022505
:100BE00000F0010005904FF68070CDE9000502AAE3
:100BF00003260C2782E8D00069460F4800F022F84F
:100C00004EF2B370CDE9000502AA694682E8D00031
:100C10000A4800F017F8E802CDE9000502AA694683
:100C200082E8D000064800F00DF807B0F0BD0000E3
:100C3000840000203838024000100240000C0240BE
:100C4000001802402DE9F84F00224FF0010803255B
:100C50004FF00F0E0B6808FA02F42340A3426ED146
:100C60004E68012E05D0022E03D0112E01D0122E77
:100C700012D186684FEA420C05FA0CF7BE43CF68E2
:100C800007FA0CF7374387604668A6430C79C4F32C
:100C90000014944034434460C668570005FA07FCCA
:100CA0008C6826EA0C06BC403443C4604C68022CB5
:100CB00001D0122C13D1D40800EB8404A346D4F83D
:100CC000209054074FEAD46A0EFA0AF629EA060978
:100CD0000E6906FA0AF646EA0906CBF820600468AF
:100CE0000E7924EA0C0406F00306BE402643066093
:100CF0004C68E4006FD53B4C266846F4804626607D
:100D0000246822F0030604F480440094364C3444F2
:100D1000A446D4F808489607360F0EFA06F7BC43E7
:100D2000324FB84201D100272EE0314FB84201D1F5
:100D3000012729E02F4FB84202D1022724E04AE0E0
:100D40002D4FB84201D103271EE02C4FB84201D1EC
:100D5000042719E02A4FB84201D1052714E0294F92
:100D6000B84201D106270FE0274FB84201D107272B
:100D70000AE0264FB84201D1082705E0244FB842C7
:100D800001D1092700E00A27B7402743CCF80878AB
:100D9000204E34684F689C43FF0300D51C433460E9
:100DA0001C4E361D34684F689C43BF0300D51C435E
:100DB0003460184E083634684F689C43FF0200D5F3
:100DC0001C433460134E0C3634684F689C43BF029A
:100DD00000D51C433460521C102AFFF43BAFBDE821
:100DE000F88F00004438024000300140000002400B
:100DF0000004024000080240000C024000100240C3
:100E00000014024000180240001C02400020024072
:100E100000240240003C0140014880687047000007
:100E20001400002070B5040004D094F839000025A7
:100E300010B106E0012070BD84F83850204601F062
:100E400089F9242084F839002068C16821F4005110
:100E5000C160204604F054FE2068016921F49041ED
:100E600001612068416921F02201416120684169E6
:100E700041F0080141612068C16841F40051C1603E
:100E8000E563202084F8390084F83A00002070BD22
:100E90000248816802781144816070471400002084
:100EA0000B4810B5016841F400710160016841F41C
:100EB00080610160016841F480710160032000F0ED
:100EC0008DF8002000F006F800F03EF8002010BD7C
:100ED000003C024010B5014688B000221E2000F000
:100EE0005DF81E2000F04CF813480024016841F022
:100EF00004010160006805A900F00400069068463E
:100F000000F050F900F06EF90C494000B0FBF1F12F
:100F10000C480B4A491E026040F2E732C0E9032444
:100F2000C0E9011401F027F810B1012008B010BD8C
:100F3000044801F03CF8F9E74038024040420F0015
:100F4000000800401C0500200C4882B0016841F4F4
:100F500080410160006800F4804000900748001F55
:100F6000016841F0805101600068002200F080506B
:100F700000900F21901E02B000F010B844380240DB
:100F8000002809DB00F01F02012191404009800088
:100F900000F1E020C0F8001170470000F0B40E4BE3
:100FA0001B680C46C3F30223C3F10705042D00D9C7
:100FB0000425191D072901D2002300E0DB1E0126AC
:100FC00006FA05F1491E214099409E40761E1640C2
:100FD0003143F0BC04F03ABE0CED00E0064900F0ED
:100FE000070208684FF6FF03184040EA0220034A50
:100FF00010430860704700000CED00E00000FA05A7
:101000002DE9F8431748016841F0805101600068FC
:10101000154F00F08050012600903E64FFF7FCFE63
:1010200005464FF47A78114C05E000BFFFF7F4FE57
:10103000401B40450DD86068C003F7D57E64FFF7BC
:10104000EBFE0546464607E0FFF7E6FE401BB042D2
:1010500002D90320BDE8F88360688003F4D500203E
:10106000F8E700004038024000000E4200700040E7
:101070002DE9F0470E46050065D0DFF81481D8F859
:101080000000F7B200F00F00B04207D288F80070FD
:10109000D8F8000000F00F00B04254D128683D4C51
:1010A000810712D5400703D5206840F4E050206046
:1010B0002878000703D5206840F46040206020684D
:1010C000A96820F0F000084320602878C0072DD0E0
:1010D000304968680839012812D0022813D0032843
:1010E00011D00968890700292DDA216821F0030150
:1010F00001432160FFF790FE814641F2883A0EE0FD
:1011000009688903EFE709688901ECE7FFF784FEC6
:10111000A0EB0901514502D90320BDE8F087206802
:10112000696800F00C00B0EB810FEFD1D8F8001027
:10113000404601F00F01B14207D90770006800F086
:101140000F00B04201D00120E7E72878400705D51D
:101150002068E96820F4E050084320602878000700
:1011600006D52068296920F4604040EAC10020606B
:1011700000F058F82168084AC1F30311515CC840D7
:101180000649086006480068FFF7A4FE0020C4E78F
:10119000003C02400838024030780008200000205F
:1011A000180000200F2202600C4A136803F00303AA
:1011B0004360136803F0F0038360136803F4E053A3
:1011C000C36012684FF4E05303EAD202026104489C
:1011D000006800F00F000860704700000838024007
:1011E000003C02400448054900680968044AC1F30C
:1011F0008221515CC840704720000020083802401E
:10120000407800080448054900680968044AC1F3A9
:101210004231515CC840704720000020083802402D
:1012200040780008154810B5006810F00C0214480A
:1012300013D01449042A0FD0082A0ED10F4C241FB2
:101240002268236802F03F025B0207D52068C0F3E2
:101250008810A0FB010106E0084610BD2168C1F31B
:101260008811A1FB00010023FFF71CF82168C1F3DE
:101270000141491C4900B0FBF1F010BD08380240A3
:101280000024F40040787D012DE9F84F04006ED071
:101290002078DFF83C93C007A9F104054AD009F192
:1012A00004000168C1F38101012908D00068C0F37E
:1012B000810002280AD1D9F80000400206D528682A
:1012C000800337D560680028E1D033E06068B0F56E
:1012D000803F10D0B0F5A02F286810D020F48030C7
:1012E0002860286820F4802028606068A8B1FFF793
:1012F00093FD06460DE0286840F48030F4E740F4A2
:1013000080202860F7E700BFFFF786FD801B642878
:1013100073D828688003F7D50CE0FFF77DFD0646FB
:1013200005E000BFFFF778FD801B6428F0D828682F
:101330008003F7D42078DFF89C8280074FF0000A02
:101340003ED5A348001D016811F00C0F08D00068BD
:10135000C0F3810002280BD1D9F80000400207D465
:101360002868800716D5E068012800D112E02BE13B
:10137000E068B8B10120C8F80000FFF74DFD06464F
:1013800005E000BFFFF748FD801B0228C0D8286891
:101390008007F7D52868216920F0F80040EAC100ED
:1013A00028600DE0C8F800A0FFF736FD064604E00F
:1013B000FFF732FD801B02281FD828688007F7D46A
:1013C0002078000722D5824E83486169703671B15A
:1013D00001210160FFF720FD074604E0FFF71CFD37
:1013E000C01B022809D830688007F7D50EE0C0F886
:1013F00000A0FFF711FD074605E082E0FFF70CFDB6
:10140000C01B02287DD830688007F7D420784007B9
:1014100068D5DFF8BCB100270BF13C0BDBF800000E
:10142000C0000BD4DBF8001041F08051CBF8001065
:10143000DBF80000012700F080500090674E306814
:10144000C00510D4306840F480703060FFF7E4FCD1
:10145000009005E0FFF7E0FC0099401A022850D800
:101460003068C005F6D55A4EA0686C3601280FD0FA
:101470000528306810D020F001003060306820F07E
:1014800004003060A068B8B1FFF7C6FC00900FE020
:10149000306840F00100F4E740F004003060F7E706
:1014A000FFF7BAFC0099411A41F28830814266D8B0
:1014B00030688007F4D50EE0FFF7AEFC009007E03F
:1014C000FFF7AAFC0099411A41F28830814256D8B0
:1014D00030688007F4D42FB1DBF8001021F0805180
:1014E000CBF80010A069C8B33949091D0968C1F3D8
:1014F000810102294AD00228504607D0C8F860006E
:1015000000E03CE0FFF788FC04463BE04746C8F8B3
:101510006000FFF781FC064605E000BFFFF77CFC9A
:10152000801B02282BD828688001F7D4D4E9070152
:101530000843A16A2A4A490802EB0141626A41EA6A
:101540008211084394F82C1040EA0161C9F8001098
:1015500001203866FFF760FC044606E036E000BF75
:10156000FFF75AFC001B022809D828688001F7D52C
:101570002CE000BFFFF750FC001B022802D903201B
:10158000BDE8F88F28688001F4D41FE00128F7D067
:10159000D9F80000E26900F48001914214D1226A76
:1015A00000F03F0191420FD147F6C071626A0140DD
:1015B000914209D1A26A00F44031914204D1E16A1A
:1015C00000F07060884201D00120D9E70020D7E701
:1015D0000438024000004742800E4742007000403D
:1015E0000000FFFF10B5FEF7E5FF10BD2DE9FE433B
:1015F000044603200F4684F83400606C03285AD058
:10160000B7F5805F57D04FF4006600254FF0806833
:10161000B7421CD1009501950021206803F098FB8A
:10162000800121D46946204603F080FF98BB0198D1
:10163000400332D5B4F850000104206803F0C4FB25
:1016400048BB0221206822E0A06B284327E01FB19D
:10165000A06B40F0006022E0009501950021206819
:1016600003F076FB800101D53546EDE7694620465B
:1016700003F05CFF78B90198C0030ED5B4F85000B0
:101680000104206803F0A0FB28B90021206803F0C2
:10169000E8FB0028D8D00546D6E74546D4E7A06346
:1016A000A06B012558B121680C48886384F8345038
:1016B0000120BDE8FE83A06B40F08050EFE7211DC4
:1016C000D4E905060EC90097CDE90106206803F0AC
:1016D00049FB84F834500020EBE70000FF05400090
:1016E00070470000F0B5426E920F0A70426EC2F36E
:1016F00083624A70426EC2F301628A70426E120CBB
:10170000CA70B0F86420120A0A7190F864204A7115
:10171000826E120DCA80826EC2F303420A72B0F862
:101720006820C2F3C0324A72B0F86820C2F3803237
:101730008A72B0F86820C2F34032CA72B0F86820EA
:10174000C2F300320A7300264E73426C4FF40075E8
:10175000012462B1012A3AD0026847499163816B42
:1017600041F08051816380F834400120F0BDB0F831
:101770006820C36E9205120D42EA93720A61C26E2E
:10178000C2F3C2620A75C26EC2F302624A75C26EC9
:10179000C2F342528A75C26EC2F38242CA75C26EE9
:1017A000C2F3C2320A760A69521C42650B7E03F00C
:1017B00007039B1C9A4042650B7A03F00F0704FA5B
:1017C00007F383655B0A5A43C0E917250EE090F8DA
:1017D0006820C36E9206920A42EA13420A610A69BD
:1017E000521C92024265C0E91652056630F86C2F11
:1017F000C2F3803201F8192F0288C2F3C6124A7070
:10180000027802F07F028A704268D20FCA70426882
:10181000C2F341720A714268C2F382624A7142683D
:10182000C2F383528A714268C2F34052CA710E7287
:101830004268C2F300424A728288C2F3C0328A729E
:101840008288C2F38032CA728288C2F340320A733D
:101850008288C2F300324A738288C2F381228A737B
:101860008288C2F30122CA730079C0F3460008746B
:101870004C740020F0BD0000FF054000426C0A607F
:10188000826C4A60C26C8A60026DCA60426D0A61F5
:10189000826D4A61C26D8A61006EC8610020704726
:1018A00070B50446B0F8500000250104206803F02C
:1018B000E2FB18B1A16B0143A16304E000212068A1
:1018C00003F046FA0546C5F3432070BDF8B5056B35
:1018D00004460068416B09041BD5290719D5D4E9D2
:1018E0000A56002E14D00027206803F055FA05F898
:1018F000010B010A05F8011B010C05F8021B000E83
:10190000361F7F1C05F8010C082FEDD3C4E90A56D9
:10191000F8BD416B4FF00006C9054FF0010744D5F3
:10192000390281632068C16B4CF23A329143C16342
:101930002068C16A21F00101C16228071DD515F098
:10194000220F09D0206803F0C7FB28B1A16B014327
:10195000A1632046FFF7C4FE216840F23A50886335
:1019600084F834702663A80703D0204600F032FACA
:10197000F8BD204600F032FAF8BD2806FCD5A806CE
:1019800009D5206803F0A8FB28B1A16B0143A1632E
:101990002046FFF7A5FEA807EED12068C16A21F016
:1019A0000801C16284F83470E3E7416B490424D52F
:1019B000290722D5D4E90856002EDDD05FF00007B4
:1019C00015F8010B009015F8011B361F40EA0120A5
:1019D000009015F8021B40EA0140009015F8011C28
:1019E00040EA016000906946206803F0E8F97F1C36
:1019F000082FE5D3C4E90856F8BD416B40F23A22FE
:101A00001142F9D0416B890703D5A16B41F0020166
:101A1000A163416B090703D5A16B41F00801A163E4
:101A2000416B890603D5A16B41F02001A163416B95
:101A3000C90603D5A16B41F01001A163416B890573
:101A400003D5A16B41F00801A16340F23A718163B3
:101A50002068C16B40F23A329143C163206803F0C1
:101A60003BFBA16B0843A063280706D584F83470BC
:101A700026632046FFF734FEF8BD2806FCD515F096
:101A8000300F0CD0E16B11480865E06BFEF7FCFEEF
:101A90000028F1D0E06BBDE8F84003F025BDA807B1
:101AA0000CD0216C0A480865206CFEF7EDFE00287A
:101AB000E2D0206CBDE8F84003F0EDBCA66384F8EA
:101AC000347026632046FFF78DFDF8BDE954000809
:101AD0009754000870B504000ED094F83400002527
:101AE00018B92577204600F03BF8032084F834002D
:101AF000204600F00BF808B1012070BDA5632563F6
:101B0000012084F83400002070BD0000FEB50025DF
:101B1000044676200095CDE9015029460B460A4639
:101B2000206803F01FF908B10120FEBD0B4E46F8F6
:101B3000A05F206803F028F901253560204603F0F6
:101B4000D7FD20B9204603F05BFD0028EDD084F8D6
:101B50003450A16B0143A163E6E7000000802542F9
:101B60002DE9F04F87B0054614216846FEF7E4FBE7
:101B70004649286888427DD145480068444940F478
:101B800000600860086800F4006005904048143860
:101B900000683F4940F0040014390860086800F00C
:101BA00004000590086840F00800086008680224F6
:101BB00000F0080005904FF4F850CDE9000402AAA7
:101BC000002003264FF00C0882E8410169463148A5
:101BD000FFF738F802AA002082E841010427CDE986
:101BE000007469462C48FFF72DF82D4C2B484FF018
:101BF0000068C4E9000800204FF48069A060C4E9CF
:101C00000309B8024FF4804BC4E9050BC4E9097617
:101C10004FF0200A0020C4E907A07E05B710204637
:101C2000C4E90B67FEF714FF08B1FEF784FD2C64CE
:101C3000A5631B4C194860344830C4E900084020B3
:101C4000A0600020C4E90309C4E907A00420606281
:101C500004F12802032082E8C1004FF48051C4E956
:101C6000051B2046FEF7F4FE08B1FEF764FDEC63A9
:101C7000002200E007E005213120A563FFF78EF97F
:101C80003120FFF77DF907B0BDE8F08F002C01404F
:101C90004438024000080240000C024058640240F0
:101CA00044ED01202DE9F04786B01F460446154655
:101CB00039B194F83400012807D0022006B0BDE8FD
:101CC000F087A06B40F0006008E00020A063E36DA7
:101CD000EA199A4204D9A06B40F00070A0636FE04B
:101CE000032284F8342022688246D0622268D36BB3
:101CF00040F22A363343D363236C324A4FEA4729F2
:101D0000DA63236C304ADA64226C4FEA9903106577
:101D100020680A46266C00F180013046FEF702FF7B
:101D2000DFF8A880012660B12068C16B21F49571AD
:101D3000C1632168C1F83880A06B40F08040A06387
:101D400011E023480660606C012800D06D024FF45A
:101D50000071206803F06CF840B12268C2F8388046
:101D6000A16B0143A16384F8346029E04FF0FF3098
:101D7000CDE900099020029002200596CDE9030AE2
:101D8000D1466946206802F0CDFF012F06D9822096
:101D900020632946206803F0DFF805E081202063F6
:101DA0002946206803F0F1F8002887D02268C2F89D
:101DB0003880A16B0143A16384F83460C4F830908B
:101DC00001207BE755540008F1530008FF0540004F
:101DD0008C85254210B5FEF72FFC10BD10B5FEF71F
:101DE00041FC10BD2DE9FF4F87B0044608981F46FF
:101DF000164638B194F83400012807D002200BB001
:101E0000BDE8F08FA06B40F0006008E00025A563FE
:101E1000E16DF019884204D9A06B40F00070A06316
:101E200061E0032084F834002068C5622068C16B3B
:101E300040F21A2A41EA0A01C163E16B3248C863E1
:101E4000E16B3248C864E06B0565606C012800D026
:101E500076024FF40071206802F0EAFFDFF8B090DC
:101E60004FF0010840B12268C2F83890A16B0143DD
:101E7000A16384F8348036E04FF0900B012F06D92F
:101E8000A02020633146206803F040F905E0C4F843
:101E900030B03146206803F052F940B12268C2F8F0
:101EA0003890A16B0143A16384F834801AE019488B
:101EB0004646C0F8008022687F02BB08E06B803293
:101EC0000899FEF72FFE80B12068C16B21EA0A0154
:101ED000C1632168C1F83890A06B40F08040A063D6
:101EE00084F834602563012089E74FF0FF30CDE9A5
:101EF0000007CDE902B5CDE904566946206802F035
:101F000011FF00207BE70000DB540008F1530008BC
:101F1000FF0540008C85254270B515460E4604002D
:101F200003D094F8490010B107E0012070BD0020F3
:101F300084F84800204600F01AF804F108012068EF
:101F4000FEF73EFC3146A2682068FEF76FFCD4E93C
:101F500001022946236BFEF713FCA168206850F8A4
:101F6000212042F0010240F82120002070BDFEF740
:101F700023BE7047704710B5040003D094F83D00AD
:101F800010B107E0012010BD002084F83C0020467D
:101F900000F00CF8022084F83D00211D206803F0B9
:101FA0004BFD012084F83D00002010BD7047016802
:101FB000CA6842F00102CA600068816801F0070146
:101FC000062903D0016841F001010160002070473B
:101FD000704770B50446006801694FF00005C943B9
:101FE000890715D4C168C943890711D4E91E016165
:101FF00001202077206880698007204602D0FFF703
:10200000E7FF04E000F098F8204600F096F8257706
:1020100020680169C943490717D4C168C943490702
:1020200013D46FF0040101610220207720688069D9
:1020300010F4407F204602D0FFF7CAFF04E000F012
:102040007BF8204600F079F8257720680169C943BC
:10205000090716D4C168C943090712D46FF00801F3
:102060000161042020772068C0698007204602D0E3
:10207000FFF7AEFF04E000F05FF8204600F05DF8E7
:10208000257720680169C943C90617D4C168C943C7
:10209000C90613D46FF01001016108202077206871
:1020A000C06910F4407F204602D0FFF791FF04E0A2
:1020B00000F042F8204600F040F8257720680169DA
:1020C000C943C90708D1C168C943C90704D1891EDA
:1020D0000161204600F032F820680169C943090611
:1020E00009D4C168C943090605D46FF080010161B4
:1020F0002046FFF73EFF20680169C943490609D41D
:10210000C168C943490605D46FF04001016120460A
:1021100000F01EF820680169C94389060BD4C16824
:10212000C943890607D46FF0200101612046BDE84C
:102130007040FFF71FBF70BD7047704700680349CC
:10214000884201D1FEF7A4BE70470000000800409D
:102150007047000010B586B0044614216846FEF7AB
:10216000EBF814492068884221D113480021026805
:1021700042F010020260006800F0100005900E4866
:102180001438026842F001020260006800F00100A9
:1021900005904FF4007000901220CDE9010103205A
:1021A00003900720049069460448FEF74BFD06B0F3
:1021B00010BD000000100140443802400000024001
:1021C000FEE7000070B50A490646002408884D88DD
:1021D00021464543204602F07DFB02F0B1FCB0B23F
:1021E000044901E00880641CAC42FBD370BD0000D0
:1021F00094EE0120000008602DE9F04F33492C24B3
:102200000A4688712A2592882B2645F2105B4FF4E6
:10221000305E4FF448774FF0F00949F2413A4FF4FD
:10222000A07845F2103C4FF4F07358B1A1F800804B
:10223000A1F80290524501D0624529D10C814D810F
:102240008E8139E0A1F80090A1F80280524501D0BA
:10225000624508D10C814D818E81624531D1A1F852
:1022600000804B802DE05A4508D1A1F808E04FF4DA
:10227000285048814FF42C50888106E0A2F5C850C0
:1022800063381ED10C814E818D810B804F8018E008
:102290005A4508D1A1F808E04FF4285048814FF47E
:1022A0002C50888106E0A2F5C850633804D10C8117
:1022B0004D818E810F804B80624502D10B80A1F849
:1022C0000280BDE8F04F002002F028BA94EE012011
:1022D0002DE9F041354C90460D460246060AA1888C
:1022E00020462F0A4089A1F51343413B0CD0A1F5AC
:1022F000A643103B08D0A1F5AA43103B10D0A1F58E
:10230000C853633B25D048E002F00EFC304602F093
:10231000FFFBD0B202F0FCFBA08902F005FC36E026
:1023200002F002FC304602F0F3FB6089401C80B2F0
:1023300002F0FAFBD0B202F0EBFBA08902F0F4FB52
:10234000384602F0E5FBA089401C80B202F0ECFBAD
:1023500020E0A17919B92188891A491E8AB202F0B0
:10236000E3FB160A304602F0D3FBD0B202F0D0FBFA
:10237000304602F0CDFBD0B202F0CAFBA08902F0D9
:10238000D3FB384602F0C4FBE8B202F0C1FB38468A
:1023900002F0BEFBE8B202F0BBFB054920890880D1
:1023A000891CA1F80080BDE8F081000094EE0120B6
:1023B000FEFF07602DE9F05FD32002F0B5FB02F0CD
:1023C0007BF9FD4CA08002F077F9A08002F074F94F
:1023D0004FF6FF7909EA0020A08002F06DF9A1888C
:1023E00049F241380843A08045F2103645F21055B5
:1023F00041F66317404548D0D42002F095FB02F027
:102400005BF9A08002F058F9A08002F055F909EAC2
:1024100000204A46A08002F04FF9A1880843A0801E
:10242000B04232D04FF45A4002F07EFB02F044F941
:10243000A0804FF45B4002F077FB02F03DF902EA26
:102440000020A0804FF45C4002F06EFB02F034F9F3
:10245000A1880843A080B0F5004F7CD0A84214D0DA
:10246000A12002F061FB02F027F9A08002F024F91C
:1024700002EA0020A08002F01FF9A1880843A0F51D
:10248000AE41A080613900D1A780A188CBA003F024
:10249000CDFBA08840457DD1CF2002F045FB002038
:1024A00002F036FBC12002F033FB302002F030FB9B
:1024B000ED2002F039FB642002F02AFB032002F039
:1024C00027FB122002F024FB812002F021FBE820F0
:1024D00002F02AFB852002F01BFB102002F018FB03
:1024E0007A2002F015FBCB2002F01EFB392002F00F
:1024F0000FFB2C2002F00CFB002002F009FB342023
:1025000002F006FB022002F003FBF72002F00CFBB6
:10251000202002F0FDFAEA2002F006FB002002F083
:10252000F7FA002002F0F4FAC02002F0FDFA1B20B6
:1025300002F0EEFAC12002F0F7FA012002F0E8FA08
:10254000C52002F0F1FA302002F0E2FA302002F069
:10255000DFFAC72000E0B7E002F0E6FAB72002F0A9
:10256000D7FA362002F0E0FA482002F0D1FA3A20F9
:1025700002F0DAFA552002F0CBFAB12002F0D4FAD8
:10258000002002F0C5FA1A2002F0C2FAB62002F0CA
:10259000CBFA00E09AE00A2002F0BAFAA22002F098
:1025A000B7FAF22002F0C0FA002002F0B1FA2620B9
:1025B00002F0BAFA012002F0ABFAE02002F0B4FA1D
:1025C0000F2002F0A5FA2A2002F0A2FA282002F039
:1025D0009FFA082002F09CFA0E2002F099FA0820D7
:1025E00002F096FA542002F093FAA92002F090FA31
:1025F000432002F08DFA0A2002F08AFA0F2002F03E
:1026000087FA002002F084FA002002F081FA00200C
:1026100002F07EFA002002F07BFAE12002F084FA58
:10262000002002F075FA152002F072FA172002F06D
:102630006FFA072002F06CFA112002F069FA062006
:1026400002F066FA2B2002F063FA562002F060FADC
:102650003C2002F05DFA052002F05AFA102002F048
:1026600057FA0F2002F054FA3F2002F051FA3F20AF
:1026700002F04EFA0F2002F04BFA2B2002F054FA2F
:10268000002002F045FA002002F042FA012002F098
:102690003FFA3F2002F03CFA2A2002F045FA0020DF
:1026A00002F036FA002002F033FA002002F030FA8D
:1026B000EF2002F02DFA112002F036FA782003F014
:1026C0005BFD292001F00ABFA580DEE6B0427DD186
:1026D000ED2002F029FA012002F01AFAFE2002F0A1
:1026E00017FAEE2002F020FADE2002F011FA212083
:1026F00002F00EFAF12002F017FA012002F008FAB7
:10270000DF2002F011FA102002F002FAC42002F0D9
:102710000BFA8F2002F0FCF9C62002F005FA002027
:1027200002F0F6F9E22002F0F3F9E22002F0F0F90B
:10273000E22002F0EDF9BF2002F0F6F9AA2002F043
:10274000E7F9B02002F0F0F90D2002F0E1F90020E5
:1027500002F0DEF90D2002F0DBF9002002F0D8F9DA
:10276000112002F0D5F9002002F0D2F9192002F070
:10277000CFF9002002F0CCF9212002F0C9F90020A5
:1027800002F0C6F92D2002F0C3F9002002F0C0F9D2
:102790003D2002F0BDF9002002F0BAF95D2002F000
:1027A000B7F9002002F0B4F95D2002F0B1F9002081
:1027B00002F0AEF9B1200AE094EE0120204C43442F
:1027C0002049443A25780D0A00000000FEE302F09B
:1027D000ABF9802002F09CF9002002F099F98B20DF
:1027E00002F096F9002002F093F9962002F090F999
:1027F000002002F08DF9B22002F096F9002002F0DC
:1028000087F9002002F084F9022002F081F900200B
:1028100002F07EF9032002F07BF9002002F078F943
:10282000B32002F081F9002002F072F9002002F0DA
:102830006FF9002002F06CF9002002F069F9002025
:1028400002F066F9002002F063F9002002F060F95E
:10285000002002F05DF9002002F05AF9002002F099
:1028600057F9002002F054F9002002F051F900203D
:1028700002F04EF9002002F04BF9002002F048F976
:10288000002002F045F9002002F042F9002002F099
:102890003FF9002002F03CF9002002F039F9002055
:1028A00002F036F9002002F033F9002002F030F98E
:1028B000002002F02DF9B42002F036F98B2002F04E
:1028C00027F9002002F024F9962002F021F90020D7
:1028D00002F01EF9A12002F01BF9002002F018F905
:1028E000B52002F021F9022002F012F9002002F0D6
:1028F0000FF9032002F00CF9002002F009F904207E
:1029000002F006F9002002F003F9B62002F00CF9FB
:10291000002002F0FDF8002002F0FAF8B72002F0E3
:1029200003F9002002F0F4F8002002F0F1F83F2053
:1029300002F0EEF8002002F0EBF85E2002F0E8F87A
:10294000002002F0E5F8642002F0E2F8002002F036
:10295000DFF88C2002F0DCF8002002F0D9F8AC207F
:1029600002F0D6F8002002F0D3F8DC2002F0D0F814
:10297000002002F0CDF8702002F0CAF8002002F02A
:10298000C7F8902002F0C4F8002002F0C1F8EB2054
:1029900002F0BEF8002002F0BBF8DC2002F0B8F82C
:1029A000002002F0B5F8B82002F0BEF8002002F0D6
:1029B000AFF8002002F0ACF8002002F0A9F80020E7
:1029C00002F0A6F8002002F0A3F8002002F0A0F820
:1029D000002002F09DF8002002F09AF8BA2002F0E0
:1029E000A3F8242002F094F8002002F091F80020CF
:1029F00002F08EF8002002F08BF8C12002F094F86B
:102A0000202002F085F8002002F082F8542002F025
:102A10007FF8002002F07CF8FF2002F079F8002017
:102A200002F076F8C22002F07FF80A2002F070F877
:102A3000002002F06DF8042002F06AF8002002F095
:102A400067F8C32002F070F83C2002F061F8002023
:102A500002F05EF83A2002F05BF8002002F058F82D
:102A6000392002F055F8002002F052F8372002F029
:102A70004FF8002002F04CF83C2002F049F800200A
:102A800002F046F8362002F043F8002002F040F849
:102A9000322002F03DF8002002F03AF82F2002F038
:102AA00037F8002002F034F82C2002F031F8002032
:102AB00002F02EF8292002F02BF8002002F028F86E
:102AC000262002F025F8002002F022F8242002F04F
:102AD0001FF8002002F01CF8242002F019F8002052
:102AE00002F016F8232002F013F8002002F010F88C
:102AF0003C2002F00DF8002002F00AF8362002F027
:102B000007F8002002F004F8322002F001F800205B
:102B100001F0FEFF2F2001F0FBFF002001F0F8FF85
:102B20002C2001F0F5FF002001F0F2FF292001F038
:102B3000EFFF002001F0ECFF262001F0E9FF00206C
:102B400001F0E6FF242001F0E3FF002001F0E0FFA8
:102B5000242001F0DDFF002001F0DAFF232001F046
:102B6000D7FF002001F0D4FFC42001F0DDFF622078
:102B700001F0CEFF002001F0CBFF052001F0C8FFDF
:102B8000002001F0C5FF842001F0C2FF002001F009
:102B9000BFFFF02001F0BCFF002001F0B9FF1820BA
:102BA00001F0B6FF002001F0B3FFA42001F0B0FF58
:102BB000002001F0ADFF182001F0AAFF002001F075
:102BC000A7FF502001F0A4FF002001F0A1FF0C207E
:102BD00001F09EFF002001F09BFF172001F098FFFD
:102BE000002001F095FF952001F092FF002001F0F8
:102BF0008FFFF32001F08CFF002001F089FFE62019
:102C000001F086FF002001F083FFC52001F08CFF5A
:102C1000322001F07DFF002001F07AFF442001F016
:102C200077FF002001F074FF652001F071FF0020A4
:102C300001F06EFF762001F06BFF002001F068FFCD
:102C4000882001F065FF002001F062FFC62001F03E
:102C50006BFF202001F05CFF002001F059FF1720DE
:102C600001F056FF002001F053FF012001F050FF5A
:102C7000002001F04DFFC72001F056FF002001F0B9
:102C800047FF002001F044FF002001F041FF002039
:102C900001F03EFFC82001F047FF002001F038FF9F
:102CA000002001F035FF002001F032FF002001F08C
:102CB0002FFFC92001F038FF002001F029FF00207C
:102CC00001F026FF002001F023FF002001F020FF8B
:102CD000002001F01DFF002001F01AFF002001F08C
:102CE00017FF002001F014FF002001F011FF002069
:102CF00001F00EFF002001F00BFF002001F008FFA3
:102D0000002001F005FF002001F002FF002001F08B
:102D1000FFFE002001F0FCFEE02001F005FF162080
:102D200001F0F6FE002001F0F3FE1C2001F0F0FEA1
:102D3000002001F0EDFE212001F0EAFE002001F06C
:102D4000E7FE362001F0E4FE002001F0E1FE46201F
:102D500001F0DEFE002001F0DBFE522001F0D8FE83
:102D6000002001F0D5FE642001F0D2FE002001F029
:102D7000CFFE7A2001F0CCFE002001F0C9FE8B20AE
:102D800001F0C6FE002001F0C3FE992001F0C0FE54
:102D9000002001F0BDFEA82001F0BAFE002001F0E5
:102DA000B7FEB92001F0B4FE002001F0B1FEC4204E
:102DB00001F0AEFE002001F0ABFECA2001F0A8FE3B
:102DC000002001F0A5FED22001F0A2FE002001F0BB
:102DD0009FFED92001F09CFE002001F099FEE0202A
:102DE00001F096FE002001F093FEF32001F090FE2A
:102DF000002001F08DFEE12001F096FE162001F08A
:102E000087FE002001F084FE1C2001F081FE0020DE
:102E100001F07EFE222001F07BFE002001F078FE12
:102E2000362001F075FE002001F072FE452001F011
:102E30006FFE002001F06CFE522001F069FE0020C0
:102E400001F066FE642001F063FE002001F060FEE8
:102E50007A2001F05DFE002001F05AFE8B2001F087
:102E600057FE002001F054FE992001F051FE002091
:102E700001F04EFEA82001F04BFE002001F048FEBC
:102E8000B92001F045FE002001F042FEC42001F00F
:102E90003FFE002001F03CFECA2001F039FE002078
:102EA00001F036FED22001F033FE002001F030FEAA
:102EB000D82001F02DFE002001F02AFEE02001F0D4
:102EC00027FE002001F024FEF32001F021FE002067
:102ED00001F01EFEE22001F027FE052001F018FEA1
:102EE000002001F015FE0B2001F012FE002001F081
:102EF0000FFE1B2001F00CFE002001F009FE342023
:102F000001F006FE002001F003FE442001F000FE67
:102F1000002001F0FDFD4F2001F0FAFD002001F03E
:102F2000F7FD612001F0F4FD002001F0F1FD7920B2
:102F300001F0EEFD002001F0EBFD882001F0E8FD3E
:102F4000002001F0E5FD972001F0E2FD002001F0F6
:102F5000DFFDA62001F0DCFD002001F0D9FDB72047
:102F600001F0D6FD002001F0D3FDC22001F0D0FD1C
:102F7000002001F0CDFDC72001F0CAFD002001F0C6
:102F8000C7FDD12001F0C4FD002001F0C1FDD62015
:102F900001F0BEFD002001F0BBFDDD2001F0B8FD19
:102FA000002001F0B5FDF32001F0B2FD002001F09A
:102FB000AFFDE32001F0B8FD052001F0A9FD0020E0
:102FC00001F0A6FD0A2001F0A3FD00E004E30020CB
:102FD00001F09EFD1C2001F09BFD002001F098FDFA
:102FE000332001F095FD002001F092FD442001F016
:102FF0008FFD002001F08CFD502001F089FD0020A4
:1030000001F086FD622001F083FD002001F080FDCB
:10301000782001F07DFD002001F07AFD882001F08C
:1030200077FD002001F074FD972001F071FD002074
:1030300001F06EFDA62001F06BFD002001F068FD9F
:10304000B72001F065FD002001F062FDC22001F013
:103050005FFD002001F05CFDC72001F059FD00205C
:1030600001F056FDD12001F053FD002001F050FD8C
:10307000D52001F04DFD002001F04AFDDD2001F0DA
:1030800047FD002001F044FDF32001F041FD002048
:1030900001F03EFDE42001F047FD012001F038FD84
:1030A000002001F035FD012001F032FD002001F08B
:1030B0002FFD022001F02CFD002001F029FD2A2027
:1030C00001F026FD002001F023FD3C2001F020FD51
:1030D000002001F01DFD4B2001F01AFD002001F041
:1030E00017FD5D2001F014FD002001F011FD74209A
:1030F00001F00EFD002001F00BFD842001F008FD21
:10310000002001F005FD932001F002FD002001F0F8
:10311000FFFCA22001F0FCFC002001F0F9FCB32030
:1031200001F0F6FC002001F0F3FCBE2001F0F0FC01
:10313000002001F0EDFCC42001F0EAFC002001F0C9
:10314000E7FCCD2001F0E4FC002001F0E1FCD320FD
:1031500001F0DEFC002001F0DBFCDD2001F0D8FCFA
:10316000002001F0D5FCF32001F0D2FC002001F09A
:10317000CFFCE52001F0D8FC002001F0C9FC0020C4
:1031800001F0C6FC002001F0C3FC002001F0C0FCEF
:10319000022001F0BDFC002001F0BAFC292001F062
:1031A000B7FC002001F0B4FC3C2001F0B1FC002091
:1031B00001F0AEFC4B2001F0ABFC002001F0A8FCBC
:1031C0005D2001F0A5FC002001F0A2FC742001F0BC
:1031D0009FFC002001F09CFC842001F099FC002061
:1031E00001F096FC932001F093FC002001F090FC8C
:1031F000A22001F08DFC002001F08AFCB32001F038
:1032000087FC002001F084FCBE2001F081FC00203E
:1032100001F07EFCC42001F07BFC002001F078FC72
:10322000CD2001F075FC002001F072FCD32001F0EC
:103230006FFC002001F06CFCDC2001F069FC002038
:1032400001F066FCF32001F063FC002001F060FC5B
:10325000E62001F069FC112001F05AFC002001F089
:1032600057FC342001F054FC002001F051FC5620A2
:1032700001F04EFC002001F04BFC762001F048FCF0
:10328000002001F045FC772001F042FC002001F015
:103290003FFC662001F03CFC002001F039FC882056
:1032A00001F036FC002001F033FC992001F030FCE5
:1032B000002001F02DFCBB2001F02AFC002001F0D1
:1032C00027FC992001F024FC002001F021FC66205D
:1032D00001F01EFC002001F01BFC552001F018FC41
:1032E000002001F015FC552001F012FC002001F037
:1032F0000FFC452001F00CFC002001F009FC4320EC
:1033000001F006FC002001F003FC442001F000FC69
:10331000002001F0FDFBE72001F006FC322001F067
:10332000F7FB002001F0F4FB552001F0F1FB002039
:1033300001F0EEFB762001F0EBFB002001F0E8FB52
:10334000662001F0E5FB002001F0E2FB672001F0C0
:10335000DFFB002001F0DCFB672001F0D9FB00203F
:1033600001F0D6FB872001F0D3FB002001F0D0FB59
:10337000992001F0CDFB002001F0CAFBBB2001F039
:10338000C7FB002001F0C4FB992001F0C1FB002025
:1033900001F0BEFB772001F0BBFB002001F0B8FB81
:1033A000442001F0B5FB002001F0B2FB562001F0F3
:1033B000AFFB002001F0ACFB232001F0A9FB0020B3
:1033C00001F0A6FB332001F0A3FB002001F0A0FBDD
:1033D000452001F09DFB002001F09AFBE82001F060
:1033E000A3FB002001F094FB002001F091FB992049
:1033F00001F08EFB002001F08BFB872001F088FBA1
:10340000002001F085FB882001F082FB002001F004
:103410007FFB772001F07CFB002001F079FB662028
:1034200001F076FB002001F073FB882001F070FBB7
:10343000002001F06DFBAA2001F06AFB002001F0E2
:1034400067FBBB2001F064FB002001F061FB9920C9
:1034500001F05EFB002001F05BFB662001F058FBF1
:10346000002001F055FB552001F052FB002001F037
:103470004FFB552001F04CFB002001F049FB44209C
:1034800001F046FB002001F043FB442001F040FB2B
:10349000002001F03DFB552001F03AFB002001F037
:1034A00037FBE92001F040FBAA2001F031FB0020AE
:1034B00001F02EFB002001F02BFB002001F028FB87
:1034C000002001F031FBAA2001F022FBCF2001F007
:1034D0002BFB002001F01CFB002001F019FB002059
:1034E00001F016FB002001F013FB002001F010FB9F
:1034F000002001F00DFB002001F00AFB002001F08C
:1035000007FB002001F004FB002001F001FB00207C
:1035100001F0FEFA002001F0FBFA002001F0F8FAB9
:10352000002001F0F5FA002001F0F2FA002001F08D
:10353000EFFA002001F0ECFAF02001F0F5FA00209B
:1035400001F0E6FA502001F0E3FA002001F0E0FA81
:10355000002001F0DDFA002001F0DAFAF32001F09A
:10356000E3FA002001F0D4FAF92001F0DDFA062098
:1035700001F0CEFA102001F0CBFA292001F0C8FAB0
:10358000002001F0C5FA3A2001F0CEFA552001F0F2
:10359000BFFA112001F0C8FA642002F0EDFD2920E5
:1035A00001F0C2FA352001F0BFFA002001F0B0FAB4
:1035B000512001F0B9FAFF2001F0AAFA532001F0DE
:1035C000B3FA2C2001F0A4FA552001F0ADFA8220C4
:1035D00001F09EFA2C20FCE3A8427CD14FF470430A
:1035E0005521184601F0B6FA4FF2010AAA215046B9
:1035F00001F0B0FA4FF2020B5221584601F0AAFA3C
:1036000008214FF2030001F0A5FA01214FF2040056
:1036100001F0A0FA0D214FF4304001F09BFA0D218A
:103620004BF2010001F096FA0D214BF2020001F07D
:1036300091FA34214FF4364001F08CFA34214BF2E8
:10364000016001F087FA34214BF2026001F082FA46
:103650000D214FF4314001F07DFA0D214BF20110A4
:1036600001F078FA0D214BF2021001F073FA3421C7
:103670004FF4374001F06EFA34214BF2017001F043
:1036800069FA34214BF2027001F064FA00214FF420
:10369000324001F05FFA00214BF2012001F05AFAAA
:1036A00000214BF2022001F055FA24214FF438405A
:1036B00001F050FA24214BF6010001F04BFA2421CD
:1036C0004BF6020001F046FA01214FF43F4001F0B1
:1036D00041FA0F2100E0FDE34FF4334001F03AFAE4
:1036E0000F214BF2013001F035FA0F214BF202307D
:1036F00001F030FA34214FF4394001F02BFA342133
:103700004BF6011001F026FA34214BF6021001F0BD
:1037100021FA08214FF4354001F01CFA08214BF240
:10372000015001F017FA08214BF2025001F012FA91
:1037300003214FF4424001F00DFA24214FF43A40A6
:1037400001F008FA24214BF6012001F003FA2421AC
:103750004BF6022001F0FEF900214FF43C4001F04D
:10376000F9F978214BF6014001F0F4F900214BF60C
:10377000024001F0EFF900214FF43D4001F0EAF979
:1037800078214BF6015001F0E5F900214BF602508B
:1037900001F0E0F900214FF43E4001F0DBF9642133
:1037A0004BF6016001F0D6F900214FF4514001F0D1
:1037B000D1F933214DF2011001F0CCF900214DF285
:1037C000021001F0C7F934214DF2031001F0C2F9E3
:1037D00000214DF2041001F0BDF93A214DF205101F
:1037E00001F0B8F900214DF2061001F0B3F94A21B9
:1037F0004DF2071001F0AEF900214DF2081001F072
:10380000A9F95C214DF2091001F0A4F900214DF253
:103810000A1001F09FF981214DF20B1001F09AF985
:1038200000214DF20C1001F095F9A6214DF20D107A
:1038300001F090F900214DF20E1001F08BF9E52115
:103840004DF20F1001F086F901214DF2101001F038
:1038500081F913214DF2111001F07CF901214DF293
:10386000121001F077F954214DF2131001F072F9A2
:1038700001214DF2141001F06DF982214DF2151065
:1038800001F068F901214DF2161001F063F9CA2127
:103890004DF2171001F05EF902214DF2181001F0FF
:1038A00059F900214DF2191001F054F902214DF29D
:1038B0001A1001F04FF901214DF21B1001F04AF9E5
:1038C00002214DF21C1001F045F934214DF21D107A
:1038D00001F040F902214DF21E1001F03BF9672181
:1038E0004DF21F1001F036F902214DF2201001F0C7
:1038F00031F984214DF2211001F02CF902214DF211
:10390000221001F027F9A4214DF2231001F022F931
:1039100002214DF2241001F01DF9B7214DF22510BE
:1039200001F018F902214DF2261001F013F9CF2110
:103930004DF2271001F00EF902214DF2281001F08E
:1039400009F9DE214DF2291001F004F902214DF2AE
:103950002A1001F0FFF8F2214DF22B1001F0FAF8D5
:1039600002214DF22C1001F0F5F8FE214DF22D1040
:1039700001F0F0F803214DF22E1001F0EBF81021C8
:103980004DF22F1001F0E6F803214DF2301001F056
:10399000E1F833214DF2311001F0DCF803214DF252
:1039A000321001F0D7F86D214DF2331001F0D2F84A
:1039B00000214FF4524001F0CDF833214DF20120A7
:1039C00001F0C8F800214DF2022001F0C3F83421C3
:1039D0004DF2032001F0BEF800214DF2042001F069
:1039E000B9F83A214DF2052001F0B4F800214DF26A
:1039F000062001F0AFF84A214DF2072001F0AAF8A5
:103A000000214DF2082001F0A5F85C214DF20920BB
:103A100001F0A0F800214DF20A2001F09BF881216D
:103A20004DF20B2001F096F800214DF20C2001F030
:103A300091F8A6214DF20D2001F08CF800214DF2F5
:103A40000E2001F087F8E5214DF20F2001F082F8F9
:103A500001214DF2102001F07DF813214DF21120CB
:103A600001F078F801214DF2122001F073F8542191
:103A70004DF2132001F06EF801214DF2142001F0F7
:103A800069F882214DF2152001F064F801214DF210
:103A9000162001F05FF8CA214DF2172001F05AF804
:103AA00002214DF2182001F055F800214DF21920A5
:103AB00001F050F802214DF21A2001F04BF80121DB
:103AC0004DF21B2001F046F802214DF21C2001F0BE
:103AD00041F834214DF21D2001F03CF802214DF255
:103AE0001E2001F037F867214DF21F2001F032F857
:103AF00002214DF2202001F02DF884214DF22120E9
:103B000001F028F802214DF2222001F023F8A4212F
:103B10004DF2232001F01EF802214DF2242001F085
:103B200019F8B7214DF2252001F014F802214DF2C9
:103B3000262001F00FF8CF214DF2272001F00AF8DE
:103B400002214DF2282001F005F8DE214DF2292056
:103B500001F000F802214DF22A2000F0FBFFF221D3
:103B60004DF22B2000F0F6FF02214DF22C2000F048
:103B7000F1FFFE214DF22D2000F0ECFF03214DF26C
:103B80002E2000F0E7FF10214DF22F2000F0E2FF81
:103B900003214DF2302000F0DDFF33214DF23120C2
:103BA00000F0D8FF03214DF2322000F0D3FF6D2149
:103BB0004DF2332000F0CEFF00214FF4534000F0CF
:103BC000C9FF33214DF2013000F0C4FF00214DF256
:103BD000023000F0BFFF34214DF2033000F0BAFF95
:103BE00000214DF2043000F0B5FF3A214DF20530CE
:103BF00000F0B0FF00214DF2063000F0ABFF4A218B
:103C00004DF2073000F0A6FF00214DF2083000F021
:103C1000A1FF5C214DF2093000F09CFF00214DF224
:103C20000A3000F097FF81214DF20B3000F092FF37
:103C300000214DF20C3000F08DFFA6214DF20D3029
:103C400000F088FF00214DF20E3000F083FFE521E7
:103C50004DF20F3000F07EFF01214DF2103000F0E8
:103C600079FF13214DF2113000F074FF01214DF264
:103C7000123000F06FFF54214DF2133000F06AFF54
:103C800001214DF2143000F065FF82214DF2153014
:103C900000F060FF01214DF2163000F05BFFCA21F9
:103CA0004DF2173000F056FF02214DF2183000F0AF
:103CB00051FF00214DF2193000F04CFF02214DF26E
:103CC0001A3000F047FF01214DF21B3000F042FF97
:103CD00002214DF21C3000F03DFF34214DF21D3029
:103CE00000F038FF02214DF21E3000F033FF672153
:103CF0004DF21F3000F02EFF02214DF2203000F077
:103D000029FF84214DF2213000F024FF02214DF2E1
:103D1000223000F01FFFA4214DF2233000F01AFFE3
:103D200002214DF2243000F015FFB7214DF225306D
:103D300000F010FF02214DF2263000F00BFFCF21E2
:103D40004DF2273000F006FF02214DF2283000F03E
:103D500001FFDE214DF2293000F0FCFE02214DF280
:103D60002A3000F0F7FEF2214DF22B3000F0F2FE87
:103D700002214DF22C3000F0EDFEFE214DF22D30EF
:103D800000F0E8FE03214DF22E3000F0E3FE10219A
:103D90004DF22F3000F0DEFE03214DF2303000F006
:103DA000D9FE33214DF2313000F0D4FE03214DF223
:103DB000323000F0CFFE6D214DF2333000F0CAFEFC
:103DC00000214FF4544000F0C5FE33214DF2014074
:103DD00000E083E300F0BEFE00214DF2024000F05F
:103DE000B9FE34214DF2034000F0B4FE00214DF243
:103DF000044000F0AFFE3A214DF2054000F0AAFE6B
:103E000000214DF2064000F0A5FE4A214DF2074088
:103E100000F0A0FE00214DF2084000F09BFE5C2166
:103E20004DF2094000F096FE00214DF20A4000F0EC
:103E300091FE81214DF20B4000F08CFE00214DF2ED
:103E40000C4000F087FEA6214DF20D4000F082FEEE
:103E500000214DF20E4000F07DFEE5214DF20F40B5
:103E600000F078FE01214DF2104000F073FE1321A6
:103E70004DF2114000F06EFE01214DF2124000F0B3
:103E800069FE54214DF2134000F064FE01214DF211
:103E9000144000F05FFE82214DF2154000F05AFE02
:103EA00001214DF2164000F055FECA214DF2174097
:103EB00000F050FE02214DF2184000F04BFE0021B0
:103EC0004DF2194000F046FE02214DF21A4000F07A
:103ED00041FE00E005E301214DF21B4000F03AFEF7
:103EE00002214DF21C4000F035FE34214DF21D4000
:103EF00000F030FE02214DF21E4000F02BFE672143
:103F00004DF21F4000F026FE02214DF2204000F04D
:103F100021FE84214DF2214000F01CFE02214DF2D1
:103F2000224000F017FEA4214DF2234000F012FEC3
:103F300002214DF2244000F00DFEB7214DF2254044
:103F400000F008FE02214DF2264000F003FECF21D2
:103F50004DF2274000F0FEFD02214DF2284000F016
:103F6000F9FDDE214DF2294000F0F4FD02214DF271
:103F70002A4000F0EFFDF2214DF22B4000F0EAFD67
:103F800002214DF22C4000F0E5FDFE214DF22D40C6
:103F900000F0E0FD03214DF22E4000F0DBFD10218A
:103FA0004DF22F4000F0D6FD03214DF2304000F0DD
:103FB000D1FD33214DF2314000F0CCFD03214DF213
:103FC000324000F0C7FD6D214DF2334000F0C2FDDC
:103FD00000214FF4554000F0BDFD33214DF201505A
:103FE00000F0B8FD00214DF2025000F0B3FD342185
:103FF0004DF2035000F0AEFD00214DF2045000F0F0
:10400000A9FD3A214DF2055000F0A4FD00214DF22A
:10401000065000F09FFD4A214DF2075000F09AFD36
:1040200000214DF2085000F095FD5C214DF2095041
:1040300000F090FD00214DF20A5000F08BFD81212F
:104040004DF20B5000F086FD00214DF20C5000F0B7
:1040500081FDA6214DF20D5000F07CFD00214DF2B6
:104060000E5000F077FDE5214DF20F5000F072FD8B
:1040700001214DF2105000F06DFD13214DF2115051
:1040800000F068FD01214DF2125000F063FD542153
:104090004DF2135000F05EFD01214DF2145000F07E
:1040A00059FD82214DF2155000F054FD01214DF2D1
:1040B000165000F04FFDCA214DF2175000F04AFD96
:1040C00002214DF2185000F045FD00214DF219502B
:1040D00000F040FD02214DF21A5000F03BFD01219D
:1040E0004DF21B5000F036FD02214DF21C5000F045
:1040F00031FD34214DF21D5000F02CFD02214DF216
:104100001E5000F027FD67214DF21F5000F022FDE8
:1041100002214DF2205000F01DFD84214DF221506E
:1041200000F018FD02214DF2225000F013FDA421F1
:104130004DF2235000F00EFD02214DF2245000F00C
:1041400009FDB7214DF2255000F004FD02214DF28A
:10415000265000F0FFFCCF214DF2275000F0FAFC72
:1041600002214DF2285000F0F5FCDE214DF22950DD
:1041700000F0F0FC02214DF22A5000F0EBFCF2219D
:104180004DF22B5000F0E6FC02214DF22C5000F0D5
:10419000E1FCFE214DF22D5000F0DCFC03214DF23C
:1041A0002E5000F0D7FC10214DF22F5000F0D2FC21
:1041B00003214DF2305000F0CDFC33214DF231504F
:1041C00000F0C8FC03214DF2325000F0C3FC6D2119
:1041D0004DF2335000F0BEFC00214FF4564000F089
:1041E000B9FC33214DF2016000F0B4FC00214DF226
:1041F000026000F0AFFC34214DF2036000F0AAFC35
:1042000000214DF2046000F0A5FC3A214DF205605A
:1042100000F0A0FC00214DF2066000F09BFC4A215A
:104220004DF2076000F096FC00214DF2086000F0AE
:1042300091FC5C214DF2096000F08CFC00214DF2F4
:104240000A6000F087FC81214DF20B6000F082FCD7
:1042500000214DF20C6000F07DFCA6214DF20D60B6
:1042600000F078FC00214DF20E6000F073FCE521B7
:104270004DF20F6000F06EFC01214DF2106000F075
:1042800069FC13214DF2116000F064FC01214DF234
:10429000126000F05FFC54214DF2136000F05AFCF4
:1042A00001214DF2146000F055FC82214DF21560A1
:1042B00000F050FC01214DF2166000F04BFCCA21C9
:1042C0004DF2176000F046FC02214DF2186000F03C
:1042D00041FC00214DF2196000F03CFC02214DF23E
:1042E0001A6000F037FC01214DF21B6000F032FC37
:1042F00002214DF21C6000F02DFC34214DF21D60B6
:1043000000F028FC02214DF21E6000F023FC672122
:104310004DF21F6000F01EFC02214DF2206000F003
:1043200019FC84214DF2216000F014FC02214DF2B1
:10433000226000F00FFCA4214DF2236000F00AFC83
:1043400002214DF2246000F005FCB7214DF22560FA
:1043500000F000FC02214DF2266000F0FBFBCF21B3
:104360004DF2276000F0F6FB02214DF2286000F0CC
:10437000F1FBDE214DF2296000F0ECFB02214DF251
:104380002A6000F0E7FBF2214DF22B6000F0E2FB27
:1043900002214DF22C6000F0DDFBFE214DF22D607C
:1043A00000F0D8FB03214DF22E6000F0D3FB10216A
:1043B0004DF22F6000F0CEFB03214DF2306000F093
:1043C000C9FB33214DF2316000F0C4FB03214DF2F3
:1043D000326000F0BFFB6D214DF2336000F0BAFB9C
:1043E0005521184600F0B6FBAA21504600F0B2FB5A
:1043F0005221584600F0AEFB08214FF2030000F0B6
:10440000A9FB00214FF2040000F0A4FBCC214FF4E3
:10441000314000F09FFB00214BF2011000F09AFBAD
:1044200005214FF4364000F095FB70214FF43740E2
:1044300000F090FB70214BF2017000F08BFB01212A
:104440004FF4384000F086FB03214BF6010000F0EA
:1044500081FB03214BF6020000F07CFB03214BF6AD
:10446000030000F077FB02214FF43C4000F072FBA8
:1044700000214BF6014000F06DFB00214BF602409D
:1044800000F068FBD0214FF4494000F063FB0221AB
:104490004CF6011000F05EFB50214CF6021000F0CB
:1044A00059FB50214CF6031000F054FB50214CF600
:1044B000041000F04FFB00214FF4545000F04AFB71
:1044C00055214FF4685000F045FB4FF4885000F040
:1044D0002BFB782001F05BFE4FF4245000F024FB0E
:1044E000B9E0B842FCD1E22000F01EFB1D2000F034
:1044F0000FFB022000F00CFB042000F009FB6420FD
:1045000001F045FEE02000F00FFB012000F000FB71
:104510000A2001F031FEE02000F006FB032000F04D
:10452000F7FA0C2001F028FE012000F0FDFA0A2025
:1045300001F022FEE62000F0F7FA2F2000F0E8FA62
:10454000FF2000F0E5FAFF2000F0E2FAB02000F0D2
:10455000EBFA202000F0DCFA002000F0D9FA03206A
:1045600000F0D6FA40F21F3000F0D2FA012000F03D
:10457000CFFA40F2DF1000F0CBFA002000F0C8FACA
:10458000B42000F0D1FA042000F0C2FA40F21F403B
:1045900000F0BEFA002000F0BBFA2E2000F0B8FABE
:1045A000002000F0B5FA002000F0B2FA002000F080
:1045B000AFFA002000F0ACFAB62000F0B5FA022005
:1045C00000F0A6FA4FF4037000F0A2FA002000F009
:1045D0009FFA172000F09CFA152000F099FA0020AD
:1045E00000F096FA002000F093FAF02000F09CFA18
:1045F000032000F08DFA292000F096FAD02000F078
:1046000093FA002000F084FABE2000F08DFA052015
:1046100000F07EFAFE2000F07BFA012000F078FA2C
:10462000002000F075FA002000F072FA002000F07F
:104630006FFAB82000F078FA032000F069FA012040
:1046400000F066FABA2000F06FFA012000F060FA7C
:10465000642000F03BF8A088404505D0B04203D06C
:10466000A84201D0B84219D14FF02040D0F804112F
:1046700021F00F01C0F80411D0F8041121F4706189
:10468000C0F80411D0F8041141F00401C0F804117D
:10469000D0F8041141F48061C0F804110020FDF746
:1046A000ABFD04490120C1F894024846BDE8F05F23
:1046B000FDF788BD00804042034808B50088ADF88A
:1046C0000000BDF8000008BD0000086010B50246FB
:1046D000BE2000F029FA052000F01AFA1046FBF778
:1046E000B4FE9FED0C1B53EC112BFBF73CFEFBF7CC
:1046F000B9FE80B200F00CFA012000F009FAFF20A8
:1047000000F006FA002000F003FABDE81040002097
:1047100000F0FEB96666666666660440F0B56C4CED
:1047200000232146A279898841F66316012A01D027
:104730001AB11BE0B14202D118E0B14216D10828EB
:1047400014D2DFE800F00406080A0C0E101206204E
:104750000CE007200AE0042008E0052006E0012024
:1047600004E0002002E0032000E00220A1F513474E
:1047700045F2103245F21055413F05D0914203D029
:10478000A94201D0B14277D1082812D2DFE800F067
:10479000110406080A0C0E1080230AE0402308E0EA
:1047A000C02306E0202304E0602302E0A02300E011
:1047B000E023A94202D14FF4585000E03620914244
:1047C00005D0A94203D0B14201D043F008031946F5
:1047D00000F0C0F9A188B1420AD09806208862880A
:1047E00002D5904202D303E0904201D9228060803A
:1047F0006089A94241D100F097F9002000F088F9C2
:104800006089401C80B200F08FF9002000F080F930
:104810006089801C80B200F087F92088401EC0F3B8
:104820000F2000F075F96089C01C80B200F07CF99F
:104830002078401EC0B200F06BF9A08900F074F936
:10484000002000F065F9A089401C80B200F06CF9EE
:10485000002000F05DF9A089801C80B200F064F9AE
:104860006088401EC0F30F2000F052F9A089C01CE0
:1048700080B200F059F922E028E000F055F900205C
:1048800000F046F9002000F043F92088401EC0F3F4
:104890000F2000F03DF92078401EC0B200F038F93A
:1048A000A08900F041F9002000F032F9002000F06A
:1048B0002FF96088401EC0F30F2000F029F9A0787E
:1048C000BDE8F040401EC0B200F022B9F0BD0000CB
:1048D00094EE0120F0B53F4A0D460446060A918841
:1048E00010462F0A4089A1F51343413B28D0A1F57A
:1048F000A643103B24D0A1F5C853633B2FD0A1F5AC
:10490000AA43103B64D100F00FF9304600F000F9E3
:104910005089401C80B200F007F9E0B200F0F8F8CE
:10492000908900F001F9384600F0F2F89089401CB7
:1049300080B200F0F9F8E8B2BDE8F04000F0E8B865
:1049400000F0F2F8304600F0E3F8E0B200F0E0F8F2
:10495000908900F0E9F8384600F0DAF8EBE7917951
:1049600029B300F0E1F8304600F0D2F8E0B200F0F0
:10497000CFF81088401EC0F30F2000F0C9F810785F
:10498000401EC0B200F0C4F8908900F0CDF838465F
:1049900000F0BEF8E8B200F0BBF85088401EC0F34B
:1049A0000F2000F0B5F89078401EC0B2C4E711881F
:1049B000091B491E8CB200F0B7F8002000F0A8F8DF
:1049C000002000F0A5F8200A00F0A2F8E0B2D9E734
:1049D000F0BD000094EE01202DE9FF4F1D460C466E
:1049E0008A46580700D0012000EBD500690810FB6B
:1049F00001F0203A00F0FF09D0B20026DFF8A4B0A1
:104A000002904BE00C2D11D0102D14D0182D17D082
:104A1000202D45D12449029801EBC0104FF0000829
:104A2000875D380613D52148026814E002982049B2
:104A300000EB400008E01F49029801EB0010EDE791
:104A400002981D4900EBC00001EB8000E6E70D98DD
:104A500028B91648426821460098FDF739FC7806C7
:104A6000070E641CBBF80200A4B2A04218D9A4EB44
:104A70000A00A84209D100985446401C80B2009018
:104A8000BBF8001081420BD906E008F1010000F0EC
:104A9000FF08B8F1080FC4D3761CF6B24E45B1D367
:104AA000BDE8FF8F94EE01202490000890000020C4
:104AB00064780008D87C0008C88200082DE9F84F07
:104AC000044600F0FF0910190D46DDE90AB61FFA89
:104AD00080F8581987B24FF0000A12E0444503D31A
:104AE00005EB0B004C4685B2BD420FD25B46294612
:104AF0002046CDF800A0FFF76FFF04EB5B0084B207
:104B0000761C3278A2F120005E28E7D9BDE8F88F44
:104B100001B5BDF80000ADF80000BDF80000014986
:104B2000088008BD0000086001B5BDF80000ADF8C0
:104B30000000BDF800000149088008BDFEFF0760C5
:104B400002480349008908807047000094EE012064
:104B5000FEFF0760024A1080901C01807047000031
:104B6000FEFF07600D4808B5016841F4800101604F
:104B70000068002200F48000009005213B20FCF733
:104B80000DFA3B20FCF7FCF9002205214520FCF73B
:104B900005FABDE808404520FCF7F2B9303802407C
:104BA00010B504490448FBF7C8FD0249491E0870C6
:104BB00010BD00000D0000200478000800B5174863
:104BC0008FB04FF02041016015494160062181609E
:104BD00000211022C160C0E904128161C16112028A
:104BE0000162C0E90912C162016341638163C1636B
:104BF00041640F2046228DE80700CDE90810CDE979
:104C000006100D9107AA69460448FDF785F90028AA
:104C100001D0FBF790FD0FB000BD000044EE012075
:104C2000040100A000F07EBE00B587B014216846E4
:104C3000FBF782FB2248016841F0800101600168B6
:104C400001F080010591016841F0100101600168E7
:104C500001F010010591016841F00801016001684F
:104C600001F008010591016841F00401016001684B
:104C700001F004010591016841F001010160016842
:104C800001F001010591016841F0400101600168F6
:104C900001F040010591016841F0020101600068E6
:104CA000694600F00200059020200090012001904C
:104CB0000290032003900348FBF7C4FF07B000BD38
:104CC00030380240000402400648054901600021D6
:104CD00041608160C1600161416102218161704771
:104CE000002C0140C0EC01200C4810B50A490160BD
:104CF0004FF4E1314160002181600C22C160C0E9C4
:104D000004128161C161FCF78DF8002803D0BDE871
:104D10001040FBF710BD10BD0010014004EE012053
:104D2000FEE7FEE70A6842624A688262D1E902232E
:104D30001A43D1E904310B43C16A1A4321F0F70148
:104D40001143C16200207047006800F00300704703
:104D500008444069704700000148FCF7B7BD0000F7
:104D6000C0EC012070B50DF1100C11439CE87000EF
:104D70002343194329434268314347F6FF639A436B
:104D80000A434260002070BD10B50321016002207B
:104D9000FBF700FF002010BDD0F8800070470A68C4
:104DA0008260D1E901231A43D1E903310B43C16881
:104DB0001A436FF30B011143C1600020704709686B
:104DC000C0F880100020704710B586B00446372028
:104DD000CDE9001040200290002003904FF4806045
:104DE000049069462046FFF7DAFF41F28832372106
:104DF000204600F0BDF906B010BD000010B5044615
:104E00000A4886B001432920CDE9001040200290D5
:104E1000002003904FF48060049069462046FFF71D
:104E2000BEFF204600F05CFA06B010BD0000108006
:104E300010B586B004461020CDE900104020029045
:104E4000002003904FF48060049069462046FFF7ED
:104E5000A6FF41F288321021204600F089F906B001
:104E600010BD10B586B004460620CDE900104020E4
:104E70000290002003904FF4806004906946204621
:104E8000FFF78DFF41F288320621204600F070F9CD
:104E900006B010BD30B585B00024054600940194DD
:104EA0004FF480600294CDE9034069462846FFF73D
:104EB00076FF0B484FF4FA510068B0FBF1F041F275
:104EC00088314843401E03D24FF0004005B030BD4A
:104ED000696B0906F6D5C520A8632046F6E70000F1
:104EE0002000002070B585B004464FF4D5700090C6
:104EF00001A908204025002681E86100C001049036
:104F000069462046FFF74BFF12484FF4FA510068FC
:104F1000B0FBF1F041F288314843401E03D24FF01C
:104F2000004005B070BD616B11F0450FF5D009056B
:104F3000F3D4606B400701D5042003E0606BC00729
:104F400002D00120A063ECE7606B400600D5A563AA
:104F50003046E6E72000002010B586B00446122057
:104F6000CDE9001040200290002003904FF48060B3
:104F7000049069462046FFF712FF41F28832122161
:104F8000204600F0F5F806B010BD10B586B0044616
:104F90001120CDE9001040200290002003904FF432
:104FA0008060049069462046FFF7F9FE41F288329E
:104FB0001121204600F0DCF806B010BD10B586B017
:104FC00004460720CDE900204020029000200390F5
:104FD0004FF48060049069462046FFF7E0FE41F2FE
:104FE00088320721204600F0C3F806B010BD10B586
:104FF00086B0044600210220CDE90010C020CDE992
:1050000002014FF48060049069462046FFF7C7FE16
:10501000204600F03DF906B010BD10B586B004463C
:105020000920CDE90010C0200290002003904FF429
:105030008060049069462046FFF7B1FE204600F0EC
:1050400027F906B010BD10B586B004460021332004
:10505000CDE900104020CDE902010001049069462D
:105060002046FFF79CFE41F288323321204600F0B3
:105070007FF806B010BD10B586B004460D20CDE90E
:10508000001040200290002003904FF480600490B4
:1050900069462046FFF783FE41F288320D21204603
:1050A00000F066F806B010BD30B585B00C46054678
:1050B00000210320CDE900104020CDE902010001CC
:1050C000049069462846FFF76AFE224603212846D7
:1050D00000F028F905B030BD10B586B004460021B7
:1050E0000C20CDE900104020CDE902010001049020
:1050F00069462046FFF753FE034A0C21204600F084
:1051000037F806B010BD000000E1F50510B586B017
:1051100004461920CDE900104020029000200390A1
:105120004FF48060049069462046FFF738FE41F254
:1051300088321921204600F01BF806B010BD10B5CA
:1051400086B004461820CDE90010402002900020CF
:1051500003904FF48060049069462046FFF71FFEDD
:1051600041F288321821204600F002F806B010BD46
:10517000454B10B51B684FF4FA54B3FBF4F353439B
:105180005B1E02D24FF0004010BD426B12F0450F83
:10519000F6D01205F4D4426B520703D50421816383
:1051A000084610BD426BD20702D00121816305E0A1
:1051B000C52282630269D2B28A4201D0012010BDA9
:1051C0000021FFF7C5FD3149084201D1002010BD83
:1051D000002802DA4FF0007010BD410001D54020D8
:1051E00010BD810001D5802010BDC10002D54FF453
:1051F000807010BD010102D54FF4007010BD410157
:1052000002D54FF4806010BDC10102D54FF400609B
:1052100010BD010202D54FF4805010BD410202D5ED
:105220004FF4005010BD810202D54FF4804010BDF4
:10523000C10202D54FF4004010BD410302D54FF426
:10524000003010BD810302D54FF4802010BDC10392
:1052500002D54FF4002010BD010402D54FF4801098
:1052600010BD410402D54FF4001010BD810402D5D9
:105270004FF4800010BD000702D54FF4000010BDB0
:105280004FF4803010BD00002000002008E0FFFD3A
:1052900012494FF4FA520968B1FBF2F141F2883237
:1052A0005143491E02D24FF000407047426B12F04A
:1052B000450FF6D01205F4D4416B490703D50421FC
:1052C000816308467047416BC90703D001218163A0
:1052D00008467047C52181630020704720000020E8
:1052E0000F494FF4FA520968B1FBF2F141F28832EA
:1052F0005143491E02D24FF000407047426B12F0FA
:10530000450FF6D01205F4D4416B490703D50421AB
:10531000816308467047C521816300207047000003
:105320002000002030B5204B4FF4FA541B68B3FB2B
:10533000F4F341F2883463435B1E02D24FF0004025
:1053400030BD446B14F0450FF6D02405F4D4436B04
:105350005B0703D504218163084630BD436BDB073F
:1053600002D00121816303E00369DBB28B4201D0EB
:10537000012030BDC52181630021FFF7E9FC10F455
:10538000604F04D0410406D54FF4005030BD000CEE
:105390001080002030BD000402D54FF4805030BD95
:1053A0004FF4803030BD00002000002010B5064CC6
:1053B00001202070FBF706F918B9207820F00100D1
:1053C0002070207810BD00000400002070B5054654
:1053D00000F037FF044603E0FBF7F4F8002806D09E
:1053E00000F02FFF001BA842F6D34FF0FF3070BD36
:1053F00010B5846BFBF75AFA022828D0206C416D57
:10540000E06B406D012901D001281DD121681048B1
:1054100088632068C16B21F49D71C163A06B40F06B
:105420008040A0632046FCF73BFA062801D00528FF
:1054300005D12068FFF750FEA16B0843A06301204F
:1054400084F83400002020632046FCF749F910BDA1
:10545000FF05400010B5846B206B822809D12068BD
:10546000FFF73AFE28B1A16B0143A1632046FCF788
:1054700037F92068C16A21F00801C162216840F251
:105480003A508863012084F83400002020632046CD
:10549000FCF7A0FC10BD10B5846B40F23A502168B7
:1054A00088632046FCF7FCF9012184F834100021C0
:1054B0002163062801D0052805D12068FFF70CFEDE
:1054C000A16B0843A063A06B0028204602D0FCF724
:1054D00007F910BDFCF786F810BD806B0068C16B42
:1054E00041F48071C163704710B5846B40F23A504B
:1054F000216888632046FCF7D3F9012184F8341031
:1055000000212163062801D0052805D12068FFF776
:10551000E3FDA16B0843A063A06B0028204602D0E6
:10552000FCF7DEF810BDFCF75DF810BD2DE9F04F7B
:1055300089B00D460446FBF76FFC002683460096B3
:105540000196374608212068FFF772FC002834D105
:10555000B4F8500001042068FFF736FC00282CD175
:10556000401E4FF00808CDE9020830204FF0020934
:10557000CDE904090120CDE9067002A92068FFF7F2
:10558000D1FB2068FFF75FFD002816D1EA4640F204
:105590002A472068416B394212D1416B890204D5F8
:1055A000FFF7FAFB4AF82600761CFBF735FCA0EB68
:1055B0000B00401CEDD14FF0004009B0BDE8F08F6A
:1055C000416B090703D5C0F838800820F5E7416B27
:1055D000890703D5C0F838900220EEE7416B8906B1
:1055E00003D5202181630846E7E740F23A51816301
:1055F000019800BA2860009800BA68600020DCE7D3
:1056000010B590B004460120ADF838002068FFF7CF
:105610009BFB002854D0606C032842D02068FFF721
:10562000E6FC00284AD100212068FFF791FB606763
:1056300004212068FFF78CFBA06708212068FFF792
:1056400087FBE0670C212068FFF782FBC4F880002D
:10565000606C032825D00EA92068FFF725FD0028DF
:105660002CD1606C03281CD0BDF8380020650104E3
:105670002068FFF7D2FC002820D100212068FFF726
:1056800067FB606604212068FFF762FBA0660821C3
:105690002068FFF75DFBE0660C212068FFF758FBF0
:1056A000206704212068FFF753FB000DE06403A985
:1056B0002046FCF717F830B14FF0805010B010BD05
:1056C0004FF08060FAE7B4F850000023020420682D
:1056D000FFF774FC0028F1D104F1100007C88DE831
:1056E000070094E80F00FFF73DFB0020E6E700000D
:1056F0002DE9F84F0026044600963546B04600686E
:10570000FFF7C8FB002827D12068FFF7EBFB4FF01D
:10571000805B4FF001094FF6FF7748B1A66420681F
:10572000FFF7B8FB002817D1A06C012802D020E0B9
:10573000C4F8489000212068FFF746FB58B918E0EC
:1057400000212068FFF740FB002805D15146206862
:10575000FFF754FB10B15846BDE8F88F00212068D0
:10576000FFF7F6FA05464FEAD0780098401C009003
:1057700002E0DFF82CA00098B84202D2B8F1000F86
:10578000DED00098B84202D34FF08070E4E76800A2
:1057900002D5C4F8449000E066640020DCE7000015
:1057A000000010C17FB5124C05460120207000F0AA
:1057B0003AFDC8B1FAF712FF18B92846FFF7F6FD0F
:1057C0002070207801280FD0606868B9094B0FCB92
:1057D0008DE80F000021684600F03FFD606018B9B9
:1057E000207840F001002070207804B070BD0000E7
:1057F000040000201878000810B5124888B014463C
:105800000078C00702D0032008B010BDC1B1012943
:1058100005D0022908D003290CD00420F4E76846FB
:10582000FAF7CAFE06980AE06846FAF7C5FE079836
:10583000208005E06846FAF7BFFE0798400A20601E
:105840000020E1E7040000202DE9FE4347F2305438
:105850001E461746884601252046FFF7B7FD00285B
:105860001EDB324639464046FAF7D8FEC0B90F482B
:1058700022464168684600F003FDDDE9001010296A
:105880000ED101280CD100F0DCFC064603E000BF7D
:10589000FAF798FE38B100F0D4FC801BA042F7D391
:1058A0002846BDE8FE830025FAE70000040000203A
:1058B000FFF77CBD2DE9FE4347F230541D461746E5
:1058C000884601262046FFF781FD00281EDB2A4678
:1058D00039464046FAF7B8FEC0B90F48224641683B
:1058E000684600F0CDFCDDE9001010290ED1022839
:1058F0000CD100F0A6FC054603E000BFFAF762FEFB
:1059000038B100F09EFC401BA042F7D33046BDE802
:10591000FE830026FAE7000004000020012000F0CA
:105920007BFCFBE710B503A000F080F9BDE8104058
:1059300000F0FEBB0D0A72756E2073746172742DD7
:10594000210D0A0010B5502080F31188BFF34F8F4E
:10595000BFF36F8F01F0FCFD18B104494FF0805088
:105960000860002080F3118810BD000004ED00E005
:1059700030B593B030216846FAF7DEFC14210CA84C
:10598000FAF7DAFC20480025016841F080510160F7
:10599000006800F0805011901C48016841F44041BB
:1059A00001600068022400F4404011900120009042
:1059B000000401908001CDE90640192008904FF4C1
:1059C000B470CDE9090408200B906846FBF75CFC35
:1059D00008B172B6FEE7FBF713FB08B172B6FEE73B
:1059E0000CA90F2081E831004FF4A0500F904FF424
:1059F0008050109005210CA8FBF73AFB002801D03D
:105A000072B6FEE713B030BD40380240007000406F
:105A10000548016841F47001016003494FF00060DE
:105A2000803908607047000088ED00E00148FCF70D
:105A3000D0BA00001C050020F0B50268254C264DA8
:105A4000264E274F274B4FF0804CA04209D060458F
:105A500007D0A84205D0B04203D0B84201D0984246
:105A600004D122F0700E4A6842EA0E02A0421BD016
:105A7000604519D0A84217D0B04215D0B84213D013
:105A8000984211D0184DA8420ED0184DA8420BD004
:105A9000174DA84208D0174DA84205D0164DA84270
:105AA00002D0164DA84203D122F44075CA682A4399
:105AB0004D6922F080022A4302608A68C2620A6845
:105AC0008262A04201D0984201D10969016301219B
:105AD0004161F0BD000001400004004000080040AA
