:020000040800F2
:1000000018FA012081020008FF54000801260008A8
:10001000FD5400085507000889660008000000002C
:10002000000000000000000000000000C101000806
:1000300065080008000000001D0200082D6300088C
:100040009B0200089B0200089B0200089B0200081C
:100050009B0200089B0200089B0200089B0200080C
:100060009B0200089B0200089B0200089B020008FC
:100070009B0200089B0200089B0200089B020008EC
:100080009B0200089B0200089B0200089B020008DC
:100090009B0200089B0200089B0200089B020008CC
:1000A0009B0200089B0200089B0200089B020008BC
:1000B0009B02000815640008216400089B020008E8
:1000C0009B0200089B0200089B0200089B0200089C
:1000D0009B0200089B0200089B0200089B0200088C
:1000E0009B0200089B0200089B0200089B0200087C
:1000F0009B0200089B0200089B0200089B0200086C
:100100009B020008E55500089B0200089B020008BE
:100110009B0200089B0200089B0200089B0200084B
:100120009B0200089B0200089B020008A907000828
:100130009B0200089B0200089B0200089B0200082B
:100140009B0200089B0200089B0200089B0200081B
:100150009B020008B50700089B0200089B020008EC
:100160009B0200089B0200089B0200089B020008FB
:100170009B0200089B0200089B0200080000000090
:100180009B0200089B0200089B0200089B020008DB
:100190009B0200089B0200089B0200089B020008CB
:1001A0009B0200089B0200089B020008DFF80CD0AD
:1001B00000F00CFA00480047CD86000818FA01202C
:1001C0002C4B19680868B0E8F04F80F30988BFF33A
:1001D0006F8F4FF0000080F311887047000000001F
:1001E00008480068006880F308884FF0000080F33A
:1001F000148862B661B6BFF34F8FBFF36F8F00DF15
:1002000000BF00BF08ED00E0DFF80C00016841F41A
:1002100070010160704700BF88ED00E0EFF30980D6
:10022000BFF36F8F134B1A681EF0100F08BF20ED3D
:10023000108A20E9F04F106009B44FF0500080F3AD
:100240001188BFF34F8FBFF36F8F09F045FF4FF059
:10025000000080F3118809BC19680868B0E8F04F05
:100260001EF0100F08BFB0EC108A80F30988BFF3AE
:100270006F8F704740000020EFF30580704700004B
:100280000648804706480047FEE7FEE7FEE7FEE730
:10029000FEE7FEE7FEE7FEE7FEE7FEE7F96300089C
:1002A000AD0100082DE9F05F0546002092469B460F
:1002B00088460646814640241BE02846414647467C
:1002C000224600F016F953465A46C01A914110D3FF
:1002D00011461846224600F0FDF82D1A67EB01087A
:1002E0004F4622460120002100F0F4F817EB0009E8
:1002F0004E41201EA4F10104DFDC484631462A4667
:100300004346BDE8F09F40EA01039B0703D009E0A4
:1003100008C9121F08C0042AFAD203E011F8013BF1
:1003200000F8013B521EF9D27047D2B201E000F84A
:10033000012B491EFBD270470022F6E710B5134689
:100340000A4604461946FFF7F0FF204610BD10B5D7
:10035000044604E00B7800F8013B03B1491C521E2F
:10036000F8D2204610BD421C10F8011B0029FBD119
:10037000801A7047034611F8012B00F8012B002A60
:10038000F9D11846704730B505460020034600E015
:100390005B1C934205D2EC5CC85C201A01D1002C96
:1003A000F6D130BD2DE9FE4F81EA030404F000448C
:1003B00021F0004100944FF0000B23F0004350EA7D
:1003C00001045ED052EA03045BD0C3F30A54C1F3C4
:1003D0000A552C44A4F2F3340194A0FB0254C1F357
:1003E000130141F48011C3F3130343F4801301FBA1
:1003F000024400FB034E840A970A44EA815447EA08
:100400008357A4FB076802958D0A05FB07854FEA11
:10041000932C04FB0C542705029D4FEA065847EA2B
:100420001637B5EB08056EEB070C870E920E47EA00
:10043000811742EA8312A7FB0201B6EB0B0164EBC2
:1004400000042B0D43EA0C335E1844EB1C50DA46D3
:100450005146E7FB0201C5F313044FEA0B3343EAAD
:1004600014534FEA0432019C43EA0603A4F10C043E
:100470000294009CCDE900B400F05AF803B0BDE846
:10048000F08F00200146F9E70EB540F233410291AA
:100490000021CDE900110A460B4600F049F803B0EF
:1004A00000BDC1F30A5210B5C1F3130140F2FF338E
:1004B00041F480119A4201DA002010BD40F233432A
:1004C0009A42A2F2334203DC524200F012F810BD0D
:1004D000904010BD202A04DB203A00FA02F10020EF
:1004E00070479140C2F1200320FA03F31943904072
:1004F0007047202A04DB203A21FA02F000217047DD
:1005000021FA02F3D040C2F120029140084319467B
:10051000704710B5141E73F1000408DA401C41F155
:10052000000192185B411A4301D120F0010010BD77
:100530002DE9F04D92469B4611B1B1FA81F202E0ED
:10054000B0FA80F220329046FFF7C4FF04460F460F
:1005500040EA0A0041EA0B0153465A46084313D0C9
:10056000114653EA010019D0C8F140025046FFF786
:10057000C0FF05460E46504659464246FFF7AAFFC1
:10058000084305D0012004E020463946BDE8F08D3F
:100590000020054346EAE0762C4337430A9863057A
:1005A000E40AA0EB08000022FD0A44EA47540A309E
:1005B00002D500200146E9E7010510196941DDE98E
:1005C000084500196941BDE8F04DA2E7064C074D0A
:1005D00006E0E06840F0010394E807009847103413
:1005E000AC42F6D3FFF7E6FDDCF90008FCF90008A1
:1005F00070B58C1810F8015B15F0070301D110F8E5
:10060000013B2A1106D110F8012B03E010F8016B11
:1006100001F8016B5B1EF9D12B0705D40023521E94
:100620000DD401F8013BFAE710F8013BCB1A921CFC
:1006300003E013F8015B01F8015B521EF9D5A142FA
:10064000D8D3002070BD000070B5104C054620784E
:10065000072819D200EBC00101EB00100C4E32212B
:1006600006EB40002430FFF767FE2078312200EBD4
:10067000C00101EB001006EB400029462430FFF7D3
:1006800066FE2078401C207070BD00000400002031
:1006900014060020704700000146014801F02EBA00
:1006A00040F4012010B5044801F03AFA042801D0C2
:1006B000012010BD002010BD40F4012010B500F055
:1006C00015F8012801D0012010BD074801F042FBB8
:1006D000040006D14FF40061034801F0C7F800B1EF
:1006E0000124204610BD000040F4012008B501207F
:1006F0008DF800009DF8000008BD0000134610B5FD
:100700000A4601460024034801F00CFC00B1012414
:10071000204610BD40F4012002480022012140681B
:1007200008F086BAB0000020134610B50A4601460C
:100730000024034801F096FC00B10124204610BDBE
:1007400040F40120024800220221406808F070BAFB
:10075000B0000020FEE7000010B509F015FE0C4CBB
:10076000B0F5805F206007D240F6B83008F0E2F9BB
:10077000606940F0040008E0A0F58050B0F5806F9B
:1007800004D8606920F00300401C606110BD0000C7
:1007900014060020034A00211160516059213120C4
:1007A00004F022BE30010020014800F079B90000B9
:1007B000C4F40120014800F073B9000024F50120C1
:1007C00001681823CAB2103AB2FBF3F2054B6FF37B
:1007D0000901032A9B5CC36500D9091D8165084690
:1007E00070470000E0B0000810B5014600208B699A
:1007F0008A6A4FF0C07453B1B3F5005F15D072B17F
:10080000012A0CD0022A0AD0032A09D104E01AB125
:10081000012A06D0022A03D1C96AC90100D50120E4
:1008200010BDC96AA142FAD010BD002AF7D0012A32
:10083000F2D0022AF3D0032AF3D010BD30B50468F9
:10084000256825F480252560046863608368402B53
:10085000036803D099600068C26030BD9A60006888
:10086000C16030BD704772B6FEE7000038B50F4C6E
:100870002069002818D04FF47A7008F043F9002856
:1008800012D0616851B10120009001231A462069FD
:1008900009F0D8FCA0606168814205D1BDE838400C
:1008A00002480C3800F01BBC38BD000014060020C4
:1008B000002200F001B8000030B50E4B05460120C3
:1008C0005C7A002C14D1587A1C54587A03EB8000BF
:1008D00045605D7A03F108002A54587A421C5A7226
:1008E000303008703A2048702F208870CC7000207B
:1008F00030BD00007810002070B5B3F5804F05D0F2
:100900006FF0704140F82210002070BD50F8224076
:10091000084B8E891C40D1E9003543EA05138D68E8
:1009200089692D0245EA06452B430B43234340F8D2
:100930002230E9E70000F0CFF0B50C6850F8243021
:10094000174A1340D1E90125D1E903672A433E4301
:1009500032434E6932438E693243CE6932430E6A66
:1009600032434E6A32438E6A3243CE6A3243CE6B92
:1009700032430E6B32434E6B32431A43082D01D182
:1009800042F0400240F824204A6BB2F5801F05D1A6
:10099000096819B1016841F4801101600020F0BDBF
:1009A0008000E0FFF0B500EB8204626802F0404591
:1009B000D1E9002342EA03128B688E891B0243EAC5
:1009C00006431A430E8A0D4B03EB065632430E7D47
:1009D0005F0107EB066632438E6932432A43626049
:1009E0000268D20207D54268098A22F4700203EB3A
:1009F0000151114341600020F0BD00000000F0FFF4
:100A0000F8B50025009509F01DF81A4CA16981423E
:100A100023D06560A061E06910B109F0F7F8E561E5
:100A2000A06900EBC0008600304608F053FDE0618D
:100A300010B13146FFF780FC206A10B109F0E6F8EA
:100A40002562A069C0EBC000C500284608F042FD41
:100A5000206210B12946FFF76FFCE069002807D03B
:100A60006A46A16908F0FCFF00F0D4FAC4F88401DA
:100A7000F8BD00001406002090F83510022903D0BC
:100A80008021416501207047052180F835100068FC
:100A9000016821F00101016000207047406D70473E
:100AA0002DE9F84304464FF00009CDF80090634863
:100AB0004FF41651A56D0068B0FBF1F72E6894F85D
:100AC0005C10082000FA01F131420FD021680A6859
:100AD00052070BD50A6822F004020A6094F85C10F1
:100AE0008840A860606D40F00100606594F85C107B
:100AF0004FF0010808FA01F0304208D02168496936
:100B0000090604D5A860606D40F00200606594F8A5
:100B10005C1004208840304208D0216809688907A9
:100B200004D5A860606D40F00400606594F85C1026
:100B300010208840304218D021680968090714D570
:100B4000A86020680168490304D50068000308D53F
:100B5000A16C07E00168C90503D4016821F0080110
:100B60000160216C09B12046884794F85C10202070
:100B70008840304231D021680968C9062DD5A86067
:100B800094F8350005282068016806D0490347D548
:100B9000006800031DD4616C1CE021F016010160A7
:100BA0002068416921F080014161206C08B9A06C86
:100BB00020B12068016821F00801016094F85C1000
:100BC0003F208840A86084F8349084F83580216DF7
:100BD0001FE0E16B09B120468847606D00282BD0EB
:100BE000606DC00714D0052084F8350020680168C6
:100BF00021F0010101600098401C0090B84203D828
:100C000020680068C007F6D184F8349084F83580F5
:100C1000E16C002910D001B02046BDE8F043084740
:100C20000168C905D5D4016821F01001016084F87C
:100C3000349084F83580CCE7BDE8F8833400002098
:100C40002DE9F041044600F0E5F906465CB10025C7
:100C500084F83450022084F835002068016821F0BF
:100C6000010101600DE00120BDE8F08100F0D2F942
:100C7000801B052805D920206065032084F83500F5
:100C8000F2E720680068C007F0D1226811682048A8
:100C90000140D4E901031843D4E903363343184330
:100CA00063691843A3691843E3691843236A184327
:100CB0000843616A042903D1D4E90B13194308439B
:100CC000106020684069666A20F0070130460E43D4
:100CD000012704280CD1A06A0643E06A40B12046EF
:100CE000FFF782FD20B14020606584F83570BAE7D7
:100CF000206846612046FFF763FD94F85C203F21A1
:100D000091408160656584F835700020ACE7000093
:100D10003F8010F02DE9F0410446866D90F83400D4
:100D2000002501280DD0012084F8340094F8357096
:100D30000020012F07D084F8340002252846BDE8A2
:100D4000F0810220FBE7022784F8357060652046B9
:100D5000FFF774FD94F85C103F208840B060206875
:100D6000016841F016010160206C20B12068016823
:100D700041F0080101602068016841F00101016053
:100D8000DCE7000070B5044600F044F90546601C3D
:100D900002D004480078044400F03CF9401BA04213
:100DA000FAD370BD28000020F0B587B01421684642
:100DB000FFF7C2FA1A48016800292ED1012101600B
:100DC00018480024016841F0010101600068022513
:100DD00000F0010005904FF68070CDE9000502AAF1
:100DE00003260C2782E8D00069460F4800F022F85D
:100DF0004EF2B370CDE9000502AA694682E8D00040
:100E00000A4800F017F8E802CDE9000502AA694691
:100E100082E8D000064800F00DF807B0F0BD0000F1
:100E2000380100203838024000100240000C024017
:100E3000001802402DE9F84F00224FF00108032569
:100E40004FF00F0E0B6808FA02F42340A3426ED154
:100E50004E68012E05D0022E03D0112E01D0122E85
:100E600012D186684FEA420C05FA0CF7BE43CF68F0
:100E700007FA0CF7374387604668A6430C79C4F33A
:100E80000014944034434460C668570005FA07FCD8
:100E90008C6826EA0C06BC403443C4604C68022CC3
:100EA00001D0122C13D1D40800EB8404A346D4F84B
:100EB000209054074FEAD46A0EFA0AF629EA060986
:100EC0000E6906FA0AF646EA0906CBF820600468BD
:100ED0000E7924EA0C0406F00306BE4026430660A1
:100EE0004C68E4006FD53B4C266846F4804626608B
:100EF000246822F0030604F480440094364C344401
:100F0000A446D4F808489607360F0EFA06F7BC43F5
:100F1000324FB84201D100272EE0314FB84201D103
:100F2000012729E02F4FB84202D1022724E04AE0EE
:100F30002D4FB84201D103271EE02C4FB84201D1FA
:100F4000042719E02A4FB84201D1052714E0294FA0
:100F5000B84201D106270FE0274FB84201D1072739
:100F60000AE0264FB84201D1082705E0244FB842D5
:100F700001D1092700E00A27B7402743CCF80878B9
:100F8000204E34684F689C43FF0300D51C433460F7
:100F90001C4E361D34684F689C43BF0300D51C436C
:100FA0003460184E083634684F689C43FF0200D501
:100FB0001C433460134E0C3634684F689C43BF02A8
:100FC00000D51C433460521C102AFFF43BAFBDE82F
:100FD000F88F000044380240003001400000024019
:100FE0000004024000080240000C024000100240D1
:100FF0000014024000180240001C02400020024081
:1010000000240240003C01400069084000D001205B
:1010100070470000014880687047000028000020E9
:1010200070B5040004D094F83900002510B106E032
:10103000012070BD84F83850204601F0ABFA24201E
:1010400084F839002068C16821F40051C16020464D
:1010500005F086FA2068016921F490410161206859
:10106000416921F0220141612068416941F0080194
:1010700041612068C16841F40051C160E5632020EE
:1010800084F8390084F83A00002070BD70B504007F
:1010900011D021684CF6CC400860216845F25550CB
:1010A0000860D4E9000141602168A0688860FFF70A
:1010B000B1FF054609E0012070BD00BFFFF7AAFFA0
:1010C000401B302801D9032070BD2068C06800286B
:1010D000F4D121684AF6AA200860002070BD00689B
:1010E0004AF6AA210160002070470000024881688A
:1010F0000278114481607047280000200B4810B529
:10110000016841F400710160016841F4806101608F
:10111000016841F480710160032000F08DF8002027
:1011200000F006F800F03EF8002010BD003C024040
:1011300010B5014688B000221E2000F05DF81E2088
:1011400000F04CF813480024016841F004010160EC
:10115000006805A900F004000690684600F062F9F6
:1011600000F080F90C494000B0FBF1F10C480B4A4B
:10117000491E026040F2E732C0E90324C0E90114CD
:1011800001F082F810B1012008B010BD044801F050
:10119000B5F8F9E74038024040420F00000800402F
:1011A000C80500200C4882B0016841F4804101600C
:1011B000006800F4804000900748001F016841F07B
:1011C000805101600068002200F0805000900F21E3
:1011D000901E02B000F010B844380240002809DB2D
:1011E00000F01F02012191404009800000F1E02041
:1011F000C0F8001170470000F0B40E4B1B680C469D
:10120000C3F30223C3F10705042D00D90425191DDA
:10121000072901D2002300E0DB1E012606FA05F1B2
:10122000491E214099409E40761E16403143F0BC35
:1012300005F050BA0CED00E0064900F0070208681E
:101240004FF6FF03184040EA0220034A10430860AB
:10125000704700000CED00E00000FA05BFF34F8F6F
:1012600005480168054A01F4E06111430160BFF3DC
:101270004F8F00BFFDE700000CED00E00400FA0511
:101280002DE9F8431748016841F08051016000687A
:10129000154F00F08050012600903E64FFF7BAFE23
:1012A00005464FF47A78114C05E000BFFFF7B2FE17
:1012B000401B40450DD86068C003F7D57E64FFF73A
:1012C000A9FE0546464607E0FFF7A4FE401BB042D4
:1012D00002D90320BDE8F88360688003F4D50020BC
:1012E000F8E700004038024000000E420070004065
:1012F0002DE9F0470E46050065D0DFF81481D8F8D7
:101300000000F7B200F00F00B04207D288F800707A
:10131000D8F8000000F00F00B04254D128683D4CCE
:10132000810712D5400703D5206840F4E0502060C3
:101330002878000703D5206840F4604020602068CA
:10134000A96820F0F000084320602878C0072DD05D
:10135000304968680839012812D0022813D00328C0
:1013600011D00968890700292DDA216821F00301CD
:1013700001432160FFF74EFE814641F2883A0EE0BC
:1013800009688903EFE709688901ECE7FFF742FE86
:10139000A0EB0901514502D90320BDE8F087206880
:1013A000696800F00C00B0EB810FEFD1D8F80010A5
:1013B000404601F00F01B14207D90770006800F004
:1013C0000F00B04201D00120E7E72878400705D59B
:1013D0002068E96820F4E05008432060287800077E
:1013E00006D52068296920F4604040EAC1002060E9
:1013F00000F058F82168084AC1F30311515CC84055
:101400000649086006480068FFF792FE0020C4E71E
:10141000003C024008380240E8B0000834000020D8
:101420002C0000200F2202600C4A136803F0030313
:101430004360136803F0F0038360136803F4E05320
:10144000C36012684FF4E05303EAD2020261044819
:10145000006800F00F000860704700000838024084
:10146000003C02400448054900680968044AC1F389
:101470008221515CC8407047340000200838024087
:10148000F8B000080448054900680968044AC1F337
:101490004231515CC8407047340000200838024097
:1014A000F8B00008154810B5006810F00C02144898
:1014B00013D01449042A0FD0082A0ED10F4C241F30
:1014C0002268236802F03F025B0207D52068C0F360
:1014D0008810A0FB010106E0084610BD2168C1F399
:1014E0008811A1FB00010023FEF7DCFE2168C1F397
:1014F0000141491C4900B0FBF1F010BD0838024021
:101500000024F40040787D012DE9F84F04006ED0EE
:101510002078DFF83C93C007A9F104054AD009F10F
:1015200004000168C1F38101012908D00068C0F3FB
:10153000810002280AD1D9F80000400206D52868A7
:10154000800337D560680028E1D033E06068B0F5EB
:10155000803F10D0B0F5A02F286810D020F4803044
:101560002860286820F4802028606068A8B1FFF710
:1015700051FD06460DE0286840F48030F4E740F461
:1015800080202860F7E700BFFFF744FD801B642838
:1015900073D828688003F7D50CE0FFF73BFD0646BB
:1015A00005E000BFFFF736FD801B6428F0D82868EF
:1015B0008003F7D42078DFF89C8280074FF0000A80
:1015C0003ED5A348001D016811F00C0F08D000683B
:1015D000C0F3810002280BD1D9F80000400207D4E3
:1015E0002868800716D5E068012800D112E02BE1B9
:1015F000E068B8B10120C8F80000FFF70BFD06460F
:1016000005E000BFFFF706FD801B0228C0D8286850
:101610008007F7D52868216920F0F80040EAC1006A
:1016200028600DE0C8F800A0FFF7F4FC064604E0CF
:10163000FFF7F0FC801B02281FD828688007F7D42A
:101640002078000722D5824E83486169703671B1D7
:1016500001210160FFF7DEFC074604E0FFF7DAFC3A
:10166000C01B022809D830688007F7D50EE0C0F803
:1016700000A0FFF7CFFC074605E082E0FFF7CAFCB9
:10168000C01B02287DD830688007F7D42078400737
:1016900068D5DFF8BCB100270BF13C0BDBF800008C
:1016A000C0000BD4DBF8001041F08051CBF80010E3
:1016B000DBF80000012700F080500090674E306892
:1016C000C00510D4306840F480703060FFF7A2FC91
:1016D000009005E0FFF79EFC0099401A022850D8C0
:1016E0003068C005F6D55A4EA0686C3601280FD078
:1016F0000528306810D020F001003060306820F0FC
:1017000004003060A068B8B1FFF784FC00900FE0DF
:10171000306840F00100F4E740F004003060F7E783
:10172000FFF778FC0099411A41F28830814266D86F
:1017300030688007F4D50EE0FFF76CFC009007E0FE
:10174000FFF768FC0099411A41F28830814256D86F
:1017500030688007F4D42FB1DBF8001021F08051FD
:10176000CBF80010A069C8B33949091D0968C1F355
:10177000810102294AD00228504607D0C8F86000EB
:1017800000E03CE0FFF746FC04463BE04746C8F873
:101790006000FFF73FFC064605E000BFFFF73AFC9C
:1017A000801B02282BD828688001F7D4D4E90701D0
:1017B0000843A16A2A4A490802EB0141626A41EAE8
:1017C0008211084394F82C1040EA0161C9F8001016
:1017D00001203866FFF71EFC044606E036E000BF35
:1017E000FFF718FC001B022809D828688001F7D5EC
:1017F0002CE000BFFFF70EFC001B022802D90320DB
:10180000BDE8F88F28688001F4D41FE00128F7D0E4
:10181000D9F80000E26900F48001914214D1226AF3
:1018200000F03F0191420FD147F6C071626A01405A
:10183000914209D1A26A00F44031914204D1E16A97
:1018400000F07060884201D00120D9E70020D7E77E
:101850000438024000004742800E474200700040BA
:101860000000FFFF10B5FEF715FF10BD2DE9FE4388
:10187000044603200F4684F83400606C03285AD0D5
:10188000B7F5805F57D04FF4006600254FF08068B1
:10189000B7421CD1009501950021206803F09EFEFF
:1018A000800121D46946204604F086FA98BB01984D
:1018B000400332D5B4F850000104206803F0CAFE9A
:1018C00048BB0221206822E0A06B284327E01FB11B
:1018D000A06B40F0006022E0009501950021206897
:1018E00003F07CFE800101D53546EDE769462046D0
:1018F00004F062FA78B90198C0030ED5B4F850002C
:101900000104206803F0A6FE28B90021206803F036
:10191000EEFE0028D8D00546D6E74546D4E7A063BA
:10192000A06B012558B121680C48886384F83450B5
:101930000120BDE8FE83A06B40F08050EFE7211D41
:10194000D4E905060EC90097CDE90106206803F029
:101950004FFE84F834500020EBE70000FF05400004
:1019600070470000F0B5426E920F0A70426EC2F3EB
:1019700083624A70426EC2F301628A70426E120C38
:10198000CA70B0F86420120A0A7190F864204A7193
:10199000826E120DCA80826EC2F303420A72B0F8E0
:1019A0006820C2F3C0324A72B0F86820C2F38032B5
:1019B0008A72B0F86820C2F34032CA72B0F8682068
:1019C000C2F300320A7300264E73426C4FF4007566
:1019D000012462B1012A3AD0026847499163816BC0
:1019E00041F08051816380F834400120F0BDB0F8AF
:1019F0006820C36E9205120D42EA93720A61C26EAC
:101A0000C2F3C2620A75C26EC2F302624A75C26E46
:101A1000C2F342528A75C26EC2F38242CA75C26E66
:101A2000C2F3C2320A760A69521C42650B7E03F089
:101A300007039B1C9A4042650B7A03F00F0704FAD8
:101A400007F383655B0A5A43C0E917250EE090F857
:101A50006820C36E9206920A42EA13420A610A693A
:101A6000521C92024265C0E91652056630F86C2F8E
:101A7000C2F3803201F8192F0288C2F3C6124A70ED
:101A8000027802F07F028A704268D20FCA70426800
:101A9000C2F341720A714268C2F382624A714268BB
:101AA000C2F383528A714268C2F34052CA710E7205
:101AB0004268C2F300424A728288C2F3C0328A721C
:101AC0008288C2F38032CA728288C2F340320A73BB
:101AD0008288C2F300324A738288C2F381228A73F9
:101AE0008288C2F30122CA730079C0F346000874E9
:101AF0004C740020F0BD0000FF054000426C0A60FD
:101B0000826C4A60C26C8A60026DCA60426D0A6172
:101B1000826D4A61C26D8A61006EC86100207047A3
:101B200070B50446B0F8500000250104206803F0A9
:101B3000E8FE18B1A16B0143A16304E00021206815
:101B400003F04CFD0546C5F3432070BDF8B5056BA9
:101B500004460068416B09041BD5290719D5D4E94F
:101B60000A56002E14D00027206803F05BFD05F80C
:101B7000010B010A05F8011B010C05F8021B000E00
:101B8000361F7F1C05F8010C082FEDD3C4E90A5657
:101B9000F8BD416B4FF00006C9054FF0010744D571
:101BA000390281632068C16B4CF23A329143C163C0
:101BB0002068C16A21F00101C16228071DD515F016
:101BC000220F09D0206803F0CDFE28B1A16B01439C
:101BD000A1632046FFF7C4FE216840F23A508863B3
:101BE00084F834702663A80703D0204600F032FA48
:101BF000F8BD204600F032FAF8BD2806FCD5A8064C
:101C000009D5206803F0AEFE28B1A16B0143A163A2
:101C10002046FFF7A5FEA807EED12068C16A21F093
:101C20000801C16284F83470E3E7416B490424D5AC
:101C3000290722D5D4E90856002EDDD05FF0000731
:101C400015F8010B009015F8011B361F40EA012022
:101C5000009015F8021B40EA0140009015F8011CA5
:101C600040EA016000906946206803F0EEFC7F1CAA
:101C7000082FE5D3C4E90856F8BD416B40F23A227B
:101C80001142F9D0416B890703D5A16B41F00201E4
:101C9000A163416B090703D5A16B41F00801A16362
:101CA000416B890603D5A16B41F02001A163416B13
:101CB000C90603D5A16B41F01001A163416B8905F1
:101CC00003D5A16B41F00801A16340F23A71816331
:101CD0002068C16B40F23A329143C163206803F03F
:101CE00041FEA16B0843A063280706D584F8347031
:101CF00026632046FFF734FEF8BD2806FCD515F014
:101D0000300F0CD0E16B11480865E06BFEF7B4FEB4
:101D10000028F1D0E06BBDE8F84004F02BB8A8072C
:101D20000CD0216C0A480865206CFEF7A5FE00283F
:101D3000E2D0206CBDE8F84003F0F3BFA66384F85E
:101D4000347026632046FFF78DFDF8BD755D0008F1
:101D5000235D000870B504000ED094F8340000250F
:101D600018B92577204600F03BF8032084F83400AA
:101D7000204600F00BF808B1012070BDA563256373
:101D8000012084F83400002070BD0000FEB500255D
:101D9000044676200095CDE9015029460B460A46B7
:101DA000206803F025FC08B10120FEBD0B4E46F86B
:101DB000A05F206803F02EFC01253560204604F06A
:101DC000DDF820B9204604F061F80028EDD084F851
:101DD0003450A16B0143A163E6E700000080254277
:101DE0002DE9F04F87B0054614216846FEF7A4FAA6
:101DF0004649286888427DD145480068444940F4F6
:101E000000600860086800F40060059040481438DD
:101E100000683F4940F0040014390860086800F089
:101E200004000590086840F0080008600868022473
:101E300000F0080005904FF4F850CDE9000402AA24
:101E4000002003264FF00C0882E841016946314822
:101E5000FEF7F0FF02AA002082E841010427CDE945
:101E6000007469462C48FEF7E5FF2D4C2B484FF0D7
:101E70000068C4E9000800204FF48069A060C4E94C
:101E80000309B8024FF4804BC4E9050BC4E9097695
:101E90004FF0200A0020C4E907A07E05B7102046B5
:101EA000C4E90B67FEF7CCFE08B1FEF7DCFC2C643E
:101EB000A5631B4C194860344830C4E90008402031
:101EC000A0600020C4E90309C4E907A004206062FF
:101ED00004F12802032082E8C1004FF48051C4E9D4
:101EE000051B2046FEF7ACFE08B1FEF7BCFCEC6318
:101EF000002200E007E005213120A563FFF77CF90F
:101F00003120FFF76BF907B0BDE8F08F002C0140DE
:101F10004438024000080240000C0240586402406D
:101F2000C4F401202DE9F04786B01F46044615464B
:101F300039B194F83400012807D0022006B0BDE87A
:101F4000F087A06B40F0006008E00020A063E36D24
:101F5000EA199A4204D9A06B40F00070A0636FE0C8
:101F6000032284F8342022688246D0622268D36B30
:101F700040F22A363343D363236C324A4FEA47296F
:101F8000DA63236C304ADA64226C4FEA99031065F5
:101F900020680A46266C00F180013046FEF7BAFE42
:101FA000DFF8A880012660B12068C16B21F495712B
:101FB000C1632168C1F83880A06B40F08040A06305
:101FC00011E023480660606C012800D06D024FF4D8
:101FD0000071206803F072FB40B12268C2F83880BB
:101FE000A16B0143A16384F8346029E04FF0FF3016
:101FF000CDE900099020029002200596CDE9030A60
:10200000D1466946206803F0D3FA012F06D9822011
:1020100020632946206803F0E5FB05E0812020636A
:102020002946206803F0F7FB002887D02268C2F811
:102030003880A16B0143A16384F83460C4F8309008
:1020400001207BE7E15C00087D5C0008FF054000A3
:102050008C85254210B5FEF75FFB10BD10B5FEF76D
:1020600071FB10BD2DE9FF4F87B0044608981F464D
:10207000164638B194F83400012807D002200BB07E
:10208000BDE8F08FA06B40F0006008E00025A5637C
:10209000E16DF019884204D9A06B40F00070A06394
:1020A00061E0032084F834002068C5622068C16BB9
:1020B00040F21A2A41EA0A01C163E16B3248C8635F
:1020C000E16B3248C864E06B0565606C012800D0A4
:1020D00076024FF40071206803F0F0FADFF8B09058
:1020E0004FF0010840B12268C2F83890A16B01435B
:1020F000A16384F8348036E04FF0900B012F06D9AD
:10210000A02020633146206803F046FC05E0C4F8B7
:1021100030B03146206803F058FC40B12268C2F864
:102120003890A16B0143A16384F834801AE0194808
:102130004646C0F8008022687F02BB08E06B803210
:102140000899FEF7E7FD80B12068C16B21EA0A011A
:10215000C1632168C1F83890A06B40F08040A06353
:1021600084F834602563012089E74FF0FF30CDE922
:102170000007CDE902B5CDE904566946206803F0B1
:1021800017FA00207BE70000675D00087D5C00080F
:10219000FF0540008C85254270B515460E460400AB
:1021A00003D094F8490010B107E0012070BD002071
:1021B00084F84800204600F01AF804F1080120686D
:1021C000FEF7BAFB3146A2682068FEF7EBFBD4E9C4
:1021D00001022946236BFEF78FFBA168206850F8A7
:1021E000212042F0010240F82120002070BDFEF7BE
:1021F000DBBD70477047000070B590F83C20012AA5
:1022000032D0012480F83C40022280F83D2003684F
:102210005A689D6822F070060A6832435A60134B70
:1022200002689A4214D0B2F1804F11D0104B9A42FA
:102230000ED0104B9A420BD00F4B9A4208D00F4B46
:102240009A4205D00E4B9A4202D00E4B9A4204D1CC
:10225000496825F080031943916080F83D400021D2
:1022600080F83C10084670BD022070BD000001409F
:102270000004004000080040000C00400004014041
:10228000004001400018004010B5040003D094F84D
:102290003D0010B107E0012010BD002084F83C0093
:1022A000204600F00DF8022084F83D00211D206832
:1022B00004F0BCF8012084F83D00002010BD0000AF
:1022C00008B500680B49884212D10B48016841F0FB
:1022D000020101600068002200F00200009001216C
:1022E0001D20FEF789FFBDE808401D20FEF776BFE0
:1022F00008BD000000040040403802400168CA6880
:1023000042F00102CA600068816801F007010629F5
:1023100003D0016841F0010101600020704770B5F1
:10232000044690F83C00012817D0012584F83C5061
:10233000022084F83D002068826822F0770222F4AF
:102340007F4282600868502830D00DDC20284DD0B4
:1023500005DC98B310283BD148E0022070BD30283E
:1023600044D0402834D139E0602828D0702806D0E5
:10237000B0F5805F2CD0B0F5005F29D10AE0CB68C2
:10238000D1E90121206804F0B5F82068816841F0A6
:10239000770109E0CB68D1E90121206804F0AAF8AF
:1023A0002068816841F48041816011E0CA68496811
:1023B000206804F0B1F85021206807E016E0CA68F0
:1023C0004968206804F0B9F86021206804F09CF89E
:1023D00084F83D50002084F83C0070BDCA6849680C
:1023E000206804F099F840212068EFE72268014650
:1023F0001046EBE7704770B50446006801694FF07E
:102400000005C943890715D4C168C943890711D498
:10241000E91E01610120207720688069800720463D
:1024200002D0FFF7E7FF04E000F098F8204600F044
:1024300096F8257720680169C943490717D4C16810
:10244000C943490713D46FF00401016102202077CA
:102450002068806910F4407F204602D0FFF7CAFF51
:1024600004E000F07BF8204600F079F8257720683A
:102470000169C943090716D4C168C943090712D4C1
:102480006FF008010161042020772068C06980078F
:10249000204602D0FFF7AEFF04E000F05FF82046D0
:1024A00000F05DF8257720680169C943C90617D493
:1024B000C168C943C90613D46FF010010161082037
:1024C00020772068C06910F4407F204602D0FFF7D3
:1024D00091FF04E000F042F8204600F040F8257734
:1024E00020680169C943C90708D1C168C943C90740
:1024F00004D1891E0161204600F032F8206801698C
:10250000C943090609D4C168C943090605D46FF057
:10251000800101612046FFF76CFE20680169C94314
:10252000490609D4C168C943490605D46FF0400182
:102530000161204600F02CF820680169C943890632
:102540000BD4C168C943890607D46FF0200101612B
:102550002046BDE87040FFF74DBE70BD7047704724
:1025600000680849884201D1FEF7C0BD064988428B
:1025700007D1064801684268491C42F10002016027
:102580004260704700080040000400403001002015
:102590007047000010B586B0044614216846FDF768
:1025A000CBFE14492068884221D1134800210268DB
:1025B00042F010020260006800F0100005900E4822
:1025C0001438026842F001020260006800F0010065
:1025D00005904FF4007000901220CDE90101032016
:1025E00003900720049069460448FEF723FC06B0D8
:1025F00010BD0000001001404438024000000240BD
:10260000FEE700000548044901600621416040F6EC
:10261000FF718160FEF73ABD0030004008060020DF
:1026200070B50725054E002456F82400FEF70CF877
:10263000641CE4B2AC42F7D370BD00000C00002073
:1026400070B51A4886B00024016841F001010160AC
:10265000016801F001010591016841F00401016088
:10266000016801F004010591016841F080010160F9
:102670000068012500F080000095059003260220E7
:102680000396CDE9014069460948FEF7D3FB68038C
:102690008DE8710069460748FEF7CCFB0C200090DE
:1026A00069460548FEF7C6FB06B070BD30380240EB
:1026B0000000024000080240001C02402DE9F047E3
:1026C0000126304C7703DFF8C080DFF8C090304D32
:1026D00001281DD02078A0B108212846FEF794FCDF
:1026E000C0B104212846FEF78FFC98B13946404618
:1026F000FEF78AFC70B101214846FEF785FC0128EF
:1027000008D008212846FEF77FFC012826D037E0B4
:102710002670E1E70A2004F009FC0020207008215F
:102720002846FEF771FC80B104212846FEF76CFCB8
:1027300070B139464046FEF767FC58B10121484662
:10274000FEF762FC012807D01AE00120BDE8F087FF
:102750000220FBE70320F9E70420F7E704212846DD
:10276000FEF752FC01280BD139464046FEF74CFCDF
:10277000012805D101214846FEF746FC00B9267024
:102780000020E3E7AC000020000802400000024007
:10279000001C024070B50A490646002408884D888E
:1027A00021464543204602F067FB02F0F5FCB0B23B
:1027B000044901E00880641CAC42FBD370BD0000FA
:1027C000F0F30120000008602DE9F04F33492C247C
:1027D0000A4688712A2592882B2645F2105B4FF411
:1027E000305E4FF448774FF0F00949F2413A4FF428
:1027F000A07845F2103C4FF4F07358B1A1F8008076
:10280000A1F80290524501D0624529D10C814D8139
:102810008E8139E0A1F80090A1F80280524501D0E4
:10282000624508D10C814D818E81624531D1A1F87C
:1028300000804B802DE05A4508D1A1F808E04FF404
:10284000285048814FF42C50888106E0A2F5C850EA
:1028500063381ED10C814E818D810B804F8018E032
:102860005A4508D1A1F808E04FF4285048814FF4A8
:102870002C50888106E0A2F5C850633804D10C8141
:102880004D818E810F804B80624502D10B80A1F873
:102890000280BDE8F04F002002F012BAF0F30120F0
:1028A0002DE9F041354C90460D460246060AA188B6
:1028B00020462F0A4089A1F51343413B0CD0A1F5D6
:1028C000A643103B08D0A1F5AA43103B10D0A1F5B8
:1028D000C853633B25D048E002F052FC304602F07A
:1028E00043FCD0B202F040FCA08902F049FC36E083
:1028F00002F046FC304602F037FC6089401C80B292
:1029000002F03EFCD0B202F02FFCA08902F038FCAD
:10291000384602F029FCA089401C80B202F030FC4D
:1029200020E0A17919B92188891A491E8AB202F0DA
:1029300027FC160A304602F017FCD0B202F014FC55
:10294000304602F011FCD0B202F00EFCA08902F079
:1029500017FC384602F008FCE8B202F005FC3846E5
:1029600002F002FCE8B202F0FFFB05492089088072
:10297000891CA1F80080BDE8F0810000F0F301207F
:10298000FEFF07602DE9F05FD32002F0F9FB02F0B3
:1029900065F9FE4CA08002F061F9A08002F05EF9BA
:1029A0004FF6FF7909EA0020A08002F057F9A188CC
:1029B00049F241360843A08045F2103745F21055E0
:1029C00041F66318B04247D0D42002F0D9FB02F0A0
:1029D00045F9A08002F042F9A08002F03FF909EA2F
:1029E00000204A46A08002F039F9A1880843A0805F
:1029F000B84231D04FF45A4002F0C2FB02F02EF937
:102A0000A0804FF45B4002F0BBFB02F027F902EA22
:102A10000020A0804FF45C4002F0B2FB02F01EF9EF
:102A2000A1880843A080B0F5004F7DD0A84213D004
:102A3000A12002F0A5FB02F011F9A08002F00EF92E
:102A400002EA0020A08002F009F9A1880843A0F55D
:102A5000AE41A080613968D080B2B04266D1CF204B
:102A600002F08EFB002002F07FFBC12002F07CFB15
:102A7000302002F079FBED2002F082FB642002F0AE
:102A800073FB032002F070FB122002F06DFB81202B
:102A900002F06AFBE82002F073FB852002F064FB81
:102AA000102002F061FB7A2002F05EFBCB2002F0E6
:102AB00067FB392002F058FB2C2002F055FB002068
:102AC00002F052FB342002F04FFB022002F04CFBDC
:102AD000F72002F055FB202002F046FBEA2002F02E
:102AE0004FFB002002F040FB002002F03DFBC02025
:102AF00002F046FB1B2002F037FBC12002F040FB36
:102B0000012002F031FBC52002F03AFB302002F038
:102B10002BFB302002F028FBC72002F031FBB7204E
:102B200002F022FB362002E0B2E0ADE0B2E002F0BB
:102B300027FB482002F018FB3A2002F021FB552029
:102B400002F012FBB12002F01BFB002002F00CFB94
:102B50001A2002F009FBB62002F012FB0A2002F054
:102B600003FBA22002F000FBF22002F009FB002090
:102B700002F0FAFA262002F003FB012002F0F4FA38
:102B8000E02002F0FDFA0F2002F0EEFA2A2002F017
:102B9000EBFA282002F0E8FA082002F0E5FA0E200D
:102BA00002F0E2FA082002F0DFFA542002F0DCFA28
:102BB000A92002F0D9FA432002F0D6FA0A2002F046
:102BC000D3FA0F2002F0D0FA002002F0CDFA002054
:102BD00002F0CAFA002002F0C7FA002002F0C4FA9C
:102BE000E12002F0CDFA002002F0BEFA152002F03A
:102BF000BBFA172002F0B8FA072002F0B5FA11204C
:102C000002F0B2FA062002F0AFFA2B2002F0ACFA82
:102C1000562002F0A9FA3C2002F0A6FA052002F0A4
:102C2000A3FA102002F0A0FA0F2002F09DFA3F2034
:102C300002F09AFA3F2002F097FA0F2002F094FA7D
:102C40002B2002F09DFA002002F08EFA002002F004
:102C50008BFA012002F088FA3F2002F085FA2A2040
:102C600002F08EFA002002F07FFA002002F07CFAD7
:102C7000002002F079FAEF2002F076FA112002F03B
:102C80007FFA292001F005BFA4F8048001F006BFF7
:102C9000A580FDE3B8427BD1ED2002F071FA01205E
:102CA00002F062FAFE2002F05FFAEE2002F068FA0B
:102CB000DE2002F059FA212002F056FAF12002F04B
:102CC0005FFA012002F050FADF2002F059FA1020DA
:102CD00002F04AFAC42002F053FA8F2002F044FABC
:102CE000C62002F04DFA002002F03EFAE22002F087
:102CF0003BFAE22002F038FAE22002F035FABF2077
:102D000002F03EFAAA2002F02FFAB02002F038FAC0
:102D10000D2002F029FA002002F026FA0D2002F020
:102D200023FA002002F020FA112002F01DFA002000
:102D300002F01AFA192002F017FA002002F014FA31
:102D4000212002F011FA002002F00EFA2D2002F0EC
:102D50000BFA002002F008FA3D2002F005FA0020EC
:102D600002F002FA5D2002F0FFF9002002F0FCF907
:102D70005D2002F0F9F9002002F0F6F9B12002F02E
:102D8000FFF9802002F0F0F9002002E0F0F30120CA
:102D9000FEE302F0E9F98B2002F0E6F9002002F0F0
:102DA000E3F9962002F0E0F9002002F0DDF9B2200C
:102DB00002F0E6F9002002F0D7F9002002F0D4F981
:102DC000022002F0D1F9002002F0CEF9032002F037
:102DD000CBF9002002F0C8F9B32002F0D1F90020AD
:102DE00002F0C2F9002002F0BFF9002002F0BCF9A5
:102DF000002002F0B9F9002002F0B6F9002002F03C
:102E0000B3F9002002F0B0F9002002F0ADF9002083
:102E100002F0AAF9002002F0A7F9002002F0A4F9BC
:102E2000002002F0A1F9002002F09EF9002002F03B
:102E30009BF9002002F098F9002002F095F900209B
:102E400002F092F9002002F08FF9002002F08CF9D4
:102E5000002002F089F9002002F086F9002002F03B
:102E600083F9002002F080F9002002F07DF9B420FF
:102E700002F086F98B2002F077F9002002F074F955
:102E8000962002F071F9002002F06EF9A12002F004
:102E90006BF9002002F068F9B52002F071F9022008
:102EA00002F062F9002002F05FF9032002F05CF901
:102EB000002002F059F9042002F056F9002002F037
:102EC00053F9B62002F05CF9002002F04DF9002021
:102ED00002F04AF9B72002F053F9002002F044F959
:102EE000002002F041F93F2002F03EF9002002F0FC
:102EF0003BF95E2002F038F9002002F035F9642039
:102F000002F032F9002002F02FF98C2002F02CF9A7
:102F1000002002F029F9AC2002F026F9002002F08E
:102F200023F9DC2002F020F9002002F01DF97020C6
:102F300002F01AF9002002F017F9902002F014F9BB
:102F4000002002F011F9EB2002F00EF9002002F04F
:102F50000BF9DC2002F008F9002002F005F9B82096
:102F600002F00EF9002002F0FFF8002002F0FCF859
:102F7000002002F0F9F8002002F0F6F8002002F03C
:102F8000F3F8002002F0F0F8002002F0EDF8002045
:102F900002F0EAF8BA2002F0F3F8242002F0E4F894
:102FA000002002F0E1F8002002F0DEF8002002F03C
:102FB000DBF8C12002F0E4F8202002F0D5F8002070
:102FC00002F0D2F8542002F0CFF8002002F0CCF842
:102FD000FF2002F0C9F8002002F0C6F8C22002F07B
:102FE000CFF80A2002F0C0F8002002F0BDF804205B
:102FF00002F0BAF8002002F0B7F8C32002F0C0F8DF
:103000003C2002F0B1F8002002F0AEF83A2002F0C5
:10301000ABF8002002F0A8F8392002F0A5F8002053
:1030200002F0A2F8372002F09FF8002002F09CF88E
:103030003C2002F099F8002002F096F8362002F0C9
:1030400093F8002002F090F8322002F08DF8002072
:1030500002F08AF82F2002F087F8002002F084F8AE
:103060002C2002F081F8002002F07EF8292002F0E6
:103070007BF8002002F078F8262002F075F8002096
:1030800002F072F8242002F06FF8002002F06CF8D1
:10309000242002F069F8002002F066F8232002F0F4
:1030A00063F8002002F060F83C2002F05DF8002098
:1030B00002F05AF8362002F057F8002002F054F8D7
:1030C000322002F051F8002002F04EF82F2002F0DA
:1030D0004BF8002002F048F82C2002F045F80020C0
:1030E00002F042F8292002F03FF8002002F03CF8FC
:1030F000262002F039F8002002F036F8242002F0F1
:1031000033F8002002F030F8242002F02DF80020DF
:1031100002F02AF8232002F027F8002002F024F819
:10312000C42002F02DF8622002F01EF8002002F008
:103130001BF8052002F018F8002002F015F8842092
:1031400002F012F8002002F00FF8F02002F00CF864
:10315000002002F009F8182002F006F8002002F022
:1031600003F8A42002F000F8002001F0FDFF182071
:1031700001F0FAFF002001F0F7FF502001F0F4FF0A
:10318000002001F0F1FF0C2001F0EEFF002001F023
:10319000EBFF172001F0E8FF002001F0E5FF95208C
:1031A00001F0E2FF002001F0DFFFF32001F0DCFF7F
:1031B000002001F0D9FFE62001F0D6FF002001F049
:1031C000D3FFC52001F0DCFF322001F0CDFF00204D
:1031D00001F0CAFF442001F0C7FF002001F0C4FF46
:1031E000652001F0C1FF002001F0BEFF762001F054
:1031F000BBFF002001F0B8FF882001F0B5FF0020E0
:1032000001F0B2FFC62001F0BBFF202001F0ACFFAF
:10321000002001F0A9FF172001F0A6FF002001F017
:10322000A3FF012001F0A0FF002001F09DFFC720B7
:1032300001F0A6FF002001F097FF002001F094FFAD
:10324000002001F091FF002001F08EFFC82001F066
:1032500097FF002001F088FF002001F085FF00208B
:1032600001F082FF002001F07FFFC92001F088FFFC
:10327000002001F079FF002001F076FF002001F02E
:1032800073FF002001F070FF002001F06DFF0020AF
:1032900001F06AFF002001F067FF002001F064FFE9
:1032A000002001F061FF002001F05EFF002001F02E
:1032B0005BFF002001F058FF002001F055FF0020C7
:1032C00001F052FF002001F04FFF002001F04CFF01
:1032D000E02001F055FF162001F046FF002001F02C
:1032E00043FF1C2001F040FF002001F03DFF2120A2
:1032F00001F03AFF002001F037FF362001F034FFE3
:10330000002001F031FF462001F02EFF002001F0E7
:103310002BFF522001F028FF002001F025FF642040
:1033200001F022FF002001F01FFF7A2001F01CFFB6
:10333000002001F019FF8B2001F016FF002001F0A2
:1033400013FF992001F010FF002001F00DFFA820CD
:1033500001F00AFF002001F007FFB92001F004FF8F
:10336000002001F001FFC42001F0FEFE002001F06A
:10337000FBFECA2001F0F8FE002001F0F5FED2208D
:1033800001F0F2FE002001F0EFFED92001F0ECFE8A
:10339000002001F0E9FEE02001F0E6FE002001F04F
:1033A000E3FEF32001F0E0FE002001F0DDFEE1206D
:1033B00001F0E6FE162001F0D7FE002001F0D4FE59
:1033C0001C2001F0D1FE002001F0CEFE222001F0F1
:1033D000CBFE002001F0C8FE362001F0C5FE002023
:1033E00001F0C2FE452001F0BFFE002001F0BCFE4E
:1033F000522001F0B9FE002001F0B6FE642001F079
:10340000B3FE002001F0B0FE7A2001F0ADFE0020F6
:1034100001F0AAFE8B2001F0A7FE002001F0A4FE1F
:10342000992001F0A1FE002001F09EFEA82001F0ED
:103430009BFE002001F098FEB92001F095FE0020CF
:1034400001F092FEC42001F08FFE002001F08CFEFE
:10345000CA2001F089FE002001F086FED22001F092
:1034600083FE002001F080FED82001F07DFE0020C8
:1034700001F07AFEE02001F077FE002001F074FEFA
:10348000F32001F071FE002001F06EFEE22000E06A
:103490007FE301F075FE052001F066FE002001F0DB
:1034A00063FE0B2001F060FE002001F05DFE1B209A
:1034B00001F05AFE002001F057FE342001F054FEC6
:1034C000002001F051FE442001F04EFE002001F0EA
:1034D0004BFE4F2001F048FE002001F045FE612028
:1034E00001F042FE002001F03FFE792001F03CFE99
:1034F000002001F039FE882001F036FE002001F0A6
:1035000033FE972001F030FE002001F02DFEA620B2
:1035100001F02AFE002001F027FEB72001F024FE72
:10352000002001F021FEC22001F01EFE002001F06B
:103530001BFEC72001F018FE002001F015FED1206F
:1035400001F012FE002001F00FFED62001F00CFE6B
:10355000002001F009FEDD2001F006FE002001F050
:1035600003FEF32001F000FE002001F0FDFDE3204A
:1035700001F006FE052001F0F7FD002001F0F4FD4A
:103580000A2001F0F1FD002001F0EEFD1C2000E01A
:10359000FDE201F0E9FD002001F0E6FD332001F03D
:1035A000E3FD002001F0E0FD442001F0DDFD0020FE
:1035B00001F0DAFD502001F0D7FD002001F0D4FD2C
:1035C000622001F0D1FD002001F0CEFD782001F055
:1035D000CBFD002001F0C8FD882001F0C5FD0020D2
:1035E00001F0C2FD972001F0BFFD002001F0BCFDFD
:1035F000A62001F0B9FD002001F0B6FDB72001F0D2
:10360000B3FD002001F0B0FDC22001F0ADFD0020AF
:1036100001F0AAFDC72001F0A7FD002001F0A4FDE4
:10362000D12001F0A1FD002001F09EFDD52001F088
:103630009BFD002001F098FDDD2001F095FD0020AC
:1036400001F092FDF32001F08FFD002001F08CFDD0
:10365000E42001F095FD012001F086FD002001F03D
:1036600083FD012001F080FD002001F07DFD02209E
:1036700001F07AFD002001F077FD2A2001F074FDB1
:10368000002001F071FD3C2001F06EFD002001F0F2
:103690006BFD4B2001F068FD002001F065FD5D2011
:1036A00001F062FD002001F05FFD742001F05CFD7F
:1036B000002001F059FD842001F056FD002001F0AA
:1036C00053FD932001F050FD002001F04DFDA2209C
:1036D00001F04AFD002001F047FDB32001F044FD58
:1036E000002001F041FDBE2001F03EFD002001F070
:1036F0003BFDC42001F038FD002001F035FDCD2058
:1037000001F032FD002001F02FFDD32001F02CFD4F
:10371000002001F029FDDD2001F026FD002001F050
:1037200023FDF32001F020FD002001F01DFDE52028
:1037300001F026FD002001F017FD002001F014FD2E
:10374000002001F011FD002001F00EFD022001F02B
:103750000BFD002001F008FD292001F005FD0020EF
:1037600001F002FD3C2001F0FFFC002001F0FCFC18
:103770004B2001F0F9FC002001F0F6FC5D2001F087
:10378000F3FC002001F0F0FC742001F0EDFC0020BF
:1037900001F0EAFC842001F0E7FC002001F0E4FCE9
:1037A000932001F0E1FC002001F0DEFCA22001F0FA
:1037B000DBFC002001F0D8FCB32001F0D5FC002098
:1037C00001F0D2FCBE2001F0CFFC002001F0CCFCC7
:1037D000C42001F0C9FC002001F0C6FCCD2001F09E
:1037E000C3FC002001F0C0FCD32001F0BDFC002090
:1037F00001F0BAFCDC2001F0B7FC002001F0B4FCC1
:10380000F32001F0B1FC002001F0AEFCE62001F055
:10381000B7FC112001F0A8FC002001F0A5FC342029
:1038200001F0A2FC002001F09FFC562001F09CFC5E
:10383000002001F099FC762001F096FC002001F0B8
:1038400093FC772001F090FC002001F08DFC6620B5
:1038500001F08AFC002001F087FC882001F084FC44
:10386000002001F081FC992001F07EFC002001F095
:103870007BFCBB2001F078FC002001F075FC992056
:1038800001F072FC002001F06FFC662001F06CFC7E
:10389000002001F069FC552001F066FC002001F0D9
:1038A00063FC552001F060FC002001F05DFC452028
:1038B00001F05AFC002001F057FC432001F054FCB9
:1038C000002001F051FC442001F04EFC002001F0EA
:1038D0004BFCE72001F054FC322001F045FC0020B5
:1038E00001F042FC552001F03FFC002001F03CFCBF
:1038F000762001F039FC002001F036FC662001F052
:1039000033FC002001F030FC672001F02DFC00208A
:1039100001F02AFC672001F027FC002001F024FCC4
:10392000872001F021FC002001F01EFC992001F00D
:103930001BFC002001F018FCBB2001F015FC00204E
:1039400001F012FC992001F00FFC002001F00CFCAA
:10395000772001F009FC002001F006FC442001F072
:1039600003FC002001F000FC562001F0FDFB0020CC
:1039700001F0FAFB232001F0F7FB002001F0F4FB3B
:10398000332001F0F1FB002001F0EEFB452001F0B7
:10399000EBFB002001F0E8FBE82001F0F1FB002048
:1039A00001F0E2FB002001F0DFFB992001F0DCFBDD
:1039B000002001F0D9FB872001F0D6FB002001F0A8
:1039C000D3FB882001F0D0FB002001F0CDFB772055
:1039D00001F0CAFB002001F0C7FB662001F0C4FB28
:1039E000002001F0C1FB882001F0BEFB002001F0A7
:1039F000BBFBAA2001F0B8FB002001F0B5FBBB2007
:103A000001F0B2FB002001F0AFFB992001F0ACFB0C
:103A1000002001F0A9FB662001F0A6FB002001F0C8
:103A2000A3FB552001F0A0FB002001F09DFB5520D9
:103A300001F09AFB002001F097FB442001F094FB79
:103A4000002001F091FB442001F08EFB002001F0EA
:103A50008BFB552001F088FB002001F085FBE9205D
:103A600001F08EFBAA2001F07FFB002001F07CFB1F
:103A7000002001F079FB002001F076FB002001F02E
:103A80007FFBAA2001F070FBCF2001F079FB002022
:103A900001F06AFB002001F067FB002001F064FBED
:103AA000002001F061FB002001F05EFB002001F02E
:103AB0005BFB002001F058FB002001F055FB0020CB
:103AC00001F052FB002001F04FFB002001F04CFB05
:103AD000002001F049FB002001F046FB002001F02E
:103AE00043FB002001F040FB002001F03DFB0020E3
:103AF00001F03AFBF02001F043FB002001F034FB21
:103B0000502001F031FB002001F02EFB002001F0DD
:103B10002BFB002001F028FBF32001F031FB0020FB
:103B200001F022FBF92001F02BFB062001F01CFB29
:103B3000102001F019FB292001F016FB002001F0F4
:103B400013FB3A2001F01CFB552001F00DFB112066
:103B500001F016FB292001F013FB352001F010FBCA
:103B6000002001F001FB512001F00AFBFF2001F0D1
:103B7000FBFA532001F004FB2C2001F0F5FA55204C
:103B800001F0FEFA822001F0EFFA2C20FEE3A842B9
:103B90007ED14FF470435521184601F007FB4FF2D8
:103BA000010AAA21504601F001FB4FF2020B5221FB
:103BB000584601F0FBFA08214FF2030001F0F6FA33
:103BC00001214FF2040001F0F1FA0D214FF43040D1
:103BD00001F0ECFA0D214BF2010001F0E7FA0D21A2
:103BE0004BF2020001F0E2FA34214FF4364001F0CA
:103BF000DDFA34214BF2016001F0D8FA34214BF2A6
:103C0000026001F0D3FA0D214FF4314001F0CEFAF9
:103C10000D214BF2011001F0C9FA0D214BF20210F7
:103C200001F0C4FA34214FF4374001F0BFFA3421D7
:103C30004BF2017001F0BAFA34214BF2027001F03C
:103C4000B5FA00214FF4324001F0B0FA00214BF2F6
:103C5000012001F0ABFA00214BF2022001F0A6FA9C
:103C600024214FF4384001F0A1FA24214BF6010041
:103C700001F09CFA24214BF6020001F097FA012191
:103C80004FF43F4001F092FA0F214FF4334000E02F
:103C9000FEE301F08BFA0F214BF2013001F086FABE
:103CA0000F214BF2023001F081FA34214FF43940F8
:103CB00001F07CFA34214BF6011001F077FA34213F
:103CC0004BF6021001F072FA08214FF4354001F072
:103CD0006DFA08214BF2015001F068FA08214BF20D
:103CE000025001F063FA03214FF4424001F05EFA02
:103CF00024214FF43A4001F059FA24214BF60120D7
:103D000001F054FA24214BF6022001F04FFA002171
:103D10004FF43C4001F04AFA78214BF6014001F0A3
:103D200045FA00214BF6024001F040FA00214FF421
:103D30003D4001F03BFA78214BF6015001F036FA94
:103D400000214BF6025001F031FA00214FF43E40C1
:103D500001F02CFA64214BF6016001F027FA0021F2
:103D60004FF4514001F022FA33214DF2011001F0DD
:103D70001DFA00214DF2021001F018FA34214DF223
:103D8000031001F013FA00214DF2041001F00EFAB5
:103D90003A214DF2051001F009FA00214DF206100A
:103DA00001F004FA4A214DF2071001F0FFF9002159
:103DB0004DF2081001F0FAF95C214DF2091001F002
:103DC000F5F900214DF20A1001F0F0F981214DF2D0
:103DD0000B1001F0EBF900214DF20C1001F0E6F9A7
:103DE000A6214DF20D1001F0E1F900214DF20E1067
:103DF00001F0DCF9E5214DF20F1001F0D7F90121B6
:103E00004DF2101001F0D2F913214DF2111001F012
:103E1000CDF901214DF2121001F0C8F954214DF2F3
:103E2000131001F0C3F901214DF2141001F0BEF995
:103E300082214DF2151001F0B9F901214DF2161051
:103E400001F0B4F9CA214DF2171001F0AFF90221C7
:103E50004DF2181001F0AAF900214DF2191001F0ED
:103E6000A5F902214DF21A1001F0A0F901214DF23D
:103E70001B1001F09BF902214DF21C1001F096F984
:103E800034214DF21D1001F091F902214DF21E1066
:103E900001F08CF967214DF21F1001F087F9022122
:103EA0004DF2201001F082F984214DF2211001F031
:103EB0007DF902214DF2221001F078F9A4214DF292
:103EC000231001F073F902214DF2241001F06EF974
:103ED000B7214DF2251001F069F902214DF22610AB
:103EE00001F064F9CF214DF2271001F05FF90221B2
:103EF0004DF2281001F05AF9DE214DF2291001F09F
:103F000055F902214DF22A1001F050F9F2214DF23B
:103F10002B1001F04BF902214DF22C1001F046F963
:103F2000FE214DF22D1001F041F903214DF22E102A
:103F300001F03CF910214DF22F1001F037F9032167
:103F40004DF2301001F032F933214DF2311001F011
:103F50002DF903214DF2321001F028F96D214DF2B7
:103F6000331001F023F900214FF4524001F01EF903
:103F700033214DF2012001F019F900214DF2022008
:103F800001F014F934214DF2032001F00FF9002162
:103F90004DF2042001F00AF93A214DF2052001F01A
:103FA00005F900214DF2062001F000F94A214DF2F9
:103FB000072001F0FBF800214DF2082001F0F6F88F
:103FC0005C214DF2092001F0F1F800214DF20A20A8
:103FD00001F0ECF881214DF20B2001F0E7F800210F
:103FE0004DF20C2001F0E2F8A6214DF20D2001F077
:103FF000DDF800214DF20E2001F0D8F8E5214DF258
:104000000F2001F0D3F801214DF2102001F0CEF87D
:1040100013214DF2112001F0C9F801214DF21220B7
:1040200001F0C4F854214DF2132001F0BFF8012132
:104030004DF2142001F0BAF882214DF2152001F062
:10404000B5F801214DF2162001F0B0F8CA214DF269
:10405000172001F0ABF802214DF2182001F0A6F86C
:1040600000214DF2192001F0A1F802214DF21A2091
:1040700001F09CF801214DF21B2001F097F802217C
:104080004DF21C2001F092F834214DF21D2001F078
:104090008DF802214DF21E2001F088F867214DF2C3
:1040A0001F2001F083F802214DF2202001F07EF85C
:1040B00084214DF2212001F079F802214DF22220D5
:1040C00001F074F8A4214DF2232001F06FF80221D1
:1040D0004DF2242001F06AF8B7214DF2252001F0BD
:1040E00065F802214DF2262001F060F8CF214DF253
:1040F000272001F05BF802214DF2282001F056F84C
:10410000DE214DF2292001F051F802214DF22A2042
:1041100001F04CF8F2214DF22B2001F047F802217A
:104120004DF22C2001F042F8FE214DF22D2001F03D
:104130003DF803214DF22E2001F038F810214DF208
:104140002F2001F033F803214DF2302001F02EF83A
:1041500033214DF2312001F029F803214DF23220B4
:1041600001F024F86D214DF2332001F01FF80021F9
:104170004FF4534001F01AF833214DF2013001F0B1
:1041800015F800214DF2023001F010F834214DF203
:10419000033001F00BF800214DF2043001F006F875
:1041A0003A214DF2053001F001F800214DF20630C0
:1041B00000F0FCFF4A214DF2073000F0F7FF00212C
:1041C0004DF2083000F0F2FF5C214DF2093000F0B2
:1041D000EDFF00214DF20A3000F0E8FF81214DF2A1
:1041E0000B3000F0E3FF00214DF20C3000F0DEFF59
:1041F000A6214DF20D3000F0D9FF00214DF20E3016
:1042000000F0D4FFE5214DF20F3000F0CFFF012187
:104210004DF2103000F0CAFF13214DF2113000F0C2
:10422000C5FF01214DF2123000F0C0FF54214DF2C4
:10423000133000F0BBFF01214DF2143000F0B6FF47
:1042400082214DF2153000F0B1FF01214DF2163000
:1042500000F0ACFFCA214DF2173000F0A7FF022199
:104260004DF2183000F0A2FF00214DF2193000F09D
:104270009DFF02214DF21A3000F098FF01214DF20E
:104280001B3000F093FF02214DF21C3000F08EFF36
:1042900034214DF21D3000F089FF02214DF21E3015
:1042A00000F084FF67214DF21F3000F07FFF0221F4
:1042B0004DF2203000F07AFF84214DF2213000F0E1
:1042C00075FF02214DF2223000F070FFA4214DF263
:1042D000233000F06BFF02214DF2243000F066FF26
:1042E000B7214DF2253000F061FF02214DF226305A
:1042F00000F05CFFCF214DF2273000F057FF022184
:104300004DF2283000F052FFDE214DF2293000F04E
:104310004DFF02214DF22A3000F048FFF2214DF20C
:104320002B3000F043FF02214DF22C3000F03EFF15
:10433000FE214DF22D3000F039FF03214DF22E30D9
:1043400000F034FF10214DF22F3000F02FFF032139
:104350004DF2303000F02AFF33214DF2313000F0C1
:1043600025FF03214DF2323000F020FF6D214DF288
:10437000333000F01BFF00214FF4544000F016FFD3
:1043800033214DF2014000F011FF00E081E30021F4
:104390004DF2024000F00AFF34214DF2034000F0DC
:1043A00005FF00214DF2044000F000FF3A214DF2DC
:1043B000054000F0FBFE00214DF2064000F0F6FE45
:1043C0004A214DF2074000F0F1FE00214DF2084075
:1043D00000F0ECFE5C214DF2094000F0E7FE002108
:1043E0004DF20A4000F0E2FE81214DF20B4000F058
:1043F000DDFE00214DF20C4000F0D8FEA6214DF26A
:104400000D4000F0D3FE00214DF20E4000F0CEFE34
:10441000E5214DF20F4000F0C9FE01214DF21040A0
:1044200000F0C4FE13214DF2114000F0BFFE012147
:104430004DF2124000F0BAFE54214DF2134000F04C
:10444000B5FE01214DF2144000F0B0FE82214DF284
:10445000154000F0ABFE01214DF2164000F0A6FE23
:10446000CA214DF2174000F0A1FE02214DF2184082
:1044700000F09CFE00214DF2194000F097FE022151
:104480004DF21A4000F092FE01214DF21B4000E077
:1044900002E300F08BFE02214DF21C4000F086FE8C
:1044A00034214DF21D4000F081FE02214DF21E40EC
:1044B00000F07CFE67214DF21F4000F077FE0221E4
:1044C0004DF2204000F072FE84214DF2214000F0B8
:1044D0006DFE02214DF2224000F068FEA4214DF253
:1044E000234000F063FE02214DF2244000F05EFE06
:1044F000B7214DF2254000F059FE02214DF2264031
:1045000000F054FECF214DF2274000F04FFE022173
:104510004DF2284000F04AFEDE214DF2294000F025
:1045200045FE02214DF22A4000F040FEF2214DF2FC
:104530002B4000F03BFE02214DF22C4000F036FEF5
:10454000FE214DF22D4000F031FE03214DF22E40B0
:1045500000F02CFE10214DF22F4000F027FE032129
:104560004DF2304000F022FE33214DF2314000F098
:104570001DFE03214DF2324000F018FE6D214DF278
:10458000334000F013FE00214FF4554000F00EFEC2
:1045900033214DF2015000F009FE00214DF202508E
:1045A00000F004FE34214DF2035000F0FFFD002125
:1045B0004DF2045000F0FAFD3A214DF2055000F0A2
:1045C000F5FD00214DF2065000F0F0FD4A214DF2BC
:1045D000075000F0EBFD00214DF2085000F0E6FD21
:1045E0005C214DF2095000F0E1FD00214DF20A502E
:1045F00000F0DCFD81214DF20B5000F0D7FD0021D1
:104600004DF20C5000F0D2FDA6214DF20D5000F0FD
:10461000CDFD00214DF20E5000F0C8FDE5214DF218
:104620000F5000F0C3FD01214DF2105000F0BEFD0F
:1046300013214DF2115000F0B9FD01214DF212503D
:1046400000F0B4FD54214DF2135000F0AFFD0121F4
:104650004DF2145000F0AAFD82214DF2155000F0E9
:10466000A5FD01214DF2165000F0A0FDCA214DF22A
:10467000175000F09BFD02214DF2185000F096FDFE
:1046800000214DF2195000F091FD02214DF21A5017
:1046900000F08CFD01214DF21B5000F087FD02213E
:1046A0004DF21C5000F082FD34214DF21D5000F0FF
:1046B0007DFD02214DF21E5000F078FD67214DF284
:1046C0001F5000F073FD02214DF2205000F06EFDEE
:1046D00084214DF2215000F069FD02214DF222505B
:1046E00000F064FDA4214DF2235000F05FFD022193
:1046F0004DF2245000F05AFDB7214DF2255000F044
:1047000055FD02214DF2265000F050FDCF214DF213
:10471000275000F04BFD02214DF2285000F046FDDD
:10472000DE214DF2295000F041FD02214DF22A50C8
:1047300000F03CFDF2214DF22B5000F037FD02213C
:104740004DF22C5000F032FDFE214DF22D5000F0C4
:104750002DFD03214DF22E5000F028FD10214DF2C9
:104760002F5000F023FD03214DF2305000F01EFDCC
:1047700033214DF2315000F019FD03214DF232503A
:1047800000F014FD6D214DF2335000F00FFD0021BB
:104790004FF4564000F00AFD33214DF2016000F065
:1047A00005FD00214DF2026000F000FD34214DF2C4
:1047B000036000F0FBFC00214DF2046000F0F6FC09
:1047C0003A214DF2056000F0F1FC00214DF2066047
:1047D00000F0ECFC4A214DF2076000F0E7FC0021FC
:1047E0004DF2086000F0E2FC5C214DF2096000F03F
:1047F000DDFC00214DF20A6000F0D8FC81214DF271
:104800000B6000F0D3FC00214DF20C6000F0CEFCF8
:10481000A6214DF20D6000F0C9FC00214DF20E60A2
:1048200000F0C4FCE5214DF20F6000F0BFFC012157
:104830004DF2106000F0BAFC13214DF2116000F04F
:10484000B5FC01214DF2126000F0B0FC54214DF294
:10485000136000F0ABFC01214DF2146000F0A6FCE7
:1048600082214DF2156000F0A1FC01214DF216608D
:1048700000F09CFCCA214DF2176000F097FC022169
:104880004DF2186000F092FC00214DF2196000F02A
:104890008DFC02214DF21A6000F088FC01214DF2DE
:1048A0001B6000F083FC02214DF21C6000F07EFCD6
:1048B00034214DF21D6000F079FC02214DF21E60A2
:1048C00000F074FC67214DF21F6000F06FFC0221C4
:1048D0004DF2206000F06AFC84214DF2216000F06E
:1048E00065FC02214DF2226000F060FCA4214DF233
:1048F000236000F05BFC02214DF2246000F056FCC6
:10490000B7214DF2256000F051FC02214DF22660E6
:1049100000F04CFCCF214DF2276000F047FC022153
:104920004DF2286000F042FCDE214DF2296000F0DB
:104930003DFC02214DF22A6000F038FCF2214DF2DC
:104940002B6000F033FC02214DF22C6000F02EFCB5
:10495000FE214DF22D6000F029FC03214DF22E6066
:1049600000F024FC10214DF22F6000F01FFC032109
:104970004DF2306000F01AFC33214DF2316000F04E
:1049800015FC03214DF2326000F010FC6D214DF258
:10499000336000F00BFC5521184600F007FCAA21FB
:1049A000504600F003FC5221584600F0FFFB08215E
:1049B0004FF2030000F0FAFB00214FF2040000F078
:1049C000F5FBCC214FF4314000F0F0FB00214BF21D
:1049D000011000F0EBFB05214FF4364000F0E6FB40
:1049E00070214FF4374000F0E1FB70214BF2017071
:1049F00000F0DCFB01214FF4384000F0D7FB03212D
:104A00004BF6010000F0D2FB03214BF6020000F050
:104A1000CDFB03214BF6030000F0C8FB02214FF44D
:104A20003C4000F0C3FB00214BF6014000F0BEFB10
:104A300000214BF6024000F0B9FBD0214FF4494071
:104A400000F0B4FB02214CF6011000F0AFFB502146
:104A50004CF6021000F0AAFB50214CF6031000F0B7
:104A6000A5FB50214CF6041000F0A0FB00214FF4F0
:104A7000545000F09BFB55214FF4685000F096FB1A
:104A80004FF4885000F07CFB782002F05AFA4FF483
:104A9000245000F075FBB0E04045FCD1E22000F06E
:104AA0006FFB1D2000F060FB022000F05DFB042086
:104AB00000F05AFB642002F044FAE02000F060FBB2
:104AC000012000F051FBE02000F05AFB032000F031
:104AD0004BFB012000F054FBE62000F051FB2F209F
:104AE00000F042FBFF2000F03FFBFF2000F03CFB0A
:104AF000B02000F045FB202000F036FB002000F045
:104B000033FB032000F030FB40F21F3000F02CFBA1
:104B1000012000F029FB40F2DF1000F025FB00200F
:104B200000F022FBB42000F02BFB042000F01CFB63
:104B300040F21F4000F018FB002000F015FB2E2073
:104B400000F012FB002000F00FFB002000F00CFB37
:104B5000002000F009FB002000F006FBB62000F06A
:104B60000FFB022000F000FB4FF4037000F0FCFA92
:104B7000002000F0F9FA172000F0F6FA152000F0F6
:104B8000F3FA002000F0F0FA002000F0EDFAF02037
:104B900000F0F6FA032000F0E7FA292000F0F0FA1E
:104BA000D02000F0EDFA002000F0DEFABE2000F088
:104BB000E7FA052000F0D8FAFE2000F0D5FA01202F
:104BC00000F0D2FA002000F0CFFA002000F0CCFA7A
:104BD000002000F0C9FAB82000F0D2FA032000F05B
:104BE000C3FA012000F0C0FABA2000F0C9FA01208F
:104BF00000F0BAFA642000F03BF8A088B04205D07B
:104C0000B84203D0A84201D0404519D14FF020400E
:104C1000D0F8041121F00F01C0F80411D0F80411EC
:104C200021F47061C0F80411D0F8041141F00401BE
:104C3000C0F80411D0F8041141F48061C0F80411E7
:104C40000020FDF7C1FD4846FDF7A4FD0249012003
:104C5000C1F89402BDE8F09F00804042034808B5C7
:104C60000088ADF80000BDF8000008BD0000086035
:104C700010B50246BE2000F083FA052000F074FA59
:104C80001046FBF701FC9FED0C1B53EC112BFBF7BF
:104C900089FBFBF706FC80B200F066FA012000F009
:104CA00063FAFF2000F060FA002000F05DFABDE832
:104CB0001040002000F058BA6666666666660440DA
:104CC000F0B56C4C00232146A279898841F6631621
:104CD000012A01D01AB11BE0B14202D118E0B14261
:104CE00016D1082814D2DFE800F00406080A0C0EDA
:104CF000101206200CE007200AE0042008E005203E
:104D000006E0012004E0002002E0032000E0022091
:104D1000A1F5134745F2103245F21055413F05D039
:104D2000914203D0A94201D0B14277D1082812D2D2
:104D3000DFE800F0110406080A0C0E1080230AE0D8
:104D4000402308E0C02306E0202304E0602302E0C3
:104D5000A02300E0E023A94202D14FF4585000E024
:104D60003620914205D0A94203D0B14201D043F090
:104D70000803194600F01AFAA188B1420AD0980631
:104D80002088628802D5904202D303E0904201D984
:104D9000228060806089A94241D100F0F1F90020B1
:104DA00000F0E2F96089401C80B200F0E9F90020CF
:104DB00000F0DAF96089801C80B200F0E1F9208807
:104DC000401EC0F30F2000F0CFF96089C01C80B2F4
:104DD00000F0D6F92078401EC0B200F0C5F9A089D5
:104DE00000F0CEF9002000F0BFF9A089401C80B28D
:104DF00000F0C6F9002000F0B7F9A089801C80B24D
:104E000000F0BEF96088401EC0F30F2000F0ACF93E
:104E1000A089C01C80B200F0B3F922E028E000F0C5
:104E2000AFF9002000F0A0F9002000F09DF92088E3
:104E3000401EC0F30F2000F097F92078401EC0B24A
:104E400000F092F9A08900F09BF9002000F08CF9A5
:104E5000002000F089F96088401EC0F30F2000F0A8
:104E600083F9A078BDE8F040401EC0B200F07CB9E4
:104E7000F0BD0000F0F30120F0B53F4A0D460446B6
:104E8000060A918810462F0A4089A1F51343413B39
:104E900028D0A1F5A643103B24D0A1F5C853633B0D
:104EA0002FD0A1F5AA43103B64D100F069F9304638
:104EB00000F05AF95089401C80B200F061F9E0B26C
:104EC00000F052F9908900F05BF9384600F04CF997
:104ED0009089401C80B200F053F9E8B2BDE8F04080
:104EE00000F042B900F04CF9304600F03DF9E0B274
:104EF00000F03AF9908900F043F9384600F034F9AF
:104F0000EBE7917929B300F03BF9304600F02CF93A
:104F1000E0B200F029F91088401EC0F30F2000F025
:104F200023F91078401EC0B200F01EF9908900F0FD
:104F300027F9384600F018F9E8B200F015F9508862
:104F4000401EC0F30F2000F00FF99078401EC0B251
:104F5000C4E71188091B491E8CB200F011F900202A
:104F600000F002F9002000F0FFF8200A00F0FCF841
:104F7000E0B2D9E7F0BD0000F0F301202DE9FF5FBA
:104F80001D460C468A46580700D0012000EBD5008C
:104F9000690810FB01F0203A00F0FF09D0B20026AA
:104FA000DFF8CCB002905FE00C2D11D0102D14D0A2
:104FB000182D17D0202D59D12E49029801EBC01081
:104FC0004FF00008875D380613D52B48026814E0BF
:104FD00002982A4900EB400008E02949029801EBB9
:104FE0000010EDE70298274900EBC00001EB8000BC
:104FF000E6E70E9828B92048426821460098FDF758
:105000004FFC7806070E641CBBF80200A4B2A04255
:1050100007D800F0DDF840F24F731BA2234924A00B
:1050200013E0A4EB0A00A84215D100985446401C96
:1050300080B20090BBF80010814213D800F0C8F88D
:105040004FF4EB6310A2194925A001F01FFBBDE846
:10505000FF5F00F0B3B808F1010000F0FF08B8F1FD
:10506000080FB0D3761CF6B24E459DD3BDE8FF9F26
:10507000F0F30120C8C90008BC00002008B20008F5
:105080007CB600086CBC00082E2E5C5372635C6D0D
:105090006F64756C655C7466746C63645C74667470
:1050A0006C63645F6172672E6300000048F900085A
:1050B0001B5B313B33316D5B202573205D20202548
:1050C0007320286C696E6520256429202D3E206898
:1050D0006569676874206F75740D0A1B5B306D001D
:1050E0001B5B313B33316D5B202573205D20202518
:1050F0007320286C696E6520256429202D3E207759
:1051000069647468206F75740D0A1B5B306D000054
:105110002DE9F84F044600F0FF0910190D46DDE9AE
:105120000AB61FFA80F8581987B2002E1AD04FF02D
:10513000000A3278A2F120005E2813D8444503D338
:1051400005EB0B004C4685B2BD420BD25B462946AF
:105150002046CDF800A0FFF711FF04EB5B0084B2FE
:10516000761CE6E7BDE8F88F01B5BDF80000ADF8A4
:105170000000BDF800000149088008BD000008607B
:1051800001B5BDF80000ADF80000BDF80000014910
:10519000088008BDFEFF07600248034900890880B7
:1051A00070470000F0F30120FEFF0760024A108004
:1051B000901C018070470000FEFF07600348002339
:1051C0001A460068194605F005BA0000A80000203C
:1051D00004480068002803D04FF0FF3105F05EBCA2
:1051E00070470000A800002010B5012005F04CF920
:1051F0000849002808600BD1FFF7EAFF112306A237
:105200000A490BA001F042FABDE81040FFF7D6BFF3
:1052100010BD0000A80000202E2E5C5372635C7449
:105220006F6F6C735C6C6F672E630000ACB100082D
:105230001B5B313B33316D5B202573205D202025C6
:105240007320286C696E6520256429202D3E206D11
:1052500075746578206D616C6C6F63206661696C34
:105260000D0A1B5B306D00000D4808B5016841F464
:10527000800101600068002200F480000090052198
:105280003B20FBF7B9FF3B20FBF7A8FF00220521DD
:105290004520FBF7B1FFBDE808404520FBF79EBF66
:1052A0003038024010B5034C0348611CFBF700FB8B
:1052B000207010BDB4F10120C8B1000800B5174836
:1052C0008FB04FF020410160154941600621816097
:1052D00000211022C160C0E904128161C161120283
:1052E0000162C0E90912C162016341638163C16364
:1052F00041640F2046228DE80700CDE90810CDE972
:1053000006100D9107AA69460448FCF745FF0028DE
:1053100001D0FBF7A8FA0FB000BD0000C4F50120D2
:10532000040100A000F04EBF00B587B0142168460C
:10533000FBF702F82248016841F080010160016832
:1053400001F080010591016841F0100101600168E0
:1053500001F010010591016841F008010160016848
:1053600001F008010591016841F004010160016844
:1053700001F004010591016841F00101016001683B
:1053800001F001010591016841F0400101600168EF
:1053900001F040010591016841F0020101600068DF
:1053A000694600F002000590202000900120019045
:1053B0000290032003900348FBF73CFD07B000BDBB
:1053C00030380240000402400648054901600021CF
:1053D00041608160C160016141610221816170476A
:1053E000002C014040F4012010B586B00024234A6F
:1053F000009401940294039404940594C2E9024039
:105400008020146190611C4BC2E900311046FCF70A
:105410003BFF48B1FFF7DCFE1B2319A21E491FA06A
:1054200001F034F9FFF7CAFE4FF48050009069464E
:105430001248FCF774FF48B1FFF7CAFE202310A200
:10544000154916A001F022F9FFF7B8FE049404A94B
:105450000A480594FCF7D0FE48B1FFF7B9FE2623B1
:1054600007A20D490DA001F011F9FFF7A7FE0348AF
:10547000FCF744FF06B010BD0004004000F401201A
:105480002E2E5C5372635C6472765C74696D5C741E
:10549000696D2E630000000084F900081B5B313B3E
:1054A00033316D5B202573205D2020257320286C0F
:1054B000696E6520256429202D3E200D0A1B5B3076
:1054C0006D0000000C4810B50A4901604FF4E1314D
:1054D0004160002181600C22C160C0E90412816139
:1054E000C161FBF79DFD002803D0BDE81040FBF72C
:1054F000BAB910BD0010014084F50120FEE7FEE7B7
:1055000010B504F04BFE05490861FDF77BF8034830
:10551000BDE810400C38FBF7E2BD00001406002087
:105520000D48D0F8880100B18047FFF7E9FFFDF78B
:1055300077F800BF03F0F6FAFBF798F900F00EF8E1
:1055400000F026F800F0A0FE04F050FA03F00EF888
:105550000A2003F085FAEDE71406002070B50B4C25
:1055600009490025607801EB8002D2F88C1119B14D
:10557000D2F8980188476078401CC0B26070032858
:1055800000D3657070BD00001406002004000020E8
:1055900010B541F2883003F0B5FA002807D0FBF7C8
:1055A000DBF8FBF72DFABDE8104000F01DBE10BD82
:1055B0000A6842624A688262D1E902231A43D1E949
:1055C00004310B43C16A1A4321F0F7011143C16250
:1055D00000207047006800F00300704708444069ED
:1055E000704700000148FCF7B1BA000040F4012008
:1055F00070B50DF1100C11439CE870002343194362
:1056000029434268314347F6FF639A430A434260A5
:10561000002070BD10B5032101600220FBF7B2FB32
:10562000002010BDD0F8800070470A688260D1E980
:1056300001231A43D1E903310B43C1681A436FF3C5
:105640000B011143C160002070470968C0F8801049
:105650000020704710B586B004463720CDE9001011
:1056600040200290002003904FF48060049069462F
:105670002046FFF7DAFF41F288323721204600F05A
:10568000BDF906B010BD000010B504460A4886B04A
:1056900001432920CDE90010402002900020039012
:1056A0004FF48060049069462046FFF7BEFF204615
:1056B00000F05CFA06B010BD0000108010B586B096
:1056C00004461020CDE900104020029000200390F5
:1056D0004FF48060049069462046FFF7A6FF41F230
:1056E00088321021204600F089F906B010BD10B5AF
:1056F00086B004460620CDE900104020029000202C
:1057000003904FF48060049069462046FFF78DFFB8
:1057100041F288320621204600F070F906B010BD33
:1057200030B585B000240546009401944FF48060A4
:105730000294CDE9034069462846FFF776FF0B48FF
:105740004FF4FA510068B0FBF1F041F28831484360
:10575000401E03D24FF0004005B030BD696B090612
:10576000F6D5C520A8632046F6E7000034000020E7
:1057700070B585B004464FF4D570009001A908209B
:105780004025002681E86100C0010490694620465A
:10579000FFF74BFF12484FF4FA510068B0FBF1F0ED
:1057A00041F288314843401E03D24FF0004005B01B
:1057B00070BD616B11F0450FF5D00905F3D4606B36
:1057C000400701D5042003E0606BC00702D0012030
:1057D000A063ECE7606B400600D5A5633046E6E7C2
:1057E0003400002010B586B004461220CDE9001028
:1057F00040200290002003904FF48060049069469E
:105800002046FFF712FF41F288321221204600F0B5
:10581000F5F806B010BD10B586B004461120CDE9EC
:10582000001040200290002003904FF4806004900C
:1058300069462046FFF7F9FE41F2883211212046E1
:1058400000F0DCF806B010BD10B586B004460720A5
:10585000CDE9002040200290002003904FF48060AA
:10586000049069462046FFF7E0FE41F288320721A6
:10587000204600F0C3F806B010BD10B586B004464F
:1058800000210220CDE90010C020CDE902014FF433
:105890008060049069462046FFF7C7FE204600F06E
:1058A0003DF906B010BD10B586B004460920CDE91B
:1058B0000010C0200290002003904FF480600490FC
:1058C00069462046FFF7B1FE204600F027F906B0F2
:1058D00010BD10B586B0044600213320CDE900107C
:1058E0004020CDE902010001049069462046FFF7FF
:1058F0009CFE41F288323321204600F07FF806B04A
:1059000010BD10B586B004460D20CDE90010402032
:105910000290002003904FF4806004906946204676
:10592000FFF783FE41F288320D21204600F066F831
:1059300006B010BD30B585B00C46054600210320E9
:10594000CDE900104020CDE9020100010490694634
:105950002846FFF76AFE22460321284600F028F970
:1059600005B030BD10B586B0044600210C20CDE94D
:1059700000104020CDE90201000104906946204654
:10598000FFF753FE034A0C21204600F037F806B01B
:1059900010BD000000E1F50510B586B004461920E1
:1059A000CDE9001040200290002003904FF4806069
:1059B000049069462046FFF738FE41F288321921EB
:1059C000204600F01BF806B010BD10B586B00446A6
:1059D0001820CDE9001040200290002003904FF4E1
:1059E0008060049069462046FFF71FFE41F288322E
:1059F0001821204600F002F806B010BD454B10B546
:105A00001B684FF4FA54B3FBF4F353435B1E02D20A
:105A10004FF0004010BD426B12F0450FF6D012055A
:105A2000F4D4426B520703D504218163084610BDAC
:105A3000426BD20702D00121816305E0C522826357
:105A40000269D2B28A4201D0012010BD0021FFF7C5
:105A5000C5FD3149084201D1002010BD002802DAFD
:105A60004FF0007010BD410001D5402010BD8100F5
:105A700001D5802010BDC10002D54FF4807010BD4B
:105A8000010102D54FF4007010BD410102D54FF461
:105A9000806010BDC10102D54FF4006010BD01024D
:105AA00002D54FF4805010BD410202D54FF4005092
:105AB00010BD810202D54FF4804010BDC10202D555
:105AC0004FF4004010BD410302D54FF4003010BD2B
:105AD000810302D54FF4802010BDC10302D54FF4DD
